

Microchip MPLAB XC8 Assembler V2.32 build 20210201212658 
                                                                                               Thu Mar 17 15:08:02 2022

Microchip MPLAB XC8 C Compiler v2.32 (Free license) build 20210201212658 Og9 
     1                           	processor	16LF1938
     2                           	pagewidth 120
     3                           	opt	flic
     4                           	psect	idataBANK1,global,class=CODE,delta=2,noexec
     5                           	psect	idataBANK2,global,class=CODE,delta=2,noexec
     6                           	psect	idataBANK3,global,class=CODE,delta=2,noexec
     7                           	psect	idataEEDATA,global,class=EEDATA,space=3,delta=2,noexec
     8                           	psect	stringtext1,global,class=STRCODE,delta=2,noexec
     9                           	psect	stringtext2,global,class=STRCODE,delta=2,noexec
    10                           	psect	stringtext3,global,class=STRCODE,delta=2,noexec
    11                           	psect	stringtext4,global,class=STRCODE,delta=2,noexec
    12                           	psect	stringtext5,global,class=STRCODE,delta=2,noexec
    13                           	psect	nvBANK0,global,class=BANK0,space=1,delta=1,noexec
    14                           	psect	nvBANK1,global,class=BANK1,space=1,delta=1,noexec
    15                           	psect	nvBANK2,global,class=BANK2,space=1,delta=1,noexec
    16                           	psect	nvBANK3,global,class=BANK3,space=1,delta=1,noexec
    17                           	psect	nvBANK4,global,class=BANK4,space=1,delta=1,noexec
    18                           	psect	stringtext6,global,class=STRCODE,delta=2,noexec
    19                           	psect	stringtext7,global,class=STRCODE,delta=2,noexec
    20                           	psect	stringtext8,global,class=STRCODE,delta=2,noexec
    21                           	psect	stringtext9,global,class=STRCODE,delta=2,noexec
    22                           	psect	stringtext10,global,class=STRCODE,delta=2,noexec
    23                           	psect	stringtext11,global,class=STRCODE,delta=2,noexec
    24                           	psect	stringtext12,global,class=STRCODE,delta=2,noexec
    25                           	psect	stringtext13,global,class=STRCODE,delta=2,noexec
    26                           	psect	stringtext14,global,class=STRCODE,delta=2,noexec
    27                           	psect	stringtext15,global,class=STRCODE,delta=2,noexec
    28                           	psect	stringtext16,global,class=STRCODE,delta=2,noexec
    29                           	psect	stringtext17,global,class=STRCODE,delta=2,noexec
    30                           	psect	stringtext18,global,class=STRCODE,delta=2,noexec
    31                           	psect	stringtext19,global,class=STRCODE,delta=2,noexec
    32                           	psect	cinit,global,class=CODE,merge=1,delta=2
    33                           	psect	dataEEDATA,global,class=EEDATA,space=3,delta=2,noexec
    34                           	psect	bssBANK0,global,class=BANK0,space=1,delta=1,noexec
    35                           	psect	bssBANK1,global,class=BANK1,space=1,delta=1,noexec
    36                           	psect	dataBANK1,global,class=BANK1,space=1,delta=1,noexec
    37                           	psect	bssBANK2,global,class=BANK2,space=1,delta=1,noexec
    38                           	psect	dataBANK2,global,class=BANK2,space=1,delta=1,noexec
    39                           	psect	bssBANK3,global,class=BANK3,space=1,delta=1,noexec
    40                           	psect	dataBANK3,global,class=BANK3,space=1,delta=1,noexec
    41                           	psect	bssBANK4,global,class=BANK4,space=1,delta=1,noexec
    42                           	psect	inittext,global,class=CODE,delta=2
    43                           	psect	clrtext,global,class=CODE,delta=2
    44                           	psect	cstackBANK1,global,class=BANK1,space=1,delta=1,noexec
    45                           	psect	cstackCOMMON,global,class=COMMON,space=1,delta=1,noexec
    46                           	psect	cstackBANK0,global,class=BANK0,space=1,delta=1,noexec
    47                           	psect	maintext,global,class=CODE,merge=1,split=1,delta=2
    48                           	psect	text1,local,class=CODE,merge=1,delta=2
    49                           	psect	text2,local,class=CODE,merge=1,delta=2
    50                           	psect	text3,local,class=CODE,merge=1,delta=2
    51                           	psect	text4,local,class=CODE,merge=1,delta=2
    52                           	psect	text5,local,class=CODE,merge=1,delta=2
    53                           	psect	text6,local,class=CODE,merge=1,delta=2
    54                           	psect	text7,local,class=CODE,merge=1,delta=2
    55                           	psect	text8,local,class=CODE,merge=1,delta=2
    56                           	psect	text9,local,class=CODE,merge=1,delta=2
    57                           	psect	text10,local,class=CODE,merge=1,delta=2
    58                           	psect	text11,local,class=CODE,merge=1,delta=2
    59                           	psect	text12,local,class=CODE,merge=1,delta=2
    60                           	psect	text13,local,class=CODE,merge=1,delta=2
    61                           	psect	text14,local,class=CODE,merge=1,delta=2
    62                           	psect	text15,local,class=CODE,merge=1,delta=2
    63                           	psect	text16,local,class=CODE,merge=1,delta=2
    64                           	psect	text17,local,class=CODE,merge=1,delta=2
    65                           	psect	text18,local,class=CODE,merge=1,delta=2
    66                           	psect	text19,local,class=CODE,merge=1,delta=2
    67                           	psect	text20,local,class=CODE,merge=1,delta=2
    68                           	psect	text21,local,class=CODE,merge=1,delta=2
    69                           	psect	text22,local,class=CODE,merge=1,delta=2
    70                           	psect	text23,local,class=CODE,merge=1,delta=2
    71                           	psect	text24,local,class=CODE,merge=1,delta=2
    72                           	psect	text25,local,class=CODE,merge=1,delta=2
    73                           	psect	text26,local,class=CODE,merge=1,delta=2
    74                           	psect	text27,local,class=CODE,merge=1,delta=2
    75                           	psect	text28,local,class=CODE,merge=1,delta=2
    76                           	psect	text29,local,class=CODE,merge=1,delta=2
    77                           	psect	text30,local,class=CODE,merge=1,delta=2
    78                           	psect	text31,local,class=CODE,merge=1,delta=2
    79                           	psect	text32,local,class=CODE,merge=1,delta=2
    80                           	psect	text33,local,class=CODE,merge=1,delta=2
    81                           	psect	text34,local,class=CODE,merge=1,delta=2
    82                           	psect	text35,local,class=CODE,merge=1,delta=2
    83                           	psect	text36,local,class=CODE,merge=1,delta=2
    84                           	psect	text37,local,class=CODE,merge=1,delta=2
    85                           	psect	text38,local,class=CODE,merge=1,delta=2
    86                           	psect	text39,local,class=CODE,merge=1,delta=2
    87                           	psect	text40,local,class=CODE,merge=1,delta=2
    88                           	psect	text41,local,class=CODE,merge=1,delta=2
    89                           	psect	text42,local,class=CODE,merge=1,delta=2
    90                           	psect	text43,local,class=CODE,merge=1,delta=2
    91                           	psect	text44,local,class=CODE,merge=1,delta=2
    92                           	psect	text45,local,class=CODE,merge=1,delta=2
    93                           	psect	text46,local,class=CODE,merge=1,delta=2
    94                           	psect	text47,local,class=CODE,merge=1,delta=2
    95                           	psect	text48,local,class=CODE,merge=1,delta=2
    96                           	psect	text49,local,class=CODE,merge=1,delta=2
    97                           	psect	text50,local,class=CODE,merge=1,delta=2
    98                           	psect	text51,local,class=CODE,merge=1,delta=2
    99                           	psect	text52,local,class=CODE,merge=1,delta=2
   100                           	psect	text53,local,class=CODE,merge=1,delta=2
   101                           	psect	text54,local,class=CODE,merge=1,delta=2
   102                           	psect	text55,local,class=CODE,merge=1,delta=2
   103                           	psect	text56,local,class=CODE,merge=1,delta=2,group=1
   104                           	psect	text57,local,class=CODE,merge=1,delta=2
   105                           	psect	text58,local,class=CODE,merge=1,delta=2,group=2
   106                           	psect	text59,local,class=CODE,merge=1,delta=2
   107                           	psect	text60,local,class=CODE,merge=1,delta=2
   108                           	psect	text61,local,class=CODE,merge=1,delta=2
   109                           	psect	text62,local,class=CODE,merge=1,delta=2
   110                           	psect	text63,local,class=CODE,merge=1,delta=2
   111                           	psect	text64,local,class=CODE,merge=1,delta=2
   112                           	psect	text65,local,class=CODE,merge=1,delta=2
   113                           	psect	text66,local,class=CODE,merge=1,delta=2
   114                           	psect	text67,local,class=CODE,merge=1,delta=2
   115                           	psect	text68,local,class=CODE,merge=1,delta=2
   116                           	psect	text69,local,class=CODE,merge=1,delta=2
   117                           	psect	text70,local,class=CODE,merge=1,delta=2,group=1
   118                           	psect	text71,local,class=CODE,merge=1,delta=2
   119                           	psect	text72,local,class=CODE,merge=1,delta=2
   120                           	psect	text73,local,class=CODE,merge=1,delta=2
   121                           	psect	text74,local,class=CODE,merge=1,delta=2
   122                           	psect	text75,local,class=CODE,merge=1,delta=2
   123                           	psect	text76,local,class=CODE,merge=1,delta=2
   124                           	psect	text77,local,class=CODE,merge=1,delta=2
   125                           	psect	text78,local,class=CODE,merge=1,delta=2,group=1
   126                           	psect	text79,local,class=CODE,merge=1,delta=2
   127                           	psect	text80,local,class=CODE,merge=1,delta=2,group=1
   128                           	psect	text81,local,class=CODE,merge=1,delta=2,group=1
   129                           	psect	text82,local,class=CODE,merge=1,delta=2
   130                           	psect	text83,local,class=CODE,merge=1,delta=2
   131                           	psect	text84,local,class=CODE,merge=1,delta=2,group=1
   132                           	psect	text85,local,class=CODE,merge=1,delta=2
   133                           	psect	text86,local,class=CODE,merge=1,delta=2
   134                           	psect	text87,local,class=CODE,merge=1,delta=2
   135                           	psect	text88,local,class=CODE,merge=1,delta=2
   136                           	psect	text89,local,class=CODE,merge=1,delta=2
   137                           	psect	text90,local,class=CODE,merge=1,delta=2
   138                           	psect	text91,local,class=CODE,merge=1,delta=2
   139                           	psect	text92,local,class=CODE,merge=1,delta=2
   140                           	psect	text93,local,class=CODE,merge=1,delta=2,group=1
   141                           	psect	text94,local,class=CODE,merge=1,delta=2
   142                           	psect	text95,local,class=CODE,merge=1,delta=2
   143                           	psect	text96,local,class=CODE,merge=1,delta=2
   144                           	psect	text97,local,class=CODE,merge=1,delta=2
   145                           	psect	text98,local,class=CODE,merge=1,delta=2
   146                           	psect	text99,local,class=CODE,merge=1,delta=2
   147                           	psect	text100,local,class=CODE,merge=1,delta=2
   148                           	psect	text101,local,class=CODE,merge=1,delta=2
   149                           	psect	text102,local,class=CODE,merge=1,delta=2
   150                           	psect	text103,local,class=CODE,merge=1,delta=2
   151                           	psect	text104,local,class=CODE,merge=1,delta=2
   152                           	psect	text105,local,class=CODE,merge=1,delta=2
   153                           	psect	text106,local,class=CODE,merge=1,delta=2
   154                           	psect	intentry,global,class=CODE,delta=2
   155                           	psect	config,global,abs,ovrld,class=CONFIG,space=4,delta=2,noexec
   156                           	dabs	1,0x620,48
   157                           	dabs	1,0x5A8,72
   158                           	dabs	1,0xA0,16,_SYS_RamData
   159                           	dabs	1,0x2378,0,_Hour
   160                           	dabs	1,0x7E,2
   161  0000                     
   162                           ; Version 2.32
   163                           ; Generated 02/02/2021 GMT
   164                           ; 
   165                           ; Copyright © 2021, Microchip Technology Inc. and its subsidiaries ("Microchip")
   166                           ; All rights reserved.
   167                           ; 
   168                           ; This software is developed by Microchip Technology Inc. and its subsidiaries ("Microch
      +                          ip").
   169                           ; 
   170                           ; Redistribution and use in source and binary forms, with or without modification, are
   171                           ; permitted provided that the following conditions are met:
   172                           ; 
   173                           ;     1. Redistributions of source code must retain the above copyright notice, this lis
      +                          t of
   174                           ;        conditions and the following disclaimer.
   175                           ; 
   176                           ;     2. Redistributions in binary form must reproduce the above copyright notice, this 
      +                          list
   177                           ;        of conditions and the following disclaimer in the documentation and/or other
   178                           ;        materials provided with the distribution. Publication is not required when
   179                           ;        this file is used in an embedded application.
   180                           ; 
   181                           ;     3. Microchip's name may not be used to endorse or promote products derived from th
      +                          is
   182                           ;        software without specific prior written permission.
   183                           ; 
   184                           ; THIS SOFTWARE IS PROVIDED BY MICROCHIP "AS IS" AND ANY EXPRESS OR IMPLIED WARRANTIES,
   185                           ; INCLUDING, BUT NOT LIMITED TO, THE IMPLIED WARRANTIES OF MERCHANTABILITY AND FITNESS F
      +                          OR
   186                           ; PURPOSE ARE DISCLAIMED.  IN NO EVENT SHALL MICROCHIP BE LIABLE FOR ANY DIRECT, INDIREC
      +                          T,
   187                           ; INCIDENTAL, SPECIAL, EXEMPLARY, OR CONSEQUENTIAL DAMAGES (INCLUDING BUT NOT LIMITED TO
   188                           ; PROCUREMENT OF SUBSTITUTE GOODS OR SERVICES; LOSS OF USE, DATA OR PROFITS; OR BUSINESS
   189                           ; INTERRUPTION) HOWSOEVER CAUSED AND ON ANY THEORY OF LIABILITY, WHETHER IN CONTRACT, ST
      +                          RICT
   190                           ; LIABILITY, OR TORT (INCLUDING NEGLIGENCE OR OTHERWISE) ARISING IN ANY WAY OUT OF THE U
      +                          SE OF
   191                           ; THIS SOFTWARE, EVEN IF ADVISED OF THE POSSIBILITY OF SUCH DAMAGE.
   192                           ; 
   193                           ; 
   194                           ; Code-generator required, PIC16LF1938 Definitions
   195                           ; 
   196                           ; SFR Addresses
   197  0000                     	;# 
   198  0001                     	;# 
   199  0002                     	;# 
   200  0003                     	;# 
   201  0004                     	;# 
   202  0005                     	;# 
   203  0006                     	;# 
   204  0007                     	;# 
   205  0008                     	;# 
   206  0009                     	;# 
   207  000A                     	;# 
   208  000B                     	;# 
   209  000C                     	;# 
   210  000D                     	;# 
   211  000E                     	;# 
   212  0010                     	;# 
   213  0011                     	;# 
   214  0012                     	;# 
   215  0013                     	;# 
   216  0015                     	;# 
   217  0016                     	;# 
   218  0016                     	;# 
   219  0017                     	;# 
   220  0018                     	;# 
   221  0019                     	;# 
   222  001A                     	;# 
   223  001B                     	;# 
   224  001C                     	;# 
   225  001E                     	;# 
   226  001F                     	;# 
   227  008C                     	;# 
   228  008D                     	;# 
   229  008E                     	;# 
   230  0090                     	;# 
   231  0091                     	;# 
   232  0092                     	;# 
   233  0093                     	;# 
   234  0095                     	;# 
   235  0096                     	;# 
   236  0097                     	;# 
   237  0098                     	;# 
   238  0099                     	;# 
   239  009A                     	;# 
   240  009B                     	;# 
   241  009B                     	;# 
   242  009C                     	;# 
   243  009D                     	;# 
   244  009E                     	;# 
   245  010C                     	;# 
   246  010D                     	;# 
   247  010E                     	;# 
   248  0110                     	;# 
   249  0111                     	;# 
   250  0112                     	;# 
   251  0113                     	;# 
   252  0114                     	;# 
   253  0115                     	;# 
   254  0116                     	;# 
   255  0117                     	;# 
   256  0118                     	;# 
   257  0119                     	;# 
   258  011A                     	;# 
   259  011B                     	;# 
   260  011D                     	;# 
   261  018C                     	;# 
   262  018D                     	;# 
   263  0191                     	;# 
   264  0191                     	;# 
   265  0192                     	;# 
   266  0193                     	;# 
   267  0193                     	;# 
   268  0193                     	;# 
   269  0194                     	;# 
   270  0195                     	;# 
   271  0196                     	;# 
   272  0199                     	;# 
   273  019A                     	;# 
   274  019B                     	;# 
   275  019B                     	;# 
   276  019B                     	;# 
   277  019B                     	;# 
   278  019C                     	;# 
   279  019C                     	;# 
   280  019D                     	;# 
   281  019E                     	;# 
   282  019F                     	;# 
   283  020D                     	;# 
   284  0210                     	;# 
   285  0211                     	;# 
   286  0212                     	;# 
   287  0213                     	;# 
   288  0214                     	;# 
   289  0215                     	;# 
   290  0215                     	;# 
   291  0216                     	;# 
   292  0217                     	;# 
   293  0291                     	;# 
   294  0291                     	;# 
   295  0292                     	;# 
   296  0293                     	;# 
   297  0294                     	;# 
   298  0295                     	;# 
   299  0295                     	;# 
   300  0296                     	;# 
   301  0298                     	;# 
   302  0298                     	;# 
   303  0299                     	;# 
   304  029A                     	;# 
   305  029B                     	;# 
   306  029C                     	;# 
   307  029C                     	;# 
   308  029D                     	;# 
   309  029E                     	;# 
   310  029F                     	;# 
   311  0311                     	;# 
   312  0311                     	;# 
   313  0312                     	;# 
   314  0313                     	;# 
   315  0314                     	;# 
   316  0315                     	;# 
   317  0315                     	;# 
   318  0316                     	;# 
   319  0318                     	;# 
   320  0318                     	;# 
   321  0319                     	;# 
   322  031A                     	;# 
   323  031C                     	;# 
   324  031C                     	;# 
   325  031D                     	;# 
   326  031E                     	;# 
   327  0394                     	;# 
   328  0395                     	;# 
   329  0396                     	;# 
   330  0415                     	;# 
   331  0416                     	;# 
   332  0417                     	;# 
   333  041C                     	;# 
   334  041D                     	;# 
   335  041E                     	;# 
   336  0791                     	;# 
   337  0792                     	;# 
   338  0793                     	;# 
   339  0794                     	;# 
   340  0795                     	;# 
   341  0798                     	;# 
   342  0799                     	;# 
   343  07A0                     	;# 
   344  07A1                     	;# 
   345  07A3                     	;# 
   346  07A4                     	;# 
   347  07A6                     	;# 
   348  07A7                     	;# 
   349  07A9                     	;# 
   350  07AA                     	;# 
   351  0FE4                     	;# 
   352  0FE5                     	;# 
   353  0FE6                     	;# 
   354  0FE7                     	;# 
   355  0FE8                     	;# 
   356  0FE9                     	;# 
   357  0FEA                     	;# 
   358  0FEB                     	;# 
   359  0FED                     	;# 
   360  0FEE                     	;# 
   361  0FEF                     	;# 
   362  0000                     	;# 
   363  0001                     	;# 
   364  0002                     	;# 
   365  0003                     	;# 
   366  0004                     	;# 
   367  0005                     	;# 
   368  0006                     	;# 
   369  0007                     	;# 
   370  0008                     	;# 
   371  0009                     	;# 
   372  000A                     	;# 
   373  000B                     	;# 
   374  000C                     	;# 
   375  000D                     	;# 
   376  000E                     	;# 
   377  0010                     	;# 
   378  0011                     	;# 
   379  0012                     	;# 
   380  0013                     	;# 
   381  0015                     	;# 
   382  0016                     	;# 
   383  0016                     	;# 
   384  0017                     	;# 
   385  0018                     	;# 
   386  0019                     	;# 
   387  001A                     	;# 
   388  001B                     	;# 
   389  001C                     	;# 
   390  001E                     	;# 
   391  001F                     	;# 
   392  008C                     	;# 
   393  008D                     	;# 
   394  008E                     	;# 
   395  0090                     	;# 
   396  0091                     	;# 
   397  0092                     	;# 
   398  0093                     	;# 
   399  0095                     	;# 
   400  0096                     	;# 
   401  0097                     	;# 
   402  0098                     	;# 
   403  0099                     	;# 
   404  009A                     	;# 
   405  009B                     	;# 
   406  009B                     	;# 
   407  009C                     	;# 
   408  009D                     	;# 
   409  009E                     	;# 
   410  010C                     	;# 
   411  010D                     	;# 
   412  010E                     	;# 
   413  0110                     	;# 
   414  0111                     	;# 
   415  0112                     	;# 
   416  0113                     	;# 
   417  0114                     	;# 
   418  0115                     	;# 
   419  0116                     	;# 
   420  0117                     	;# 
   421  0118                     	;# 
   422  0119                     	;# 
   423  011A                     	;# 
   424  011B                     	;# 
   425  011D                     	;# 
   426  018C                     	;# 
   427  018D                     	;# 
   428  0191                     	;# 
   429  0191                     	;# 
   430  0192                     	;# 
   431  0193                     	;# 
   432  0193                     	;# 
   433  0193                     	;# 
   434  0194                     	;# 
   435  0195                     	;# 
   436  0196                     	;# 
   437  0199                     	;# 
   438  019A                     	;# 
   439  019B                     	;# 
   440  019B                     	;# 
   441  019B                     	;# 
   442  019B                     	;# 
   443  019C                     	;# 
   444  019C                     	;# 
   445  019D                     	;# 
   446  019E                     	;# 
   447  019F                     	;# 
   448  020D                     	;# 
   449  0210                     	;# 
   450  0211                     	;# 
   451  0212                     	;# 
   452  0213                     	;# 
   453  0214                     	;# 
   454  0215                     	;# 
   455  0215                     	;# 
   456  0216                     	;# 
   457  0217                     	;# 
   458  0291                     	;# 
   459  0291                     	;# 
   460  0292                     	;# 
   461  0293                     	;# 
   462  0294                     	;# 
   463  0295                     	;# 
   464  0295                     	;# 
   465  0296                     	;# 
   466  0298                     	;# 
   467  0298                     	;# 
   468  0299                     	;# 
   469  029A                     	;# 
   470  029B                     	;# 
   471  029C                     	;# 
   472  029C                     	;# 
   473  029D                     	;# 
   474  029E                     	;# 
   475  029F                     	;# 
   476  0311                     	;# 
   477  0311                     	;# 
   478  0312                     	;# 
   479  0313                     	;# 
   480  0314                     	;# 
   481  0315                     	;# 
   482  0315                     	;# 
   483  0316                     	;# 
   484  0318                     	;# 
   485  0318                     	;# 
   486  0319                     	;# 
   487  031A                     	;# 
   488  031C                     	;# 
   489  031C                     	;# 
   490  031D                     	;# 
   491  031E                     	;# 
   492  0394                     	;# 
   493  0395                     	;# 
   494  0396                     	;# 
   495  0415                     	;# 
   496  0416                     	;# 
   497  0417                     	;# 
   498  041C                     	;# 
   499  041D                     	;# 
   500  041E                     	;# 
   501  0791                     	;# 
   502  0792                     	;# 
   503  0793                     	;# 
   504  0794                     	;# 
   505  0795                     	;# 
   506  0798                     	;# 
   507  0799                     	;# 
   508  07A0                     	;# 
   509  07A1                     	;# 
   510  07A3                     	;# 
   511  07A4                     	;# 
   512  07A6                     	;# 
   513  07A7                     	;# 
   514  07A9                     	;# 
   515  07AA                     	;# 
   516  0FE4                     	;# 
   517  0FE5                     	;# 
   518  0FE6                     	;# 
   519  0FE7                     	;# 
   520  0FE8                     	;# 
   521  0FE9                     	;# 
   522  0FEA                     	;# 
   523  0FEB                     	;# 
   524  0FED                     	;# 
   525  0FEE                     	;# 
   526  0FEF                     	;# 
   527  0000                     	;# 
   528  0001                     	;# 
   529  0002                     	;# 
   530  0003                     	;# 
   531  0004                     	;# 
   532  0005                     	;# 
   533  0006                     	;# 
   534  0007                     	;# 
   535  0008                     	;# 
   536  0009                     	;# 
   537  000A                     	;# 
   538  000B                     	;# 
   539  000C                     	;# 
   540  000D                     	;# 
   541  000E                     	;# 
   542  0010                     	;# 
   543  0011                     	;# 
   544  0012                     	;# 
   545  0013                     	;# 
   546  0015                     	;# 
   547  0016                     	;# 
   548  0016                     	;# 
   549  0017                     	;# 
   550  0018                     	;# 
   551  0019                     	;# 
   552  001A                     	;# 
   553  001B                     	;# 
   554  001C                     	;# 
   555  001E                     	;# 
   556  001F                     	;# 
   557  008C                     	;# 
   558  008D                     	;# 
   559  008E                     	;# 
   560  0090                     	;# 
   561  0091                     	;# 
   562  0092                     	;# 
   563  0093                     	;# 
   564  0095                     	;# 
   565  0096                     	;# 
   566  0097                     	;# 
   567  0098                     	;# 
   568  0099                     	;# 
   569  009A                     	;# 
   570  009B                     	;# 
   571  009B                     	;# 
   572  009C                     	;# 
   573  009D                     	;# 
   574  009E                     	;# 
   575  010C                     	;# 
   576  010D                     	;# 
   577  010E                     	;# 
   578  0110                     	;# 
   579  0111                     	;# 
   580  0112                     	;# 
   581  0113                     	;# 
   582  0114                     	;# 
   583  0115                     	;# 
   584  0116                     	;# 
   585  0117                     	;# 
   586  0118                     	;# 
   587  0119                     	;# 
   588  011A                     	;# 
   589  011B                     	;# 
   590  011D                     	;# 
   591  018C                     	;# 
   592  018D                     	;# 
   593  0191                     	;# 
   594  0191                     	;# 
   595  0192                     	;# 
   596  0193                     	;# 
   597  0193                     	;# 
   598  0193                     	;# 
   599  0194                     	;# 
   600  0195                     	;# 
   601  0196                     	;# 
   602  0199                     	;# 
   603  019A                     	;# 
   604  019B                     	;# 
   605  019B                     	;# 
   606  019B                     	;# 
   607  019B                     	;# 
   608  019C                     	;# 
   609  019C                     	;# 
   610  019D                     	;# 
   611  019E                     	;# 
   612  019F                     	;# 
   613  020D                     	;# 
   614  0210                     	;# 
   615  0211                     	;# 
   616  0212                     	;# 
   617  0213                     	;# 
   618  0214                     	;# 
   619  0215                     	;# 
   620  0215                     	;# 
   621  0216                     	;# 
   622  0217                     	;# 
   623  0291                     	;# 
   624  0291                     	;# 
   625  0292                     	;# 
   626  0293                     	;# 
   627  0294                     	;# 
   628  0295                     	;# 
   629  0295                     	;# 
   630  0296                     	;# 
   631  0298                     	;# 
   632  0298                     	;# 
   633  0299                     	;# 
   634  029A                     	;# 
   635  029B                     	;# 
   636  029C                     	;# 
   637  029C                     	;# 
   638  029D                     	;# 
   639  029E                     	;# 
   640  029F                     	;# 
   641  0311                     	;# 
   642  0311                     	;# 
   643  0312                     	;# 
   644  0313                     	;# 
   645  0314                     	;# 
   646  0315                     	;# 
   647  0315                     	;# 
   648  0316                     	;# 
   649  0318                     	;# 
   650  0318                     	;# 
   651  0319                     	;# 
   652  031A                     	;# 
   653  031C                     	;# 
   654  031C                     	;# 
   655  031D                     	;# 
   656  031E                     	;# 
   657  0394                     	;# 
   658  0395                     	;# 
   659  0396                     	;# 
   660  0415                     	;# 
   661  0416                     	;# 
   662  0417                     	;# 
   663  041C                     	;# 
   664  041D                     	;# 
   665  041E                     	;# 
   666  0791                     	;# 
   667  0792                     	;# 
   668  0793                     	;# 
   669  0794                     	;# 
   670  0795                     	;# 
   671  0798                     	;# 
   672  0799                     	;# 
   673  07A0                     	;# 
   674  07A1                     	;# 
   675  07A3                     	;# 
   676  07A4                     	;# 
   677  07A6                     	;# 
   678  07A7                     	;# 
   679  07A9                     	;# 
   680  07AA                     	;# 
   681  0FE4                     	;# 
   682  0FE5                     	;# 
   683  0FE6                     	;# 
   684  0FE7                     	;# 
   685  0FE8                     	;# 
   686  0FE9                     	;# 
   687  0FEA                     	;# 
   688  0FEB                     	;# 
   689  0FED                     	;# 
   690  0FEE                     	;# 
   691  0FEF                     	;# 
   692  0000                     	;# 
   693  0001                     	;# 
   694  0002                     	;# 
   695  0003                     	;# 
   696  0004                     	;# 
   697  0005                     	;# 
   698  0006                     	;# 
   699  0007                     	;# 
   700  0008                     	;# 
   701  0009                     	;# 
   702  000A                     	;# 
   703  000B                     	;# 
   704  000C                     	;# 
   705  000D                     	;# 
   706  000E                     	;# 
   707  0010                     	;# 
   708  0011                     	;# 
   709  0012                     	;# 
   710  0013                     	;# 
   711  0015                     	;# 
   712  0016                     	;# 
   713  0016                     	;# 
   714  0017                     	;# 
   715  0018                     	;# 
   716  0019                     	;# 
   717  001A                     	;# 
   718  001B                     	;# 
   719  001C                     	;# 
   720  001E                     	;# 
   721  001F                     	;# 
   722  008C                     	;# 
   723  008D                     	;# 
   724  008E                     	;# 
   725  0090                     	;# 
   726  0091                     	;# 
   727  0092                     	;# 
   728  0093                     	;# 
   729  0095                     	;# 
   730  0096                     	;# 
   731  0097                     	;# 
   732  0098                     	;# 
   733  0099                     	;# 
   734  009A                     	;# 
   735  009B                     	;# 
   736  009B                     	;# 
   737  009C                     	;# 
   738  009D                     	;# 
   739  009E                     	;# 
   740  010C                     	;# 
   741  010D                     	;# 
   742  010E                     	;# 
   743  0110                     	;# 
   744  0111                     	;# 
   745  0112                     	;# 
   746  0113                     	;# 
   747  0114                     	;# 
   748  0115                     	;# 
   749  0116                     	;# 
   750  0117                     	;# 
   751  0118                     	;# 
   752  0119                     	;# 
   753  011A                     	;# 
   754  011B                     	;# 
   755  011D                     	;# 
   756  018C                     	;# 
   757  018D                     	;# 
   758  0191                     	;# 
   759  0191                     	;# 
   760  0192                     	;# 
   761  0193                     	;# 
   762  0193                     	;# 
   763  0193                     	;# 
   764  0194                     	;# 
   765  0195                     	;# 
   766  0196                     	;# 
   767  0199                     	;# 
   768  019A                     	;# 
   769  019B                     	;# 
   770  019B                     	;# 
   771  019B                     	;# 
   772  019B                     	;# 
   773  019C                     	;# 
   774  019C                     	;# 
   775  019D                     	;# 
   776  019E                     	;# 
   777  019F                     	;# 
   778  020D                     	;# 
   779  0210                     	;# 
   780  0211                     	;# 
   781  0212                     	;# 
   782  0213                     	;# 
   783  0214                     	;# 
   784  0215                     	;# 
   785  0215                     	;# 
   786  0216                     	;# 
   787  0217                     	;# 
   788  0291                     	;# 
   789  0291                     	;# 
   790  0292                     	;# 
   791  0293                     	;# 
   792  0294                     	;# 
   793  0295                     	;# 
   794  0295                     	;# 
   795  0296                     	;# 
   796  0298                     	;# 
   797  0298                     	;# 
   798  0299                     	;# 
   799  029A                     	;# 
   800  029B                     	;# 
   801  029C                     	;# 
   802  029C                     	;# 
   803  029D                     	;# 
   804  029E                     	;# 
   805  029F                     	;# 
   806  0311                     	;# 
   807  0311                     	;# 
   808  0312                     	;# 
   809  0313                     	;# 
   810  0314                     	;# 
   811  0315                     	;# 
   812  0315                     	;# 
   813  0316                     	;# 
   814  0318                     	;# 
   815  0318                     	;# 
   816  0319                     	;# 
   817  031A                     	;# 
   818  031C                     	;# 
   819  031C                     	;# 
   820  031D                     	;# 
   821  031E                     	;# 
   822  0394                     	;# 
   823  0395                     	;# 
   824  0396                     	;# 
   825  0415                     	;# 
   826  0416                     	;# 
   827  0417                     	;# 
   828  041C                     	;# 
   829  041D                     	;# 
   830  041E                     	;# 
   831  0791                     	;# 
   832  0792                     	;# 
   833  0793                     	;# 
   834  0794                     	;# 
   835  0795                     	;# 
   836  0798                     	;# 
   837  0799                     	;# 
   838  07A0                     	;# 
   839  07A1                     	;# 
   840  07A3                     	;# 
   841  07A4                     	;# 
   842  07A6                     	;# 
   843  07A7                     	;# 
   844  07A9                     	;# 
   845  07AA                     	;# 
   846  0FE4                     	;# 
   847  0FE5                     	;# 
   848  0FE6                     	;# 
   849  0FE7                     	;# 
   850  0FE8                     	;# 
   851  0FE9                     	;# 
   852  0FEA                     	;# 
   853  0FEB                     	;# 
   854  0FED                     	;# 
   855  0FEE                     	;# 
   856  0FEF                     	;# 
   857  0000                     	;# 
   858  0001                     	;# 
   859  0002                     	;# 
   860  0003                     	;# 
   861  0004                     	;# 
   862  0005                     	;# 
   863  0006                     	;# 
   864  0007                     	;# 
   865  0008                     	;# 
   866  0009                     	;# 
   867  000A                     	;# 
   868  000B                     	;# 
   869  000C                     	;# 
   870  000D                     	;# 
   871  000E                     	;# 
   872  0010                     	;# 
   873  0011                     	;# 
   874  0012                     	;# 
   875  0013                     	;# 
   876  0015                     	;# 
   877  0016                     	;# 
   878  0016                     	;# 
   879  0017                     	;# 
   880  0018                     	;# 
   881  0019                     	;# 
   882  001A                     	;# 
   883  001B                     	;# 
   884  001C                     	;# 
   885  001E                     	;# 
   886  001F                     	;# 
   887  008C                     	;# 
   888  008D                     	;# 
   889  008E                     	;# 
   890  0090                     	;# 
   891  0091                     	;# 
   892  0092                     	;# 
   893  0093                     	;# 
   894  0095                     	;# 
   895  0096                     	;# 
   896  0097                     	;# 
   897  0098                     	;# 
   898  0099                     	;# 
   899  009A                     	;# 
   900  009B                     	;# 
   901  009B                     	;# 
   902  009C                     	;# 
   903  009D                     	;# 
   904  009E                     	;# 
   905  010C                     	;# 
   906  010D                     	;# 
   907  010E                     	;# 
   908  0110                     	;# 
   909  0111                     	;# 
   910  0112                     	;# 
   911  0113                     	;# 
   912  0114                     	;# 
   913  0115                     	;# 
   914  0116                     	;# 
   915  0117                     	;# 
   916  0118                     	;# 
   917  0119                     	;# 
   918  011A                     	;# 
   919  011B                     	;# 
   920  011D                     	;# 
   921  018C                     	;# 
   922  018D                     	;# 
   923  0191                     	;# 
   924  0191                     	;# 
   925  0192                     	;# 
   926  0193                     	;# 
   927  0193                     	;# 
   928  0193                     	;# 
   929  0194                     	;# 
   930  0195                     	;# 
   931  0196                     	;# 
   932  0199                     	;# 
   933  019A                     	;# 
   934  019B                     	;# 
   935  019B                     	;# 
   936  019B                     	;# 
   937  019B                     	;# 
   938  019C                     	;# 
   939  019C                     	;# 
   940  019D                     	;# 
   941  019E                     	;# 
   942  019F                     	;# 
   943  020D                     	;# 
   944  0210                     	;# 
   945  0211                     	;# 
   946  0212                     	;# 
   947  0213                     	;# 
   948  0214                     	;# 
   949  0215                     	;# 
   950  0215                     	;# 
   951  0216                     	;# 
   952  0217                     	;# 
   953  0291                     	;# 
   954  0291                     	;# 
   955  0292                     	;# 
   956  0293                     	;# 
   957  0294                     	;# 
   958  0295                     	;# 
   959  0295                     	;# 
   960  0296                     	;# 
   961  0298                     	;# 
   962  0298                     	;# 
   963  0299                     	;# 
   964  029A                     	;# 
   965  029B                     	;# 
   966  029C                     	;# 
   967  029C                     	;# 
   968  029D                     	;# 
   969  029E                     	;# 
   970  029F                     	;# 
   971  0311                     	;# 
   972  0311                     	;# 
   973  0312                     	;# 
   974  0313                     	;# 
   975  0314                     	;# 
   976  0315                     	;# 
   977  0315                     	;# 
   978  0316                     	;# 
   979  0318                     	;# 
   980  0318                     	;# 
   981  0319                     	;# 
   982  031A                     	;# 
   983  031C                     	;# 
   984  031C                     	;# 
   985  031D                     	;# 
   986  031E                     	;# 
   987  0394                     	;# 
   988  0395                     	;# 
   989  0396                     	;# 
   990  0415                     	;# 
   991  0416                     	;# 
   992  0417                     	;# 
   993  041C                     	;# 
   994  041D                     	;# 
   995  041E                     	;# 
   996  0791                     	;# 
   997  0792                     	;# 
   998  0793                     	;# 
   999  0794                     	;# 
  1000  0795                     	;# 
  1001  0798                     	;# 
  1002  0799                     	;# 
  1003  07A0                     	;# 
  1004  07A1                     	;# 
  1005  07A3                     	;# 
  1006  07A4                     	;# 
  1007  07A6                     	;# 
  1008  07A7                     	;# 
  1009  07A9                     	;# 
  1010  07AA                     	;# 
  1011  0FE4                     	;# 
  1012  0FE5                     	;# 
  1013  0FE6                     	;# 
  1014  0FE7                     	;# 
  1015  0FE8                     	;# 
  1016  0FE9                     	;# 
  1017  0FEA                     	;# 
  1018  0FEB                     	;# 
  1019  0FED                     	;# 
  1020  0FEE                     	;# 
  1021  0FEF                     	;# 
  1022  0000                     	;# 
  1023  0001                     	;# 
  1024  0002                     	;# 
  1025  0003                     	;# 
  1026  0004                     	;# 
  1027  0005                     	;# 
  1028  0006                     	;# 
  1029  0007                     	;# 
  1030  0008                     	;# 
  1031  0009                     	;# 
  1032  000A                     	;# 
  1033  000B                     	;# 
  1034  000C                     	;# 
  1035  000D                     	;# 
  1036  000E                     	;# 
  1037  0010                     	;# 
  1038  0011                     	;# 
  1039  0012                     	;# 
  1040  0013                     	;# 
  1041  0015                     	;# 
  1042  0016                     	;# 
  1043  0016                     	;# 
  1044  0017                     	;# 
  1045  0018                     	;# 
  1046  0019                     	;# 
  1047  001A                     	;# 
  1048  001B                     	;# 
  1049  001C                     	;# 
  1050  001E                     	;# 
  1051  001F                     	;# 
  1052  008C                     	;# 
  1053  008D                     	;# 
  1054  008E                     	;# 
  1055  0090                     	;# 
  1056  0091                     	;# 
  1057  0092                     	;# 
  1058  0093                     	;# 
  1059  0095                     	;# 
  1060  0096                     	;# 
  1061  0097                     	;# 
  1062  0098                     	;# 
  1063  0099                     	;# 
  1064  009A                     	;# 
  1065  009B                     	;# 
  1066  009B                     	;# 
  1067  009C                     	;# 
  1068  009D                     	;# 
  1069  009E                     	;# 
  1070  010C                     	;# 
  1071  010D                     	;# 
  1072  010E                     	;# 
  1073  0110                     	;# 
  1074  0111                     	;# 
  1075  0112                     	;# 
  1076  0113                     	;# 
  1077  0114                     	;# 
  1078  0115                     	;# 
  1079  0116                     	;# 
  1080  0117                     	;# 
  1081  0118                     	;# 
  1082  0119                     	;# 
  1083  011A                     	;# 
  1084  011B                     	;# 
  1085  011D                     	;# 
  1086  018C                     	;# 
  1087  018D                     	;# 
  1088  0191                     	;# 
  1089  0191                     	;# 
  1090  0192                     	;# 
  1091  0193                     	;# 
  1092  0193                     	;# 
  1093  0193                     	;# 
  1094  0194                     	;# 
  1095  0195                     	;# 
  1096  0196                     	;# 
  1097  0199                     	;# 
  1098  019A                     	;# 
  1099  019B                     	;# 
  1100  019B                     	;# 
  1101  019B                     	;# 
  1102  019B                     	;# 
  1103  019C                     	;# 
  1104  019C                     	;# 
  1105  019D                     	;# 
  1106  019E                     	;# 
  1107  019F                     	;# 
  1108  020D                     	;# 
  1109  0210                     	;# 
  1110  0211                     	;# 
  1111  0212                     	;# 
  1112  0213                     	;# 
  1113  0214                     	;# 
  1114  0215                     	;# 
  1115  0215                     	;# 
  1116  0216                     	;# 
  1117  0217                     	;# 
  1118  0291                     	;# 
  1119  0291                     	;# 
  1120  0292                     	;# 
  1121  0293                     	;# 
  1122  0294                     	;# 
  1123  0295                     	;# 
  1124  0295                     	;# 
  1125  0296                     	;# 
  1126  0298                     	;# 
  1127  0298                     	;# 
  1128  0299                     	;# 
  1129  029A                     	;# 
  1130  029B                     	;# 
  1131  029C                     	;# 
  1132  029C                     	;# 
  1133  029D                     	;# 
  1134  029E                     	;# 
  1135  029F                     	;# 
  1136  0311                     	;# 
  1137  0311                     	;# 
  1138  0312                     	;# 
  1139  0313                     	;# 
  1140  0314                     	;# 
  1141  0315                     	;# 
  1142  0315                     	;# 
  1143  0316                     	;# 
  1144  0318                     	;# 
  1145  0318                     	;# 
  1146  0319                     	;# 
  1147  031A                     	;# 
  1148  031C                     	;# 
  1149  031C                     	;# 
  1150  031D                     	;# 
  1151  031E                     	;# 
  1152  0394                     	;# 
  1153  0395                     	;# 
  1154  0396                     	;# 
  1155  0415                     	;# 
  1156  0416                     	;# 
  1157  0417                     	;# 
  1158  041C                     	;# 
  1159  041D                     	;# 
  1160  041E                     	;# 
  1161  0791                     	;# 
  1162  0792                     	;# 
  1163  0793                     	;# 
  1164  0794                     	;# 
  1165  0795                     	;# 
  1166  0798                     	;# 
  1167  0799                     	;# 
  1168  07A0                     	;# 
  1169  07A1                     	;# 
  1170  07A3                     	;# 
  1171  07A4                     	;# 
  1172  07A6                     	;# 
  1173  07A7                     	;# 
  1174  07A9                     	;# 
  1175  07AA                     	;# 
  1176  0FE4                     	;# 
  1177  0FE5                     	;# 
  1178  0FE6                     	;# 
  1179  0FE7                     	;# 
  1180  0FE8                     	;# 
  1181  0FE9                     	;# 
  1182  0FEA                     	;# 
  1183  0FEB                     	;# 
  1184  0FED                     	;# 
  1185  0FEE                     	;# 
  1186  0FEF                     	;# 
  1187  0000                     	;# 
  1188  0001                     	;# 
  1189  0002                     	;# 
  1190  0003                     	;# 
  1191  0004                     	;# 
  1192  0005                     	;# 
  1193  0006                     	;# 
  1194  0007                     	;# 
  1195  0008                     	;# 
  1196  0009                     	;# 
  1197  000A                     	;# 
  1198  000B                     	;# 
  1199  000C                     	;# 
  1200  000D                     	;# 
  1201  000E                     	;# 
  1202  0010                     	;# 
  1203  0011                     	;# 
  1204  0012                     	;# 
  1205  0013                     	;# 
  1206  0015                     	;# 
  1207  0016                     	;# 
  1208  0016                     	;# 
  1209  0017                     	;# 
  1210  0018                     	;# 
  1211  0019                     	;# 
  1212  001A                     	;# 
  1213  001B                     	;# 
  1214  001C                     	;# 
  1215  001E                     	;# 
  1216  001F                     	;# 
  1217  008C                     	;# 
  1218  008D                     	;# 
  1219  008E                     	;# 
  1220  0090                     	;# 
  1221  0091                     	;# 
  1222  0092                     	;# 
  1223  0093                     	;# 
  1224  0095                     	;# 
  1225  0096                     	;# 
  1226  0097                     	;# 
  1227  0098                     	;# 
  1228  0099                     	;# 
  1229  009A                     	;# 
  1230  009B                     	;# 
  1231  009B                     	;# 
  1232  009C                     	;# 
  1233  009D                     	;# 
  1234  009E                     	;# 
  1235  010C                     	;# 
  1236  010D                     	;# 
  1237  010E                     	;# 
  1238  0110                     	;# 
  1239  0111                     	;# 
  1240  0112                     	;# 
  1241  0113                     	;# 
  1242  0114                     	;# 
  1243  0115                     	;# 
  1244  0116                     	;# 
  1245  0117                     	;# 
  1246  0118                     	;# 
  1247  0119                     	;# 
  1248  011A                     	;# 
  1249  011B                     	;# 
  1250  011D                     	;# 
  1251  018C                     	;# 
  1252  018D                     	;# 
  1253  0191                     	;# 
  1254  0191                     	;# 
  1255  0192                     	;# 
  1256  0193                     	;# 
  1257  0193                     	;# 
  1258  0193                     	;# 
  1259  0194                     	;# 
  1260  0195                     	;# 
  1261  0196                     	;# 
  1262  0199                     	;# 
  1263  019A                     	;# 
  1264  019B                     	;# 
  1265  019B                     	;# 
  1266  019B                     	;# 
  1267  019B                     	;# 
  1268  019C                     	;# 
  1269  019C                     	;# 
  1270  019D                     	;# 
  1271  019E                     	;# 
  1272  019F                     	;# 
  1273  020D                     	;# 
  1274  0210                     	;# 
  1275  0211                     	;# 
  1276  0212                     	;# 
  1277  0213                     	;# 
  1278  0214                     	;# 
  1279  0215                     	;# 
  1280  0215                     	;# 
  1281  0216                     	;# 
  1282  0217                     	;# 
  1283  0291                     	;# 
  1284  0291                     	;# 
  1285  0292                     	;# 
  1286  0293                     	;# 
  1287  0294                     	;# 
  1288  0295                     	;# 
  1289  0295                     	;# 
  1290  0296                     	;# 
  1291  0298                     	;# 
  1292  0298                     	;# 
  1293  0299                     	;# 
  1294  029A                     	;# 
  1295  029B                     	;# 
  1296  029C                     	;# 
  1297  029C                     	;# 
  1298  029D                     	;# 
  1299  029E                     	;# 
  1300  029F                     	;# 
  1301  0311                     	;# 
  1302  0311                     	;# 
  1303  0312                     	;# 
  1304  0313                     	;# 
  1305  0314                     	;# 
  1306  0315                     	;# 
  1307  0315                     	;# 
  1308  0316                     	;# 
  1309  0318                     	;# 
  1310  0318                     	;# 
  1311  0319                     	;# 
  1312  031A                     	;# 
  1313  031C                     	;# 
  1314  031C                     	;# 
  1315  031D                     	;# 
  1316  031E                     	;# 
  1317  0394                     	;# 
  1318  0395                     	;# 
  1319  0396                     	;# 
  1320  0415                     	;# 
  1321  0416                     	;# 
  1322  0417                     	;# 
  1323  041C                     	;# 
  1324  041D                     	;# 
  1325  041E                     	;# 
  1326  0791                     	;# 
  1327  0792                     	;# 
  1328  0793                     	;# 
  1329  0794                     	;# 
  1330  0795                     	;# 
  1331  0798                     	;# 
  1332  0799                     	;# 
  1333  07A0                     	;# 
  1334  07A1                     	;# 
  1335  07A3                     	;# 
  1336  07A4                     	;# 
  1337  07A6                     	;# 
  1338  07A7                     	;# 
  1339  07A9                     	;# 
  1340  07AA                     	;# 
  1341  0FE4                     	;# 
  1342  0FE5                     	;# 
  1343  0FE6                     	;# 
  1344  0FE7                     	;# 
  1345  0FE8                     	;# 
  1346  0FE9                     	;# 
  1347  0FEA                     	;# 
  1348  0FEB                     	;# 
  1349  0FED                     	;# 
  1350  0FEE                     	;# 
  1351  0FEF                     	;# 
  1352  0000                     	;# 
  1353  0001                     	;# 
  1354  0002                     	;# 
  1355  0003                     	;# 
  1356  0004                     	;# 
  1357  0005                     	;# 
  1358  0006                     	;# 
  1359  0007                     	;# 
  1360  0008                     	;# 
  1361  0009                     	;# 
  1362  000A                     	;# 
  1363  000B                     	;# 
  1364  000C                     	;# 
  1365  000D                     	;# 
  1366  000E                     	;# 
  1367  0010                     	;# 
  1368  0011                     	;# 
  1369  0012                     	;# 
  1370  0013                     	;# 
  1371  0015                     	;# 
  1372  0016                     	;# 
  1373  0016                     	;# 
  1374  0017                     	;# 
  1375  0018                     	;# 
  1376  0019                     	;# 
  1377  001A                     	;# 
  1378  001B                     	;# 
  1379  001C                     	;# 
  1380  001E                     	;# 
  1381  001F                     	;# 
  1382  008C                     	;# 
  1383  008D                     	;# 
  1384  008E                     	;# 
  1385  0090                     	;# 
  1386  0091                     	;# 
  1387  0092                     	;# 
  1388  0093                     	;# 
  1389  0095                     	;# 
  1390  0096                     	;# 
  1391  0097                     	;# 
  1392  0098                     	;# 
  1393  0099                     	;# 
  1394  009A                     	;# 
  1395  009B                     	;# 
  1396  009B                     	;# 
  1397  009C                     	;# 
  1398  009D                     	;# 
  1399  009E                     	;# 
  1400  010C                     	;# 
  1401  010D                     	;# 
  1402  010E                     	;# 
  1403  0110                     	;# 
  1404  0111                     	;# 
  1405  0112                     	;# 
  1406  0113                     	;# 
  1407  0114                     	;# 
  1408  0115                     	;# 
  1409  0116                     	;# 
  1410  0117                     	;# 
  1411  0118                     	;# 
  1412  0119                     	;# 
  1413  011A                     	;# 
  1414  011B                     	;# 
  1415  011D                     	;# 
  1416  018C                     	;# 
  1417  018D                     	;# 
  1418  0191                     	;# 
  1419  0191                     	;# 
  1420  0192                     	;# 
  1421  0193                     	;# 
  1422  0193                     	;# 
  1423  0193                     	;# 
  1424  0194                     	;# 
  1425  0195                     	;# 
  1426  0196                     	;# 
  1427  0199                     	;# 
  1428  019A                     	;# 
  1429  019B                     	;# 
  1430  019B                     	;# 
  1431  019B                     	;# 
  1432  019B                     	;# 
  1433  019C                     	;# 
  1434  019C                     	;# 
  1435  019D                     	;# 
  1436  019E                     	;# 
  1437  019F                     	;# 
  1438  020D                     	;# 
  1439  0210                     	;# 
  1440  0211                     	;# 
  1441  0212                     	;# 
  1442  0213                     	;# 
  1443  0214                     	;# 
  1444  0215                     	;# 
  1445  0215                     	;# 
  1446  0216                     	;# 
  1447  0217                     	;# 
  1448  0291                     	;# 
  1449  0291                     	;# 
  1450  0292                     	;# 
  1451  0293                     	;# 
  1452  0294                     	;# 
  1453  0295                     	;# 
  1454  0295                     	;# 
  1455  0296                     	;# 
  1456  0298                     	;# 
  1457  0298                     	;# 
  1458  0299                     	;# 
  1459  029A                     	;# 
  1460  029B                     	;# 
  1461  029C                     	;# 
  1462  029C                     	;# 
  1463  029D                     	;# 
  1464  029E                     	;# 
  1465  029F                     	;# 
  1466  0311                     	;# 
  1467  0311                     	;# 
  1468  0312                     	;# 
  1469  0313                     	;# 
  1470  0314                     	;# 
  1471  0315                     	;# 
  1472  0315                     	;# 
  1473  0316                     	;# 
  1474  0318                     	;# 
  1475  0318                     	;# 
  1476  0319                     	;# 
  1477  031A                     	;# 
  1478  031C                     	;# 
  1479  031C                     	;# 
  1480  031D                     	;# 
  1481  031E                     	;# 
  1482  0394                     	;# 
  1483  0395                     	;# 
  1484  0396                     	;# 
  1485  0415                     	;# 
  1486  0416                     	;# 
  1487  0417                     	;# 
  1488  041C                     	;# 
  1489  041D                     	;# 
  1490  041E                     	;# 
  1491  0791                     	;# 
  1492  0792                     	;# 
  1493  0793                     	;# 
  1494  0794                     	;# 
  1495  0795                     	;# 
  1496  0798                     	;# 
  1497  0799                     	;# 
  1498  07A0                     	;# 
  1499  07A1                     	;# 
  1500  07A3                     	;# 
  1501  07A4                     	;# 
  1502  07A6                     	;# 
  1503  07A7                     	;# 
  1504  07A9                     	;# 
  1505  07AA                     	;# 
  1506  0FE4                     	;# 
  1507  0FE5                     	;# 
  1508  0FE6                     	;# 
  1509  0FE7                     	;# 
  1510  0FE8                     	;# 
  1511  0FE9                     	;# 
  1512  0FEA                     	;# 
  1513  0FEB                     	;# 
  1514  0FED                     	;# 
  1515  0FEE                     	;# 
  1516  0FEF                     	;# 
  1517  0000                     	;# 
  1518  0001                     	;# 
  1519  0002                     	;# 
  1520  0003                     	;# 
  1521  0004                     	;# 
  1522  0005                     	;# 
  1523  0006                     	;# 
  1524  0007                     	;# 
  1525  0008                     	;# 
  1526  0009                     	;# 
  1527  000A                     	;# 
  1528  000B                     	;# 
  1529  000C                     	;# 
  1530  000D                     	;# 
  1531  000E                     	;# 
  1532  0010                     	;# 
  1533  0011                     	;# 
  1534  0012                     	;# 
  1535  0013                     	;# 
  1536  0015                     	;# 
  1537  0016                     	;# 
  1538  0016                     	;# 
  1539  0017                     	;# 
  1540  0018                     	;# 
  1541  0019                     	;# 
  1542  001A                     	;# 
  1543  001B                     	;# 
  1544  001C                     	;# 
  1545  001E                     	;# 
  1546  001F                     	;# 
  1547  008C                     	;# 
  1548  008D                     	;# 
  1549  008E                     	;# 
  1550  0090                     	;# 
  1551  0091                     	;# 
  1552  0092                     	;# 
  1553  0093                     	;# 
  1554  0095                     	;# 
  1555  0096                     	;# 
  1556  0097                     	;# 
  1557  0098                     	;# 
  1558  0099                     	;# 
  1559  009A                     	;# 
  1560  009B                     	;# 
  1561  009B                     	;# 
  1562  009C                     	;# 
  1563  009D                     	;# 
  1564  009E                     	;# 
  1565  010C                     	;# 
  1566  010D                     	;# 
  1567  010E                     	;# 
  1568  0110                     	;# 
  1569  0111                     	;# 
  1570  0112                     	;# 
  1571  0113                     	;# 
  1572  0114                     	;# 
  1573  0115                     	;# 
  1574  0116                     	;# 
  1575  0117                     	;# 
  1576  0118                     	;# 
  1577  0119                     	;# 
  1578  011A                     	;# 
  1579  011B                     	;# 
  1580  011D                     	;# 
  1581  018C                     	;# 
  1582  018D                     	;# 
  1583  0191                     	;# 
  1584  0191                     	;# 
  1585  0192                     	;# 
  1586  0193                     	;# 
  1587  0193                     	;# 
  1588  0193                     	;# 
  1589  0194                     	;# 
  1590  0195                     	;# 
  1591  0196                     	;# 
  1592  0199                     	;# 
  1593  019A                     	;# 
  1594  019B                     	;# 
  1595  019B                     	;# 
  1596  019B                     	;# 
  1597  019B                     	;# 
  1598  019C                     	;# 
  1599  019C                     	;# 
  1600  019D                     	;# 
  1601  019E                     	;# 
  1602  019F                     	;# 
  1603  020D                     	;# 
  1604  0210                     	;# 
  1605  0211                     	;# 
  1606  0212                     	;# 
  1607  0213                     	;# 
  1608  0214                     	;# 
  1609  0215                     	;# 
  1610  0215                     	;# 
  1611  0216                     	;# 
  1612  0217                     	;# 
  1613  0291                     	;# 
  1614  0291                     	;# 
  1615  0292                     	;# 
  1616  0293                     	;# 
  1617  0294                     	;# 
  1618  0295                     	;# 
  1619  0295                     	;# 
  1620  0296                     	;# 
  1621  0298                     	;# 
  1622  0298                     	;# 
  1623  0299                     	;# 
  1624  029A                     	;# 
  1625  029B                     	;# 
  1626  029C                     	;# 
  1627  029C                     	;# 
  1628  029D                     	;# 
  1629  029E                     	;# 
  1630  029F                     	;# 
  1631  0311                     	;# 
  1632  0311                     	;# 
  1633  0312                     	;# 
  1634  0313                     	;# 
  1635  0314                     	;# 
  1636  0315                     	;# 
  1637  0315                     	;# 
  1638  0316                     	;# 
  1639  0318                     	;# 
  1640  0318                     	;# 
  1641  0319                     	;# 
  1642  031A                     	;# 
  1643  031C                     	;# 
  1644  031C                     	;# 
  1645  031D                     	;# 
  1646  031E                     	;# 
  1647  0394                     	;# 
  1648  0395                     	;# 
  1649  0396                     	;# 
  1650  0415                     	;# 
  1651  0416                     	;# 
  1652  0417                     	;# 
  1653  041C                     	;# 
  1654  041D                     	;# 
  1655  041E                     	;# 
  1656  0791                     	;# 
  1657  0792                     	;# 
  1658  0793                     	;# 
  1659  0794                     	;# 
  1660  0795                     	;# 
  1661  0798                     	;# 
  1662  0799                     	;# 
  1663  07A0                     	;# 
  1664  07A1                     	;# 
  1665  07A3                     	;# 
  1666  07A4                     	;# 
  1667  07A6                     	;# 
  1668  07A7                     	;# 
  1669  07A9                     	;# 
  1670  07AA                     	;# 
  1671  0FE4                     	;# 
  1672  0FE5                     	;# 
  1673  0FE6                     	;# 
  1674  0FE7                     	;# 
  1675  0FE8                     	;# 
  1676  0FE9                     	;# 
  1677  0FEA                     	;# 
  1678  0FEB                     	;# 
  1679  0FED                     	;# 
  1680  0FEE                     	;# 
  1681  0FEF                     	;# 
  1682  0000                     	;# 
  1683  0001                     	;# 
  1684  0002                     	;# 
  1685  0003                     	;# 
  1686  0004                     	;# 
  1687  0005                     	;# 
  1688  0006                     	;# 
  1689  0007                     	;# 
  1690  0008                     	;# 
  1691  0009                     	;# 
  1692  000A                     	;# 
  1693  000B                     	;# 
  1694  000C                     	;# 
  1695  000D                     	;# 
  1696  000E                     	;# 
  1697  0010                     	;# 
  1698  0011                     	;# 
  1699  0012                     	;# 
  1700  0013                     	;# 
  1701  0015                     	;# 
  1702  0016                     	;# 
  1703  0016                     	;# 
  1704  0017                     	;# 
  1705  0018                     	;# 
  1706  0019                     	;# 
  1707  001A                     	;# 
  1708  001B                     	;# 
  1709  001C                     	;# 
  1710  001E                     	;# 
  1711  001F                     	;# 
  1712  008C                     	;# 
  1713  008D                     	;# 
  1714  008E                     	;# 
  1715  0090                     	;# 
  1716  0091                     	;# 
  1717  0092                     	;# 
  1718  0093                     	;# 
  1719  0095                     	;# 
  1720  0096                     	;# 
  1721  0097                     	;# 
  1722  0098                     	;# 
  1723  0099                     	;# 
  1724  009A                     	;# 
  1725  009B                     	;# 
  1726  009B                     	;# 
  1727  009C                     	;# 
  1728  009D                     	;# 
  1729  009E                     	;# 
  1730  010C                     	;# 
  1731  010D                     	;# 
  1732  010E                     	;# 
  1733  0110                     	;# 
  1734  0111                     	;# 
  1735  0112                     	;# 
  1736  0113                     	;# 
  1737  0114                     	;# 
  1738  0115                     	;# 
  1739  0116                     	;# 
  1740  0117                     	;# 
  1741  0118                     	;# 
  1742  0119                     	;# 
  1743  011A                     	;# 
  1744  011B                     	;# 
  1745  011D                     	;# 
  1746  018C                     	;# 
  1747  018D                     	;# 
  1748  0191                     	;# 
  1749  0191                     	;# 
  1750  0192                     	;# 
  1751  0193                     	;# 
  1752  0193                     	;# 
  1753  0193                     	;# 
  1754  0194                     	;# 
  1755  0195                     	;# 
  1756  0196                     	;# 
  1757  0199                     	;# 
  1758  019A                     	;# 
  1759  019B                     	;# 
  1760  019B                     	;# 
  1761  019B                     	;# 
  1762  019B                     	;# 
  1763  019C                     	;# 
  1764  019C                     	;# 
  1765  019D                     	;# 
  1766  019E                     	;# 
  1767  019F                     	;# 
  1768  020D                     	;# 
  1769  0210                     	;# 
  1770  0211                     	;# 
  1771  0212                     	;# 
  1772  0213                     	;# 
  1773  0214                     	;# 
  1774  0215                     	;# 
  1775  0215                     	;# 
  1776  0216                     	;# 
  1777  0217                     	;# 
  1778  0291                     	;# 
  1779  0291                     	;# 
  1780  0292                     	;# 
  1781  0293                     	;# 
  1782  0294                     	;# 
  1783  0295                     	;# 
  1784  0295                     	;# 
  1785  0296                     	;# 
  1786  0298                     	;# 
  1787  0298                     	;# 
  1788  0299                     	;# 
  1789  029A                     	;# 
  1790  029B                     	;# 
  1791  029C                     	;# 
  1792  029C                     	;# 
  1793  029D                     	;# 
  1794  029E                     	;# 
  1795  029F                     	;# 
  1796  0311                     	;# 
  1797  0311                     	;# 
  1798  0312                     	;# 
  1799  0313                     	;# 
  1800  0314                     	;# 
  1801  0315                     	;# 
  1802  0315                     	;# 
  1803  0316                     	;# 
  1804  0318                     	;# 
  1805  0318                     	;# 
  1806  0319                     	;# 
  1807  031A                     	;# 
  1808  031C                     	;# 
  1809  031C                     	;# 
  1810  031D                     	;# 
  1811  031E                     	;# 
  1812  0394                     	;# 
  1813  0395                     	;# 
  1814  0396                     	;# 
  1815  0415                     	;# 
  1816  0416                     	;# 
  1817  0417                     	;# 
  1818  041C                     	;# 
  1819  041D                     	;# 
  1820  041E                     	;# 
  1821  0791                     	;# 
  1822  0792                     	;# 
  1823  0793                     	;# 
  1824  0794                     	;# 
  1825  0795                     	;# 
  1826  0798                     	;# 
  1827  0799                     	;# 
  1828  07A0                     	;# 
  1829  07A1                     	;# 
  1830  07A3                     	;# 
  1831  07A4                     	;# 
  1832  07A6                     	;# 
  1833  07A7                     	;# 
  1834  07A9                     	;# 
  1835  07AA                     	;# 
  1836  0FE4                     	;# 
  1837  0FE5                     	;# 
  1838  0FE6                     	;# 
  1839  0FE7                     	;# 
  1840  0FE8                     	;# 
  1841  0FE9                     	;# 
  1842  0FEA                     	;# 
  1843  0FEB                     	;# 
  1844  0FED                     	;# 
  1845  0FEE                     	;# 
  1846  0FEF                     	;# 
  1847  0000                     	;# 
  1848  0001                     	;# 
  1849  0002                     	;# 
  1850  0003                     	;# 
  1851  0004                     	;# 
  1852  0005                     	;# 
  1853  0006                     	;# 
  1854  0007                     	;# 
  1855  0008                     	;# 
  1856  0009                     	;# 
  1857  000A                     	;# 
  1858  000B                     	;# 
  1859  000C                     	;# 
  1860  000D                     	;# 
  1861  000E                     	;# 
  1862  0010                     	;# 
  1863  0011                     	;# 
  1864  0012                     	;# 
  1865  0013                     	;# 
  1866  0015                     	;# 
  1867  0016                     	;# 
  1868  0016                     	;# 
  1869  0017                     	;# 
  1870  0018                     	;# 
  1871  0019                     	;# 
  1872  001A                     	;# 
  1873  001B                     	;# 
  1874  001C                     	;# 
  1875  001E                     	;# 
  1876  001F                     	;# 
  1877  008C                     	;# 
  1878  008D                     	;# 
  1879  008E                     	;# 
  1880  0090                     	;# 
  1881  0091                     	;# 
  1882  0092                     	;# 
  1883  0093                     	;# 
  1884  0095                     	;# 
  1885  0096                     	;# 
  1886  0097                     	;# 
  1887  0098                     	;# 
  1888  0099                     	;# 
  1889  009A                     	;# 
  1890  009B                     	;# 
  1891  009B                     	;# 
  1892  009C                     	;# 
  1893  009D                     	;# 
  1894  009E                     	;# 
  1895  010C                     	;# 
  1896  010D                     	;# 
  1897  010E                     	;# 
  1898  0110                     	;# 
  1899  0111                     	;# 
  1900  0112                     	;# 
  1901  0113                     	;# 
  1902  0114                     	;# 
  1903  0115                     	;# 
  1904  0116                     	;# 
  1905  0117                     	;# 
  1906  0118                     	;# 
  1907  0119                     	;# 
  1908  011A                     	;# 
  1909  011B                     	;# 
  1910  011D                     	;# 
  1911  018C                     	;# 
  1912  018D                     	;# 
  1913  0191                     	;# 
  1914  0191                     	;# 
  1915  0192                     	;# 
  1916  0193                     	;# 
  1917  0193                     	;# 
  1918  0193                     	;# 
  1919  0194                     	;# 
  1920  0195                     	;# 
  1921  0196                     	;# 
  1922  0199                     	;# 
  1923  019A                     	;# 
  1924  019B                     	;# 
  1925  019B                     	;# 
  1926  019B                     	;# 
  1927  019B                     	;# 
  1928  019C                     	;# 
  1929  019C                     	;# 
  1930  019D                     	;# 
  1931  019E                     	;# 
  1932  019F                     	;# 
  1933  020D                     	;# 
  1934  0210                     	;# 
  1935  0211                     	;# 
  1936  0212                     	;# 
  1937  0213                     	;# 
  1938  0214                     	;# 
  1939  0215                     	;# 
  1940  0215                     	;# 
  1941  0216                     	;# 
  1942  0217                     	;# 
  1943  0291                     	;# 
  1944  0291                     	;# 
  1945  0292                     	;# 
  1946  0293                     	;# 
  1947  0294                     	;# 
  1948  0295                     	;# 
  1949  0295                     	;# 
  1950  0296                     	;# 
  1951  0298                     	;# 
  1952  0298                     	;# 
  1953  0299                     	;# 
  1954  029A                     	;# 
  1955  029B                     	;# 
  1956  029C                     	;# 
  1957  029C                     	;# 
  1958  029D                     	;# 
  1959  029E                     	;# 
  1960  029F                     	;# 
  1961  0311                     	;# 
  1962  0311                     	;# 
  1963  0312                     	;# 
  1964  0313                     	;# 
  1965  0314                     	;# 
  1966  0315                     	;# 
  1967  0315                     	;# 
  1968  0316                     	;# 
  1969  0318                     	;# 
  1970  0318                     	;# 
  1971  0319                     	;# 
  1972  031A                     	;# 
  1973  031C                     	;# 
  1974  031C                     	;# 
  1975  031D                     	;# 
  1976  031E                     	;# 
  1977  0394                     	;# 
  1978  0395                     	;# 
  1979  0396                     	;# 
  1980  0415                     	;# 
  1981  0416                     	;# 
  1982  0417                     	;# 
  1983  041C                     	;# 
  1984  041D                     	;# 
  1985  041E                     	;# 
  1986  0791                     	;# 
  1987  0792                     	;# 
  1988  0793                     	;# 
  1989  0794                     	;# 
  1990  0795                     	;# 
  1991  0798                     	;# 
  1992  0799                     	;# 
  1993  07A0                     	;# 
  1994  07A1                     	;# 
  1995  07A3                     	;# 
  1996  07A4                     	;# 
  1997  07A6                     	;# 
  1998  07A7                     	;# 
  1999  07A9                     	;# 
  2000  07AA                     	;# 
  2001  0FE4                     	;# 
  2002  0FE5                     	;# 
  2003  0FE6                     	;# 
  2004  0FE7                     	;# 
  2005  0FE8                     	;# 
  2006  0FE9                     	;# 
  2007  0FEA                     	;# 
  2008  0FEB                     	;# 
  2009  0FED                     	;# 
  2010  0FEE                     	;# 
  2011  0FEF                     	;# 
  2012  0000                     	;# 
  2013  0001                     	;# 
  2014  0002                     	;# 
  2015  0003                     	;# 
  2016  0004                     	;# 
  2017  0005                     	;# 
  2018  0006                     	;# 
  2019  0007                     	;# 
  2020  0008                     	;# 
  2021  0009                     	;# 
  2022  000A                     	;# 
  2023  000B                     	;# 
  2024  000C                     	;# 
  2025  000D                     	;# 
  2026  000E                     	;# 
  2027  0010                     	;# 
  2028  0011                     	;# 
  2029  0012                     	;# 
  2030  0013                     	;# 
  2031  0015                     	;# 
  2032  0016                     	;# 
  2033  0016                     	;# 
  2034  0017                     	;# 
  2035  0018                     	;# 
  2036  0019                     	;# 
  2037  001A                     	;# 
  2038  001B                     	;# 
  2039  001C                     	;# 
  2040  001E                     	;# 
  2041  001F                     	;# 
  2042  008C                     	;# 
  2043  008D                     	;# 
  2044  008E                     	;# 
  2045  0090                     	;# 
  2046  0091                     	;# 
  2047  0092                     	;# 
  2048  0093                     	;# 
  2049  0095                     	;# 
  2050  0096                     	;# 
  2051  0097                     	;# 
  2052  0098                     	;# 
  2053  0099                     	;# 
  2054  009A                     	;# 
  2055  009B                     	;# 
  2056  009B                     	;# 
  2057  009C                     	;# 
  2058  009D                     	;# 
  2059  009E                     	;# 
  2060  010C                     	;# 
  2061  010D                     	;# 
  2062  010E                     	;# 
  2063  0110                     	;# 
  2064  0111                     	;# 
  2065  0112                     	;# 
  2066  0113                     	;# 
  2067  0114                     	;# 
  2068  0115                     	;# 
  2069  0116                     	;# 
  2070  0117                     	;# 
  2071  0118                     	;# 
  2072  0119                     	;# 
  2073  011A                     	;# 
  2074  011B                     	;# 
  2075  011D                     	;# 
  2076  018C                     	;# 
  2077  018D                     	;# 
  2078  0191                     	;# 
  2079  0191                     	;# 
  2080  0192                     	;# 
  2081  0193                     	;# 
  2082  0193                     	;# 
  2083  0193                     	;# 
  2084  0194                     	;# 
  2085  0195                     	;# 
  2086  0196                     	;# 
  2087  0199                     	;# 
  2088  019A                     	;# 
  2089  019B                     	;# 
  2090  019B                     	;# 
  2091  019B                     	;# 
  2092  019B                     	;# 
  2093  019C                     	;# 
  2094  019C                     	;# 
  2095  019D                     	;# 
  2096  019E                     	;# 
  2097  019F                     	;# 
  2098  020D                     	;# 
  2099  0210                     	;# 
  2100  0211                     	;# 
  2101  0212                     	;# 
  2102  0213                     	;# 
  2103  0214                     	;# 
  2104  0215                     	;# 
  2105  0215                     	;# 
  2106  0216                     	;# 
  2107  0217                     	;# 
  2108  0291                     	;# 
  2109  0291                     	;# 
  2110  0292                     	;# 
  2111  0293                     	;# 
  2112  0294                     	;# 
  2113  0295                     	;# 
  2114  0295                     	;# 
  2115  0296                     	;# 
  2116  0298                     	;# 
  2117  0298                     	;# 
  2118  0299                     	;# 
  2119  029A                     	;# 
  2120  029B                     	;# 
  2121  029C                     	;# 
  2122  029C                     	;# 
  2123  029D                     	;# 
  2124  029E                     	;# 
  2125  029F                     	;# 
  2126  0311                     	;# 
  2127  0311                     	;# 
  2128  0312                     	;# 
  2129  0313                     	;# 
  2130  0314                     	;# 
  2131  0315                     	;# 
  2132  0315                     	;# 
  2133  0316                     	;# 
  2134  0318                     	;# 
  2135  0318                     	;# 
  2136  0319                     	;# 
  2137  031A                     	;# 
  2138  031C                     	;# 
  2139  031C                     	;# 
  2140  031D                     	;# 
  2141  031E                     	;# 
  2142  0394                     	;# 
  2143  0395                     	;# 
  2144  0396                     	;# 
  2145  0415                     	;# 
  2146  0416                     	;# 
  2147  0417                     	;# 
  2148  041C                     	;# 
  2149  041D                     	;# 
  2150  041E                     	;# 
  2151  0791                     	;# 
  2152  0792                     	;# 
  2153  0793                     	;# 
  2154  0794                     	;# 
  2155  0795                     	;# 
  2156  0798                     	;# 
  2157  0799                     	;# 
  2158  07A0                     	;# 
  2159  07A1                     	;# 
  2160  07A3                     	;# 
  2161  07A4                     	;# 
  2162  07A6                     	;# 
  2163  07A7                     	;# 
  2164  07A9                     	;# 
  2165  07AA                     	;# 
  2166  0FE4                     	;# 
  2167  0FE5                     	;# 
  2168  0FE6                     	;# 
  2169  0FE7                     	;# 
  2170  0FE8                     	;# 
  2171  0FE9                     	;# 
  2172  0FEA                     	;# 
  2173  0FEB                     	;# 
  2174  0FED                     	;# 
  2175  0FEE                     	;# 
  2176  0FEF                     	;# 
  2177  0000                     	;# 
  2178  0001                     	;# 
  2179  0002                     	;# 
  2180  0003                     	;# 
  2181  0004                     	;# 
  2182  0005                     	;# 
  2183  0006                     	;# 
  2184  0007                     	;# 
  2185  0008                     	;# 
  2186  0009                     	;# 
  2187  000A                     	;# 
  2188  000B                     	;# 
  2189  000C                     	;# 
  2190  000D                     	;# 
  2191  000E                     	;# 
  2192  0010                     	;# 
  2193  0011                     	;# 
  2194  0012                     	;# 
  2195  0013                     	;# 
  2196  0015                     	;# 
  2197  0016                     	;# 
  2198  0016                     	;# 
  2199  0017                     	;# 
  2200  0018                     	;# 
  2201  0019                     	;# 
  2202  001A                     	;# 
  2203  001B                     	;# 
  2204  001C                     	;# 
  2205  001E                     	;# 
  2206  001F                     	;# 
  2207  008C                     	;# 
  2208  008D                     	;# 
  2209  008E                     	;# 
  2210  0090                     	;# 
  2211  0091                     	;# 
  2212  0092                     	;# 
  2213  0093                     	;# 
  2214  0095                     	;# 
  2215  0096                     	;# 
  2216  0097                     	;# 
  2217  0098                     	;# 
  2218  0099                     	;# 
  2219  009A                     	;# 
  2220  009B                     	;# 
  2221  009B                     	;# 
  2222  009C                     	;# 
  2223  009D                     	;# 
  2224  009E                     	;# 
  2225  010C                     	;# 
  2226  010D                     	;# 
  2227  010E                     	;# 
  2228  0110                     	;# 
  2229  0111                     	;# 
  2230  0112                     	;# 
  2231  0113                     	;# 
  2232  0114                     	;# 
  2233  0115                     	;# 
  2234  0116                     	;# 
  2235  0117                     	;# 
  2236  0118                     	;# 
  2237  0119                     	;# 
  2238  011A                     	;# 
  2239  011B                     	;# 
  2240  011D                     	;# 
  2241  018C                     	;# 
  2242  018D                     	;# 
  2243  0191                     	;# 
  2244  0191                     	;# 
  2245  0192                     	;# 
  2246  0193                     	;# 
  2247  0193                     	;# 
  2248  0193                     	;# 
  2249  0194                     	;# 
  2250  0195                     	;# 
  2251  0196                     	;# 
  2252  0199                     	;# 
  2253  019A                     	;# 
  2254  019B                     	;# 
  2255  019B                     	;# 
  2256  019B                     	;# 
  2257  019B                     	;# 
  2258  019C                     	;# 
  2259  019C                     	;# 
  2260  019D                     	;# 
  2261  019E                     	;# 
  2262  019F                     	;# 
  2263  020D                     	;# 
  2264  0210                     	;# 
  2265  0211                     	;# 
  2266  0212                     	;# 
  2267  0213                     	;# 
  2268  0214                     	;# 
  2269  0215                     	;# 
  2270  0215                     	;# 
  2271  0216                     	;# 
  2272  0217                     	;# 
  2273  0291                     	;# 
  2274  0291                     	;# 
  2275  0292                     	;# 
  2276  0293                     	;# 
  2277  0294                     	;# 
  2278  0295                     	;# 
  2279  0295                     	;# 
  2280  0296                     	;# 
  2281  0298                     	;# 
  2282  0298                     	;# 
  2283  0299                     	;# 
  2284  029A                     	;# 
  2285  029B                     	;# 
  2286  029C                     	;# 
  2287  029C                     	;# 
  2288  029D                     	;# 
  2289  029E                     	;# 
  2290  029F                     	;# 
  2291  0311                     	;# 
  2292  0311                     	;# 
  2293  0312                     	;# 
  2294  0313                     	;# 
  2295  0314                     	;# 
  2296  0315                     	;# 
  2297  0315                     	;# 
  2298  0316                     	;# 
  2299  0318                     	;# 
  2300  0318                     	;# 
  2301  0319                     	;# 
  2302  031A                     	;# 
  2303  031C                     	;# 
  2304  031C                     	;# 
  2305  031D                     	;# 
  2306  031E                     	;# 
  2307  0394                     	;# 
  2308  0395                     	;# 
  2309  0396                     	;# 
  2310  0415                     	;# 
  2311  0416                     	;# 
  2312  0417                     	;# 
  2313  041C                     	;# 
  2314  041D                     	;# 
  2315  041E                     	;# 
  2316  0791                     	;# 
  2317  0792                     	;# 
  2318  0793                     	;# 
  2319  0794                     	;# 
  2320  0795                     	;# 
  2321  0798                     	;# 
  2322  0799                     	;# 
  2323  07A0                     	;# 
  2324  07A1                     	;# 
  2325  07A3                     	;# 
  2326  07A4                     	;# 
  2327  07A6                     	;# 
  2328  07A7                     	;# 
  2329  07A9                     	;# 
  2330  07AA                     	;# 
  2331  0FE4                     	;# 
  2332  0FE5                     	;# 
  2333  0FE6                     	;# 
  2334  0FE7                     	;# 
  2335  0FE8                     	;# 
  2336  0FE9                     	;# 
  2337  0FEA                     	;# 
  2338  0FEB                     	;# 
  2339  0FED                     	;# 
  2340  0FEE                     	;# 
  2341  0FEF                     	;# 
  2342  0000                     	;# 
  2343  0001                     	;# 
  2344  0002                     	;# 
  2345  0003                     	;# 
  2346  0004                     	;# 
  2347  0005                     	;# 
  2348  0006                     	;# 
  2349  0007                     	;# 
  2350  0008                     	;# 
  2351  0009                     	;# 
  2352  000A                     	;# 
  2353  000B                     	;# 
  2354  000C                     	;# 
  2355  000D                     	;# 
  2356  000E                     	;# 
  2357  0010                     	;# 
  2358  0011                     	;# 
  2359  0012                     	;# 
  2360  0013                     	;# 
  2361  0015                     	;# 
  2362  0016                     	;# 
  2363  0016                     	;# 
  2364  0017                     	;# 
  2365  0018                     	;# 
  2366  0019                     	;# 
  2367  001A                     	;# 
  2368  001B                     	;# 
  2369  001C                     	;# 
  2370  001E                     	;# 
  2371  001F                     	;# 
  2372  008C                     	;# 
  2373  008D                     	;# 
  2374  008E                     	;# 
  2375  0090                     	;# 
  2376  0091                     	;# 
  2377  0092                     	;# 
  2378  0093                     	;# 
  2379  0095                     	;# 
  2380  0096                     	;# 
  2381  0097                     	;# 
  2382  0098                     	;# 
  2383  0099                     	;# 
  2384  009A                     	;# 
  2385  009B                     	;# 
  2386  009B                     	;# 
  2387  009C                     	;# 
  2388  009D                     	;# 
  2389  009E                     	;# 
  2390  010C                     	;# 
  2391  010D                     	;# 
  2392  010E                     	;# 
  2393  0110                     	;# 
  2394  0111                     	;# 
  2395  0112                     	;# 
  2396  0113                     	;# 
  2397  0114                     	;# 
  2398  0115                     	;# 
  2399  0116                     	;# 
  2400  0117                     	;# 
  2401  0118                     	;# 
  2402  0119                     	;# 
  2403  011A                     	;# 
  2404  011B                     	;# 
  2405  011D                     	;# 
  2406  018C                     	;# 
  2407  018D                     	;# 
  2408  0191                     	;# 
  2409  0191                     	;# 
  2410  0192                     	;# 
  2411  0193                     	;# 
  2412  0193                     	;# 
  2413  0193                     	;# 
  2414  0194                     	;# 
  2415  0195                     	;# 
  2416  0196                     	;# 
  2417  0199                     	;# 
  2418  019A                     	;# 
  2419  019B                     	;# 
  2420  019B                     	;# 
  2421  019B                     	;# 
  2422  019B                     	;# 
  2423  019C                     	;# 
  2424  019C                     	;# 
  2425  019D                     	;# 
  2426  019E                     	;# 
  2427  019F                     	;# 
  2428  020D                     	;# 
  2429  0210                     	;# 
  2430  0211                     	;# 
  2431  0212                     	;# 
  2432  0213                     	;# 
  2433  0214                     	;# 
  2434  0215                     	;# 
  2435  0215                     	;# 
  2436  0216                     	;# 
  2437  0217                     	;# 
  2438  0291                     	;# 
  2439  0291                     	;# 
  2440  0292                     	;# 
  2441  0293                     	;# 
  2442  0294                     	;# 
  2443  0295                     	;# 
  2444  0295                     	;# 
  2445  0296                     	;# 
  2446  0298                     	;# 
  2447  0298                     	;# 
  2448  0299                     	;# 
  2449  029A                     	;# 
  2450  029B                     	;# 
  2451  029C                     	;# 
  2452  029C                     	;# 
  2453  029D                     	;# 
  2454  029E                     	;# 
  2455  029F                     	;# 
  2456  0311                     	;# 
  2457  0311                     	;# 
  2458  0312                     	;# 
  2459  0313                     	;# 
  2460  0314                     	;# 
  2461  0315                     	;# 
  2462  0315                     	;# 
  2463  0316                     	;# 
  2464  0318                     	;# 
  2465  0318                     	;# 
  2466  0319                     	;# 
  2467  031A                     	;# 
  2468  031C                     	;# 
  2469  031C                     	;# 
  2470  031D                     	;# 
  2471  031E                     	;# 
  2472  0394                     	;# 
  2473  0395                     	;# 
  2474  0396                     	;# 
  2475  0415                     	;# 
  2476  0416                     	;# 
  2477  0417                     	;# 
  2478  041C                     	;# 
  2479  041D                     	;# 
  2480  041E                     	;# 
  2481  0791                     	;# 
  2482  0792                     	;# 
  2483  0793                     	;# 
  2484  0794                     	;# 
  2485  0795                     	;# 
  2486  0798                     	;# 
  2487  0799                     	;# 
  2488  07A0                     	;# 
  2489  07A1                     	;# 
  2490  07A3                     	;# 
  2491  07A4                     	;# 
  2492  07A6                     	;# 
  2493  07A7                     	;# 
  2494  07A9                     	;# 
  2495  07AA                     	;# 
  2496  0FE4                     	;# 
  2497  0FE5                     	;# 
  2498  0FE6                     	;# 
  2499  0FE7                     	;# 
  2500  0FE8                     	;# 
  2501  0FE9                     	;# 
  2502  0FEA                     	;# 
  2503  0FEB                     	;# 
  2504  0FED                     	;# 
  2505  0FEE                     	;# 
  2506  0FEF                     	;# 
  2507  0000                     	;# 
  2508  0001                     	;# 
  2509  0002                     	;# 
  2510  0003                     	;# 
  2511  0004                     	;# 
  2512  0005                     	;# 
  2513  0006                     	;# 
  2514  0007                     	;# 
  2515  0008                     	;# 
  2516  0009                     	;# 
  2517  000A                     	;# 
  2518  000B                     	;# 
  2519  000C                     	;# 
  2520  000D                     	;# 
  2521  000E                     	;# 
  2522  0010                     	;# 
  2523  0011                     	;# 
  2524  0012                     	;# 
  2525  0013                     	;# 
  2526  0015                     	;# 
  2527  0016                     	;# 
  2528  0016                     	;# 
  2529  0017                     	;# 
  2530  0018                     	;# 
  2531  0019                     	;# 
  2532  001A                     	;# 
  2533  001B                     	;# 
  2534  001C                     	;# 
  2535  001E                     	;# 
  2536  001F                     	;# 
  2537  008C                     	;# 
  2538  008D                     	;# 
  2539  008E                     	;# 
  2540  0090                     	;# 
  2541  0091                     	;# 
  2542  0092                     	;# 
  2543  0093                     	;# 
  2544  0095                     	;# 
  2545  0096                     	;# 
  2546  0097                     	;# 
  2547  0098                     	;# 
  2548  0099                     	;# 
  2549  009A                     	;# 
  2550  009B                     	;# 
  2551  009B                     	;# 
  2552  009C                     	;# 
  2553  009D                     	;# 
  2554  009E                     	;# 
  2555  010C                     	;# 
  2556  010D                     	;# 
  2557  010E                     	;# 
  2558  0110                     	;# 
  2559  0111                     	;# 
  2560  0112                     	;# 
  2561  0113                     	;# 
  2562  0114                     	;# 
  2563  0115                     	;# 
  2564  0116                     	;# 
  2565  0117                     	;# 
  2566  0118                     	;# 
  2567  0119                     	;# 
  2568  011A                     	;# 
  2569  011B                     	;# 
  2570  011D                     	;# 
  2571  018C                     	;# 
  2572  018D                     	;# 
  2573  0191                     	;# 
  2574  0191                     	;# 
  2575  0192                     	;# 
  2576  0193                     	;# 
  2577  0193                     	;# 
  2578  0193                     	;# 
  2579  0194                     	;# 
  2580  0195                     	;# 
  2581  0196                     	;# 
  2582  0199                     	;# 
  2583  019A                     	;# 
  2584  019B                     	;# 
  2585  019B                     	;# 
  2586  019B                     	;# 
  2587  019B                     	;# 
  2588  019C                     	;# 
  2589  019C                     	;# 
  2590  019D                     	;# 
  2591  019E                     	;# 
  2592  019F                     	;# 
  2593  020D                     	;# 
  2594  0210                     	;# 
  2595  0211                     	;# 
  2596  0212                     	;# 
  2597  0213                     	;# 
  2598  0214                     	;# 
  2599  0215                     	;# 
  2600  0215                     	;# 
  2601  0216                     	;# 
  2602  0217                     	;# 
  2603  0291                     	;# 
  2604  0291                     	;# 
  2605  0292                     	;# 
  2606  0293                     	;# 
  2607  0294                     	;# 
  2608  0295                     	;# 
  2609  0295                     	;# 
  2610  0296                     	;# 
  2611  0298                     	;# 
  2612  0298                     	;# 
  2613  0299                     	;# 
  2614  029A                     	;# 
  2615  029B                     	;# 
  2616  029C                     	;# 
  2617  029C                     	;# 
  2618  029D                     	;# 
  2619  029E                     	;# 
  2620  029F                     	;# 
  2621  0311                     	;# 
  2622  0311                     	;# 
  2623  0312                     	;# 
  2624  0313                     	;# 
  2625  0314                     	;# 
  2626  0315                     	;# 
  2627  0315                     	;# 
  2628  0316                     	;# 
  2629  0318                     	;# 
  2630  0318                     	;# 
  2631  0319                     	;# 
  2632  031A                     	;# 
  2633  031C                     	;# 
  2634  031C                     	;# 
  2635  031D                     	;# 
  2636  031E                     	;# 
  2637  0394                     	;# 
  2638  0395                     	;# 
  2639  0396                     	;# 
  2640  0415                     	;# 
  2641  0416                     	;# 
  2642  0417                     	;# 
  2643  041C                     	;# 
  2644  041D                     	;# 
  2645  041E                     	;# 
  2646  0791                     	;# 
  2647  0792                     	;# 
  2648  0793                     	;# 
  2649  0794                     	;# 
  2650  0795                     	;# 
  2651  0798                     	;# 
  2652  0799                     	;# 
  2653  07A0                     	;# 
  2654  07A1                     	;# 
  2655  07A3                     	;# 
  2656  07A4                     	;# 
  2657  07A6                     	;# 
  2658  07A7                     	;# 
  2659  07A9                     	;# 
  2660  07AA                     	;# 
  2661  0FE4                     	;# 
  2662  0FE5                     	;# 
  2663  0FE6                     	;# 
  2664  0FE7                     	;# 
  2665  0FE8                     	;# 
  2666  0FE9                     	;# 
  2667  0FEA                     	;# 
  2668  0FEB                     	;# 
  2669  0FED                     	;# 
  2670  0FEE                     	;# 
  2671  0FEF                     	;# 
  2672  0000                     	;# 
  2673  0001                     	;# 
  2674  0002                     	;# 
  2675  0003                     	;# 
  2676  0004                     	;# 
  2677  0005                     	;# 
  2678  0006                     	;# 
  2679  0007                     	;# 
  2680  0008                     	;# 
  2681  0009                     	;# 
  2682  000A                     	;# 
  2683  000B                     	;# 
  2684  000C                     	;# 
  2685  000D                     	;# 
  2686  000E                     	;# 
  2687  0010                     	;# 
  2688  0011                     	;# 
  2689  0012                     	;# 
  2690  0013                     	;# 
  2691  0015                     	;# 
  2692  0016                     	;# 
  2693  0016                     	;# 
  2694  0017                     	;# 
  2695  0018                     	;# 
  2696  0019                     	;# 
  2697  001A                     	;# 
  2698  001B                     	;# 
  2699  001C                     	;# 
  2700  001E                     	;# 
  2701  001F                     	;# 
  2702  008C                     	;# 
  2703  008D                     	;# 
  2704  008E                     	;# 
  2705  0090                     	;# 
  2706  0091                     	;# 
  2707  0092                     	;# 
  2708  0093                     	;# 
  2709  0095                     	;# 
  2710  0096                     	;# 
  2711  0097                     	;# 
  2712  0098                     	;# 
  2713  0099                     	;# 
  2714  009A                     	;# 
  2715  009B                     	;# 
  2716  009B                     	;# 
  2717  009C                     	;# 
  2718  009D                     	;# 
  2719  009E                     	;# 
  2720  010C                     	;# 
  2721  010D                     	;# 
  2722  010E                     	;# 
  2723  0110                     	;# 
  2724  0111                     	;# 
  2725  0112                     	;# 
  2726  0113                     	;# 
  2727  0114                     	;# 
  2728  0115                     	;# 
  2729  0116                     	;# 
  2730  0117                     	;# 
  2731  0118                     	;# 
  2732  0119                     	;# 
  2733  011A                     	;# 
  2734  011B                     	;# 
  2735  011D                     	;# 
  2736  018C                     	;# 
  2737  018D                     	;# 
  2738  0191                     	;# 
  2739  0191                     	;# 
  2740  0192                     	;# 
  2741  0193                     	;# 
  2742  0193                     	;# 
  2743  0193                     	;# 
  2744  0194                     	;# 
  2745  0195                     	;# 
  2746  0196                     	;# 
  2747  0199                     	;# 
  2748  019A                     	;# 
  2749  019B                     	;# 
  2750  019B                     	;# 
  2751  019B                     	;# 
  2752  019B                     	;# 
  2753  019C                     	;# 
  2754  019C                     	;# 
  2755  019D                     	;# 
  2756  019E                     	;# 
  2757  019F                     	;# 
  2758  020D                     	;# 
  2759  0210                     	;# 
  2760  0211                     	;# 
  2761  0212                     	;# 
  2762  0213                     	;# 
  2763  0214                     	;# 
  2764  0215                     	;# 
  2765  0215                     	;# 
  2766  0216                     	;# 
  2767  0217                     	;# 
  2768  0291                     	;# 
  2769  0291                     	;# 
  2770  0292                     	;# 
  2771  0293                     	;# 
  2772  0294                     	;# 
  2773  0295                     	;# 
  2774  0295                     	;# 
  2775  0296                     	;# 
  2776  0298                     	;# 
  2777  0298                     	;# 
  2778  0299                     	;# 
  2779  029A                     	;# 
  2780  029B                     	;# 
  2781  029C                     	;# 
  2782  029C                     	;# 
  2783  029D                     	;# 
  2784  029E                     	;# 
  2785  029F                     	;# 
  2786  0311                     	;# 
  2787  0311                     	;# 
  2788  0312                     	;# 
  2789  0313                     	;# 
  2790  0314                     	;# 
  2791  0315                     	;# 
  2792  0315                     	;# 
  2793  0316                     	;# 
  2794  0318                     	;# 
  2795  0318                     	;# 
  2796  0319                     	;# 
  2797  031A                     	;# 
  2798  031C                     	;# 
  2799  031C                     	;# 
  2800  031D                     	;# 
  2801  031E                     	;# 
  2802  0394                     	;# 
  2803  0395                     	;# 
  2804  0396                     	;# 
  2805  0415                     	;# 
  2806  0416                     	;# 
  2807  0417                     	;# 
  2808  041C                     	;# 
  2809  041D                     	;# 
  2810  041E                     	;# 
  2811  0791                     	;# 
  2812  0792                     	;# 
  2813  0793                     	;# 
  2814  0794                     	;# 
  2815  0795                     	;# 
  2816  0798                     	;# 
  2817  0799                     	;# 
  2818  07A0                     	;# 
  2819  07A1                     	;# 
  2820  07A3                     	;# 
  2821  07A4                     	;# 
  2822  07A6                     	;# 
  2823  07A7                     	;# 
  2824  07A9                     	;# 
  2825  07AA                     	;# 
  2826  0FE4                     	;# 
  2827  0FE5                     	;# 
  2828  0FE6                     	;# 
  2829  0FE7                     	;# 
  2830  0FE8                     	;# 
  2831  0FE9                     	;# 
  2832  0FEA                     	;# 
  2833  0FEB                     	;# 
  2834  0FED                     	;# 
  2835  0FEE                     	;# 
  2836  0FEF                     	;# 
  2837  0000                     	;# 
  2838  0001                     	;# 
  2839  0002                     	;# 
  2840  0003                     	;# 
  2841  0004                     	;# 
  2842  0005                     	;# 
  2843  0006                     	;# 
  2844  0007                     	;# 
  2845  0008                     	;# 
  2846  0009                     	;# 
  2847  000A                     	;# 
  2848  000B                     	;# 
  2849  000C                     	;# 
  2850  000D                     	;# 
  2851  000E                     	;# 
  2852  0010                     	;# 
  2853  0011                     	;# 
  2854  0012                     	;# 
  2855  0013                     	;# 
  2856  0015                     	;# 
  2857  0016                     	;# 
  2858  0016                     	;# 
  2859  0017                     	;# 
  2860  0018                     	;# 
  2861  0019                     	;# 
  2862  001A                     	;# 
  2863  001B                     	;# 
  2864  001C                     	;# 
  2865  001E                     	;# 
  2866  001F                     	;# 
  2867  008C                     	;# 
  2868  008D                     	;# 
  2869  008E                     	;# 
  2870  0090                     	;# 
  2871  0091                     	;# 
  2872  0092                     	;# 
  2873  0093                     	;# 
  2874  0095                     	;# 
  2875  0096                     	;# 
  2876  0097                     	;# 
  2877  0098                     	;# 
  2878  0099                     	;# 
  2879  009A                     	;# 
  2880  009B                     	;# 
  2881  009B                     	;# 
  2882  009C                     	;# 
  2883  009D                     	;# 
  2884  009E                     	;# 
  2885  010C                     	;# 
  2886  010D                     	;# 
  2887  010E                     	;# 
  2888  0110                     	;# 
  2889  0111                     	;# 
  2890  0112                     	;# 
  2891  0113                     	;# 
  2892  0114                     	;# 
  2893  0115                     	;# 
  2894  0116                     	;# 
  2895  0117                     	;# 
  2896  0118                     	;# 
  2897  0119                     	;# 
  2898  011A                     	;# 
  2899  011B                     	;# 
  2900  011D                     	;# 
  2901  018C                     	;# 
  2902  018D                     	;# 
  2903  0191                     	;# 
  2904  0191                     	;# 
  2905  0192                     	;# 
  2906  0193                     	;# 
  2907  0193                     	;# 
  2908  0193                     	;# 
  2909  0194                     	;# 
  2910  0195                     	;# 
  2911  0196                     	;# 
  2912  0199                     	;# 
  2913  019A                     	;# 
  2914  019B                     	;# 
  2915  019B                     	;# 
  2916  019B                     	;# 
  2917  019B                     	;# 
  2918  019C                     	;# 
  2919  019C                     	;# 
  2920  019D                     	;# 
  2921  019E                     	;# 
  2922  019F                     	;# 
  2923  020D                     	;# 
  2924  0210                     	;# 
  2925  0211                     	;# 
  2926  0212                     	;# 
  2927  0213                     	;# 
  2928  0214                     	;# 
  2929  0215                     	;# 
  2930  0215                     	;# 
  2931  0216                     	;# 
  2932  0217                     	;# 
  2933  0291                     	;# 
  2934  0291                     	;# 
  2935  0292                     	;# 
  2936  0293                     	;# 
  2937  0294                     	;# 
  2938  0295                     	;# 
  2939  0295                     	;# 
  2940  0296                     	;# 
  2941  0298                     	;# 
  2942  0298                     	;# 
  2943  0299                     	;# 
  2944  029A                     	;# 
  2945  029B                     	;# 
  2946  029C                     	;# 
  2947  029C                     	;# 
  2948  029D                     	;# 
  2949  029E                     	;# 
  2950  029F                     	;# 
  2951  0311                     	;# 
  2952  0311                     	;# 
  2953  0312                     	;# 
  2954  0313                     	;# 
  2955  0314                     	;# 
  2956  0315                     	;# 
  2957  0315                     	;# 
  2958  0316                     	;# 
  2959  0318                     	;# 
  2960  0318                     	;# 
  2961  0319                     	;# 
  2962  031A                     	;# 
  2963  031C                     	;# 
  2964  031C                     	;# 
  2965  031D                     	;# 
  2966  031E                     	;# 
  2967  0394                     	;# 
  2968  0395                     	;# 
  2969  0396                     	;# 
  2970  0415                     	;# 
  2971  0416                     	;# 
  2972  0417                     	;# 
  2973  041C                     	;# 
  2974  041D                     	;# 
  2975  041E                     	;# 
  2976  0791                     	;# 
  2977  0792                     	;# 
  2978  0793                     	;# 
  2979  0794                     	;# 
  2980  0795                     	;# 
  2981  0798                     	;# 
  2982  0799                     	;# 
  2983  07A0                     	;# 
  2984  07A1                     	;# 
  2985  07A3                     	;# 
  2986  07A4                     	;# 
  2987  07A6                     	;# 
  2988  07A7                     	;# 
  2989  07A9                     	;# 
  2990  07AA                     	;# 
  2991  0FE4                     	;# 
  2992  0FE5                     	;# 
  2993  0FE6                     	;# 
  2994  0FE7                     	;# 
  2995  0FE8                     	;# 
  2996  0FE9                     	;# 
  2997  0FEA                     	;# 
  2998  0FEB                     	;# 
  2999  0FED                     	;# 
  3000  0FEE                     	;# 
  3001  0FEF                     	;# 
  3002  0000                     	;# 
  3003  0001                     	;# 
  3004  0002                     	;# 
  3005  0003                     	;# 
  3006  0004                     	;# 
  3007  0005                     	;# 
  3008  0006                     	;# 
  3009  0007                     	;# 
  3010  0008                     	;# 
  3011  0009                     	;# 
  3012  000A                     	;# 
  3013  000B                     	;# 
  3014  000C                     	;# 
  3015  000D                     	;# 
  3016  000E                     	;# 
  3017  0010                     	;# 
  3018  0011                     	;# 
  3019  0012                     	;# 
  3020  0013                     	;# 
  3021  0015                     	;# 
  3022  0016                     	;# 
  3023  0016                     	;# 
  3024  0017                     	;# 
  3025  0018                     	;# 
  3026  0019                     	;# 
  3027  001A                     	;# 
  3028  001B                     	;# 
  3029  001C                     	;# 
  3030  001E                     	;# 
  3031  001F                     	;# 
  3032  008C                     	;# 
  3033  008D                     	;# 
  3034  008E                     	;# 
  3035  0090                     	;# 
  3036  0091                     	;# 
  3037  0092                     	;# 
  3038  0093                     	;# 
  3039  0095                     	;# 
  3040  0096                     	;# 
  3041  0097                     	;# 
  3042  0098                     	;# 
  3043  0099                     	;# 
  3044  009A                     	;# 
  3045  009B                     	;# 
  3046  009B                     	;# 
  3047  009C                     	;# 
  3048  009D                     	;# 
  3049  009E                     	;# 
  3050  010C                     	;# 
  3051  010D                     	;# 
  3052  010E                     	;# 
  3053  0110                     	;# 
  3054  0111                     	;# 
  3055  0112                     	;# 
  3056  0113                     	;# 
  3057  0114                     	;# 
  3058  0115                     	;# 
  3059  0116                     	;# 
  3060  0117                     	;# 
  3061  0118                     	;# 
  3062  0119                     	;# 
  3063  011A                     	;# 
  3064  011B                     	;# 
  3065  011D                     	;# 
  3066  018C                     	;# 
  3067  018D                     	;# 
  3068  0191                     	;# 
  3069  0191                     	;# 
  3070  0192                     	;# 
  3071  0193                     	;# 
  3072  0193                     	;# 
  3073  0193                     	;# 
  3074  0194                     	;# 
  3075  0195                     	;# 
  3076  0196                     	;# 
  3077  0199                     	;# 
  3078  019A                     	;# 
  3079  019B                     	;# 
  3080  019B                     	;# 
  3081  019B                     	;# 
  3082  019B                     	;# 
  3083  019C                     	;# 
  3084  019C                     	;# 
  3085  019D                     	;# 
  3086  019E                     	;# 
  3087  019F                     	;# 
  3088  020D                     	;# 
  3089  0210                     	;# 
  3090  0211                     	;# 
  3091  0212                     	;# 
  3092  0213                     	;# 
  3093  0214                     	;# 
  3094  0215                     	;# 
  3095  0215                     	;# 
  3096  0216                     	;# 
  3097  0217                     	;# 
  3098  0291                     	;# 
  3099  0291                     	;# 
  3100  0292                     	;# 
  3101  0293                     	;# 
  3102  0294                     	;# 
  3103  0295                     	;# 
  3104  0295                     	;# 
  3105  0296                     	;# 
  3106  0298                     	;# 
  3107  0298                     	;# 
  3108  0299                     	;# 
  3109  029A                     	;# 
  3110  029B                     	;# 
  3111  029C                     	;# 
  3112  029C                     	;# 
  3113  029D                     	;# 
  3114  029E                     	;# 
  3115  029F                     	;# 
  3116  0311                     	;# 
  3117  0311                     	;# 
  3118  0312                     	;# 
  3119  0313                     	;# 
  3120  0314                     	;# 
  3121  0315                     	;# 
  3122  0315                     	;# 
  3123  0316                     	;# 
  3124  0318                     	;# 
  3125  0318                     	;# 
  3126  0319                     	;# 
  3127  031A                     	;# 
  3128  031C                     	;# 
  3129  031C                     	;# 
  3130  031D                     	;# 
  3131  031E                     	;# 
  3132  0394                     	;# 
  3133  0395                     	;# 
  3134  0396                     	;# 
  3135  0415                     	;# 
  3136  0416                     	;# 
  3137  0417                     	;# 
  3138  041C                     	;# 
  3139  041D                     	;# 
  3140  041E                     	;# 
  3141  0791                     	;# 
  3142  0792                     	;# 
  3143  0793                     	;# 
  3144  0794                     	;# 
  3145  0795                     	;# 
  3146  0798                     	;# 
  3147  0799                     	;# 
  3148  07A0                     	;# 
  3149  07A1                     	;# 
  3150  07A3                     	;# 
  3151  07A4                     	;# 
  3152  07A6                     	;# 
  3153  07A7                     	;# 
  3154  07A9                     	;# 
  3155  07AA                     	;# 
  3156  0FE4                     	;# 
  3157  0FE5                     	;# 
  3158  0FE6                     	;# 
  3159  0FE7                     	;# 
  3160  0FE8                     	;# 
  3161  0FE9                     	;# 
  3162  0FEA                     	;# 
  3163  0FEB                     	;# 
  3164  0FED                     	;# 
  3165  0FEE                     	;# 
  3166  0FEF                     	;# 
  3167  0000                     	;# 
  3168  0001                     	;# 
  3169  0002                     	;# 
  3170  0003                     	;# 
  3171  0004                     	;# 
  3172  0005                     	;# 
  3173  0006                     	;# 
  3174  0007                     	;# 
  3175  0008                     	;# 
  3176  0009                     	;# 
  3177  000A                     	;# 
  3178  000B                     	;# 
  3179  000C                     	;# 
  3180  000D                     	;# 
  3181  000E                     	;# 
  3182  0010                     	;# 
  3183  0011                     	;# 
  3184  0012                     	;# 
  3185  0013                     	;# 
  3186  0015                     	;# 
  3187  0016                     	;# 
  3188  0016                     	;# 
  3189  0017                     	;# 
  3190  0018                     	;# 
  3191  0019                     	;# 
  3192  001A                     	;# 
  3193  001B                     	;# 
  3194  001C                     	;# 
  3195  001E                     	;# 
  3196  001F                     	;# 
  3197  008C                     	;# 
  3198  008D                     	;# 
  3199  008E                     	;# 
  3200  0090                     	;# 
  3201  0091                     	;# 
  3202  0092                     	;# 
  3203  0093                     	;# 
  3204  0095                     	;# 
  3205  0096                     	;# 
  3206  0097                     	;# 
  3207  0098                     	;# 
  3208  0099                     	;# 
  3209  009A                     	;# 
  3210  009B                     	;# 
  3211  009B                     	;# 
  3212  009C                     	;# 
  3213  009D                     	;# 
  3214  009E                     	;# 
  3215  010C                     	;# 
  3216  010D                     	;# 
  3217  010E                     	;# 
  3218  0110                     	;# 
  3219  0111                     	;# 
  3220  0112                     	;# 
  3221  0113                     	;# 
  3222  0114                     	;# 
  3223  0115                     	;# 
  3224  0116                     	;# 
  3225  0117                     	;# 
  3226  0118                     	;# 
  3227  0119                     	;# 
  3228  011A                     	;# 
  3229  011B                     	;# 
  3230  011D                     	;# 
  3231  018C                     	;# 
  3232  018D                     	;# 
  3233  0191                     	;# 
  3234  0191                     	;# 
  3235  0192                     	;# 
  3236  0193                     	;# 
  3237  0193                     	;# 
  3238  0193                     	;# 
  3239  0194                     	;# 
  3240  0195                     	;# 
  3241  0196                     	;# 
  3242  0199                     	;# 
  3243  019A                     	;# 
  3244  019B                     	;# 
  3245  019B                     	;# 
  3246  019B                     	;# 
  3247  019B                     	;# 
  3248  019C                     	;# 
  3249  019C                     	;# 
  3250  019D                     	;# 
  3251  019E                     	;# 
  3252  019F                     	;# 
  3253  020D                     	;# 
  3254  0210                     	;# 
  3255  0211                     	;# 
  3256  0212                     	;# 
  3257  0213                     	;# 
  3258  0214                     	;# 
  3259  0215                     	;# 
  3260  0215                     	;# 
  3261  0216                     	;# 
  3262  0217                     	;# 
  3263  0291                     	;# 
  3264  0291                     	;# 
  3265  0292                     	;# 
  3266  0293                     	;# 
  3267  0294                     	;# 
  3268  0295                     	;# 
  3269  0295                     	;# 
  3270  0296                     	;# 
  3271  0298                     	;# 
  3272  0298                     	;# 
  3273  0299                     	;# 
  3274  029A                     	;# 
  3275  029B                     	;# 
  3276  029C                     	;# 
  3277  029C                     	;# 
  3278  029D                     	;# 
  3279  029E                     	;# 
  3280  029F                     	;# 
  3281  0311                     	;# 
  3282  0311                     	;# 
  3283  0312                     	;# 
  3284  0313                     	;# 
  3285  0314                     	;# 
  3286  0315                     	;# 
  3287  0315                     	;# 
  3288  0316                     	;# 
  3289  0318                     	;# 
  3290  0318                     	;# 
  3291  0319                     	;# 
  3292  031A                     	;# 
  3293  031C                     	;# 
  3294  031C                     	;# 
  3295  031D                     	;# 
  3296  031E                     	;# 
  3297  0394                     	;# 
  3298  0395                     	;# 
  3299  0396                     	;# 
  3300  0415                     	;# 
  3301  0416                     	;# 
  3302  0417                     	;# 
  3303  041C                     	;# 
  3304  041D                     	;# 
  3305  041E                     	;# 
  3306  0791                     	;# 
  3307  0792                     	;# 
  3308  0793                     	;# 
  3309  0794                     	;# 
  3310  0795                     	;# 
  3311  0798                     	;# 
  3312  0799                     	;# 
  3313  07A0                     	;# 
  3314  07A1                     	;# 
  3315  07A3                     	;# 
  3316  07A4                     	;# 
  3317  07A6                     	;# 
  3318  07A7                     	;# 
  3319  07A9                     	;# 
  3320  07AA                     	;# 
  3321  0FE4                     	;# 
  3322  0FE5                     	;# 
  3323  0FE6                     	;# 
  3324  0FE7                     	;# 
  3325  0FE8                     	;# 
  3326  0FE9                     	;# 
  3327  0FEA                     	;# 
  3328  0FEB                     	;# 
  3329  0FED                     	;# 
  3330  0FEE                     	;# 
  3331  0FEF                     	;# 
  3332  0000                     	;# 
  3333  0001                     	;# 
  3334  0002                     	;# 
  3335  0003                     	;# 
  3336  0004                     	;# 
  3337  0005                     	;# 
  3338  0006                     	;# 
  3339  0007                     	;# 
  3340  0008                     	;# 
  3341  0009                     	;# 
  3342  000A                     	;# 
  3343  000B                     	;# 
  3344  000C                     	;# 
  3345  000D                     	;# 
  3346  000E                     	;# 
  3347  0010                     	;# 
  3348  0011                     	;# 
  3349  0012                     	;# 
  3350  0013                     	;# 
  3351  0015                     	;# 
  3352  0016                     	;# 
  3353  0016                     	;# 
  3354  0017                     	;# 
  3355  0018                     	;# 
  3356  0019                     	;# 
  3357  001A                     	;# 
  3358  001B                     	;# 
  3359  001C                     	;# 
  3360  001E                     	;# 
  3361  001F                     	;# 
  3362  008C                     	;# 
  3363  008D                     	;# 
  3364  008E                     	;# 
  3365  0090                     	;# 
  3366  0091                     	;# 
  3367  0092                     	;# 
  3368  0093                     	;# 
  3369  0095                     	;# 
  3370  0096                     	;# 
  3371  0097                     	;# 
  3372  0098                     	;# 
  3373  0099                     	;# 
  3374  009A                     	;# 
  3375  009B                     	;# 
  3376  009B                     	;# 
  3377  009C                     	;# 
  3378  009D                     	;# 
  3379  009E                     	;# 
  3380  010C                     	;# 
  3381  010D                     	;# 
  3382  010E                     	;# 
  3383  0110                     	;# 
  3384  0111                     	;# 
  3385  0112                     	;# 
  3386  0113                     	;# 
  3387  0114                     	;# 
  3388  0115                     	;# 
  3389  0116                     	;# 
  3390  0117                     	;# 
  3391  0118                     	;# 
  3392  0119                     	;# 
  3393  011A                     	;# 
  3394  011B                     	;# 
  3395  011D                     	;# 
  3396  018C                     	;# 
  3397  018D                     	;# 
  3398  0191                     	;# 
  3399  0191                     	;# 
  3400  0192                     	;# 
  3401  0193                     	;# 
  3402  0193                     	;# 
  3403  0193                     	;# 
  3404  0194                     	;# 
  3405  0195                     	;# 
  3406  0196                     	;# 
  3407  0199                     	;# 
  3408  019A                     	;# 
  3409  019B                     	;# 
  3410  019B                     	;# 
  3411  019B                     	;# 
  3412  019B                     	;# 
  3413  019C                     	;# 
  3414  019C                     	;# 
  3415  019D                     	;# 
  3416  019E                     	;# 
  3417  019F                     	;# 
  3418  020D                     	;# 
  3419  0210                     	;# 
  3420  0211                     	;# 
  3421  0212                     	;# 
  3422  0213                     	;# 
  3423  0214                     	;# 
  3424  0215                     	;# 
  3425  0215                     	;# 
  3426  0216                     	;# 
  3427  0217                     	;# 
  3428  0291                     	;# 
  3429  0291                     	;# 
  3430  0292                     	;# 
  3431  0293                     	;# 
  3432  0294                     	;# 
  3433  0295                     	;# 
  3434  0295                     	;# 
  3435  0296                     	;# 
  3436  0298                     	;# 
  3437  0298                     	;# 
  3438  0299                     	;# 
  3439  029A                     	;# 
  3440  029B                     	;# 
  3441  029C                     	;# 
  3442  029C                     	;# 
  3443  029D                     	;# 
  3444  029E                     	;# 
  3445  029F                     	;# 
  3446  0311                     	;# 
  3447  0311                     	;# 
  3448  0312                     	;# 
  3449  0313                     	;# 
  3450  0314                     	;# 
  3451  0315                     	;# 
  3452  0315                     	;# 
  3453  0316                     	;# 
  3454  0318                     	;# 
  3455  0318                     	;# 
  3456  0319                     	;# 
  3457  031A                     	;# 
  3458  031C                     	;# 
  3459  031C                     	;# 
  3460  031D                     	;# 
  3461  031E                     	;# 
  3462  0394                     	;# 
  3463  0395                     	;# 
  3464  0396                     	;# 
  3465  0415                     	;# 
  3466  0416                     	;# 
  3467  0417                     	;# 
  3468  041C                     	;# 
  3469  041D                     	;# 
  3470  041E                     	;# 
  3471  0791                     	;# 
  3472  0792                     	;# 
  3473  0793                     	;# 
  3474  0794                     	;# 
  3475  0795                     	;# 
  3476  0798                     	;# 
  3477  0799                     	;# 
  3478  07A0                     	;# 
  3479  07A1                     	;# 
  3480  07A3                     	;# 
  3481  07A4                     	;# 
  3482  07A6                     	;# 
  3483  07A7                     	;# 
  3484  07A9                     	;# 
  3485  07AA                     	;# 
  3486  0FE4                     	;# 
  3487  0FE5                     	;# 
  3488  0FE6                     	;# 
  3489  0FE7                     	;# 
  3490  0FE8                     	;# 
  3491  0FE9                     	;# 
  3492  0FEA                     	;# 
  3493  0FEB                     	;# 
  3494  0FED                     	;# 
  3495  0FEE                     	;# 
  3496  0FEF                     	;# 
  3497  0000                     	;# 
  3498  0001                     	;# 
  3499  0002                     	;# 
  3500  0003                     	;# 
  3501  0004                     	;# 
  3502  0005                     	;# 
  3503  0006                     	;# 
  3504  0007                     	;# 
  3505  0008                     	;# 
  3506  0009                     	;# 
  3507  000A                     	;# 
  3508  000B                     	;# 
  3509  000C                     	;# 
  3510  000D                     	;# 
  3511  000E                     	;# 
  3512  0010                     	;# 
  3513  0011                     	;# 
  3514  0012                     	;# 
  3515  0013                     	;# 
  3516  0015                     	;# 
  3517  0016                     	;# 
  3518  0016                     	;# 
  3519  0017                     	;# 
  3520  0018                     	;# 
  3521  0019                     	;# 
  3522  001A                     	;# 
  3523  001B                     	;# 
  3524  001C                     	;# 
  3525  001E                     	;# 
  3526  001F                     	;# 
  3527  008C                     	;# 
  3528  008D                     	;# 
  3529  008E                     	;# 
  3530  0090                     	;# 
  3531  0091                     	;# 
  3532  0092                     	;# 
  3533  0093                     	;# 
  3534  0095                     	;# 
  3535  0096                     	;# 
  3536  0097                     	;# 
  3537  0098                     	;# 
  3538  0099                     	;# 
  3539  009A                     	;# 
  3540  009B                     	;# 
  3541  009B                     	;# 
  3542  009C                     	;# 
  3543  009D                     	;# 
  3544  009E                     	;# 
  3545  010C                     	;# 
  3546  010D                     	;# 
  3547  010E                     	;# 
  3548  0110                     	;# 
  3549  0111                     	;# 
  3550  0112                     	;# 
  3551  0113                     	;# 
  3552  0114                     	;# 
  3553  0115                     	;# 
  3554  0116                     	;# 
  3555  0117                     	;# 
  3556  0118                     	;# 
  3557  0119                     	;# 
  3558  011A                     	;# 
  3559  011B                     	;# 
  3560  011D                     	;# 
  3561  018C                     	;# 
  3562  018D                     	;# 
  3563  0191                     	;# 
  3564  0191                     	;# 
  3565  0192                     	;# 
  3566  0193                     	;# 
  3567  0193                     	;# 
  3568  0193                     	;# 
  3569  0194                     	;# 
  3570  0195                     	;# 
  3571  0196                     	;# 
  3572  0199                     	;# 
  3573  019A                     	;# 
  3574  019B                     	;# 
  3575  019B                     	;# 
  3576  019B                     	;# 
  3577  019B                     	;# 
  3578  019C                     	;# 
  3579  019C                     	;# 
  3580  019D                     	;# 
  3581  019E                     	;# 
  3582  019F                     	;# 
  3583  020D                     	;# 
  3584  0210                     	;# 
  3585  0211                     	;# 
  3586  0212                     	;# 
  3587  0213                     	;# 
  3588  0214                     	;# 
  3589  0215                     	;# 
  3590  0215                     	;# 
  3591  0216                     	;# 
  3592  0217                     	;# 
  3593  0291                     	;# 
  3594  0291                     	;# 
  3595  0292                     	;# 
  3596  0293                     	;# 
  3597  0294                     	;# 
  3598  0295                     	;# 
  3599  0295                     	;# 
  3600  0296                     	;# 
  3601  0298                     	;# 
  3602  0298                     	;# 
  3603  0299                     	;# 
  3604  029A                     	;# 
  3605  029B                     	;# 
  3606  029C                     	;# 
  3607  029C                     	;# 
  3608  029D                     	;# 
  3609  029E                     	;# 
  3610  029F                     	;# 
  3611  0311                     	;# 
  3612  0311                     	;# 
  3613  0312                     	;# 
  3614  0313                     	;# 
  3615  0314                     	;# 
  3616  0315                     	;# 
  3617  0315                     	;# 
  3618  0316                     	;# 
  3619  0318                     	;# 
  3620  0318                     	;# 
  3621  0319                     	;# 
  3622  031A                     	;# 
  3623  031C                     	;# 
  3624  031C                     	;# 
  3625  031D                     	;# 
  3626  031E                     	;# 
  3627  0394                     	;# 
  3628  0395                     	;# 
  3629  0396                     	;# 
  3630  0415                     	;# 
  3631  0416                     	;# 
  3632  0417                     	;# 
  3633  041C                     	;# 
  3634  041D                     	;# 
  3635  041E                     	;# 
  3636  0791                     	;# 
  3637  0792                     	;# 
  3638  0793                     	;# 
  3639  0794                     	;# 
  3640  0795                     	;# 
  3641  0798                     	;# 
  3642  0799                     	;# 
  3643  07A0                     	;# 
  3644  07A1                     	;# 
  3645  07A3                     	;# 
  3646  07A4                     	;# 
  3647  07A6                     	;# 
  3648  07A7                     	;# 
  3649  07A9                     	;# 
  3650  07AA                     	;# 
  3651  0FE4                     	;# 
  3652  0FE5                     	;# 
  3653  0FE6                     	;# 
  3654  0FE7                     	;# 
  3655  0FE8                     	;# 
  3656  0FE9                     	;# 
  3657  0FEA                     	;# 
  3658  0FEB                     	;# 
  3659  0FED                     	;# 
  3660  0FEE                     	;# 
  3661  0FEF                     	;# 
  3662  0000                     	;# 
  3663  0001                     	;# 
  3664  0002                     	;# 
  3665  0003                     	;# 
  3666  0004                     	;# 
  3667  0005                     	;# 
  3668  0006                     	;# 
  3669  0007                     	;# 
  3670  0008                     	;# 
  3671  0009                     	;# 
  3672  000A                     	;# 
  3673  000B                     	;# 
  3674  000C                     	;# 
  3675  000D                     	;# 
  3676  000E                     	;# 
  3677  0010                     	;# 
  3678  0011                     	;# 
  3679  0012                     	;# 
  3680  0013                     	;# 
  3681  0015                     	;# 
  3682  0016                     	;# 
  3683  0016                     	;# 
  3684  0017                     	;# 
  3685  0018                     	;# 
  3686  0019                     	;# 
  3687  001A                     	;# 
  3688  001B                     	;# 
  3689  001C                     	;# 
  3690  001E                     	;# 
  3691  001F                     	;# 
  3692  008C                     	;# 
  3693  008D                     	;# 
  3694  008E                     	;# 
  3695  0090                     	;# 
  3696  0091                     	;# 
  3697  0092                     	;# 
  3698  0093                     	;# 
  3699  0095                     	;# 
  3700  0096                     	;# 
  3701  0097                     	;# 
  3702  0098                     	;# 
  3703  0099                     	;# 
  3704  009A                     	;# 
  3705  009B                     	;# 
  3706  009B                     	;# 
  3707  009C                     	;# 
  3708  009D                     	;# 
  3709  009E                     	;# 
  3710  010C                     	;# 
  3711  010D                     	;# 
  3712  010E                     	;# 
  3713  0110                     	;# 
  3714  0111                     	;# 
  3715  0112                     	;# 
  3716  0113                     	;# 
  3717  0114                     	;# 
  3718  0115                     	;# 
  3719  0116                     	;# 
  3720  0117                     	;# 
  3721  0118                     	;# 
  3722  0119                     	;# 
  3723  011A                     	;# 
  3724  011B                     	;# 
  3725  011D                     	;# 
  3726  018C                     	;# 
  3727  018D                     	;# 
  3728  0191                     	;# 
  3729  0191                     	;# 
  3730  0192                     	;# 
  3731  0193                     	;# 
  3732  0193                     	;# 
  3733  0193                     	;# 
  3734  0194                     	;# 
  3735  0195                     	;# 
  3736  0196                     	;# 
  3737  0199                     	;# 
  3738  019A                     	;# 
  3739  019B                     	;# 
  3740  019B                     	;# 
  3741  019B                     	;# 
  3742  019B                     	;# 
  3743  019C                     	;# 
  3744  019C                     	;# 
  3745  019D                     	;# 
  3746  019E                     	;# 
  3747  019F                     	;# 
  3748  020D                     	;# 
  3749  0210                     	;# 
  3750  0211                     	;# 
  3751  0212                     	;# 
  3752  0213                     	;# 
  3753  0214                     	;# 
  3754  0215                     	;# 
  3755  0215                     	;# 
  3756  0216                     	;# 
  3757  0217                     	;# 
  3758  0291                     	;# 
  3759  0291                     	;# 
  3760  0292                     	;# 
  3761  0293                     	;# 
  3762  0294                     	;# 
  3763  0295                     	;# 
  3764  0295                     	;# 
  3765  0296                     	;# 
  3766  0298                     	;# 
  3767  0298                     	;# 
  3768  0299                     	;# 
  3769  029A                     	;# 
  3770  029B                     	;# 
  3771  029C                     	;# 
  3772  029C                     	;# 
  3773  029D                     	;# 
  3774  029E                     	;# 
  3775  029F                     	;# 
  3776  0311                     	;# 
  3777  0311                     	;# 
  3778  0312                     	;# 
  3779  0313                     	;# 
  3780  0314                     	;# 
  3781  0315                     	;# 
  3782  0315                     	;# 
  3783  0316                     	;# 
  3784  0318                     	;# 
  3785  0318                     	;# 
  3786  0319                     	;# 
  3787  031A                     	;# 
  3788  031C                     	;# 
  3789  031C                     	;# 
  3790  031D                     	;# 
  3791  031E                     	;# 
  3792  0394                     	;# 
  3793  0395                     	;# 
  3794  0396                     	;# 
  3795  0415                     	;# 
  3796  0416                     	;# 
  3797  0417                     	;# 
  3798  041C                     	;# 
  3799  041D                     	;# 
  3800  041E                     	;# 
  3801  0791                     	;# 
  3802  0792                     	;# 
  3803  0793                     	;# 
  3804  0794                     	;# 
  3805  0795                     	;# 
  3806  0798                     	;# 
  3807  0799                     	;# 
  3808  07A0                     	;# 
  3809  07A1                     	;# 
  3810  07A3                     	;# 
  3811  07A4                     	;# 
  3812  07A6                     	;# 
  3813  07A7                     	;# 
  3814  07A9                     	;# 
  3815  07AA                     	;# 
  3816  0FE4                     	;# 
  3817  0FE5                     	;# 
  3818  0FE6                     	;# 
  3819  0FE7                     	;# 
  3820  0FE8                     	;# 
  3821  0FE9                     	;# 
  3822  0FEA                     	;# 
  3823  0FEB                     	;# 
  3824  0FED                     	;# 
  3825  0FEE                     	;# 
  3826  0FEF                     	;# 
  3827  0000                     	;# 
  3828  0001                     	;# 
  3829  0002                     	;# 
  3830  0003                     	;# 
  3831  0004                     	;# 
  3832  0005                     	;# 
  3833  0006                     	;# 
  3834  0007                     	;# 
  3835  0008                     	;# 
  3836  0009                     	;# 
  3837  000A                     	;# 
  3838  000B                     	;# 
  3839  000C                     	;# 
  3840  000D                     	;# 
  3841  000E                     	;# 
  3842  0010                     	;# 
  3843  0011                     	;# 
  3844  0012                     	;# 
  3845  0013                     	;# 
  3846  0015                     	;# 
  3847  0016                     	;# 
  3848  0016                     	;# 
  3849  0017                     	;# 
  3850  0018                     	;# 
  3851  0019                     	;# 
  3852  001A                     	;# 
  3853  001B                     	;# 
  3854  001C                     	;# 
  3855  001E                     	;# 
  3856  001F                     	;# 
  3857  008C                     	;# 
  3858  008D                     	;# 
  3859  008E                     	;# 
  3860  0090                     	;# 
  3861  0091                     	;# 
  3862  0092                     	;# 
  3863  0093                     	;# 
  3864  0095                     	;# 
  3865  0096                     	;# 
  3866  0097                     	;# 
  3867  0098                     	;# 
  3868  0099                     	;# 
  3869  009A                     	;# 
  3870  009B                     	;# 
  3871  009B                     	;# 
  3872  009C                     	;# 
  3873  009D                     	;# 
  3874  009E                     	;# 
  3875  010C                     	;# 
  3876  010D                     	;# 
  3877  010E                     	;# 
  3878  0110                     	;# 
  3879  0111                     	;# 
  3880  0112                     	;# 
  3881  0113                     	;# 
  3882  0114                     	;# 
  3883  0115                     	;# 
  3884  0116                     	;# 
  3885  0117                     	;# 
  3886  0118                     	;# 
  3887  0119                     	;# 
  3888  011A                     	;# 
  3889  011B                     	;# 
  3890  011D                     	;# 
  3891  018C                     	;# 
  3892  018D                     	;# 
  3893  0191                     	;# 
  3894  0191                     	;# 
  3895  0192                     	;# 
  3896  0193                     	;# 
  3897  0193                     	;# 
  3898  0193                     	;# 
  3899  0194                     	;# 
  3900  0195                     	;# 
  3901  0196                     	;# 
  3902  0199                     	;# 
  3903  019A                     	;# 
  3904  019B                     	;# 
  3905  019B                     	;# 
  3906  019B                     	;# 
  3907  019B                     	;# 
  3908  019C                     	;# 
  3909  019C                     	;# 
  3910  019D                     	;# 
  3911  019E                     	;# 
  3912  019F                     	;# 
  3913  020D                     	;# 
  3914  0210                     	;# 
  3915  0211                     	;# 
  3916  0212                     	;# 
  3917  0213                     	;# 
  3918  0214                     	;# 
  3919  0215                     	;# 
  3920  0215                     	;# 
  3921  0216                     	;# 
  3922  0217                     	;# 
  3923  0291                     	;# 
  3924  0291                     	;# 
  3925  0292                     	;# 
  3926  0293                     	;# 
  3927  0294                     	;# 
  3928  0295                     	;# 
  3929  0295                     	;# 
  3930  0296                     	;# 
  3931  0298                     	;# 
  3932  0298                     	;# 
  3933  0299                     	;# 
  3934  029A                     	;# 
  3935  029B                     	;# 
  3936  029C                     	;# 
  3937  029C                     	;# 
  3938  029D                     	;# 
  3939  029E                     	;# 
  3940  029F                     	;# 
  3941  0311                     	;# 
  3942  0311                     	;# 
  3943  0312                     	;# 
  3944  0313                     	;# 
  3945  0314                     	;# 
  3946  0315                     	;# 
  3947  0315                     	;# 
  3948  0316                     	;# 
  3949  0318                     	;# 
  3950  0318                     	;# 
  3951  0319                     	;# 
  3952  031A                     	;# 
  3953  031C                     	;# 
  3954  031C                     	;# 
  3955  031D                     	;# 
  3956  031E                     	;# 
  3957  0394                     	;# 
  3958  0395                     	;# 
  3959  0396                     	;# 
  3960  0415                     	;# 
  3961  0416                     	;# 
  3962  0417                     	;# 
  3963  041C                     	;# 
  3964  041D                     	;# 
  3965  041E                     	;# 
  3966  0791                     	;# 
  3967  0792                     	;# 
  3968  0793                     	;# 
  3969  0794                     	;# 
  3970  0795                     	;# 
  3971  0798                     	;# 
  3972  0799                     	;# 
  3973  07A0                     	;# 
  3974  07A1                     	;# 
  3975  07A3                     	;# 
  3976  07A4                     	;# 
  3977  07A6                     	;# 
  3978  07A7                     	;# 
  3979  07A9                     	;# 
  3980  07AA                     	;# 
  3981  0FE4                     	;# 
  3982  0FE5                     	;# 
  3983  0FE6                     	;# 
  3984  0FE7                     	;# 
  3985  0FE8                     	;# 
  3986  0FE9                     	;# 
  3987  0FEA                     	;# 
  3988  0FEB                     	;# 
  3989  0FED                     	;# 
  3990  0FEE                     	;# 
  3991  0FEF                     	;# 
  3992  0000                     	;# 
  3993  0001                     	;# 
  3994  0002                     	;# 
  3995  0003                     	;# 
  3996  0004                     	;# 
  3997  0005                     	;# 
  3998  0006                     	;# 
  3999  0007                     	;# 
  4000  0008                     	;# 
  4001  0009                     	;# 
  4002  000A                     	;# 
  4003  000B                     	;# 
  4004  000C                     	;# 
  4005  000D                     	;# 
  4006  000E                     	;# 
  4007  0010                     	;# 
  4008  0011                     	;# 
  4009  0012                     	;# 
  4010  0013                     	;# 
  4011  0015                     	;# 
  4012  0016                     	;# 
  4013  0016                     	;# 
  4014  0017                     	;# 
  4015  0018                     	;# 
  4016  0019                     	;# 
  4017  001A                     	;# 
  4018  001B                     	;# 
  4019  001C                     	;# 
  4020  001E                     	;# 
  4021  001F                     	;# 
  4022  008C                     	;# 
  4023  008D                     	;# 
  4024  008E                     	;# 
  4025  0090                     	;# 
  4026  0091                     	;# 
  4027  0092                     	;# 
  4028  0093                     	;# 
  4029  0095                     	;# 
  4030  0096                     	;# 
  4031  0097                     	;# 
  4032  0098                     	;# 
  4033  0099                     	;# 
  4034  009A                     	;# 
  4035  009B                     	;# 
  4036  009B                     	;# 
  4037  009C                     	;# 
  4038  009D                     	;# 
  4039  009E                     	;# 
  4040  010C                     	;# 
  4041  010D                     	;# 
  4042  010E                     	;# 
  4043  0110                     	;# 
  4044  0111                     	;# 
  4045  0112                     	;# 
  4046  0113                     	;# 
  4047  0114                     	;# 
  4048  0115                     	;# 
  4049  0116                     	;# 
  4050  0117                     	;# 
  4051  0118                     	;# 
  4052  0119                     	;# 
  4053  011A                     	;# 
  4054  011B                     	;# 
  4055  011D                     	;# 
  4056  018C                     	;# 
  4057  018D                     	;# 
  4058  0191                     	;# 
  4059  0191                     	;# 
  4060  0192                     	;# 
  4061  0193                     	;# 
  4062  0193                     	;# 
  4063  0193                     	;# 
  4064  0194                     	;# 
  4065  0195                     	;# 
  4066  0196                     	;# 
  4067  0199                     	;# 
  4068  019A                     	;# 
  4069  019B                     	;# 
  4070  019B                     	;# 
  4071  019B                     	;# 
  4072  019B                     	;# 
  4073  019C                     	;# 
  4074  019C                     	;# 
  4075  019D                     	;# 
  4076  019E                     	;# 
  4077  019F                     	;# 
  4078  020D                     	;# 
  4079  0210                     	;# 
  4080  0211                     	;# 
  4081  0212                     	;# 
  4082  0213                     	;# 
  4083  0214                     	;# 
  4084  0215                     	;# 
  4085  0215                     	;# 
  4086  0216                     	;# 
  4087  0217                     	;# 
  4088  0291                     	;# 
  4089  0291                     	;# 
  4090  0292                     	;# 
  4091  0293                     	;# 
  4092  0294                     	;# 
  4093  0295                     	;# 
  4094  0295                     	;# 
  4095  0296                     	;# 
  4096  0298                     	;# 
  4097  0298                     	;# 
  4098  0299                     	;# 
  4099  029A                     	;# 
  4100  029B                     	;# 
  4101  029C                     	;# 
  4102  029C                     	;# 
  4103  029D                     	;# 
  4104  029E                     	;# 
  4105  029F                     	;# 
  4106  0311                     	;# 
  4107  0311                     	;# 
  4108  0312                     	;# 
  4109  0313                     	;# 
  4110  0314                     	;# 
  4111  0315                     	;# 
  4112  0315                     	;# 
  4113  0316                     	;# 
  4114  0318                     	;# 
  4115  0318                     	;# 
  4116  0319                     	;# 
  4117  031A                     	;# 
  4118  031C                     	;# 
  4119  031C                     	;# 
  4120  031D                     	;# 
  4121  031E                     	;# 
  4122  0394                     	;# 
  4123  0395                     	;# 
  4124  0396                     	;# 
  4125  0415                     	;# 
  4126  0416                     	;# 
  4127  0417                     	;# 
  4128  041C                     	;# 
  4129  041D                     	;# 
  4130  041E                     	;# 
  4131  0791                     	;# 
  4132  0792                     	;# 
  4133  0793                     	;# 
  4134  0794                     	;# 
  4135  0795                     	;# 
  4136  0798                     	;# 
  4137  0799                     	;# 
  4138  07A0                     	;# 
  4139  07A1                     	;# 
  4140  07A3                     	;# 
  4141  07A4                     	;# 
  4142  07A6                     	;# 
  4143  07A7                     	;# 
  4144  07A9                     	;# 
  4145  07AA                     	;# 
  4146  0FE4                     	;# 
  4147  0FE5                     	;# 
  4148  0FE6                     	;# 
  4149  0FE7                     	;# 
  4150  0FE8                     	;# 
  4151  0FE9                     	;# 
  4152  0FEA                     	;# 
  4153  0FEB                     	;# 
  4154  0FED                     	;# 
  4155  0FEE                     	;# 
  4156  0FEF                     	;# 
  4157  0000                     	;# 
  4158  0001                     	;# 
  4159  0002                     	;# 
  4160  0003                     	;# 
  4161  0004                     	;# 
  4162  0005                     	;# 
  4163  0006                     	;# 
  4164  0007                     	;# 
  4165  0008                     	;# 
  4166  0009                     	;# 
  4167  000A                     	;# 
  4168  000B                     	;# 
  4169  000C                     	;# 
  4170  000D                     	;# 
  4171  000E                     	;# 
  4172  0010                     	;# 
  4173  0011                     	;# 
  4174  0012                     	;# 
  4175  0013                     	;# 
  4176  0015                     	;# 
  4177  0016                     	;# 
  4178  0016                     	;# 
  4179  0017                     	;# 
  4180  0018                     	;# 
  4181  0019                     	;# 
  4182  001A                     	;# 
  4183  001B                     	;# 
  4184  001C                     	;# 
  4185  001E                     	;# 
  4186  001F                     	;# 
  4187  008C                     	;# 
  4188  008D                     	;# 
  4189  008E                     	;# 
  4190  0090                     	;# 
  4191  0091                     	;# 
  4192  0092                     	;# 
  4193  0093                     	;# 
  4194  0095                     	;# 
  4195  0096                     	;# 
  4196  0097                     	;# 
  4197  0098                     	;# 
  4198  0099                     	;# 
  4199  009A                     	;# 
  4200  009B                     	;# 
  4201  009B                     	;# 
  4202  009C                     	;# 
  4203  009D                     	;# 
  4204  009E                     	;# 
  4205  010C                     	;# 
  4206  010D                     	;# 
  4207  010E                     	;# 
  4208  0110                     	;# 
  4209  0111                     	;# 
  4210  0112                     	;# 
  4211  0113                     	;# 
  4212  0114                     	;# 
  4213  0115                     	;# 
  4214  0116                     	;# 
  4215  0117                     	;# 
  4216  0118                     	;# 
  4217  0119                     	;# 
  4218  011A                     	;# 
  4219  011B                     	;# 
  4220  011D                     	;# 
  4221  018C                     	;# 
  4222  018D                     	;# 
  4223  0191                     	;# 
  4224  0191                     	;# 
  4225  0192                     	;# 
  4226  0193                     	;# 
  4227  0193                     	;# 
  4228  0193                     	;# 
  4229  0194                     	;# 
  4230  0195                     	;# 
  4231  0196                     	;# 
  4232  0199                     	;# 
  4233  019A                     	;# 
  4234  019B                     	;# 
  4235  019B                     	;# 
  4236  019B                     	;# 
  4237  019B                     	;# 
  4238  019C                     	;# 
  4239  019C                     	;# 
  4240  019D                     	;# 
  4241  019E                     	;# 
  4242  019F                     	;# 
  4243  020D                     	;# 
  4244  0210                     	;# 
  4245  0211                     	;# 
  4246  0212                     	;# 
  4247  0213                     	;# 
  4248  0214                     	;# 
  4249  0215                     	;# 
  4250  0215                     	;# 
  4251  0216                     	;# 
  4252  0217                     	;# 
  4253  0291                     	;# 
  4254  0291                     	;# 
  4255  0292                     	;# 
  4256  0293                     	;# 
  4257  0294                     	;# 
  4258  0295                     	;# 
  4259  0295                     	;# 
  4260  0296                     	;# 
  4261  0298                     	;# 
  4262  0298                     	;# 
  4263  0299                     	;# 
  4264  029A                     	;# 
  4265  029B                     	;# 
  4266  029C                     	;# 
  4267  029C                     	;# 
  4268  029D                     	;# 
  4269  029E                     	;# 
  4270  029F                     	;# 
  4271  0311                     	;# 
  4272  0311                     	;# 
  4273  0312                     	;# 
  4274  0313                     	;# 
  4275  0314                     	;# 
  4276  0315                     	;# 
  4277  0315                     	;# 
  4278  0316                     	;# 
  4279  0318                     	;# 
  4280  0318                     	;# 
  4281  0319                     	;# 
  4282  031A                     	;# 
  4283  031C                     	;# 
  4284  031C                     	;# 
  4285  031D                     	;# 
  4286  031E                     	;# 
  4287  0394                     	;# 
  4288  0395                     	;# 
  4289  0396                     	;# 
  4290  0415                     	;# 
  4291  0416                     	;# 
  4292  0417                     	;# 
  4293  041C                     	;# 
  4294  041D                     	;# 
  4295  041E                     	;# 
  4296  0791                     	;# 
  4297  0792                     	;# 
  4298  0793                     	;# 
  4299  0794                     	;# 
  4300  0795                     	;# 
  4301  0798                     	;# 
  4302  0799                     	;# 
  4303  07A0                     	;# 
  4304  07A1                     	;# 
  4305  07A3                     	;# 
  4306  07A4                     	;# 
  4307  07A6                     	;# 
  4308  07A7                     	;# 
  4309  07A9                     	;# 
  4310  07AA                     	;# 
  4311  0FE4                     	;# 
  4312  0FE5                     	;# 
  4313  0FE6                     	;# 
  4314  0FE7                     	;# 
  4315  0FE8                     	;# 
  4316  0FE9                     	;# 
  4317  0FEA                     	;# 
  4318  0FEB                     	;# 
  4319  0FED                     	;# 
  4320  0FEE                     	;# 
  4321  0FEF                     	;# 
  4322  0000                     	;# 
  4323  0001                     	;# 
  4324  0002                     	;# 
  4325  0003                     	;# 
  4326  0004                     	;# 
  4327  0005                     	;# 
  4328  0006                     	;# 
  4329  0007                     	;# 
  4330  0008                     	;# 
  4331  0009                     	;# 
  4332  000A                     	;# 
  4333  000B                     	;# 
  4334  000C                     	;# 
  4335  000D                     	;# 
  4336  000E                     	;# 
  4337  0010                     	;# 
  4338  0011                     	;# 
  4339  0012                     	;# 
  4340  0013                     	;# 
  4341  0015                     	;# 
  4342  0016                     	;# 
  4343  0016                     	;# 
  4344  0017                     	;# 
  4345  0018                     	;# 
  4346  0019                     	;# 
  4347  001A                     	;# 
  4348  001B                     	;# 
  4349  001C                     	;# 
  4350  001E                     	;# 
  4351  001F                     	;# 
  4352  008C                     	;# 
  4353  008D                     	;# 
  4354  008E                     	;# 
  4355  0090                     	;# 
  4356  0091                     	;# 
  4357  0092                     	;# 
  4358  0093                     	;# 
  4359  0095                     	;# 
  4360  0096                     	;# 
  4361  0097                     	;# 
  4362  0098                     	;# 
  4363  0099                     	;# 
  4364  009A                     	;# 
  4365  009B                     	;# 
  4366  009B                     	;# 
  4367  009C                     	;# 
  4368  009D                     	;# 
  4369  009E                     	;# 
  4370  010C                     	;# 
  4371  010D                     	;# 
  4372  010E                     	;# 
  4373  0110                     	;# 
  4374  0111                     	;# 
  4375  0112                     	;# 
  4376  0113                     	;# 
  4377  0114                     	;# 
  4378  0115                     	;# 
  4379  0116                     	;# 
  4380  0117                     	;# 
  4381  0118                     	;# 
  4382  0119                     	;# 
  4383  011A                     	;# 
  4384  011B                     	;# 
  4385  011D                     	;# 
  4386  018C                     	;# 
  4387  018D                     	;# 
  4388  0191                     	;# 
  4389  0191                     	;# 
  4390  0192                     	;# 
  4391  0193                     	;# 
  4392  0193                     	;# 
  4393  0193                     	;# 
  4394  0194                     	;# 
  4395  0195                     	;# 
  4396  0196                     	;# 
  4397  0199                     	;# 
  4398  019A                     	;# 
  4399  019B                     	;# 
  4400  019B                     	;# 
  4401  019B                     	;# 
  4402  019B                     	;# 
  4403  019C                     	;# 
  4404  019C                     	;# 
  4405  019D                     	;# 
  4406  019E                     	;# 
  4407  019F                     	;# 
  4408  020D                     	;# 
  4409  0210                     	;# 
  4410  0211                     	;# 
  4411  0212                     	;# 
  4412  0213                     	;# 
  4413  0214                     	;# 
  4414  0215                     	;# 
  4415  0215                     	;# 
  4416  0216                     	;# 
  4417  0217                     	;# 
  4418  0291                     	;# 
  4419  0291                     	;# 
  4420  0292                     	;# 
  4421  0293                     	;# 
  4422  0294                     	;# 
  4423  0295                     	;# 
  4424  0295                     	;# 
  4425  0296                     	;# 
  4426  0298                     	;# 
  4427  0298                     	;# 
  4428  0299                     	;# 
  4429  029A                     	;# 
  4430  029B                     	;# 
  4431  029C                     	;# 
  4432  029C                     	;# 
  4433  029D                     	;# 
  4434  029E                     	;# 
  4435  029F                     	;# 
  4436  0311                     	;# 
  4437  0311                     	;# 
  4438  0312                     	;# 
  4439  0313                     	;# 
  4440  0314                     	;# 
  4441  0315                     	;# 
  4442  0315                     	;# 
  4443  0316                     	;# 
  4444  0318                     	;# 
  4445  0318                     	;# 
  4446  0319                     	;# 
  4447  031A                     	;# 
  4448  031C                     	;# 
  4449  031C                     	;# 
  4450  031D                     	;# 
  4451  031E                     	;# 
  4452  0394                     	;# 
  4453  0395                     	;# 
  4454  0396                     	;# 
  4455  0415                     	;# 
  4456  0416                     	;# 
  4457  0417                     	;# 
  4458  041C                     	;# 
  4459  041D                     	;# 
  4460  041E                     	;# 
  4461  0791                     	;# 
  4462  0792                     	;# 
  4463  0793                     	;# 
  4464  0794                     	;# 
  4465  0795                     	;# 
  4466  0798                     	;# 
  4467  0799                     	;# 
  4468  07A0                     	;# 
  4469  07A1                     	;# 
  4470  07A3                     	;# 
  4471  07A4                     	;# 
  4472  07A6                     	;# 
  4473  07A7                     	;# 
  4474  07A9                     	;# 
  4475  07AA                     	;# 
  4476  0FE4                     	;# 
  4477  0FE5                     	;# 
  4478  0FE6                     	;# 
  4479  0FE7                     	;# 
  4480  0FE8                     	;# 
  4481  0FE9                     	;# 
  4482  0FEA                     	;# 
  4483  0FEB                     	;# 
  4484  0FED                     	;# 
  4485  0FEE                     	;# 
  4486  0FEF                     	;_Hour
  4487                           
  4488                           	psect	idataBANK1
  4489  0002                     __pidataBANK1:
  4490                           
  4491                           ;initializer for _Depass_Timer
  4492  0002  341E               	retlw	30
  4493                           
  4494                           ;initializer for _ACDetectCount
  4495  0003  3403               	retlw	3
  4496                           
  4497                           	psect	idataBANK2
  4498  2FA7                     __pidataBANK2:
  4499                           
  4500                           ;initializer for _Light_Meas_Avg
  4501  2FA7  34E1               	retlw	225
  4502  2FA8  3400               	retlw	0
  4503  2FA9  3400               	retlw	0
  4504  2FAA  3400               	retlw	0
  4505                           
  4506                           ;initializer for _Light_Sample_Last
  4507  2FAB  34E1               	retlw	225
  4508  2FAC  3400               	retlw	0
  4509                           
  4510                           ;initializer for _LBConserveCount
  4511  2FAD  3401               	retlw	1
  4512                           
  4513                           ;initializer for _b1HourCount
  4514  2FAE  343C               	retlw	60
  4515                           
  4516                           ;initializer for _OneMinuteCount
  4517  2FAF  343C               	retlw	60
  4518                           
  4519                           ;initializer for _b1SecCount
  4520  2FB0  3464               	retlw	100
  4521                           
  4522                           ;initializer for _LGT_State
  4523  2FB1  3401               	retlw	1
  4524                           
  4525                           ;initializer for _Disp_Intensity
  4526  2FB2  3401               	retlw	1
  4527                           
  4528                           ;initializer for _Disp_Refresh_Count
  4529  2FB3  3401               	retlw	1
  4530                           
  4531                           	psect	idataBANK3
  4532  2EBC                     __pidataBANK3:
  4533                           
  4534                           ;initializer for _LGT_Timer
  4535  2EBC  3402               	retlw	2
  4536  2EBD  3400               	retlw	0
  4537                           
  4538                           	psect	idataEEDATA
  4539  0000                     __pidataEEDATA:
  4540  0000                     _EE_Data:	
  4541                           ;initializer for _EE_Data
  4542                           
  4543  0000  0000               	db	0
  4544  0001  00FF               	db	255
  4545  0002  0000               	db	0
  4546  0003  0000               	db	0
  4547  0004  0000               	db	0
  4548  0005  0001               	db	1
  4549  0006  0000               	db	0
  4550  0007  0000               	db	0
  4551  0008  0000               	db	0
  4552  0009  0000               	db	0
  4553  000A  0000               	db	0
  4554  000B  0000               	db	0
  4555  000C  0000               	db	0
  4556  000D  0000               	db	0
  4557  000E  0000               	db	0
  4558  000F  0000               	db	0
  4559  0010  0000               	db	0
  4560  0011  00FF               	db	255
  4561  0012  0000               	db	0
  4562  0013  0000               	db	0
  4563  0014  0000               	db	0
  4564  0015  0001               	db	1
  4565  0016  0000               	db	0
  4566  0017  0000               	db	0
  4567  0018  0000               	db	0
  4568  0019  0000               	db	0
  4569  001A  0000               	db	0
  4570  001B  0000               	db	0
  4571  001C  0000               	db	0
  4572  001D  0000               	db	0
  4573  001E  0000               	db	0
  4574  001F  0000               	db	0
  4575  0020  0000               	db	0
  4576  0021  0000               	db	0
  4577  0022  0000               	db	0
  4578  0023  0000               	db	0
  4579  0024  0000               	db	0
  4580  0025  0000               	db	0
  4581  0026  0000               	db	0
  4582  0027  0000               	db	0
  4583  0028  0000               	db	0
  4584  0029  0000               	db	0
  4585  002A  0000               	db	0
  4586  002B  0000               	db	0
  4587  002C  0000               	db	0
  4588  002D  0000               	db	0
  4589  002E  0002               	db	2
  4590  002F  0005               	db	5
  4591  0030  0000               	db	0
  4592  0031  0000               	db	0
  4593  0032  0000               	db	0
  4594  0033  0000               	db	0
  4595  0034  0000               	db	0
  4596  0035  0000               	db	0
  4597  0036  0000               	db	0
  4598  0037  0000               	db	0
  4599  0038  0000               	db	0
  4600  0039  0000               	db	0
  4601  003A  0000               	db	0
  4602  003B  0000               	db	0
  4603  003C  0000               	db	0
  4604  003D  00E0               	db	224
  4605  003E  0040               	db	64
  4606  003F  00A0               	db	160
  4607  0040  00FF               	db	255
  4608  0041  00FF               	db	255
  4609  0042  00FF               	db	255
  4610  0043  00FF               	db	255
  4611  0044  00FF               	db	255
  4612  0045  00FF               	db	255
  4613  0046  00FF               	db	255
  4614  0047  00FF               	db	255
  4615  0048  00FF               	db	255
  4616  0049  00FF               	db	255
  4617  004A  00FF               	db	255
  4618  004B  00FF               	db	255
  4619  004C  00FF               	db	255
  4620  004D  00FF               	db	255
  4621  004E  00FF               	db	255
  4622  004F  00FF               	db	255
  4623  0050  00FF               	db	255
  4624  0051  00FF               	db	255
  4625  0052  00FF               	db	255
  4626  0053  00FF               	db	255
  4627  0054  00FF               	db	255
  4628  0055  00FF               	db	255
  4629  0056  00FF               	db	255
  4630  0057  00FF               	db	255
  4631  0058  00FF               	db	255
  4632  0059  00FF               	db	255
  4633  005A  00FF               	db	255
  4634  005B  00FF               	db	255
  4635  005C  00FF               	db	255
  4636  005D  00FF               	db	255
  4637  005E  00FF               	db	255
  4638  005F  00FF               	db	255
  4639  0060  00FF               	db	255
  4640  0061  00FF               	db	255
  4641  0062  00FF               	db	255
  4642  0063  00FF               	db	255
  4643  0064  00FF               	db	255
  4644  0065  00FF               	db	255
  4645  0066  00FF               	db	255
  4646  0067  00FF               	db	255
  4647  0068  00FF               	db	255
  4648  0069  00FF               	db	255
  4649  006A  00FF               	db	255
  4650  006B  00FF               	db	255
  4651  006C  00FF               	db	255
  4652  006D  00FF               	db	255
  4653  006E  00FF               	db	255
  4654  006F  00FF               	db	255
  4655  0070  00FF               	db	255
  4656  0071  00FF               	db	255
  4657  0072  00FF               	db	255
  4658  0073  00FF               	db	255
  4659  0074  00FF               	db	255
  4660  0075  00FF               	db	255
  4661  0076  00FF               	db	255
  4662  0077  00FF               	db	255
  4663  0078  00FF               	db	255
  4664  0079  00FF               	db	255
  4665  007A  00FF               	db	255
  4666  007B  00FF               	db	255
  4667  007C  00FF               	db	255
  4668  007D  00FF               	db	255
  4669  007E  00FF               	db	255
  4670  007F  00FF               	db	255
  4671  0080  00FF               	db	255
  4672  0081  00FF               	db	255
  4673  0082  00FF               	db	255
  4674  0083  00FF               	db	255
  4675  0084  00FF               	db	255
  4676  0085  00FF               	db	255
  4677  0086  00FF               	db	255
  4678  0087  00FF               	db	255
  4679  0088  00FF               	db	255
  4680  0089  00FF               	db	255
  4681  008A  00FF               	db	255
  4682  008B  00FF               	db	255
  4683  008C  00FF               	db	255
  4684  008D  00FF               	db	255
  4685  008E  00FF               	db	255
  4686  008F  00FF               	db	255
  4687  0090  00FF               	db	255
  4688  0091  00FF               	db	255
  4689  0092  00FF               	db	255
  4690  0093  00FF               	db	255
  4691  0094  00FF               	db	255
  4692  0095  00FF               	db	255
  4693  0096  00FF               	db	255
  4694  0097  00FF               	db	255
  4695  0098  00FF               	db	255
  4696  0099  00FF               	db	255
  4697  009A  00FF               	db	255
  4698  009B  00FF               	db	255
  4699  009C  00FF               	db	255
  4700  009D  00FF               	db	255
  4701  009E  00FF               	db	255
  4702  009F  00FF               	db	255
  4703  00A0  00FF               	db	255
  4704  00A1  00FF               	db	255
  4705  00A2  00FF               	db	255
  4706  00A3  00FF               	db	255
  4707  00A4  00FF               	db	255
  4708  00A5  00FF               	db	255
  4709  00A6  00FF               	db	255
  4710  00A7  00FF               	db	255
  4711  00A8  00FF               	db	255
  4712  00A9  00FF               	db	255
  4713  00AA  00FF               	db	255
  4714  00AB  00FF               	db	255
  4715  00AC  00FF               	db	255
  4716  00AD  00FF               	db	255
  4717  00AE  00FF               	db	255
  4718  00AF  00FF               	db	255
  4719  00B0  00FF               	db	255
  4720  00B1  00FF               	db	255
  4721  00B2  00FF               	db	255
  4722  00B3  00FF               	db	255
  4723  00B4  00FF               	db	255
  4724  00B5  00FF               	db	255
  4725  00B6  00FF               	db	255
  4726  00B7  00FF               	db	255
  4727  00B8  00FF               	db	255
  4728  00B9  00FF               	db	255
  4729  00BA  00FF               	db	255
  4730  00BB  00FF               	db	255
  4731  00BC  00FF               	db	255
  4732  00BD  00FF               	db	255
  4733  00BE  00FF               	db	255
  4734  00BF  00FF               	db	255
  4735  00C0  00FF               	db	255
  4736  00C1  00FF               	db	255
  4737  00C2  00FF               	db	255
  4738  00C3  00FF               	db	255
  4739  00C4  00FF               	db	255
  4740  00C5  00FF               	db	255
  4741  00C6  00FF               	db	255
  4742  00C7  00FF               	db	255
  4743  00C8  00FF               	db	255
  4744  00C9  00FF               	db	255
  4745  00CA  00FF               	db	255
  4746  00CB  00FF               	db	255
  4747  00CC  00FF               	db	255
  4748  00CD  00FF               	db	255
  4749  00CE  00FF               	db	255
  4750  00CF  00FF               	db	255
  4751  00D0  00FF               	db	255
  4752  00D1  00FF               	db	255
  4753  00D2  00FF               	db	255
  4754  00D3  00FF               	db	255
  4755  00D4  00FF               	db	255
  4756  00D5  00FF               	db	255
  4757  00D6  00FF               	db	255
  4758  00D7  00FF               	db	255
  4759  00D8  00FF               	db	255
  4760  00D9  00FF               	db	255
  4761  00DA  00FF               	db	255
  4762  00DB  00FF               	db	255
  4763  00DC  00FF               	db	255
  4764  00DD  00FF               	db	255
  4765  00DE  00FF               	db	255
  4766  00DF  00FF               	db	255
  4767  00E0  00FF               	db	255
  4768  00E1  00FF               	db	255
  4769  00E2  00FF               	db	255
  4770  00E3  00FF               	db	255
  4771  00E4  00FF               	db	255
  4772  00E5  00FF               	db	255
  4773  00E6  00FF               	db	255
  4774  00E7  00FF               	db	255
  4775  00E8  00FF               	db	255
  4776  00E9  00FF               	db	255
  4777  00EA  00FF               	db	255
  4778  00EB  00FF               	db	255
  4779  00EC  00FF               	db	255
  4780  00ED  00FF               	db	255
  4781  00EE  00FF               	db	255
  4782  00EF  00FF               	db	255
  4783  00F0  00FF               	db	255
  4784  00F1  00FF               	db	255
  4785  00F2  00FF               	db	255
  4786  00F3  00FF               	db	255
  4787  00F4  00FF               	db	255
  4788  00F5  00FF               	db	255
  4789  00F6  00FF               	db	255
  4790  00F7  00FF               	db	255
  4791  00F8  00FF               	db	255
  4792  00F9  00FF               	db	255
  4793  00FA  00FF               	db	255
  4794  00FB  00FF               	db	255
  4795  00FC  00FF               	db	255
  4796  00FD  00FF               	db	255
  4797  00FE  00FF               	db	255
  4798  00FF  00FF               	db	255
  4799                           
  4800                           	psect	stringtext1
  4801  2800                     __pstringtext1:
  4802  2800                     _CharTable:
  4803  2800  346B               	retlw	107
  4804  2801  34E3               	retlw	227
  4805  2802  347F               	retlw	127
  4806  2803  34EF               	retlw	239
  4807  2804  34EB               	retlw	235
  4808  2805  34CB               	retlw	203
  4809  2806  347B               	retlw	123
  4810  2807  34CB               	retlw	203
  4811  2808  347F               	retlw	127
  4812  2809  34C7               	retlw	199
  4813  280A  347B               	retlw	123
  4814  280B  34D3               	retlw	211
  4815  280C  346B               	retlw	107
  4816  280D  34D3               	retlw	211
  4817  280E  347B               	retlw	123
  4818  280F  34EF               	retlw	239
  4819  2810  346B               	retlw	107
  4820  2811  34C3               	retlw	195
  4821  2812  347B               	retlw	123
  4822  2813  34C3               	retlw	195
  4823  2814  346B               	retlw	107
  4824  2815  34C7               	retlw	199
  4825  2816  346F               	retlw	111
  4826  2817  34D3               	retlw	211
  4827  2818  34EB               	retlw	235
  4828  2819  34F3               	retlw	243
  4829  281A  346F               	retlw	111
  4830  281B  34CB               	retlw	203
  4831  281C  34EB               	retlw	235
  4832  281D  34D3               	retlw	211
  4833  281E  34EB               	retlw	235
  4834  281F  34D7               	retlw	215
  4835  2820  34EF               	retlw	239
  4836  2821  34F3               	retlw	243
  4837  2822  346F               	retlw	111
  4838  2823  34DF               	retlw	223
  4839  2824  34EF               	retlw	239
  4840  2825  34DF               	retlw	223
  4841  2826  34FF               	retlw	255
  4842  2827  34FF               	retlw	255
  4843  2828  34FF               	retlw	255
  4844  2829  34DF               	retlw	223
  4845  282A  346F               	retlw	111
  4846  282B  34C7               	retlw	199
  4847  282C  34EB               	retlw	235
  4848  282D  34C7               	retlw	199
  4849  282E  34EF               	retlw	239
  4850  282F  34DB               	retlw	219
  4851  2830  346F               	retlw	111
  4852  2831  34DB               	retlw	219
  4853  2832                     __end_of_CharTable:
  4854                           
  4855                           	psect	stringtext2
  4856  2832                     __pstringtext2:
  4857  2832                     _Main_Mode:
  4858  2832  3400               	retlw	0
  4859  2833  3401               	retlw	1
  4860  2834  3402               	retlw	2
  4861  2835  3403               	retlw	3
  4862  2836  3405               	retlw	5
  4863  2837  3404               	retlw	4
  4864  2838  3406               	retlw	6
  4865  2839  3407               	retlw	7
  4866  283A  3408               	retlw	8
  4867  283B  3409               	retlw	9
  4868  283C  340A               	retlw	10
  4869  283D  340B               	retlw	11
  4870  283E  340C               	retlw	12
  4871  283F  340D               	retlw	13
  4872  2840  340E               	retlw	14
  4873  2841  340F               	retlw	15
  4874  2842  3400               	retlw	0
  4875  2843  3400               	retlw	0
  4876  2844  3408               	retlw	8
  4877  2845  3406               	retlw	6
  4878  2846  3403               	retlw	3
  4879  2847  3409               	retlw	9
  4880  2848  340E               	retlw	14
  4881  2849  340A               	retlw	10
  4882  284A  3400               	retlw	0
  4883  284B  3400               	retlw	0
  4884  284C  3400               	retlw	0
  4885  284D  3400               	retlw	0
  4886  284E  3400               	retlw	0
  4887  284F  3400               	retlw	0
  4888  2850  3400               	retlw	0
  4889  2851  3400               	retlw	0
  4890  2852  3400               	retlw	0
  4891  2853  3400               	retlw	0
  4892  2854  3400               	retlw	0
  4893  2855  3400               	retlw	0
  4894  2856                     __end_of_Main_Mode:
  4895                           
  4896                           	psect	stringtext3
  4897  2856                     __pstringtext3:
  4898  2856                     _TaskTable:
  4899  2856  34E4               	retlw	low (_SoundTaskInfo| (0+256))
  4900  2857  3401               	retlw	high (_SoundTaskInfo| (0+256))
  4901  2858  34DE               	retlw	low (_ButtonTaskInfo| (0+256))
  4902  2859  3401               	retlw	high (_ButtonTaskInfo| (0+256))
  4903  285A  34D8               	retlw	low (_PTT_TaskInfo| (0+256))
  4904  285B  3401               	retlw	high (_PTT_TaskInfo| (0+256))
  4905  285C  34D2               	retlw	low (_BatteryTestInfo| (0+256))
  4906  285D  3401               	retlw	high (_BatteryTestInfo| (0+256))
  4907  285E  34CC               	retlw	low (_DebugTaskInfo| (0+256))
  4908  285F  3401               	retlw	high (_DebugTaskInfo| (0+256))
  4909  2860  34C6               	retlw	low (_AlarmPrioInfo| (0+256))
  4910  2861  3401               	retlw	high (_AlarmPrioInfo| (0+256))
  4911  2862  34C0               	retlw	low (_COAlarmInfo| (0+256))
  4912  2863  3401               	retlw	high (_COAlarmInfo| (0+256))
  4913  2864  34BA               	retlw	low (_CalManagerInfo| (0+256))
  4914  2865  3401               	retlw	high (_CalManagerInfo| (0+256))
  4915  2866  34B4               	retlw	low (_COMeasureInfo| (0+256))
  4916  2867  3401               	retlw	high (_COMeasureInfo| (0+256))
  4917  2868  344B               	retlw	low (_TroubleManagerInfo| (0+512))
  4918  2869  3402               	retlw	high (_TroubleManagerInfo| (0+512))
  4919  286A  3445               	retlw	low (_GrnLedInfo| (0+512))
  4920  286B  3402               	retlw	high (_GrnLedInfo| (0+512))
  4921  286C  343F               	retlw	low (_GrnLedBlinkInfo| (0+512))
  4922  286D  3402               	retlw	high (_GrnLedBlinkInfo| (0+512))
  4923  286E  3439               	retlw	low (_PeakButtonInfo| (0+512))
  4924  286F  3402               	retlw	high (_PeakButtonInfo| (0+512))
  4925  2870  3433               	retlw	low (_EscLightInfo| (0+512))
  4926  2871  3402               	retlw	high (_EscLightInfo| (0+512))
  4927  2872  342D               	retlw	low (_LightInfo| (0+512))
  4928  2873  3402               	retlw	high (_LightInfo| (0+512))
  4929  2874  3427               	retlw	low (_VoiceInfo| (0+512))
  4930  2875  3402               	retlw	high (_VoiceInfo| (0+512))
  4931  2876                     __end_of_TaskTable:
  4932                           
  4933                           	psect	stringtext4
  4934  3060                     __pstringtext4:
  4935  3060                     _TaskNumbers:
  4936  3060  3410               	retlw	16
  4937  3061  3400               	retlw	0
  4938  3062  3406               	retlw	6
  4939  3063  3400               	retlw	0
  4940  3064                     __end_of_TaskNumbers:
  4941                           
  4942                           	psect	stringtext5
  4943  3022                     __pstringtext5:
  4944  3022                     _SND_CO_Params:
  4945  3022  3464               	retlw	100
  4946  3023  3400               	retlw	0
  4947  3024  3464               	retlw	100
  4948  3025  3400               	retlw	0
