Microchip MPLAB XC8 Compiler V2.32

Linker command line:

--edf=C:\Program Files\Microchip\xc8\v2.32\pic\dat\en_msgs.txt -cn \
  -h+dist/2565/production\apollo_s_2565.production.sym \
  --cmf=dist/2565/production\apollo_s_2565.production.cmf -z -Q16LF1938 \
  -oC:\Users\STEVEN~1.TAN\AppData\Local\Temp\xcAsdro.4 \
  --defsym=__MPLAB_BUILD=1 \
  -Mdist/2565/production/apollo_s_2565.production.map -E1 -ver=XC8 Compiler \
  -ASTACK=0217Bh-02377h -pstack=STACK -ACODE=00h-07FFhx8 \
  -ASTRCODE=00h-03FFFh -ASTRING=00h-0FFhx64 -ACONST=00h-0FFhx64 \
  -AENTRY=00h-0FFhx64 -ACOMMON=070h-07Fh -ABANK0=020h-06Fh \
  -ABANK1=0A0h-0EFh -ABANK2=0120h-016Fh -ABANK3=01A0h-01EFh \
  -ABANK4=0220h-026Fh -ABANK5=02A0h-02EFh -ABANK6=0320h-036Fh \
  -ABANK7=03A0h-03EFh -ABANK8=0420h-046Fh -ABANK9=04A0h-04EFh \
  -ABANK10=0520h-056Fh -ABANK11=05A0h-05EFh -ABANK12=0620h-064Fh \
  -ABIGRAM=02000h-023EFh \
  -ARAM=020h-06Fh,0A0h-0EFh,0120h-016Fh,01A0h-01EFh,0220h-026Fh,02A0h-02EFh,0320h-036Fh,03A0h-03EFh,0420h-046Fh,04A0h-04EFh,0520h-056Fh,05A0h-05EFh,0620h-064Fh \
  -AABS1=020h-07Fh,0A0h-0EFh,0120h-016Fh,01A0h-01EFh,0220h-026Fh,02A0h-02EFh,0320h-036Fh,03A0h-03EFh,0420h-046Fh,04A0h-04EFh,0520h-056Fh,05A0h-05EFh,0620h-064Fh \
  -ASFR0=00h-01Fh -ASFR1=080h-09Fh -ASFR2=0100h-011Fh -ASFR3=0180h-019Fh \
  -ASFR4=0200h-021Fh -ASFR5=0280h-029Fh -ASFR6=0300h-031Fh \
  -ASFR7=0380h-039Fh -ASFR8=0400h-041Fh -ASFR9=0480h-049Fh \
  -ASFR10=0500h-051Fh -ASFR11=0580h-059Fh -ASFR12=0600h-061Fh \
  -ASFR13=0680h-06EFh -ASFR14=0700h-076Fh -ASFR15=0780h-07EFh \
  -ASFR16=0800h-086Fh -ASFR17=0880h-08EFh -ASFR18=0900h-096Fh \
  -ASFR19=0980h-09EFh -ASFR20=0A00h-0A6Fh -ASFR21=0A80h-0AEFh \
  -ASFR22=0B00h-0B6Fh -ASFR23=0B80h-0BEFh -ASFR24=0C00h-0C6Fh \
  -ASFR25=0C80h-0CEFh -ASFR26=0D00h-0D6Fh -ASFR27=0D80h-0DEFh \
  -ASFR28=0E00h-0E6Fh -ASFR29=0E80h-0EEFh -ASFR30=0F00h-0F6Fh \
  -ASFR31=0F80h-0FEFh -ACONFIG=08007h-08008h -DCONFIG=2 \
  -AIDLOC=08000h-08003h -DIDLOC=2 -AEEDATA=00h-0FFh/0F000h \
  -peeprom_data=EEDATA -DEEDATA=2 -DCODE=2 -DSTRCODE=2 -DSTRING=2 -DCONST=2 \
  -DENTRY=2 -preset_vec=00h,intentry=04h,init,end_init -ppowerup=CODE \
  -pcinit=CODE -pfunctab=ENTRY -k \
  C:\Users\STEVEN~1.TAN\AppData\Local\Temp\xcAsdro.o \
  dist/2565/production\apollo_s_2565.production.o 

Object code version is 3.11

Machine type is 16LF1938



                Name                               Link     Load   Length Selector   Space Scale
C:\Users\STEVEN~1.TAN\AppData\Local\Temp\xcAsdro.o
                end_init                             1A       1A        2        8       0
                reset_vec                             0        0        2        0       0
                config                             8007     8007        2        0       4
dist/2565/production\apollo_s_2565.production.o
                cinit                                1C       1C       59        8       0
                intentry                              4        4       16        8       0
                config                             8007     8007        2        0       4
                text103                            2187     2187       26     430E       0
                text102                            20E3     20E3       1F     41C6       0
                text101                            2E6C     2E6C        9     5CD8       0
                text100                            2E9C     2E9C        B     5D38       0
                text99                             241A     241A       38     4834       0
                text98                             2F50     2F50       16     5EA0       0
                text97                             2FC6     2FC6       1D     5F8C       0
                text96                             2FE3     2FE3       1D     5FC6       0
                text95                             2500     2500       3E     4A00       0
                text94                              800      800      142     1000       0
                text93                             2452     2452       3A     48A4       0
                text92                             2E4C     2E4C        6     5C98       0
                text91                             248C     248C       3A     4918       0
                text90                              7CC      7CC       34        8       0
                text89                             2015     2015       1D     402A       0
                text88                             22E1     22E1       31     45C2       0
                text87                             2EA7     2EA7        B     5D4E       0
                text86                             1803     1803        F     3006       0
                text85                             2E7E     2E7E        A     5CFC       0
                text84                             2E41     2E41        3     5C82       0
                text83                             2EFA     2EFA        D     5DF4       0
                text82                             2343     2343       32     4686       0
                text81                             2143     2143       22     4286       0
                text80                             1C9D     1C9D       82     393A       0
                text79                             2282     2282       2F     4504       0
                text78                             2089     2089       1E     4112       0
                text77                             21FC     21FC       2C     43F8       0
                text76                             1944     1944       6F     3288       0
                text75                             21D3     21D3       29     43A6       0
                text74                             2E5E     2E5E        7     5CBC       0
                text73                             2032     2032       1D     4064       0
                text72                             1E67     1E67       B6     3CCE       0
                text71                             2102     2102       20     4204       0
                text70                             204F     204F       1D     409E       0
                text69                             2691     2691       52     4D22       0
                text68                             1B9C     1B9C       80     3738       0
                text67                             25BB     25BB       40     4B76       0
                text66                             18DA     18DA       6A     31B4       0
                text65                             25FB     25FB       45     4BF6       0
                text64                             1C1C     1C1C       81     3838       0
                text63                             2F2E     2F2E        E     5E5C       0
                text62                             1B1D     1B1D       7F     363A       0
                text61                             1D1F     1D1F       99     3A3E       0
                text60                             24C6     24C6       3A     498C       0
                text59                             2F3C     2F3C       14     5E78       0
                text58                             2375     2375       37     46EA       0
                text57                             1874     1874       66     30E8       0
                text56                             20A7     20A7       1E     414E       0
                text55                             206C     206C       1D     40D8       0
                text54                             20C5     20C5       1E     418A       0
                text53                             22B1     22B1       30     4562       0
                text52                             21AD     21AD       26     435A       0
                text51                             2E3D     2E3D        2     5C7A       0
                text50                             2E65     2E65        7     5CCA       0
                text49                             2FAB     2FAB       1B     5F56       0
                text48                             2F07     2F07        D     5E0E       0
                text47                             2228     2228       2D     4450       0
                text46                             2F7C     2F7C       17     5EF8       0
                text45                             26E3     26E3       5D     4DC6       0
                text44                              CCA      CCA      336     1994       0
                text43                               75       75      4D6        8       0
                text42                             23AC     23AC       37     4758       0
                text41                             2E3F     2E3F        2     5C7E       0
                text40                             2E88     2E88        A     5D10       0
                text39                             1812     1812       62     3024       0
                text38                             2F66     2F66       16     5ECC       0
                text37                             257C     257C       3F     4AF8       0
                text36                             1AA2     1AA2       7B     3544       0
                text35                             2E44     2E44        3     5C88       0
                text34                             253E     253E       3E     4A7C       0
                text33                             2740     2740       5F     4E80       0
                text32                             2255     2255       2D     44AA       0
                text31                             1A2A     1A2A       78     3454       0
                text30                             2E52     2E52        6     5CA4       0
                text29                             2312     2312       31     4624       0
                text28                             2001     2001       14     4002       0
                text27                             2F93     2F93       18     5F26       0
                text26                             2122     2122       21     4244       0
                text25                             279F     279F       61     4F3E       0
                text24                             2F14     2F14        D     5E28       0
                text23                             1800     1800        3     2CE8       0
                text22                             2F21     2F21        D     5E42       0
                text21                             14F0     14F0      184     29E0       0
                text20                             2E92     2E92        A     5D24       0
                text19                             2E47     2E47        5     5C8E       0
                text18                             23E3     23E3       37     47C6       0
                text17                             2EB2     2EB2        C     5D64       0
                text16                             2EBE     2EBE        C     5D7C       0
                text15                             2640     2640       51     4C80       0
                text14                             1285     1285      104     250A       0
                text13                             1389     1389      167     2712       0
                text12                             1184     1184      101     2308       0
                text11                             1674     1674      18C     2CE8       0
                text10                              AFC      AFC      1CE     15F8       0
                text9                              2ECA     2ECA        C     5D94       0
                text8                              2165     2165       22     42CA       0
                text7                              1000     1000       97     1994       0
                text6                               942      942      1BA     1284       0
                text5                              1097     1097       ED     212E       0
                text4                              19B3     19B3       77     3366       0
                text3                              1F1D     1F1D       E3     3E3A       0
                text2                              1DB8     1DB8       AF     3B70       0
                text1                              2ED6     2ED6        C     5DAC       0
                maintext                            54B      54B      281        8       0
                cstackBANK0                          20       20       3F       20       1
                cstackCOMMON                         70       70        E       70       1
                cstackBANK1                          D4       D4       18       B0       1
                clrtext                            2EE2     2EE2        C     5DC4       0
                inittext                           2EEE     2EEE        C     5DDC       0
                bssBANK4                            220      220       37      220       1
                dataBANK3                           1E4      1E4        6      1A0       1
                bssBANK3                            1A0      1A0       44      1A0       1
                dataBANK2                           163      163        9      120       1
                bssBANK2                            120      120       43      120       1
                dataBANK1                            EE       EE        2       B0       1
                bssBANK1                             B0       B0       24       B0       1
                bssBANK0                             63       63        4       20       1
                stringtext18                       306A     306A        2     6000       0
                stringtext17                       3067     3067        3     6000       0
                stringtext16                       3064     3064        3     6000       0
                stringtext15                       3061     3061        3     6000       0
                stringtext14                       305D     305D        4     6000       0
                stringtext13                       3054     3054        5     6000       0
                stringtext12                       304D     304D        7     6000       0
                stringtext11                       3045     3045        8     6000       0
                stringtext10                       303D     303D        8     6000       0
                stringtext9                        3034     3034        9     6000       0
                stringtext8                        302B     302B        9     6000       0
                stringtext7                        3011     3011       11     6000       0
                stringtext6                        3000     3000       11     6000       0
                nvBANK4                             257      257        4      220       1
                nvBANK3                             1EA      1EA        2      1A0       1
                nvBANK2                             16C      16C        4      120       1
                nvBANK1                              EC       EC        2       B0       1
                nvBANK0                              5F       5F        4       20       1
                stringtext5                        3022     3022        9     6000       0
                stringtext4                        3059     3059        4     6000       0
                stringtext3                        2856     2856       20     5000       0
                stringtext2                        2832     2832       24     5000       0
                stringtext1                        2800     2800       32     5000       0
                idataEEDATA                           0     F000      100    1E000       3
                idataBANK3                         2E58     2E58        6     5CB0       0
                idataBANK2                         2E75     2E75        9     5CEA       0
                idataBANK1                            2        2        2        0       0

TOTAL           Name                               Link     Load   Length     Space
        CLASS   STACK          

        CLASS   CODE           
                end_init                             1A       1A        2         0
                cinit                                1C       1C       59         0
                intentry                              4        4       16         0
                reset_vec                             0        0        2         0
                text103                            2187     2187       26         0
                text102                            20E3     20E3       1F         0
                text101                            2E6C     2E6C        9         0
                text100                            2E9C     2E9C        B         0
                text99                             241A     241A       38         0
                text98                             2F50     2F50       16         0
                text97                             2FC6     2FC6       1D         0
                text96                             2FE3     2FE3       1D         0
                text95                             2500     2500       3E         0
                text94                              800      800      142         0
                text93                             2452     2452       3A         0
                text92                             2E4C     2E4C        6         0
                text91                             248C     248C       3A         0
                text90                              7CC      7CC       34         0
                text89                             2015     2015       1D         0
                text88                             22E1     22E1       31         0
                text87                             2EA7     2EA7        B         0
                text86                             1803     1803        F         0
                text85                             2E7E     2E7E        A         0
                text84                             2E41     2E41        3         0
                text83                             2EFA     2EFA        D         0
                text82                             2343     2343       32         0
                text81                             2143     2143       22         0
                text80                             1C9D     1C9D       82         0
                text79                             2282     2282       2F         0
                text78                             2089     2089       1E         0
                text77                             21FC     21FC       2C         0
                text76                             1944     1944       6F         0
                text75                             21D3     21D3       29         0
                text74                             2E5E     2E5E        7         0
                text73                             2032     2032       1D         0
                text72                             1E67     1E67       B6         0
                text71                             2102     2102       20         0
                text70                             204F     204F       1D         0
                text69                             2691     2691       52         0
                text68                             1B9C     1B9C       80         0
                text67                             25BB     25BB       40         0
                text66                             18DA     18DA       6A         0
                text65                             25FB     25FB       45         0
                text64                             1C1C     1C1C       81         0
                text63                             2F2E     2F2E        E         0
                text62                             1B1D     1B1D       7F         0
                text61                             1D1F     1D1F       99         0
                text60                             24C6     24C6       3A         0
                text59                             2F3C     2F3C       14         0
                text58                             2375     2375       37         0
                text57                             1874     1874       66         0
                text56                             20A7     20A7       1E         0
                text55                             206C     206C       1D         0
                text54                             20C5     20C5       1E         0
                text53                             22B1     22B1       30         0
                text52                             21AD     21AD       26         0
                text51                             2E3D     2E3D        2         0
                text50                             2E65     2E65        7         0
                text49                             2FAB     2FAB       1B         0
                text48                             2F07     2F07        D         0
                text47                             2228     2228       2D         0
                text46                             2F7C     2F7C       17         0
                text45                             26E3     26E3       5D         0
                text44                              CCA      CCA      336         0
                text43                               75       75      4D6         0
                text42                             23AC     23AC       37         0
                text41                             2E3F     2E3F        2         0
                text40                             2E88     2E88        A         0
                text39                             1812     1812       62         0
                text38                             2F66     2F66       16         0
                text37                             257C     257C       3F         0
                text36                             1AA2     1AA2       7B         0
                text35                             2E44     2E44        3         0
                text34                             253E     253E       3E         0
                text33                             2740     2740       5F         0
                text32                             2255     2255       2D         0
                text31                             1A2A     1A2A       78         0
                text30                             2E52     2E52        6         0
                text29                             2312     2312       31         0
                text28                             2001     2001       14         0
                text27                             2F93     2F93       18         0
                text26                             2122     2122       21         0
                text25                             279F     279F       61         0
                text24                             2F14     2F14        D         0
                text23                             1800     1800        3         0
                text22                             2F21     2F21        D         0
                text21                             14F0     14F0      184         0
                text20                             2E92     2E92        A         0
                text19                             2E47     2E47        5         0
                text18                             23E3     23E3       37         0
                text17                             2EB2     2EB2        C         0
                text16                             2EBE     2EBE        C         0
                text15                             2640     2640       51         0
                text14                             1285     1285      104         0
                text13                             1389     1389      167         0
                text12                             1184     1184      101         0
                text11                             1674     1674      18C         0
                text10                              AFC      AFC      1CE         0
                text9                              2ECA     2ECA        C         0
                text8                              2165     2165       22         0
                text7                              1000     1000       97         0
                text6                               942      942      1BA         0
                text5                              1097     1097       ED         0
                text4                              19B3     19B3       77         0
                text3                              1F1D     1F1D       E3         0
                text2                              1DB8     1DB8       AF         0
                text1                              2ED6     2ED6        C         0
                maintext                            54B      54B      281         0
                clrtext                            2EE2     2EE2        C         0
                inittext                           2EEE     2EEE        C         0
                idataBANK3                         2E58     2E58        6         0
                idataBANK2                         2E75     2E75        9         0
                idataBANK1                            2        2        2         0

        CLASS   STRCODE        
                stringtext18                       306A     306A        2         0
                stringtext17                       3067     3067        3         0
                stringtext16                       3064     3064        3         0
                stringtext15                       3061     3061        3         0
                stringtext14                       305D     305D        4         0
                stringtext13                       3054     3054        5         0
                stringtext12                       304D     304D        7         0
                stringtext11                       3045     3045        8         0
                stringtext10                       303D     303D        8         0
                stringtext9                        3034     3034        9         0
                stringtext8                        302B     302B        9         0
                stringtext7                        3011     3011       11         0
                stringtext6                        3000     3000       11         0
                stringtext5                        3022     3022        9         0
                stringtext4                        3059     3059        4         0
                stringtext3                        2856     2856       20         0
                stringtext2                        2832     2832       24         0
                stringtext1                        2800     2800       32         0

        CLASS   STRING         

        CLASS   CONST          

        CLASS   ENTRY          

        CLASS   COMMON         
                cstackCOMMON                         70       70        E         1

        CLASS   BANK0          
                cstackBANK0                          20       20       3F         1
                bssBANK0                             63       63        4         1
                nvBANK0                              5F       5F        4         1

        CLASS   BANK1          
                cstackBANK1                          D4       D4       18         1
                dataBANK1                            EE       EE        2         1
                bssBANK1                             B0       B0       24         1
                nvBANK1                              EC       EC        2         1

        CLASS   BANK2          
                dataBANK2                           163      163        9         1
                bssBANK2                            120      120       43         1
                nvBANK2                             16C      16C        4         1

        CLASS   BANK3          
                dataBANK3                           1E4      1E4        6         1
                bssBANK3                            1A0      1A0       44         1
                nvBANK3                             1EA      1EA        2         1

        CLASS   BANK4          
                bssBANK4                            220      220       37         1
                nvBANK4                             257      257        4         1

        CLASS   BANK5          

        CLASS   BANK6          

        CLASS   BANK7          

        CLASS   BANK8          

        CLASS   BANK9          

        CLASS   BANK10         

        CLASS   BANK11         

        CLASS   BANK12         

        CLASS   BIGRAM         

        CLASS   RAM            

        CLASS   ABS1           
                abs_s1                               7E       7E        2         1
                abs_s1                               A0       A0       10         1
                abs_s1                              5A8      5A8       48         1
                abs_s1                              620      620       30         1
                abs_s1                             2378     2378        0         1

        CLASS   SFR0           

        CLASS   SFR1           

        CLASS   SFR2           

        CLASS   SFR3           

        CLASS   SFR4           

        CLASS   SFR5           

        CLASS   SFR6           

        CLASS   SFR7           

        CLASS   SFR8           

        CLASS   SFR9           

        CLASS   SFR10          

        CLASS   SFR11          

        CLASS   SFR12          

        CLASS   SFR13          

        CLASS   SFR14          

        CLASS   SFR15          

        CLASS   SFR16          

        CLASS   SFR17          

        CLASS   SFR18          

        CLASS   SFR19          

        CLASS   SFR20          

        CLASS   SFR21          

        CLASS   SFR22          

        CLASS   SFR23          

        CLASS   SFR24          

        CLASS   SFR25          

        CLASS   SFR26          

        CLASS   SFR27          

        CLASS   SFR28          

        CLASS   SFR29          

        CLASS   SFR30          

        CLASS   SFR31          

        CLASS   CONFIG         
                config                             8007     8007        2         4

        CLASS   IDLOC          

        CLASS   EEDATA         
                idataEEDATA                           0     F000      100         3

        CLASS   BANK31         

        CLASS   BANK30         

        CLASS   BANK29         

        CLASS   BANK28         

        CLASS   BANK27         

        CLASS   BANK26         

        CLASS   BANK25         

        CLASS   BANK24         

        CLASS   BANK23         

        CLASS   BANK22         

        CLASS   BANK21         

        CLASS   BANK20         

        CLASS   BANK19         

        CLASS   BANK18         

        CLASS   BANK17         

        CLASS   BANK16         

        CLASS   BANK15         

        CLASS   BANK14         

        CLASS   BANK13         



SEGMENTS        Name                           Load    Length   Top    Selector   Space  Class     Delta

                reset_vec                      000000  000004  000004         0       0  CODE        2
                intentry                       000004  0007FC  000800         8       0  CODE        2
                cstackBANK0                    000020  000047  000067        20       1  BANK0       1
                cstackCOMMON                   000070  00000E  00007E        70       1  COMMON      1
                bssBANK1                       0000B0  000040  0000F0        B0       1  BANK1       1
                bssBANK2                       000120  000050  000170       120       1  BANK2       1
                bssBANK3                       0001A0  00004C  0001EC       1A0       1  BANK3       1
                bssBANK4                       000220  00003B  00025B       220       1  BANK4       1
                text94                         000800  000142  000942      1000       0  CODE        2
                text6                          000942  0001BA  000AFC      1284       0  CODE        2
                text10                         000AFC  0001CE  000CCA      15F8       0  CODE        2
                text44                         000CCA  0003CD  001097      1994       0  CODE        2
                text5                          001097  0000ED  001184      212E       0  CODE        2
                text12                         001184  000101  001285      2308       0  CODE        2
                text14                         001285  000104  001389      250A       0  CODE        2
                text13                         001389  000167  0014F0      2712       0  CODE        2
                text21                         0014F0  000184  001674      29E0       0  CODE        2
                text11                         001674  00018F  001803      2CE8       0  CODE        2
                text86                         001803  00000F  001812      3006       0  CODE        2
                text39                         001812  000062  001874      3024       0  CODE        2
                text57                         001874  000066  0018DA      30E8       0  CODE        2
                text66                         0018DA  00006A  001944      31B4       0  CODE        2
                text76                         001944  00006F  0019B3      3288       0  CODE        2
                text4                          0019B3  000077  001A2A      3366       0  CODE        2
                text31                         001A2A  000078  001AA2      3454       0  CODE        2
                text36                         001AA2  00007B  001B1D      3544       0  CODE        2
                text62                         001B1D  00007F  001B9C      363A       0  CODE        2
                text68                         001B9C  000080  001C1C      3738       0  CODE        2
                text64                         001C1C  000081  001C9D      3838       0  CODE        2
                text80                         001C9D  000082  001D1F      393A       0  CODE        2
                text61                         001D1F  000099  001DB8      3A3E       0  CODE        2
                text2                          001DB8  0000AF  001E67      3B70       0  CODE        2
                text72                         001E67  0000B6  001F1D      3CCE       0  CODE        2
                text3                          001F1D  0000E3  002000      3E3A       0  CODE        2
                text28                         002001  000014  002015      4002       0  CODE        2
                text89                         002015  00001D  002032      402A       0  CODE        2
                text73                         002032  00001D  00204F      4064       0  CODE        2
                text70                         00204F  00001D  00206C      409E       0  CODE        2
                text55                         00206C  00001D  002089      40D8       0  CODE        2
                text78                         002089  00001E  0020A7      4112       0  CODE        2
                text56                         0020A7  00001E  0020C5      414E       0  CODE        2
                text54                         0020C5  00001E  0020E3      418A       0  CODE        2
                text102                        0020E3  00001F  002102      41C6       0  CODE        2
                text71                         002102  000020  002122      4204       0  CODE        2
                text26                         002122  000021  002143      4244       0  CODE        2
                text81                         002143  000022  002165      4286       0  CODE        2
                text8                          002165  000022  002187      42CA       0  CODE        2
                text103                        002187  000026  0021AD      430E       0  CODE        2
                text52                         0021AD  000026  0021D3      435A       0  CODE        2
                text75                         0021D3  000029  0021FC      43A6       0  CODE        2
                text77                         0021FC  00002C  002228      43F8       0  CODE        2
                text47                         002228  00002D  002255      4450       0  CODE        2
                text32                         002255  00002D  002282      44AA       0  CODE        2
                text79                         002282  00002F  0022B1      4504       0  CODE        2
                text53                         0022B1  000030  0022E1      4562       0  CODE        2
                text88                         0022E1  000031  002312      45C2       0  CODE        2
                text29                         002312  000031  002343      4624       0  CODE        2
                text82                         002343  000032  002375      4686       0  CODE        2
                text58                         002375  000037  0023AC      46EA       0  CODE        2
                text42                         0023AC  000037  0023E3      4758       0  CODE        2
                text18                         0023E3  000037  00241A      47C6       0  CODE        2
                text99                         00241A  000038  002452      4834       0  CODE        2
                text93                         002452  00003A  00248C      48A4       0  CODE        2
                text91                         00248C  00003A  0024C6      4918       0  CODE        2
                text60                         0024C6  00003A  002500      498C       0  CODE        2
                text95                         002500  00003E  00253E      4A00       0  CODE        2
                text34                         00253E  00003E  00257C      4A7C       0  CODE        2
                text37                         00257C  00003F  0025BB      4AF8       0  CODE        2
                text67                         0025BB  000040  0025FB      4B76       0  CODE        2
                text65                         0025FB  000045  002640      4BF6       0  CODE        2
                text15                         002640  000051  002691      4C80       0  CODE        2
                text69                         002691  000052  0026E3      4D22       0  CODE        2
                text45                         0026E3  00005D  002740      4DC6       0  CODE        2
                text33                         002740  00005F  00279F      4E80       0  CODE        2
                text25                         00279F  000061  002800      4F3E       0  CODE        2
                stringtext1                    002800  000076  002876      5000       0  STRCODE     2
                text51                         002E3D  000002  002E3F      5C7A       0  CODE        2
                text41                         002E3F  000002  002E41      5C7E       0  CODE        2
                text84                         002E41  000003  002E44      5C82       0  CODE        2
                text35                         002E44  000003  002E47      5C88       0  CODE        2
                text19                         002E47  000005  002E4C      5C8E       0  CODE        2
                text92                         002E4C  000006  002E52      5C98       0  CODE        2
                text30                         002E52  000006  002E58      5CA4       0  CODE        2
                idataBANK3                     002E58  000006  002E5E      5CB0       0  CODE        2
                text74                         002E5E  000007  002E65      5CBC       0  CODE        2
                text50                         002E65  000007  002E6C      5CCA       0  CODE        2
                text101                        002E6C  000009  002E75      5CD8       0  CODE        2
                idataBANK2                     002E75  000009  002E7E      5CEA       0  CODE        2
                text85                         002E7E  00000A  002E88      5CFC       0  CODE        2
                text40                         002E88  00000A  002E92      5D10       0  CODE        2
                text20                         002E92  00000A  002E9C      5D24       0  CODE        2
                text100                        002E9C  00000B  002EA7      5D38       0  CODE        2
                text87                         002EA7  00000B  002EB2      5D4E       0  CODE        2
                text17                         002EB2  00000C  002EBE      5D64       0  CODE        2
                text16                         002EBE  00000C  002ECA      5D7C       0  CODE        2
                text9                          002ECA  00000C  002ED6      5D94       0  CODE        2
                text1                          002ED6  00000C  002EE2      5DAC       0  CODE        2
                clrtext                        002EE2  00000C  002EEE      5DC4       0  CODE        2
                inittext                       002EEE  00000C  002EFA      5DDC       0  CODE        2
                text83                         002EFA  00000D  002F07      5DF4       0  CODE        2
                text48                         002F07  00000D  002F14      5E0E       0  CODE        2
                text24                         002F14  00000D  002F21      5E28       0  CODE        2
                text22                         002F21  00000D  002F2E      5E42       0  CODE        2
                text63                         002F2E  00000E  002F3C      5E5C       0  CODE        2
                text59                         002F3C  000014  002F50      5E78       0  CODE        2
                text98                         002F50  000016  002F66      5EA0       0  CODE        2
                text38                         002F66  000016  002F7C      5ECC       0  CODE        2
                text46                         002F7C  000017  002F93      5EF8       0  CODE        2
                text27                         002F93  000018  002FAB      5F26       0  CODE        2
                text49                         002FAB  00001B  002FC6      5F56       0  CODE        2
                text97                         002FC6  00001D  002FE3      5F8C       0  CODE        2
                text96                         002FE3  00001D  003000      5FC6       0  CODE        2
                stringtext6                    003000  00006C  00306C      6000       0  STRCODE     2
                idataEEDATA                    00F000  000100  00F100     1E000       3  EEDATA      2


UNUSED ADDRESS RANGES

        Name                Unused          Largest block    Delta
        BANK0            00067-0006F               9           1
        BANK10           00520-0056F              50           1
        BANK11           005A0-005A7               8           1
        BANK3            001EC-001EF               4           1
        BANK4            0025B-0026F              15           1
        BANK5            002A0-002EF              50           1
        BANK6            00320-0036F              50           1
        BANK7            003A0-003EF              50           1
        BANK8            00420-0046F              50           1
        BANK9            004A0-004EF              50           1
        BIGRAM           02000-023EF             3F0           1
        CODE             02000-02000               1           2
                         02876-02E3C             5C7
                         0306C-03FFF             794
        CONST            02000-02000               1           2
                         02876-02E3C             100
                         0306C-03FFF             100
        ENTRY            02000-02000               1           2
                         02876-02E3C             100
                         0306C-03FFF             100
        IDLOC            08000-08003               4           2
        RAM              00067-0006F               9           1
                         001EC-001EF               4
                         0025B-0026F              15
                         002A0-002EF              50
                         00320-0036F              50
                         003A0-003EF              50
                         00420-0046F              50
                         004A0-004EF              50
                         00520-0056F              50
                         005A0-005A7               8
        SFR0             00000-0001F              20           1
        SFR1             00080-0009F              20           1
        SFR10            00500-0051F              20           1
        SFR11            00580-0059F              20           1
        SFR12            00600-0061F              20           1
        SFR13            00680-006EF              70           1
        SFR14            00700-0076F              70           1
        SFR15            00780-007EF              70           1
        SFR16            00800-0086F              70           1
        SFR17            00880-008EF              70           1
        SFR18            00900-0096F              70           1
        SFR19            00980-009EF              70           1
        SFR2             00100-0011F              20           1
        SFR20            00A00-00A6F              70           1
        SFR21            00A80-00AEF              70           1
        SFR22            00B00-00B6F              70           1
        SFR23            00B80-00BEF              70           1
        SFR24            00C00-00C6F              70           1
        SFR25            00C80-00CEF              70           1
        SFR26            00D00-00D6F              70           1
        SFR27            00D80-00DEF              70           1
        SFR28            00E00-00E6F              70           1
        SFR29            00E80-00EEF              70           1
        SFR3             00180-0019F              20           1
        SFR30            00F00-00F6F              70           1
        SFR31            00F80-00FEF              70           1
        SFR4             00200-0021F              20           1
        SFR5             00280-0029F              20           1
        SFR6             00300-0031F              20           1
        SFR7             00380-0039F              20           1
        SFR8             00400-0041F              20           1
        SFR9             00480-0049F              20           1
        STACK            0217B-02377             1FD           1
        STRCODE          02000-02000               1           2
                         02876-02E3C             5C7
                         0306C-03FFF             F94
        STRING           02000-02000               1           2
                         02876-02E3C             100
                         0306C-03FFF             100

                                  Symbol Table

?_A2D_Convert                          cstackCOMMON 00070
?_ALM_Alarm_Bat_Conserve_Logic         cstackCOMMON 00071
?_Age_Correct_PPM                      cstackBANK0  0002D
?_AlarmPriorityTask                    cstackBANK0  00046
?_BAT_Do_Test                          cstackCOMMON 00073
?_BTN_Task                             cstackBANK0  00046
?_BatteryTest_Task                     cstackBANK0  00046
?_CAL_Manager                          cstackBANK0  00046
?_COAlarmTask                          cstackBANK0  00046
?_COMeasureTask                        cstackBANK0  00046
?_DebugTask                            cstackBANK0  00046
?_Esc_Light_Process                    cstackBANK0  00046
?_GLED_Blink                           cstackBANK0  00046
?_GLED_Manager                         cstackBANK0  00046
?_LIFE_Get_Current_Day                 cstackCOMMON 00070
?_Light_Manager                        cstackBANK0  00046
?_MEAS_Make_Measurement                cstackBANK0  0002D
?_Main_Calc_Current_Tics               cstackCOMMON 00070
?_Make_Return_Value                    cstackCOMMON 00078
?_PTT_Task                             cstackBANK0  00046
?_Peak_BTN_Task                        cstackBANK0  00046
?_SER_Strx_To_Int                      cstackCOMMON 00075
?_SND_Trouble_Manager                  cstackBANK0  00046
?_SounderTask                          cstackBANK0  00046
?_VCE_Process                          cstackBANK0  00046
?___aldiv                              cstackCOMMON 00070
?___lldiv                              cstackBANK0  00020
?___lmul                               cstackCOMMON 00070
?___lwdiv                              cstackCOMMON 00070
?___lwmod                              cstackCOMMON 00070
?___wmul                               cstackCOMMON 00070
?_strlen                               cstackCOMMON 00070
A2D_Convert@channel                    cstackCOMMON 00072
A2D_Test_AC@AD_AC_Volt                 cstackBANK0  0002F
Age_Correct_PPM@days                   cstackBANK0  00037
Age_Correct_PPM@num_qtrs               cstackBANK0  0002F
Age_Correct_PPM@ppm                    cstackBANK0  0002D
Age_Correct_PPM@ppm_corrected          cstackBANK0  00039
AlarmPriorityTask@retval               cstackBANK0  0003F
BAT_Do_Test@retval                     cstackCOMMON 00077
BAT_Set_Test_Interval@mode             cstackCOMMON 00070
BatteryTest_Task@BAT_Measured          cstackBANK0  00048
BatteryTest_Task@BAT_Vdd               cstackBANK0  00042
BatteryTest_Task@batvolt               cstackBANK0  00046
CAL_Manager@calval                     cstackBANK0  00042
CAL_Manager@scale                      cstackBANK0  00044
CAL_Manager@scale_cts                  cstackBANK0  00046
COAlarmTask@Alarm_Temp1                cstackBANK0  00047
COAlarmTask@calstate                   cstackBANK0  00046
COAlarmTask@local                      cstackBANK0  00044
Calculate_PPM@offset                   cstackBANK0  00044
Calculate_PPM@raw_counts               cstackBANK0  0003B
Command_Processor@addr                 cstackBANK0  00047
Command_Processor@addr_1088            cstackBANK0  00048
Command_Processor@addr_1117            cstackBANK0  0004A
Command_Processor@address              cstackBANK0  00053
Command_Processor@c                    cstackBANK0  0004D
Command_Processor@c_1086               cstackBANK0  0004F
Command_Processor@c_1115               cstackBANK0  00051
Command_Processor@csum                 cstackBANK0  00046
Command_Processor@data                 cstackBANK0  0003F
Command_Processor@hist_addr            cstackBANK0  00042
Command_Processor@hist_addr_1118       cstackBANK0  00044
Command_Processor@r                    cstackBANK0  0004C
Command_Processor@r_1085               cstackBANK0  0004E
Command_Processor@r_1114               cstackBANK0  00050
Command_Processor@r_1120               cstackBANK0  00052
Command_Processor@ram_addr             cstackBANK0  00049
Command_Processor@string               cstackBANK0  00036
Command_Processor@value                cstackBANK0  0004B
Command_Processor@value_1087           cstackBANK0  00040
Command_Processor@value_1116           cstackBANK0  00041
Diag_Hist_Bat_Record@battime           cstackBANK0  00024
Diag_Hist_Bat_Record@batvolt           cstackBANK0  00022
Diag_Hist_Bat_Record@buffer            cstackBANK0  00025
Diag_Hist_EE_Error@count               cstackCOMMON 00078
Diag_Hist_Que_Push@count               cstackBANK0  00026
Diag_Hist_Que_Push@count_address       cstackBANK0  0002A
Diag_Hist_Que_Push@day                 cstackBANK0  00028
Diag_Hist_Que_Push@day_h               cstackBANK0  00025
Diag_Hist_Que_Push@day_l               cstackBANK0  00027
Diag_Hist_Que_Push@event               cstackBANK0  00024
Diag_Hist_Que_Push@event_code          cstackBANK0  0002E
Diag_Hist_Que_Push@event_ptr           cstackBANK0  0002B
Diag_Hist_Test_Peak@day                cstackBANK0  00028
Diag_Hist_Test_Peak@high               cstackBANK0  0002B
Diag_Hist_Test_Peak@low                cstackBANK0  0002A
Diag_Hist_Test_Peak@peak               cstackBANK0  00026
Diag_Hist_Test_Peak@peak_high          cstackBANK0  00024
Diag_Hist_Test_Peak@peak_low           cstackBANK0  00022
Diag_Hist_Test_Peak@ppm                cstackCOMMON 0007C
Display_Set_Intensity@inten            cstackCOMMON 00071
FLT_Fault_Manager@faultcode            cstackBANK0  0003B
Fault_Set_Fatal_Mode@fault             cstackBANK0  00039
Initialize_Engine@i                    cstackCOMMON 00072
Life_Init@sum                          cstackBANK0  0003F
Light_Analysis@Matha                   cstackBANK0  00041
Light_Analysis@h                       cstackBANK0  00047
Light_Analysis@h_1652                  cstackBANK0  0003D
Light_Analysis@h_1653                  cstackBANK0  0003F
Light_Analysis@h_1654                  cstackBANK0  00038
Light_Analysis@h_1655                  cstackBANK0  00045
Light_Analysis@h_1659                  cstackBANK0  00046
Light_Analysis@i                       cstackBANK0  00049
Light_Analysis@i_1656                  cstackBANK0  0003A
Light_Analysis@i_1657                  cstackBANK0  0003B
Light_Analysis@i_1658                  cstackBANK0  0003C
Light_Data_Init@i                      cstackCOMMON 0007A
Light_Manager@GLED_FVR_Measured        cstackBANK0  00050
Light_Manager@GLED_Measured            cstackBANK0  00055
Light_Manager@GLED_Vdd                 cstackBANK0  0004C
Light_Manager@i                        cstackBANK0  00054
Light_Manager@result                   cstackBANK0  00052
MAIN_Reset_Task@taskID                 cstackCOMMON 00074
MEAS_CO_Charge@CO_Measured             cstackBANK0  0002E
MEAS_CO_Charge@CO_Vdd                  cstackBANK0  0002A
MEAS_CO_Charge@adval                   cstackBANK0  00032
MEAS_CO_Charge@i                       cstackBANK0  00034
MEAS_CO_Charge@threshold               cstackCOMMON 0007C
MEAS_Make_Measurement@CO_Measured      cstackBANK0  00033
MEAS_Make_Measurement@CO_Vdd           cstackBANK0  00037
MEAS_Make_Measurement@CO_Vdd_Delta     cstackBANK0  0003B
MEAS_Make_Measurement@adval            cstackBANK0  0003D
Main_Calc_Current_Tics@Task_ID         cstackCOMMON 0007A
Main_Calc_Current_Tics@tics            cstackCOMMON 00078
Main_Recalc_Int_Active@Task_ID         cstackCOMMON 0007D
Main_Recalc_Int_Active@tics            cstackCOMMON 0007B
Main_Recalc_Int_Standby@Task_ID        cstackCOMMON 0007D
Main_Recalc_Int_Standby@tics           cstackCOMMON 0007B
Main_Wait_T1Osc_Stable@loop_ctr        cstackCOMMON 00071
Make_Return_Value@milliseconds         cstackCOMMON 00078
Memory_Byte_Read@addr                  cstackCOMMON 00070
Memory_Byte_Write@byte                 cstackCOMMON 00076
Memory_Byte_Write@delay                cstackCOMMON 00074
Memory_Byte_Write@dest                 cstackCOMMON 00071
Memory_Byte_Write@v_byte               cstackCOMMON 00075
Memory_Byte_Write_Verify@byte          cstackCOMMON 0007B
Memory_Byte_Write_Verify@dest          cstackCOMMON 00079
Memory_Read_Block@dest                 cstackCOMMON 00072
Memory_Read_Block@i                    cstackCOMMON 00075
Memory_Read_Block@num_bytes            cstackCOMMON 00074
Memory_Read_Block@source               cstackCOMMON 00071
Memory_Write_Block@dest                cstackCOMMON 0007B
Memory_Write_Block@i                   cstackBANK0  00021
Memory_Write_Block@num_bytes           cstackBANK0  00020
Memory_Write_Block@source              cstackCOMMON 00079
Payload_Output@button_press_timeout    bssBANK2     0013C
Payload_Output@delay_count             bssBANK2     00142
Payload_Output@elay_count_2314         bssBANK2     00140
Payload_Output@elay_count_2316         bssBANK2     0013E
Payload_Output@eol_delay_count         bssBANK2     00141
Payload_Output@index                   cstackCOMMON 0007B
Payload_Output@payload_ptr             cstackCOMMON 0007A
Payload_Output@peak_delay_count        bssBANK2     0013D
Payload_Output@short_delay_count       bssBANK2     0013F
SER_Process_Rx@bufferptr               bssBANK1     000C0
SER_Send_Byte@byte                     cstackCOMMON 0007B
SER_Send_Byte@nibble                   cstackCOMMON 0007C
SER_Send_Char@c                        cstackCOMMON 00076
SER_Send_Char@string                   cstackCOMMON 00077
SER_Send_Int@base                      cstackBANK0  00029
SER_Send_Int@stringtosend              cstackBANK0  0002C
SER_Send_Int@tag                       cstackBANK0  00035
SER_Send_Int@val                       cstackBANK0  00027
SER_Send_String@charpointer            cstackCOMMON 00073
SER_Send_String@stringtosend           cstackCOMMON 00070
SER_Strx_To_Int@i                      cstackBANK0  00023
SER_Strx_To_Int@multiplier             cstackBANK0  00022
SER_Strx_To_Int@str                    cstackCOMMON 00075
SER_Strx_To_Int@value                  cstackBANK0  00020
SYS_Calc_Checksum@addr                 cstackCOMMON 00072
SYS_Calc_Checksum@byte                 cstackCOMMON 00073
SYS_Calc_Checksum@i                    cstackCOMMON 00075
SYS_Calc_Checksum@sum                  cstackCOMMON 00074
SYS_Calc_Ram_Checksum@addr             cstackCOMMON 00073
SYS_Calc_Ram_Checksum@byte             cstackCOMMON 00071
SYS_Calc_Ram_Checksum@i                cstackCOMMON 00074
SYS_Calc_Ram_Checksum@sum              cstackCOMMON 00072
SYS_Load@addr                          cstackCOMMON 00072
SYS_Load@i                             cstackCOMMON 00074
SYS_Load@ptr                           cstackCOMMON 00073
_A2D_Convert                           text103      02187
_A2D_Test_AC                           text93       02452
_ACDetectCount                         dataBANK1    000EF
_ADCON0                                (abs)        0009D
_ADCON0bits                            (abs)        0009D
_ADCON1                                (abs)        0009E
_ADRES                                 (abs)        0009B
_ALM_Alarm_Bat_Conserve_Logic          text91       0248C
_ALM_Init_Bat_Conserve_Timer           text92       02E4C
_ALM_State                             bssBANK2     00154
_ALM_Timer_Bat_Conserve                bssBANK1     000CD
_ANSELA                                (abs)        0018C
_ANSELB                                (abs)        0018D
_ANSELBbits                            (abs)        0018D
_Age_Correct_PPM                       text68       01B9C
_Age_Correct_PPM$3656                  cstackBANK0  00033
_AlarmInterimSum                       nvBANK3      001EA
_AlarmPastSum                          nvBANK4      00257
_AlarmPrioInfo                         bssBANK3     001BE
_AlarmPriorityTask                     text15       02640
_AlarmSum                              nvBANK2      0016E
_BAT_Battery_State                     bssBANK2     00153
_BAT_Do_Test                           text82       02343
_BAT_FVR_Measured                      bssBANK3     001E2
_BAT_Init_LB_Hush                      text87       02EA7
_BAT_LB_Hush_Timer                     bssBANK3     001B0
_BAT_Last_Volt                         bssBANK1     000BE
_BAT_Scale                             bssBANK2     0012E
_BAT_Set_Test_Interval                 text81       02143
_BAT_Startup_Timer                     bssBANK2     00152
_BAT_Tst_Timer                         bssBANK2     00130
_BORCONbits                            (abs)        00116
_BTN_Counter                           bssBANK1     000CC
_BTN_Lang_Sel_Timout                   bssBANK2     00150
_BTN_State                             bssBANK2     00151
_BTN_Task                              text13       01389
_BatteryTestInfo                       bssBANK3     001CA
_BatteryTest_Task                      text14       01285
_BeepCounter                           bssBANK2     00136
_ButtonTaskInfo                        bssBANK3     001D6
_CAL_Get_State                         text102      020E3
_CAL_Init                              text37       0257C
_CAL_Manager                           text11       01674
_CAL_MgrState                          bssBANK1     000CB
_CAL_Timer                             bssBANK1     000CA
_COAlarmInfo                           bssBANK3     001B8
_COAlarmTask                           text12       01184
_COAlarm_Init                          text40       02E88
_COMeasureInfo                         bssBANK4     00251
_COMeasureTask                         text10       00AFC
_CO_FVR_Measured                       bssBANK2     00161
_CO_State                              bssBANK2     0014D
_CO_Vdd_Calc                           bssBANK2     00128
_CalManagerInfo                        bssBANK3     001B2
_Calculate_Filter_PPM                  text67       025BB
_Calculate_PPM                         text64       01C1C
_Command_Processor                     text44       00CCA
_CurrentMode                           bssBANK1     000C2
_CurrentMsPerTic                       bssBANK2     00124
_Current_Hour                          nvBANK1      000EC
_Dark_Count                            bssBANK1     000C3
_Dark_Hour                             bssBANK2     00145
_DebugTask                             text1        02ED6
_DebugTaskInfo                         bssBANK3     001C4
_Depass_Pulse_Timer                    bssBANK2     00148
_Depass_Timer                          dataBANK1    000EE
_Diag_Hist_Bat_Record                  text60       024C6
_Diag_Hist_EE_Error                    text98       02F50
_Diag_Hist_Que_Push                    text94       00800
_Diag_Hist_Test_Peak                   text66       018DA
_Disp_Intensity                        dataBANK2    0016A
_Display_Get_Intensity                 text51       02E3D
_Display_Set_Intensity                 text50       02E65
_EEADRL                                (abs)        00191
_EECON1bits                            (abs)        00195
_EECON2                                (abs)        00196
_EEDAT                                 (abs)        00193
_EE_Data                               idataEEDATA  00000
_EscLightInfo                          bssBANK4     00233
_Esc_Light_Process                     text9        02ECA
_FLT_Fault_Manager                     text72       01E67
_FVRCON                                (abs)        00117
_FVRCONbits                            (abs)        00117
_FatalFaultCode                        bssBANK1     000C4
_FaultChirpDelayCntr                   bssBANK2     00133
_Fault_Set_Fatal_Mode                  text73       02032
_Flags1                                bssBANK1     000D3
_Flags2                                bssBANK0     00066
_Flags3                                bssBANK0     00065
_Flags4                                bssBANK1     000D2
_Flags5                                bssBANK1     000D1
_Flags6                                bssBANK1     000D0
_Flags_Active1                         bssBANK0     00064
_Flags_Active2                         bssBANK0     00063
_Flags_Active3                         bssBANK1     000CF
_Flags_NR                              nvBANK1      000ED
_GLED_Blink                            text8        02165
_GLED_Manager                          text7        01000
_GLED_Off                              text35       02E44
_GLED_State                            bssBANK2     0014C
_GrnLedBlinkInfo                       bssBANK4     0023F
_GrnLedInfo                            bssBANK4     00245
_Hour                                  (abs)        02378
_INTCONbits                            (abs)        0000B
_IOCBFbits                             (abs)        00396
_IOCBP                                 (abs)        00394
_Initialize_Engine                     text36       01AA2
_LBConserveCount                       dataBANK2    00165
_LB_Inhibit_Timer                      bssBANK3     001A0
_LFE_Check                             text57       01874
_LFE_Check_Depassivation               text59       02F3C
_LFE_Check_EOL                         text58       02375
_LFE_Depassivation                     text56       020A7
_LFE_UL_EOL_Snooze                     text86       01803
_LGT_State                             dataBANK2    00169
_LGT_Timer                             dataBANK3    001E8
_LIFE_Get_Current_Day                  text101      02E6C
_Life_Init                             text52       021AD
_LightInfo                             bssBANK4     0022D
_Light_Analysis                        text43       00075
_Light_Count                           bssBANK2     00146
_Light_Data_Init                       text39       01812
_Light_Longest_Drk_Count               bssBANK2     00147
_Light_Manager                         text6        00942
_Light_Max                             bssBANK2     00126
_Light_Meas_Avg                        dataBANK3    001E4
_Light_Min                             bssBANK1     000B4
_Light_Record                          text42       023AC
_Light_Sample_Last                     dataBANK2    00163
_MAIN_Reset_Task                       text88       022E1
_MEAS_CO_Charge                        text62       01B1D
_MEAS_Make_Measurement                 text61       01D1F
_MEAS_Reset                            text24       02F14
_MEAS_Send_Charge_Pulse                text63       02F2E
_Main_Calc_Current_Tics                text34       0253E
_Main_Check_Low_Power_Logic            text28       02001
_Main_Check_Revision                   text41       02E3F
_Main_Init_Power_Dly_Timer             text85       02E7E
_Main_Init_Powerup                     text38       02F66
_Main_Initialize                       text25       0279F
_Main_Mode                             stringtext2  02832
_Main_Recalc_Int_Active                text33       02740
_Main_Recalc_Int_Standby               text31       01A2A
_Main_Reset_Sleep_Timer                text27       02F93
_Main_Set_Active                       text32       02255
_Main_Set_Low_Power                    text29       02312
_Main_Wait_T1Osc_Stable                text26       02122
_Make_Return_Value                     text89       02015
_Memory_Byte_Read                      text100      02E9C
_Memory_Byte_Write                     text99       0241A
_Memory_Byte_Write_Verify              text97       02FC6
_Memory_Read_Block                     text96       02FE3
_Memory_Write_Block                    text95       02500
_Night_Day_TH                          nvBANK2      0016C
_Night_Light_TH                        nvBANK0      0005F
_OPTION_REG                            (abs)        00095
_OSCCON                                (abs)        00099
_OneMinuteCount                        dataBANK2    00167
_PCON                                  (abs)        00096
_PCON_Save                             nvBANK4      0025A
_PCONbits                              (abs)        00096
_PIE1bits                              (abs)        00091
_PIR1bits                              (abs)        00011
_PIR2bits                              (abs)        00012
_PORTA                                 (abs)        0000C
_PORTAbits                             (abs)        0000C
_PORTB                                 (abs)        0000D
_PORTBbits                             (abs)        0000D
_PORTC                                 (abs)        0000E
_PTT_Count                             bssBANK2     00137
_PTT_State                             bssBANK2     00138
_PTT_Task                              text4        019B3
_PTT_TaskInfo                          bssBANK3     001D0
_Payload                               bssBANK2     00156
_Payload_Output                        text21       014F0
_PeakButtonInfo                        bssBANK4     00239
_Peak_BTN_Chirp_Timeout                bssBANK2     00139
_Peak_BTN_Cnt                          bssBANK1     000C1
_Peak_BTN_Get_State                    text84       02E41
_Peak_BTN_State                        bssBANK2     0013A
_Peak_BTN_Task                         text2        01DB8
_PowerupAwakeTimer                     bssBANK2     00122
_RCREG                                 (abs)        00199
_RCSTAbits                             (abs)        0019D
_SER_Enable_Init                       text20       02E92
_SER_Init                              text19       02E47
_SER_OutputFlags                       bssBANK1     000C8
_SER_Process_Rx                        text18       023E3
_SER_Send_Byte                         text47       02228
_SER_Send_Char                         text48       02F07
_SER_Send_Int                          text75       021D3
_SER_Send_Prompt                       text74       02E5E
_SER_Send_String                       text78       02089
_SER_Strx_To_Int                       text45       026E3
_SND_CO_Params                         stringtext5  03022
_SND_Do_Chirp                          text83       02EFA
_SND_Get_State                         text23       01800
_SND_Reset_Task                        text30       02E52
_SND_Trouble_Manager                   text3        01F1D
_SPBRGL                                (abs)        0019B
_STATUS                                (abs)        00003
_STATUS_Save                           nvBANK4      00259
_STATUSbits                            (abs)        00003
_SYS_Calc_Checksum                     text55       0206C
_SYS_Calc_Ram_Checksum                 text71       02102
_SYS_Init                              text53       022B1
_SYS_Load                              text54       020C5
_SYS_RamData                           (abs)        000A0
_SYS_Save                              text70       0204F
_SYS_Validate_Data_Structure           text17       02EB2
_SndTroubleState                       bssBANK2     00134
_SoundTaskInfo                         bssBANK3     001DC
_SounderState                          bssBANK2     00120
_SounderTask                           text5        01097
_Status_Flag                           bssBANK2     00155
_Stuck_Sound_counter                   bssBANK2     0014E
_T1CON                                 (abs)        00018
_T1CONbits                             (abs)        00018
_T1GCON                                (abs)        00019
_TMR0                                  (abs)        00015
_TMR1                                  (abs)        00016
_TMR1L                                 (abs)        00016
_TRISA                                 (abs)        0008C
_TRISB                                 (abs)        0008D
_TRISBbits                             (abs)        0008D
_TRISC                                 (abs)        0008E
_TXREG                                 (abs)        0019A
_TXSTAbits                             (abs)        0019E
_TaskNumbers                           stringtext4  03059
_TaskTable                             stringtext3  02856
_TicTimer                              bssBANK1     000B2
_TroubleChirpCounter                   bssBANK2     00135
_TroubleManagerInfo                    bssBANK4     0024B
_Update_Peak_PPM                       text65       025FB
_VCE_Process                           text16       02EBE
_VoiceInfo                             bssBANK4     00227
_WDTCON                                (abs)        00097
_WDTCONbits                            (abs)        00097
_WIFI_CLEAR_FALG                       bssBANK2     00132
_Wifi_Module_enable                    text22       02F21
__Habs1                                abs1         00000
__Hbank0                               bank0        00000
__Hbank1                               bank1        00000
__Hbank10                              bank10       00000
__Hbank11                              bank11       00000
__Hbank12                              bank12       00000
__Hbank13                              bank13       00000
__Hbank14                              bank14       00000
__Hbank15                              bank15       00000
__Hbank16                              bank16       00000
__Hbank17                              bank17       00000
__Hbank18                              bank18       00000
__Hbank19                              bank19       00000
__Hbank2                               bank2        00000
__Hbank20                              bank20       00000
__Hbank21                              bank21       00000
__Hbank22                              bank22       00000
__Hbank23                              bank23       00000
__Hbank24                              bank24       00000
__Hbank25                              bank25       00000
__Hbank26                              bank26       00000
__Hbank27                              bank27       00000
__Hbank28                              bank28       00000
__Hbank29                              bank29       00000
__Hbank3                               bank3        00000
__Hbank30                              bank30       00000
__Hbank31                              bank31       00000
__Hbank4                               bank4        00000
__Hbank5                               bank5        00000
__Hbank6                               bank6        00000
__Hbank7                               bank7        00000
__Hbank8                               bank8        00000
__Hbank9                               bank9        00000
__Hbigram                              bigram       00000
__HbssBANK0                            bssBANK0     00000
__HbssBANK1                            bssBANK1     00000
__HbssBANK2                            bssBANK2     00000
__HbssBANK3                            bssBANK3     00000
__HbssBANK4                            bssBANK4     00000
__Hcinit                               cinit        00075
__Hclrtext                             clrtext      00000
__Hcode                                code         00000
__Hcommon                              common       00000
__Hconfig                              config       08009
__HcstackBANK0                         cstackBANK0  00000
__HcstackBANK1                         cstackBANK1  00000
__HcstackCOMMON                        cstackCOMMON 00000
__HdataBANK1                           dataBANK1    00000
__HdataBANK2                           dataBANK2    00000
__HdataBANK3                           dataBANK3    00000
__HdataEEDATA                          dataEEDATA   00000
__Heeprom_data                         eeprom_data  00000
__Hend_init                            end_init     0001C
__Hfunctab                             functab      00000
__HidataBANK1                          idataBANK1   00000
__HidataBANK2                          idataBANK2   00000
__HidataBANK3                          idataBANK3   00000
__HidataEEDATA                         idataEEDATA  00000
__Hinit                                init         0001A
__Hinittext                            inittext     00000
__Hintentry                            intentry     0001A
__Hmaintext                            maintext     00000
__HnvBANK0                             nvBANK0      00000
__HnvBANK1                             nvBANK1      00000
__HnvBANK2                             nvBANK2      00000
__HnvBANK3                             nvBANK3      00000
__HnvBANK4                             nvBANK4      00000
__Hpowerup                             powerup      00000
__Hram                                 ram          00000
__Hreset_vec                           reset_vec    00002
__Hsfr0                                sfr0         00000
__Hsfr1                                sfr1         00000
__Hsfr10                               sfr10        00000
__Hsfr11                               sfr11        00000
__Hsfr12                               sfr12        00000
__Hsfr13                               sfr13        00000
__Hsfr14                               sfr14        00000
__Hsfr15                               sfr15        00000
__Hsfr16                               sfr16        00000
__Hsfr17                               sfr17        00000
__Hsfr18                               sfr18        00000
__Hsfr19                               sfr19        00000
__Hsfr2                                sfr2         00000
__Hsfr20                               sfr20        00000
__Hsfr21                               sfr21        00000
__Hsfr22                               sfr22        00000
__Hsfr23                               sfr23        00000
__Hsfr24                               sfr24        00000
__Hsfr25                               sfr25        00000
__Hsfr26                               sfr26        00000
__Hsfr27                               sfr27        00000
__Hsfr28                               sfr28        00000
__Hsfr29                               sfr29        00000
__Hsfr3                                sfr3         00000
__Hsfr30                               sfr30        00000
__Hsfr31                               sfr31        00000
__Hsfr4                                sfr4         00000
__Hsfr5                                sfr5         00000
__Hsfr6                                sfr6         00000
__Hsfr7                                sfr7         00000
__Hsfr8                                sfr8         00000
__Hsfr9                                sfr9         00000
__Hspace_0                             (abs)        0306C
__Hspace_1                             (abs)        0025B
__Hspace_2                             (abs)        00000
__Hspace_3                             (abs)        00100
__Hspace_4                             (abs)        10010
__Hstack                               stack        00000
__Hstrings                             strings      00000
__Hstringtext1                         stringtext1  00000
__Hstringtext10                        stringtext10 00000
__Hstringtext11                        stringtext11 00000
__Hstringtext12                        stringtext12 00000
__Hstringtext13                        stringtext13 00000
__Hstringtext14                        stringtext14 00000
__Hstringtext15                        stringtext15 00000
__Hstringtext16                        stringtext16 00000
__Hstringtext17                        stringtext17 00000
__Hstringtext18                        stringtext18 00000
__Hstringtext19                        stringtext19 00000
__Hstringtext2                         stringtext2  00000
__Hstringtext3                         stringtext3  00000
__Hstringtext4                         stringtext4  00000
__Hstringtext5                         stringtext5  00000
__Hstringtext6                         stringtext6  00000
__Hstringtext7                         stringtext7  00000
__Hstringtext8                         stringtext8  00000
__Hstringtext9                         stringtext9  00000
__Htext                                text         00000
__Labs1                                abs1         00000
__Lbank0                               bank0        00000
__Lbank1                               bank1        00000
__Lbank10                              bank10       00000
__Lbank11                              bank11       00000
__Lbank12                              bank12       00000
__Lbank13                              bank13       00000
__Lbank14                              bank14       00000
__Lbank15                              bank15       00000
__Lbank16                              bank16       00000
__Lbank17                              bank17       00000
__Lbank18                              bank18       00000
__Lbank19                              bank19       00000
__Lbank2                               bank2        00000
__Lbank20                              bank20       00000
__Lbank21                              bank21       00000
__Lbank22                              bank22       00000
__Lbank23                              bank23       00000
__Lbank24                              bank24       00000
__Lbank25                              bank25       00000
__Lbank26                              bank26       00000
__Lbank27                              bank27       00000
__Lbank28                              bank28       00000
__Lbank29                              bank29       00000
__Lbank3                               bank3        00000
__Lbank30                              bank30       00000
__Lbank31                              bank31       00000
__Lbank4                               bank4        00000
__Lbank5                               bank5        00000
__Lbank6                               bank6        00000
__Lbank7                               bank7        00000
__Lbank8                               bank8        00000
__Lbank9                               bank9        00000
__Lbigram                              bigram       00000
__LbssBANK0                            bssBANK0     00000
__LbssBANK1                            bssBANK1     00000
__LbssBANK2                            bssBANK2     00000
__LbssBANK3                            bssBANK3     00000
__LbssBANK4                            bssBANK4     00000
__Lcinit                               cinit        0001C
__Lclrtext                             clrtext      00000
__Lcode                                code         00000
__Lcommon                              common       00000
__Lconfig                              config       00000
__LcstackBANK0                         cstackBANK0  00000
__LcstackBANK1                         cstackBANK1  00000
__LcstackCOMMON                        cstackCOMMON 00000
__LdataBANK1                           dataBANK1    00000
__LdataBANK2                           dataBANK2    00000
__LdataBANK3                           dataBANK3    00000
__LdataEEDATA                          dataEEDATA   00000
__Leeprom_data                         eeprom_data  00000
__Lend_init                            end_init     0001A
__Lfunctab                             functab      00000
__LidataBANK1                          idataBANK1   00000
__LidataBANK2                          idataBANK2   00000
__LidataBANK3                          idataBANK3   00000
__LidataEEDATA                         idataEEDATA  00000
__Linit                                init         0001A
__Linittext                            inittext     00000
__Lintentry                            intentry     00004
__Lmaintext                            maintext     00000
__LnvBANK0                             nvBANK0      00000
__LnvBANK1                             nvBANK1      00000
__LnvBANK2                             nvBANK2      00000
__LnvBANK3                             nvBANK3      00000
__LnvBANK4                             nvBANK4      00000
__Lpowerup                             powerup      00000
__Lram                                 ram          00000
__Lreset_vec                           reset_vec    00000
__Lsfr0                                sfr0         00000
__Lsfr1                                sfr1         00000
__Lsfr10                               sfr10        00000
__Lsfr11                               sfr11        00000
__Lsfr12                               sfr12        00000
__Lsfr13                               sfr13        00000
__Lsfr14                               sfr14        00000
__Lsfr15                               sfr15        00000
__Lsfr16                               sfr16        00000
__Lsfr17                               sfr17        00000
__Lsfr18                               sfr18        00000
__Lsfr19                               sfr19        00000
__Lsfr2                                sfr2         00000
__Lsfr20                               sfr20        00000
__Lsfr21                               sfr21        00000
__Lsfr22                               sfr22        00000
__Lsfr23                               sfr23        00000
__Lsfr24                               sfr24        00000
__Lsfr25                               sfr25        00000
__Lsfr26                               sfr26        00000
__Lsfr27                               sfr27        00000
__Lsfr28                               sfr28        00000
__Lsfr29                               sfr29        00000
__Lsfr3                                sfr3         00000
__Lsfr30                               sfr30        00000
__Lsfr31                               sfr31        00000
__Lsfr4                                sfr4         00000
__Lsfr5                                sfr5         00000
__Lsfr6                                sfr6         00000
__Lsfr7                                sfr7         00000
__Lsfr8                                sfr8         00000
__Lsfr9                                sfr9         00000
__Lspace_0                             (abs)        00000
__Lspace_1                             (abs)        00000
__Lspace_2                             (abs)        00000
__Lspace_3                             (abs)        00000
__Lspace_4                             (abs)        00000
__Lstack                               stack        00000
__Lstrings                             strings      00000
__Lstringtext1                         stringtext1  00000
__Lstringtext10                        stringtext10 00000
__Lstringtext11                        stringtext11 00000
__Lstringtext12                        stringtext12 00000
__Lstringtext13                        stringtext13 00000
__Lstringtext14                        stringtext14 00000
__Lstringtext15                        stringtext15 00000
__Lstringtext16                        stringtext16 00000
__Lstringtext17                        stringtext17 00000
__Lstringtext18                        stringtext18 00000
__Lstringtext19                        stringtext19 00000
__Lstringtext2                         stringtext2  00000
__Lstringtext3                         stringtext3  00000
__Lstringtext4                         stringtext4  00000
__Lstringtext5                         stringtext5  00000
__Lstringtext6                         stringtext6  00000
__Lstringtext7                         stringtext7  00000
__Lstringtext8                         stringtext8  00000
__Lstringtext9                         stringtext9  00000
__Ltext                                text         00000
__S0                                   (abs)        0306C
__S1                                   (abs)        0025B
__S2                                   (abs)        00000
__S3                                   (abs)        0F100
___aldiv                               text80       01C9D
___aldiv@counter                       cstackBANK0  00020
___aldiv@dividend                      cstackCOMMON 00074
___aldiv@divisor                       cstackCOMMON 00070
___aldiv@quotient                      cstackBANK0  00022
___aldiv@sign                          cstackBANK0  00021
___int_sp                              stack        00000
___latbits                             (abs)        00003
___lldiv                               text69       02691
___lldiv@counter                       cstackBANK0  0002C
___lldiv@dividend                      cstackBANK0  00024
___lldiv@divisor                       cstackBANK0  00020
___lldiv@quotient                      cstackBANK0  00028
___lmul                                text79       02282
___lmul@multiplicand                   cstackCOMMON 00074
___lmul@multiplier                     cstackCOMMON 00070
___lmul@product                        cstackCOMMON 00078
___lwdiv                               text90       007CC
___lwdiv@counter                       cstackCOMMON 00075
___lwdiv@dividend                      cstackCOMMON 00072
___lwdiv@divisor                       cstackCOMMON 00070
___lwdiv@quotient                      cstackCOMMON 00076
___lwmod                               text77       021FC
___lwmod@counter                       cstackCOMMON 00075
___lwmod@dividend                      cstackCOMMON 00072
___lwmod@divisor                       cstackCOMMON 00070
___sp                                  stack        00000
___stackhi                             (abs)        02377
___stacklo                             (abs)        0217B
___wmul                                text49       02FAB
___wmul@multiplicand                   cstackCOMMON 00072
___wmul@multiplier                     cstackCOMMON 00070
___wmul@product                        cstackCOMMON 00074
__end_of_A2D_Convert                   text103      021AD
__end_of_A2D_Test_AC                   text93       0248C
__end_of_ALM_Alarm_Bat_Conserve_Logic  text91       024C6
__end_of_ALM_Init_Bat_Conserve_Timer   text92       02E52
__end_of_Age_Correct_PPM               text68       01C1C
__end_of_AlarmPriorityTask             text15       02691
__end_of_BAT_Do_Test                   text82       02375
__end_of_BAT_Init_LB_Hush              text87       02EB2
__end_of_BAT_Set_Test_Interval         text81       02165
__end_of_BTN_Task                      text13       014F0
__end_of_BatteryTest_Task              text14       01389
__end_of_CAL_Get_State                 text102      02102
__end_of_CAL_Init                      text37       025BB
__end_of_CAL_Manager                   text11       01800
__end_of_COAlarmTask                   text12       01285
__end_of_COAlarm_Init                  text40       02E92
__end_of_COMeasureTask                 text10       00CCA
__end_of_Calculate_Filter_PPM          text67       025FB
__end_of_Calculate_PPM                 text64       01C9D
__end_of_CharTable                     stringtext1  02832
__end_of_Command_Processor             text44       01000
__end_of_DebugTask                     text1        02EE2
__end_of_Diag_Hist_Bat_Record          text60       02500
__end_of_Diag_Hist_EE_Error            text98       02F66
__end_of_Diag_Hist_Que_Push            text94       00942
__end_of_Diag_Hist_Test_Peak           text66       01944
__end_of_Display_Get_Intensity         text51       02E3F
__end_of_Display_Set_Intensity         text50       02E6C
__end_of_Esc_Light_Process             text9        02ED6
__end_of_FLT_Fault_Manager             text72       01F1D
__end_of_Fault_Set_Fatal_Mode          text73       0204F
__end_of_GLED_Blink                    text8        02187
__end_of_GLED_Manager                  text7        01097
__end_of_GLED_Off                      text35       02E47
__end_of_Initialize_Engine             text36       01B1D
__end_of_LFE_Check                     text57       018DA
__end_of_LFE_Check_Depassivation       text59       02F50
__end_of_LFE_Check_EOL                 text58       023AC
__end_of_LFE_Depassivation             text56       020C5
__end_of_LFE_UL_EOL_Snooze             text86       01812
__end_of_LIFE_Get_Current_Day          text101      02E75
__end_of_Life_Init                     text52       021D3
__end_of_Light_Analysis                text43       0054B
__end_of_Light_Data_Init               text39       01874
__end_of_Light_Manager                 text6        00AFC
__end_of_Light_Record                  text42       023E3
__end_of_MAIN_Reset_Task               text88       02312
__end_of_MEAS_CO_Charge                text62       01B9C
__end_of_MEAS_Make_Measurement         text61       01DB8
__end_of_MEAS_Reset                    text24       02F21
__end_of_MEAS_Send_Charge_Pulse        text63       02F3C
__end_of_Main_Calc_Current_Tics        text34       0257C
__end_of_Main_Check_Low_Power_Logic    text28       02015
__end_of_Main_Check_Revision           text41       02E41
__end_of_Main_Init_Power_Dly_Timer     text85       02E88
__end_of_Main_Init_Powerup             text38       02F7C
__end_of_Main_Initialize               text25       02800
__end_of_Main_Mode                     stringtext2  02856
__end_of_Main_Recalc_Int_Active        text33       0279F
__end_of_Main_Recalc_Int_Standby       text31       01AA2
__end_of_Main_Reset_Sleep_Timer        text27       02FAB
__end_of_Main_Set_Active               text32       02282
__end_of_Main_Set_Low_Power            text29       02343
__end_of_Main_Wait_T1Osc_Stable        text26       02143
__end_of_Make_Return_Value             text89       02032
__end_of_Memory_Byte_Read              text100      02EA7
__end_of_Memory_Byte_Write             text99       02452
__end_of_Memory_Byte_Write_Verify      text97       02FE3
__end_of_Memory_Read_Block             text96       03000
__end_of_Memory_Write_Block            text95       0253E
__end_of_PTT_Task                      text4        01A2A
__end_of_Payload_Output                text21       01674
__end_of_Peak_BTN_Get_State            text84       02E44
__end_of_Peak_BTN_Task                 text2        01E67
__end_of_SER_Enable_Init               text20       02E9C
__end_of_SER_Init                      text19       02E4C
__end_of_SER_Process_Rx                text18       0241A
__end_of_SER_Send_Byte                 text47       02255
__end_of_SER_Send_Char                 text48       02F14
__end_of_SER_Send_Int                  text75       021FC
__end_of_SER_Send_Prompt               text74       02E65
__end_of_SER_Send_String               text78       020A7
__end_of_SER_Strx_To_Int               text45       02740
__end_of_SND_CO_Params                 stringtext5  0302B
__end_of_SND_Do_Chirp                  text83       02F07
__end_of_SND_Get_State                 text23       01803
__end_of_SND_Reset_Task                text30       02E58
__end_of_SND_Trouble_Manager           text3        02000
__end_of_SYS_Calc_Checksum             text55       02089
__end_of_SYS_Calc_Ram_Checksum         text71       02122
__end_of_SYS_Init                      text53       022E1
__end_of_SYS_Load                      text54       020E3
__end_of_SYS_Save                      text70       0206C
__end_of_SYS_Validate_Data_Structure   text17       02EBE
__end_of_SounderTask                   text5        01184
__end_of_TaskNumbers                   stringtext4  0305D
__end_of_TaskTable                     stringtext3  02876
__end_of_Update_Peak_PPM               text65       02640
__end_of_VCE_Process                   text16       02ECA
__end_of_Wifi_Module_enable            text22       02F2E
__end_of___aldiv                       text80       01D1F
__end_of___lldiv                       text69       026E3
__end_of___lmul                        text79       022B1
__end_of___lwdiv                       text90       00800
__end_of___lwmod                       text77       02228
__end_of___wmul                        text49       02FC6
__end_of__initialization               cinit        00071
__end_of_itoa                          text76       019B3
__end_of_main                          maintext     007CC
__end_of_main_interrupt_routine        intentry     0001A
__end_of_strlen                        text46       02F93
__initialization                       cinit        0001C
__pbssBANK0                            bssBANK0     00063
__pbssBANK1                            bssBANK1     000B0
__pbssBANK2                            bssBANK2     00120
__pbssBANK3                            bssBANK3     001A0
__pbssBANK4                            bssBANK4     00220
__pcstackBANK0                         cstackBANK0  00020
__pcstackBANK1                         cstackBANK1  000D4
__pcstackCOMMON                        cstackCOMMON 00070
__pdataBANK1                           dataBANK1    000EE
__pdataBANK2                           dataBANK2    00163
__pdataBANK3                           dataBANK3    001E4
__pdataEEDATA                          dataEEDATA   00000
__pidataBANK1                          idataBANK1   00002
__pidataBANK2                          idataBANK2   02E75
__pidataBANK3                          idataBANK3   02E58
__pidataEEDATA                         idataEEDATA  00000
__pintentry                            intentry     00004
__pmaintext                            maintext     0054B
__pnvBANK0                             nvBANK0      0005F
__pnvBANK1                             nvBANK1      000EC
__pnvBANK2                             nvBANK2      0016C
__pnvBANK3                             nvBANK3      001EA
__pnvBANK4                             nvBANK4      00257
__pstringtext1                         stringtext1  02800
__pstringtext10                        stringtext10 0303D
__pstringtext11                        stringtext11 03045
__pstringtext12                        stringtext12 0304D
__pstringtext13                        stringtext13 03054
__pstringtext14                        stringtext14 0305D
__pstringtext15                        stringtext15 03061
__pstringtext16                        stringtext16 03064
__pstringtext17                        stringtext17 03067
__pstringtext18                        stringtext18 0306A
__pstringtext19                        stringtext19 00000
__pstringtext2                         stringtext2  02832
__pstringtext3                         stringtext3  02856
__pstringtext4                         stringtext4  03059
__pstringtext5                         stringtext5  03022
__pstringtext6                         stringtext6  03000
__pstringtext7                         stringtext7  03011
__pstringtext8                         stringtext8  0302B
__pstringtext9                         stringtext9  03034
__ptext1                               text1        02ED6
__ptext10                              text10       00AFC
__ptext100                             text100      02E9C
__ptext101                             text101      02E6C
__ptext102                             text102      020E3
__ptext103                             text103      02187
__ptext11                              text11       01674
__ptext12                              text12       01184
__ptext13                              text13       01389
__ptext14                              text14       01285
__ptext15                              text15       02640
__ptext16                              text16       02EBE
__ptext17                              text17       02EB2
__ptext18                              text18       023E3
__ptext19                              text19       02E47
__ptext2                               text2        01DB8
__ptext20                              text20       02E92
__ptext21                              text21       014F0
__ptext22                              text22       02F21
__ptext23                              text23       01800
__ptext24                              text24       02F14
__ptext25                              text25       0279F
__ptext26                              text26       02122
__ptext27                              text27       02F93
__ptext28                              text28       02001
__ptext29                              text29       02312
__ptext3                               text3        01F1D
__ptext30                              text30       02E52
__ptext31                              text31       01A2A
__ptext32                              text32       02255
__ptext33                              text33       02740
__ptext34                              text34       0253E
__ptext35                              text35       02E44
__ptext36                              text36       01AA2
__ptext37                              text37       0257C
__ptext38                              text38       02F66
__ptext39                              text39       01812
__ptext4                               text4        019B3
__ptext40                              text40       02E88
__ptext41                              text41       02E3F
__ptext42                              text42       023AC
__ptext43                              text43       00075
__ptext44                              text44       00CCA
__ptext45                              text45       026E3
__ptext46                              text46       02F7C
__ptext47                              text47       02228
__ptext48                              text48       02F07
__ptext49                              text49       02FAB
__ptext5                               text5        01097
__ptext50                              text50       02E65
__ptext51                              text51       02E3D
__ptext52                              text52       021AD
__ptext53                              text53       022B1
__ptext54                              text54       020C5
__ptext55                              text55       0206C
__ptext56                              text56       020A7
__ptext57                              text57       01874
__ptext58                              text58       02375
__ptext59                              text59       02F3C
__ptext6                               text6        00942
__ptext60                              text60       024C6
__ptext61                              text61       01D1F
__ptext62                              text62       01B1D
__ptext63                              text63       02F2E
__ptext64                              text64       01C1C
__ptext65                              text65       025FB
__ptext66                              text66       018DA
__ptext67                              text67       025BB
__ptext68                              text68       01B9C
__ptext69                              text69       02691
__ptext7                               text7        01000
__ptext70                              text70       0204F
__ptext71                              text71       02102
__ptext72                              text72       01E67
__ptext73                              text73       02032
__ptext74                              text74       02E5E
__ptext75                              text75       021D3
__ptext76                              text76       01944
__ptext77                              text77       021FC
__ptext78                              text78       02089
__ptext79                              text79       02282
__ptext8                               text8        02165
__ptext80                              text80       01C9D
__ptext81                              text81       02143
__ptext82                              text82       02343
__ptext83                              text83       02EFA
__ptext84                              text84       02E41
__ptext85                              text85       02E7E
__ptext86                              text86       01803
__ptext87                              text87       02EA7
__ptext88                              text88       022E1
__ptext89                              text89       02015
__ptext9                               text9        02ECA
__ptext90                              text90       007CC
__ptext91                              text91       0248C
__ptext92                              text92       02E4C
__ptext93                              text93       02452
__ptext94                              text94       00800
__ptext95                              text95       02500
__ptext96                              text96       02FE3
__ptext97                              text97       02FC6
__ptext98                              text98       02F50
__ptext99                              text99       0241A
__size_of_A2D_Convert                  (abs)        00000
__size_of_A2D_Test_AC                  (abs)        00000
__size_of_ALM_Alarm_Bat_Conserve_Logic (abs)        00000
__size_of_ALM_Init_Bat_Conserve_Timer  (abs)        00000
__size_of_Age_Correct_PPM              (abs)        00000
__size_of_AlarmPriorityTask            (abs)        00000
__size_of_BAT_Do_Test                  (abs)        00000
__size_of_BAT_Init_LB_Hush             (abs)        00000
__size_of_BAT_Set_Test_Interval        (abs)        00000
__size_of_BTN_Task                     (abs)        00000
__size_of_BatteryTest_Task             (abs)        00000
__size_of_CAL_Get_State                (abs)        00000
__size_of_CAL_Init                     (abs)        00000
__size_of_CAL_Manager                  (abs)        00000
__size_of_COAlarmTask                  (abs)        00000
__size_of_COAlarm_Init                 (abs)        00000
__size_of_COMeasureTask                (abs)        00000
__size_of_Calculate_Filter_PPM         (abs)        00000
__size_of_Calculate_PPM                (abs)        00000
__size_of_Command_Processor            (abs)        00000
__size_of_DebugTask                    (abs)        00000
__size_of_Diag_Hist_Bat_Record         (abs)        00000
__size_of_Diag_Hist_EE_Error           (abs)        00000
__size_of_Diag_Hist_Que_Push           (abs)        00000
__size_of_Diag_Hist_Test_Peak          (abs)        00000
__size_of_Display_Get_Intensity        (abs)        00000
__size_of_Display_Set_Intensity        (abs)        00000
__size_of_Esc_Light_Process            (abs)        00000
__size_of_FLT_Fault_Manager            (abs)        00000
__size_of_Fault_Set_Fatal_Mode         (abs)        00000
__size_of_GLED_Blink                   (abs)        00000
__size_of_GLED_Manager                 (abs)        00000
__size_of_GLED_Off                     (abs)        00000
__size_of_Initialize_Engine            (abs)        00000
__size_of_LFE_Check                    (abs)        00000
__size_of_LFE_Check_Depassivation      (abs)        00000
__size_of_LFE_Check_EOL                (abs)        00000
__size_of_LFE_Depassivation            (abs)        00000
__size_of_LFE_UL_EOL_Snooze            (abs)        00000
__size_of_LIFE_Get_Current_Day         (abs)        00000
__size_of_Life_Init                    (abs)        00000
__size_of_Light_Analysis               (abs)        00000
__size_of_Light_Data_Init              (abs)        00000
__size_of_Light_Manager                (abs)        00000
__size_of_Light_Record                 (abs)        00000
__size_of_MAIN_Reset_Task              (abs)        00000
__size_of_MEAS_CO_Charge               (abs)        00000
__size_of_MEAS_Make_Measurement        (abs)        00000
__size_of_MEAS_Reset                   (abs)        00000
__size_of_MEAS_Send_Charge_Pulse       (abs)        00000
__size_of_Main_Calc_Current_Tics       (abs)        00000
__size_of_Main_Check_Low_Power_Logic   (abs)        00000
__size_of_Main_Check_Revision          (abs)        00000
__size_of_Main_Init_Power_Dly_Timer    (abs)        00000
__size_of_Main_Init_Powerup            (abs)        00000
__size_of_Main_Initialize              (abs)        00000
__size_of_Main_Recalc_Int_Active       (abs)        00000
__size_of_Main_Recalc_Int_Standby      (abs)        00000
__size_of_Main_Reset_Sleep_Timer       (abs)        00000
__size_of_Main_Set_Active              (abs)        00000
__size_of_Main_Set_Low_Power           (abs)        00000
__size_of_Main_Wait_T1Osc_Stable       (abs)        00000
__size_of_Make_Return_Value            (abs)        00000
__size_of_Memory_Byte_Read             (abs)        00000
__size_of_Memory_Byte_Write            (abs)        00000
__size_of_Memory_Byte_Write_Verify     (abs)        00000
__size_of_Memory_Read_Block            (abs)        00000
__size_of_Memory_Write_Block           (abs)        00000
__size_of_PTT_Task                     (abs)        00000
__size_of_Payload_Output               (abs)        00000
__size_of_Peak_BTN_Get_State           (abs)        00000
__size_of_Peak_BTN_Task                (abs)        00000
__size_of_SER_Enable_Init              (abs)        00000
__size_of_SER_Init                     (abs)        00000
__size_of_SER_Process_Rx               (abs)        00000
__size_of_SER_Send_Byte                (abs)        00000
__size_of_SER_Send_Char                (abs)        00000
__size_of_SER_Send_Int                 (abs)        00000
__size_of_SER_Send_Prompt              (abs)        00000
__size_of_SER_Send_String              (abs)        00000
__size_of_SER_Strx_To_Int              (abs)        00000
__size_of_SND_Do_Chirp                 (abs)        00000
__size_of_SND_Get_State                (abs)        00000
__size_of_SND_Reset_Task               (abs)        00000
__size_of_SND_Trouble_Manager          (abs)        00000
__size_of_SYS_Calc_Checksum            (abs)        00000
__size_of_SYS_Calc_Ram_Checksum        (abs)        00000
__size_of_SYS_Init                     (abs)        00000
__size_of_SYS_Load                     (abs)        00000
__size_of_SYS_Save                     (abs)        00000
__size_of_SYS_Validate_Data_Structure  (abs)        00000
__size_of_SounderTask                  (abs)        00000
__size_of_Update_Peak_PPM              (abs)        00000
__size_of_VCE_Process                  (abs)        00000
__size_of_Wifi_Module_enable           (abs)        00000
__size_of___aldiv                      (abs)        00000
__size_of___lldiv                      (abs)        00000
__size_of___lmul                       (abs)        00000
__size_of___lwdiv                      (abs)        00000
__size_of___lwmod                      (abs)        00000
__size_of___wmul                       (abs)        00000
__size_of_itoa                         (abs)        00000
__size_of_main                         (abs)        00000
__size_of_main_interrupt_routine       (abs)        00000
__size_of_strlen                       (abs)        00000
_b1HourCount                           dataBANK2    00166
_b1SecCount                            dataBANK2    00168
_b1SecTimer                            bssBANK2     00144
_bErrorConversionCount                 bssBANK1     000C6
_bErrorShortCount                      bssBANK1     000C5
_bOneMinuteTic                         bssBANK1     000CE
_bPPMFilterCount                       bssBANK1     000C9
_bTestCounter                          bssBANK1     000C7
_button_press_counter                  bssBANK2     0014F
_current_address                       bssBANK3     001AC
_event_buf                             bssBANK2     0015F
_itoa                                  text76       01944
_main                                  maintext     0054B
_main$3660                             cstackBANK0  00059
_main_interrupt_routine                intentry     00004
_ptrSoundParams                        bssBANK1     000B0
_receive_buffer                        bssBANK4     00220
_strlen                                text46       02F7C
_wCalibrationAverage                   bssBANK1     000BA
_wEOLHushTimer                         bssBANK3     001A2
_wPPM                                  bssBANK1     000BC
_wPeakPPM                              nvBANK0      00061
_wPrev_RawCOCount                      bssBANK2     0012A
_wRawAvgCOCounts                       bssBANK2     0012C
_wRawCOCounts                          bssBANK1     000B8
_wTest_Baseline                        bssBANK3     001AE
_wTimerLifeCount                       bssBANK3     001A4
_wVout_Baseline                        bssBANK1     000B6
btemp                                  (abs)        0007E
clear_ram0                             clrtext      02EE2
end_of_initialization                  cinit        00071
init_ram                               inittext     02EEE
int$flags                              (abs)        0007E
intlevel0                              functab      00000
intlevel1                              functab      00000
intlevel2                              functab      00000
intlevel3                              functab      00000
intlevel4                              functab      00000
intlevel5                              functab      00000
itoa@absQModB                          cstackBANK0  00020
itoa@base                              cstackCOMMON 0007B
itoa@out                               cstackBANK0  00026
itoa@quotient                          cstackBANK0  00023
itoa@result                            cstackCOMMON 0007A
itoa@start                             cstackBANK0  00025
itoa@temp                              cstackBANK0  00022
itoa@value                             cstackCOMMON 00078
main@i                                 cstackBANK0  0005D
main@interval                          cstackBANK0  0005B
reset_vec                              reset_vec    00000
start                                  init         0001A
start_initialization                   cinit        0001C
strlen@cp                              cstackCOMMON 00073
strlen@s                               cstackCOMMON 00070
wtemp0                                 (abs)        0007E


MODULE INFORMATION

Module		Function		Class		Link	Load	Size
serial.c
		_SER_Enable_Init		CODE           	2E92	0000	10
		_SER_Strx_To_Int		CODE           	26E3	0000	93
		_SER_Send_String		CODE           	2089	0000	30
		_SER_Send_Prompt		CODE           	2E5E	0000	7
		_SER_Process_Rx		CODE           	23E3	0000	55
		_SER_Init      		CODE           	2E47	0000	5
		_itoa          		CODE           	1944	0000	111
		_SER_Send_Int  		CODE           	21D3	0000	41
		_SER_Send_Char 		CODE           	2F07	0000	13
		_SER_Send_Byte 		CODE           	2228	0000	45

serial.c estimated size: 410

button.c
		_BTN_Task      		CODE           	1389	0000	359

button.c estimated size: 359

diaghist.c
		_Diag_Hist_Que_Push		CODE           	0800	0000	322
		_Diag_Hist_Test_Peak		CODE           	18DA	0000	106
		_Diag_Hist_EE_Error		CODE           	2F50	0000	22
		_Diag_Hist_Bat_Record		CODE           	24C6	0000	58

diaghist.c estimated size: 508

alarmprio.c
		_AlarmPriorityTask		CODE           	2640	0000	81
		_ALM_Alarm_Bat_Conserve_Logic		CODE           	248C	0000	58
		_ALM_Init_Bat_Conserve_Timer		CODE           	2E4C	0000	6

alarmprio.c estimated size: 145

peak_button.c
		_Peak_BTN_Task 		CODE           	1DB8	0000	175
		_Peak_BTN_Get_State		CODE           	2E41	0000	3

peak_button.c estimated size: 178

C:\Program Files\Microchip\xc8\v2.32\pic\sources\c90\common\Umul32.c
		___lmul        		CODE           	2282	0000	47

C:\Program Files\Microchip\xc8\v2.32\pic\sources\c90\common\Umul32.c estimated size: 47

greenled.c
		_GLED_Blink    		CODE           	2165	0000	34
		_GLED_Manager  		CODE           	1000	0000	151
		_GLED_Off      		CODE           	2E44	0000	3

greenled.c estimated size: 188

systemdata.c
		_SYS_Calc_Checksum		CODE           	206C	0000	29
		_SYS_Init      		CODE           	22B1	0000	48
		_SYS_Save      		CODE           	204F	0000	29
		_SYS_Load      		CODE           	20C5	0000	30
		_SYS_Validate_Data_Structure		CODE           	2EB2	0000	12
		_SYS_Calc_Ram_Checksum		CODE           	2102	0000	32

systemdata.c estimated size: 180

fault.c
		_Fault_Set_Fatal_Mode		CODE           	2032	0000	29
		_FLT_Fault_Manager		CODE           	1E67	0000	182

fault.c estimated size: 211

C:\Program Files\Microchip\xc8\v2.32\pic\sources\c90\common\strlen.c
		_strlen        		CODE           	2F7C	0000	23

C:\Program Files\Microchip\xc8\v2.32\pic\sources\c90\common\strlen.c estimated size: 23

Voice.c
		_VCE_Process   		CODE           	2EBE	0000	12

Voice.c estimated size: 12

cocalibrate.c
		_CAL_Init      		CODE           	257C	0000	63
		_CAL_Get_State 		CODE           	20E3	0000	31
		_CAL_Manager   		CODE           	1674	0000	396

cocalibrate.c estimated size: 490

memory_1936.c
		_Memory_Read_Block		CODE           	2FE3	0000	29
		_Memory_Byte_Write		CODE           	241A	0000	56
		_Memory_Write_Block		CODE           	2500	0000	62
		_Memory_Byte_Write_Verify		CODE           	2FC6	0000	29
		_Memory_Byte_Read		CODE           	2E9C	0000	11

memory_1936.c estimated size: 187

C:\Program Files\Microchip\xc8\v2.32\pic\sources\c90\common\lwmod.c
		___lwmod       		CODE           	21FC	0000	44

C:\Program Files\Microchip\xc8\v2.32\pic\sources\c90\common\lwmod.c estimated size: 44

esclight.c
		_Esc_Light_Process		CODE           	2ECA	0000	12

esclight.c estimated size: 12

command_proc.c
		_Command_Processor		CODE           	0CCA	0000	822

command_proc.c estimated size: 822

coalarm.c
		_COAlarmTask   		CODE           	1184	0000	257
		_COAlarm_Init  		CODE           	2E88	0000	10

coalarm.c estimated size: 267

a2d.c
		_A2D_Test_AC   		CODE           	2452	0000	58
		_A2D_Convert   		CODE           	2187	0000	38

a2d.c estimated size: 96

battery.c
		_BAT_Do_Test   		CODE           	2343	0000	50
		_BAT_Set_Test_Interval		CODE           	2143	0000	34
		_BAT_Init_LB_Hush		CODE           	2EA7	0000	11
		_BatteryTest_Task		CODE           	1285	0000	260

battery.c estimated size: 355

shared
		_Main_Mode     		STRCODE        	2832	0000	36
		_CharTable     		STRCODE        	0000	0000	0
		_TaskTable     		STRCODE        	2856	0000	32
		__initialization		CODE           	001C	0000	85
		_TaskNumbers   		STRCODE        	3059	0000	4
		_SND_CO_Params 		STRCODE        	3022	0000	9

shared estimated size: 166

led_display.c
		_Display_Get_Intensity		CODE           	2E3D	0000	2
		_Display_Set_Intensity		CODE           	2E65	0000	7

led_display.c estimated size: 9

light.c
		_Light_Analysis		CODE           	0075	0000	1238
		_Light_Manager 		CODE           	0942	0000	442
		_Light_Data_Init		CODE           	1812	0000	98
		_Light_Record  		CODE           	23AC	0000	55

light.c estimated size: 1833

cocompute.c
		_Calculate_Filter_PPM		CODE           	25BB	0000	64
		_Age_Correct_PPM		CODE           	1B9C	0000	128
		_Calculate_PPM 		CODE           	1C1C	0000	129
		_Update_Peak_PPM		CODE           	25FB	0000	69

cocompute.c estimated size: 390

life.c
		_LFE_Check_Depassivation		CODE           	2F3C	0000	20
		_LFE_Check     		CODE           	1874	0000	102
		_Life_Init     		CODE           	21AD	0000	38
		_LFE_Depassivation		CODE           	20A7	0000	30
		_LFE_Check_EOL 		CODE           	2375	0000	55
		_LIFE_Get_Current_Day		CODE           	2E6C	0000	9
		_LFE_UL_EOL_Snooze		CODE           	1803	0000	15

life.c estimated size: 269

C:\Program Files\Microchip\xc8\v2.32\pic\sources\c90\common\lwdiv.c
		___lwdiv       		CODE           	07CC	0000	52

C:\Program Files\Microchip\xc8\v2.32\pic\sources\c90\common\lwdiv.c estimated size: 52

C:\Program Files\Microchip\xc8\v2.32\pic\sources\c90\common\Umul16.c
		___wmul        		CODE           	2FAB	0000	27

C:\Program Files\Microchip\xc8\v2.32\pic\sources\c90\common\Umul16.c estimated size: 27

main.c
		_Main_Set_Low_Power		CODE           	2312	0000	49
		_Payload_Output		CODE           	14F0	0000	388
		_Main_Init_Power_Dly_Timer		CODE           	2E7E	0000	10
		_Main_Recalc_Int_Standby		CODE           	1A2A	0000	120
		_Wifi_Module_enable		CODE           	2F21	0000	13
		_Main_Wait_T1Osc_Stable		CODE           	2122	0000	33
		_main          		CODE           	054B	0000	641
		_Main_Check_Revision		CODE           	2E3F	0000	2
		_Main_Reset_Sleep_Timer		CODE           	2F93	0000	24
		_Main_Init_Powerup		CODE           	2F66	0000	22
		_Make_Return_Value		CODE           	2015	0000	29
		_DebugTask     		CODE           	2ED6	0000	12
		_Main_Check_Low_Power_Logic		CODE           	2001	0000	20
		_Main_Initialize		CODE           	279F	0000	97
		_Initialize_Engine		CODE           	1AA2	0000	123
		_MAIN_Reset_Task		CODE           	22E1	0000	49
		_Main_Calc_Current_Tics		CODE           	253E	0000	62
		_Main_Set_Active		CODE           	2255	0000	45
		_Main_Recalc_Int_Active		CODE           	2740	0000	95
		_main_interrupt_routine		CODE           	0004	0000	22

main.c estimated size: 1856

ptt.c
		_PTT_Task      		CODE           	19B3	0000	119

ptt.c estimated size: 119

comeasure.c
		_MEAS_Make_Measurement		CODE           	1D1F	0000	153
		_MEAS_CO_Charge		CODE           	1B1D	0000	127
		_COMeasureTask 		CODE           	0AFC	0000	462
		_MEAS_Reset    		CODE           	2F14	0000	13
		_MEAS_Send_Charge_Pulse		CODE           	2F2E	0000	14

comeasure.c estimated size: 769

C:\Program Files\Microchip\xc8\v2.32\pic\sources\c90\common\aldiv.c
		___aldiv       		CODE           	1C9D	0000	130

C:\Program Files\Microchip\xc8\v2.32\pic\sources\c90\common\aldiv.c estimated size: 130

sound.c
		_SND_Trouble_Manager		CODE           	1F1D	0000	227
		_SND_Do_Chirp  		CODE           	2EFA	0000	13
		_SounderTask   		CODE           	1097	0000	237
		_SND_Get_State 		CODE           	1800	0000	3
		_SND_Reset_Task		CODE           	2E52	0000	6

sound.c estimated size: 486

C:\Program Files\Microchip\xc8\v2.32\pic\sources\c90\common\__lldiv.c
		___lldiv       		CODE           	2691	0000	82

C:\Program Files\Microchip\xc8\v2.32\pic\sources\c90\common\__lldiv.c estimated size: 82

