:020000040000FA
:1000000080311A28023400347E1480312000111C03
:100010000E28210054180E28200011100B1C162841
:100020002700961116130B082000E6140B190B116C
:100030007E10090080311C28210088310020803189
:10004000EF0078308400A13085005E3086000130FA
:1000500087000030FF000D30A13152218031230094
:10006000803102208031ED00803103208031EE00AC
:100070002000E501E601B030840000308500253025
:10008000FE000030FF00A131462180312030840085
:10009000013085003E30FE000030FF00A1314621D6
:1000A0008031A0308400013085004830FE000030EF
:1000B000FF00A131462180312030840002308500CC
:1000C0002B30FE000030FF00A13146217E102000C1
:1000D00085313F2D7830860023308700403F220055
:1000E000AF00413FB0007830860023308700403FAA
:1000F0002100B400413FB5002000C701C8014808F5
:10010000F1004708F0000530F2000030F300A231A2
:100110000D22803178302000AD002330AE00700811
:100120002D07860071082E3D8700403FAF00413FFC
:10013000B000300822003002031DA22820002F0842
:1001400022002F020318C02820004808F1004708A9
:10015000F0000530F2000030F300A2310D228031B2
:1001600078302000AD002330AE0070082D078600E7
:1001700071082E3D8700403F2200AF00413FB00094
:1001800020004808F1004708F0000530F200003078
:10019000F300A2310D22803178302000AD002330F1
:1001A000AE0070082D07860071082E3D8700403F85
:1001B000AF00413FB0002100350820003002031D90
:1001C000E5282100340820002F02031802294808DE
:1001D000F1004708F0000530F2000030F300A231D2
:1001E0000D22803178302000AD002330AE00700841
:1001F0002D07860071082E3D8700403F2100B40086
:10020000413FB50001302000C7070030C83D003035
:100210004802183003194702031C7F2821003408C4
:1002200022002F022000AD00210035082200303BC3
:100230002000AE0000302E026E3003192D0203188C
:100240009B2921006E13EE132000C9014908AD005F
:10025000AE012D08F0002E08F1000530F20000304C
:10026000F300A2310D22803178302000AF0023301E
:10027000B00070082F0786007108303D87004908DC
:10028000B100B2013108F0003208F1000530F2008F
:100290000030F300A2310D2280317A302000B3000B
:1002A0002330B4007008330784007108343D8500A2
:1002B000403F803F413F813F4908AD00AE012D08DE
:1002C000F0002E08F1000530F2000030F300A231FA
:1002D0000D22803178302000AF002330B00070084C
:1002E0002F0786007108303D87000030C03FC13FB6
:1002F0004908AD00AE012D08F0002E08F1000530D0
:10030000F2000030F300A2310D2280317C30200059
:10031000AF002330B00070082F0786007108303D11
:10032000870081010130AD002D08C907183049024E
:100330000318392D262921006E1734082000AD003E
:10034000210035082000AE00AF01B00122002F08C7
:100350002000B100220030082000B200B301B40137
:100360002D08B1022E08B23B2F08B33B3008B43B36
:100370001030B135B20DB30DB40D890BB929340865
:10038000C4003308C3003208C2003108C100003085
:10039000A3000030A2000030A1006430A000440897
:1003A000F3004308F2004208F1004108F000003079
:1003B000F7000030F6000030F5001E30F400A431E4
:1003C000BD24803173082000A7007208A6007108C0
:1003D000A5007008A400A731AE2780312008AD0029
:1003E0002108AE002208AF002308B0001030B0365C
:1003F000AF0CAE0CAD0C890BF7293008C4002F08E8
:10040000C3002E08C2002D08C100210034082000BE
:10041000C107210035082000C23D0030C33DC43D66
:1004200042082200EC00200041082200EB002100DD
:1004300034082000AD00210035082000AE00AF01D7
:10044000B00122002F082000B10022003008200057
:10045000B200B301B4012D08B1022E08B23B2F083F
:10046000B33B3008B43B1030B135B20DB30DB40D11
:10047000890B342A3408C4003308C3003208C20090
:100480003108C1000030A3000030A2000030A100FC
:100490006430A0004408F3004308F2004208F10071
:1004A0004108F0000030F7000030F6000030F500A1
:1004B0000A30F400A431BD24803173082000A70065
:1004C0007208A6007108A5007008A400A731AE2725
:1004D00080312008AD002108AE002208AF002308BB
:1004E000B0001030B036AF0CAE0CAD0C890B722AD8
:1004F0003008C4002F08C3002E08C2002D08C10018
:10050000210034082000C107210035082000C23D29
:100510000030C33DC43D4208E2004108E1007830AC
:10052000860023308700403FAD00413FAE002E08DB
:1005300022006C02031DA02A20002D0822006B025D
:100540000318E62A01302000BD000030BE003E083E
:10055000F1003D08F0000530F2000030F300A23158
:100560000D22803178302000AD002330AE007008BD
:100570002D07860071082E3D8700403FAF00413FA8
:10058000B00022006C0820003002031DCB2A22009C
:100590006B0820002F020318DA2A2100CF10200058
:1005A0003D08AD002D082100ED0018302000BD00F1
:1005B0000030BE000130BD070030BE3D00303E02BD
:1005C000183003193D020318292BA72A01302000F7
:1005D000BF000030C0004008F1003F08F0000530C7
:1005E000F2000030F300A2310D228031783020007B
:1005F000AD002330AE0070082D07860071082E3D37
:100600008700403FAF00413FB000300822006C023D
:10061000031D0E2B20002F0822006B0203181D2B38
:100620002100CF1420003F08AD002D082100ED006F
:1006300018302000BF000030C00001302000BF078C
:100640000030C03D00304002183003193F02031C47
:10065000EB2A2200CC012100C5012200CB012000A1
:10066000B801B901003039021830031938020318F3
:10067000E92B183021006D020318ED016D082000F0
:10068000AD00AE012D08F0002E08F1000530F2009B
:100690000030F300A2310D22803178302000AF000D
:1006A0002330B00070082F0786007108303D8700A6
:1006B000403FB100413FB200320822006C02031DEE
:1006C000652B2000310822006B020318982B2100B3
:1006D0006D082000AD00AE012D08F0002E08F100DD
:1006E0000530F2000030F300A2310D2280317C3061
:1006F0002000AF002330B00070082F07B100710850
:10070000303DB20031088600320887008030810019
:100710002100CF188F2B2200CB01CB0A952B013063
:100720002000AD002D082200CB072100CF14DD2BC7
:1007300021006D082000AD00AE012D08F0002E084C
:10074000F1000530F2000030F300A2310D228031BB
:100750007C302000AF002330B00070082F078600E7
:100760007108303D870081012100CF1CC22B04306D
:1007700022004B020318BE2B4B08C32B2100C501DE
:10078000C50AC82B01302000AD002D082100C50787
:10079000450822004C020318DB2B210045082000ED
:1007A000AD002D082200CC0021006D082000AD0016
:1007B0002D082200CA002100CF1001302000AD001A
:1007C0002D082100ED0701302000B8070030B93DA9
:1007D000322BC501183045020318452C4508AD00E1
:1007E000AE012D08F0002E08F1000530F2000030B7
:1007F000F300A2310D22803178302000AF00233089
:10080000B00070082F0786007108303D870045084A
:10081000B100B2013108F0003208F1000530F200F9
:100820000030F300A2310D2280317A302000B30075
:100830002330B4007008330784007108343D85000C
:10084000403F803F413F813F4508AD00AE012D084C
:10085000F0002E08F1000530F2000030F300A23164
:100860000D22803178302000AF002330B0007008B6
:100870002F0786007108303D87000030C03FC13F20
:100880000130AD002D08C507EA2B063022004C02CE
:10089000031C372D4A082000AD002D082100ED0073
:1008A00045362000AD002D08BA003A080319682C1F
:1008B00001302100ED026D0A031D642C1730200069
:1008C000AD002D082100ED0001302000BA02552CAA
:1008D0000630AD002D08BB003B0803197F2C01300A
:1008E0002100ED026D0A031D7B2C17302000AD00A6
:1008F0002D082100ED0001302000BB026C2CBC0152
:100900000C303C020318D22C21006D082000AD00F1
:10091000AE012D08F0002E08F1000530F200003085
:10092000F300A2310D2280317C302000AF00233053
:10093000B00070082F0786007108303D870001085D
:100940000438B10021006D082000B200B301320864
:10095000F0003308F1000530F2000030F300A2315E
:100960000D2280317C302000B4002330B5007008A7
:100970003407B6007108353DB700360886003708E1
:100980008700310881000130AD002D082100ED07FE
:1009900018306D020318ED0101302000AD002D0864
:1009A000BC07802CC601183046020318332D4608B8
:1009B000AD00AE012D08F0002E08F1000530F20068
:1009C0000030F300A2310D2280317C302000AF00D6
:1009D0002330B00070082F0786007108303D870073
:1009E0000108031D2E2D4608AD00AE012D08F000B4
:1009F0002E08F1000530F2000030F300A2310D2284
:100A000080317C302000AF002330B00070082F0709
:100A100086007108303D870001080438B10046089F
:100A2000B200B3013208F0003308F1000530F200E3
:100A30000030F300A2310D2280317C302000B40060
:100A40002330B50070083407B6007108353DB70093
:100A50003608860037088700310881000130AD0074
:100A60002D08C607D32C2100EE17D311392D2100F4
:100A7000EE132100ED010130A33155230800DF0101
:100A8000E00121001608D50055082200EF000308F8
:100A9000D50055082300EC00A131AF218531183075
:100AA0009700171464002100D414A431EC2485317C
:100AB0009831FD208531A031A42085312200961780
:100AC00021009618682D96140C3095313625853105
:100AD000A031AC208531A331BF23853121004408EA
:100AE000D500D6015508F0005608F1001230F2008A
:100AF0000030F300A2310D22853132302100D700C1
:100B0000A830D80070085707D9007108583DDA009E
:100B1000590820005F07840021005A082000603D2A
:100B2000850000082100DB00DC01DB35DC0D5630E0
:100B30005B078400A8305C3D8500003FDD00013F7D
:100B4000DE005D0886005E0887004231403FDF001E
:100B5000413FE0004408E100E2016108F000620862
:100B6000F1001230F2000030F300A2310D22853185
:100B700032302100E300A830E40070086307E5008C
:100B80007108643DE600650820005F0784002100CD
:100B900066082000603D850000082100E700E801AC
:100BA000E735E80D563067078400A830683D8500BA
:100BB000003FE900013FEA00690886006A088700F3
:100BC000403F3202EB00413F333BEC0060086C02D7
:100BD000031DEC2D5F086B02031CAB2E4408D500EF
:100BE000D6015508F0005608F1001230F20000302E
:100BF000F300A2310D22853132302100D700A83018
:100C0000D80070085707D9007108583DDA00590814
:100C100020005F07840021005A082000603D850005
:100C200000082100DB00DC01DB35DC0D56305B0702
:100C30008400A8305C3D8500003FDD00013FDE0000
:100C40005D0886005E0887004431403F2000DB00DD
:100C5000413FDC005C088A005B080A0086314708D7
:100C6000DE004608DD0021004408D500D601550805
:100C7000F0005608F1001230F2000030F300A2310B
:100C80000D22853132302100D700A830D8007008FD
:100C90005707D9007108583DDA00590820005F074E
:100CA000840021005A082000603D850000082100D2
:100CB000DB00DC01DB35DC0D56305B078400A8303F
:100CC0005C3D8500003FDD00013FDE005D088600E1
:100CD0005E088700423120005D08C03F5E08C13FCA
:100CE00021004408D500D6015508F0005608F1004F
:100CF0001230F2000030F300A2310D228531323083
:100D00002100D700A830D80070085707D900710813
:100D1000583DDA00590820005F07840021005A0876
:100D20002000603D850000082100DB00DC01DB3590
:100D3000DC0D56305B078400A8305C3D8500003F29
:100D4000DD00013FDE005D0886005E088700320896
:100D5000C03F3308C13F01302000DF070030E03DD5
:100D600021004408D500D601D535D60D24305507CD
:100D70008400A930563D8500003FD700013FD800D0
:100D80005708FF3ED900FF30583DDA0020006008C8
:100D900021005A02031DD02E20005F0821005902B5
:100DA00003186E2D2000DF01E00101302100B207A1
:100DB0000030B33DD410541CF82E90310020853102
:100DC00001302200E702031D002F01302100D50071
:100DD00055082200C80764302100D50055082200BC
:100DE000E700A631BF2685319A31FB228531002FDD
:100DF0000130D50055082200C807A631BF2685312D
:100E0000220066084806031D2F2FA13116218531C7
:100E1000003A031D0C2F01002000E51F122FA03106
:100E2000A320853101302100D50055082200C907D3
:100E300048083C3E2100D50055082200E60001305C
:100E4000E502031D2C2F3C302100D500550822005F
:100E5000E500A631502685319931C0218531200029
:100E6000E51F3E2F2100D41F3E2FD4132030200039
:100E7000B6000230B7008C31B12485312000661DE8
:100E8000652F01302200AB070030AC3D02302B064D
:100E90002C04031D502F2100511B502F20008D17B3
:100EA000013022002C02F53003192B02031C612FA4
:100EB0002000661121005113D11B612FA031A72002
:100EC000853120001118A42F612F2100541C6C2F94
:100ED00020001118A42F682F220096139713630087
:100EE000220096179717031A782F20008D13772F5B
:100EF0002700961D8D2F02302100D6003830D500F6
:100F0000AD30890B812FD50B812FD60B812F270078
:100F1000961120008D19E6140B102700161FA42F20
:100F200002302100D6003830D500AD30890B962F25
:100F3000D50B962FD60B962F2700161320000D1FCA
:100F4000A32F21004E150B10A13185218531A13130
:100F5000DC21853116302100970017146E2D501FAB
:100F6000080000303D020B3003193C020318521CEC
:100F7000DF2F3D0820006402031DC22F21003C0822
:100F8000200063020318D72F21003D082000E40051
:100F900021003C082000E3006408AC002C0822007B
:100FA000A20020006308AC002C082200A30021004E
:100FB0003D08FD003C08FC009A31232287310030B7
:100FC00021003D02653003193C02031C0800521C3D
:100FD0000800501F08006E1A08006E1608008C16D4
:100FE0005030890BF12F20008C12E4300032003297
:100FF000890BF62F00320032080022002908080071
:101000000334A031C52088310E307102C430031979
:101010007002031C1028093091318D2188311C2861
:10102000A031C52088310E307102A630031970023C
:10103000031C1C2821004E14A031C5208831230038
:10104000220870022000B00023002308713B20001A
:10105000B10000303102033003193002031C0800D4
:1010600021005312080066183A28462804303A0630
:10107000031951283030F8007530F900A23162228E
:1010800079082000C7007808C6000800A231F522C0
:1010900088312000B2003208BA0002303A06031D3F
:1010A000362823006908EB006808EA0022006E0871
:1010B0002300E90022006D082300E8006808F00022
:1010C0006908F100F201F3010030F7000030F6008A
:1010D000B830F5000B30F400A431BD24883173081A
:1010E0002000BE007208BD007108BC007008BB0083
:1010F0003E08B9003D08B800003021003D022D3007
:1011000003193C02031CB62823006A08F0006B0890
:10111000F100F201F3010030F7000030F600493031
:10112000F500FB30F400A431BD24883173082000A1
:10113000BE007208BD007108BC007008BB003D080D
:10114000B2003E08B300B401B5013508BE00340852
:10115000BD003308BC003208BB003B083807220042
:10116000ED0020003C08393D2200EE000030210057
:101170003D02623003193C02031CD3283C082200C4
:101180006D072000B20021003D0822006E3D2000C6
:10119000B30032080D3E2200ED0000302000333D48
:1011A0002200EE00DA283C082200ED0721003D086D
:1011B0002200EE3D00306E02273003196D02031C41
:1011C00029292630ED020030EE3B20306E024530FA
:1011D00003196D02031CEE28AC30232900302100D6
:1011E0003D02E53003193C02031C00293D082000A4
:1011F000B30021003C082000B200B235B30D07292E
:101200003D082000B30021003C082000B200B235A8
:10121000B30DB235B30D4430B4002030B500220018
:101220006D0820003402B60022006E082000353B15
:10123000B70033083702031D1F293208360203188E
:101240002F29AC302200ED001F30EE002000651485
:101250003A28ED01EE012300E801E90120006510C4
:101260003A28CE2A2100521D38292000E51D4429A4
:101270003030F8007530F900A23162227908200080
:10128000C7007808C600080001302300ED020030D6
:10129000EE3B6D086E04031D64292100541C522985
:1012A000013053290A302300ED000030EE00200009
:1012B0008D1864292100D0196429CF16013020002F
:1012C000C80048082200E8072100EE1F8F292000EF
:1012D00065188F29620822006302031D732920000C
:1012E000610822006202031C9A29A031A5208931DD
:1012F000053A031DA92920006108143EC8000030EA
:10130000623DC9002200630820004902031D8C29A8
:1013100022006208200048020318AD29A9292000F4
:101320006518AD290030220063027D300319620286
:1013300003189C290530AA29A031A5208931053A36
:10134000031DA92900306302923003196202031CB5
:10135000AD290130A031B72089312100EE1BD3190E
:10136000E5296D082000C800C9014808F0004908B7
:10137000F1000530F2000030F300A2310D22893176
:101380007C302000CA002330CB0070084A0786005A
:1013900071084B3D8700011DE4292100D318D7298E
:1013A000D31400302300A000E130A100DA2A01307C
:1013B0002300A0020030A13B20082104031DDA2AEB
:1013C0002100D310D315DA2A2100D310DA2A210004
:1013D0008D1423008D1401302000C800480822001D
:1013E000E807D030F8000730F900A231622279080E
:1013F0002000C7007808C60008007C30A33199237C
:10140000893171082000D1007008D0002830A33144
:101410009923893171082000D3007008D200D401CB
:1014200006302000C8003030890B142AC80B142A5B
:1014300000002830A3319923893120005208700719
:10144000C8005308713DC900C936C80C4808D2000D
:101450004908D3000130C8004808D40704305402BA
:10146000031C102A21008D1023008D10200050082D
:10147000F0005108F100F201F3010030F7001030E4
:10148000F6000030F5000030F4009E314E26893120
:101490007308CF007208CE007108CD007008CC0030
:1014A0005208F0005308F100F201F3014F08F70071
:1014B0004E08F6004D08F5004C08F400A431BD2498
:1014C000893170082000C8007108C9007208CA007C
:1014D0007308CB000A30CB36CA0CC90CC80C890B78
:1014E0006B2A4B08D8004A08D7004908D60048089C
:1014F000D50056082200E300200055082200E20033
:10150000610860045F045E04031D902A20005508F2
:101510002200DE00200056082200DF00E001E10189
:101520006108F3006008F2005F08F1005E08F00057
:101530000030F7000030F6000030F5000330F40012
:10154000A431BD248931700820005507C8007108F6
:10155000563DC9007208573DCA007308583DCB007C
:101560000230CB36CA0CC90CC80C890BB12A4B0807
:101570002200E10020004A082200E0002000490883
:101580002200DF00200048082200DE002100CF12E8
:101590002200E801E80AE801E80ADA2A22006808DD
:1015A000013A03193229033A0319E729013A0319C9
:1015B000FD29CB2A2100541CF129E830F800033022
:1015C000F900A231622279082000C7007808C6001D
:1015D00008009E2C2D302000C80048082100C800BB
:1015E0002200B901BA0101302000C80048082200D9
:1015F000D207112B01302000C80048082200D20772
:101600003C302000C80048082100C800112BEE180B
:101610006E1CFA2A2000661AFA2A043091318D21B4
:101620008A31E830F8000330F900A23162227908EB
:101630002000C7007808C600080020006618FA2AB3
:10164000210048080319072B0130C8029F31672782
:101650008A312E082100B90020002D082100B80091
:1016600020006618FA2A0230210039025830031986
:1016700038020318112B01302000C800480822004E
:10168000D2073C302000C80048082100C8001030B4
:10169000F8002730F900A231622279082000C70043
:1016A0007808C600080021005214EE143908220000
:1016B000B800210038082200B7009F3167278A311F
:1016C0002E082100B90020002D082100B80038089C
:1016D0002000C800210039082000C900CA01CB0140
:1016E00022003908F0003A08F100F201F30100305D
:1016F000F7000030F6000030F5000330F400A431AC
:10170000BD248A3170082000C8077108C93D7208DD
:10171000CA3D7308CB3D0230CB36CA0CC90CC80C8D
:10172000890B8C2B49082200BA00200048082200AF
:10173000B9002000661CA82B210039082000BC003D
:10174000210038082000BB009D31CD258A31112BA6
:1017500021003908B7003808B600D21FB22B20008C
:10176000661AF22B21005219B82B2000E51DE72B39
:101770002100390822003802031DC22B210038083D
:10178000220037020318E32B37082100380220001B
:10179000C800220038082100393B2000C90002306F
:1017A0004902BD3003194802031CE72B0430913174
:1017B0008D218A31220038082100B9002200370823
:1017C0002100B800112B843091318D218A31220003
:1017D0003A082000BC00220039082000BB009D31DF
:1017E000CD258A3101302100C802031D112B2003B1
:1017F0000319002B20080319002BD21B062C0030E4
:101800003D021F3003193C020318002B2000651E07
:10181000F32A002B21003608F43E2200B5000130E7
:101820002100373D2200B6003608FD003508FC00D7
:101830009C31CE248A312100D21414302000C800FB
:1018400048082100C800F32A01302100C802031D06
:101850003C2C02302000C80048082200D2002100A1
:10186000541C342C3C30352C78302000C8004808FB
:101870002100C800D210112BD21A112B9F316727DB
:101880008A312E082100B90020002D082100B8005F
:1018900013304806031D832C360838022000C80088
:1018A00021003708393B2000C9000030490264306C
:1018B00003194802031C6D2C210036083802200051
:1018C000C80021003708393B2000C9000730490211
:1018D000D13003194802031C7F2C023091318D2135
:1018E0008A3102302000C80048082200D20014309B
:1018F0002000C80048082100C800D210832C823084
:1019000091318D218A31023021004806031D112BAF
:10191000360838022000C80021003708393B200073
:10192000C900003049024630031948020318112B40
:10193000843091318D218A3182300E2B2200520861
:10194000003A0319EA2A013A03191D2B033A031935
:10195000532B013A03190A2C073A0319242C112B93
:101960000800CC2FA031BE2008000D30A1316B2122
:101970008C313230F000A930F100A231D7228C3105
:1019800020003608013EF5000030373DF600983162
:1019900041208C317608D6007508D50055088600A0
:1019A000560887000108B800B9013808A7003908AF
:1019B000A8001030BA003A08A9002030A4310E2443
:1019C0008C312C30A1316B218C313230F000A930B8
:1019D000F100A231D7228C3120005508860056082C
:1019E0008700403FA700413FA8001030B8003808EA
:1019F000A9002030A4310E248C31A031BE20080073
:101A00003608013EF5000030373DF60098314120A0
:101A10008C3176082200B2007508B100A031BE20DA
:101A200008003608013EF5000030373DF6009831D9
:101A300041208C317508B80038082100C900A03158
:101A4000BE200800A2317F228C31B22C3608013E24
:101A5000F5000030373DF600983141208C31750893
:101A6000B8003808BF00220031088600320887001D
:101A700020003F088100B22CC601C701C201C3018A
:101A80001F30F000A930F100A231D7228C312000A4
:101A9000CE010D30A1316B218C3120004708A431DB
:101AA00063248C312830F000A930F100A231D72214
:101AB0008C312000CF014208A031FF208C31200062
:101AC000B8003808CB000130C2070030C33D0130F8
:101AD000B8003808C7074B08B8003808C6074B08D5
:101AE000A43163248C312030A1316B218C31013041
:101AF0002000B8003808CF0710304F02031C5B2DC0
:101B00000130B8003808CE0710304E02031C492DB2
:101B10000D30A1316B218C312F30F000A930F10054
:101B2000A231D7228C3120004608A43163248C31A5
:101B3000A031BE2008003608013EF5000030373DD8
:101B4000F600983141208C317608CD007508CC0024
:101B50004C08B80038082100AD0020004D08B8003E
:101B600038082100AE00A2317F228C31A031A320A1
:101B70000800C801A030B8003808C900B130F00032
:101B8000A830F100A231D7228C312000D0015008BA
:101B9000031D042E0D30A1316B218C31200048082B
:101BA000A43163248C312830F000A930F100A23137
:101BB000D7228C312000D101103051020318FD2DA5
:101BC0004908860087010108B8003808C0000130C4
:101BD000B8003808C9070130B8003808C8074008FD
:101BE000A43163248C312030A1316B218C31013040
:101BF0002000B8003808D107DC2D0130B8003808C3
:101C0000D00750080319CA2D0D30A1316B218C313A
:101C1000A031BE208C319630F000A830F100A23106
:101C2000D7228C31220034082000A800220033087B
:101C30002000A7000A30B8003808A9002030A431DD
:101C40000E248C31B22CCA011030C4000030C50003
:101C50007630F000A830F100A231D7228C3120007C
:101C6000D2015208031D6F2E0D30A1316B218C3132
:101C700020004A08A43163248C312830F000A930B8
:101C8000F100A231D7228C312000D3011030530251
:101C90000318682E4408A031FF208C312000B800C2
:101CA0003808C1000130C4070030C53D0130B8001C
:101CB0003808CA074108A43163248C312030A1318F
:101CC0006B218C3101302000B8003808D307462E34
:101CD0000130B8003808D20752080319342E0D30ED
:101CE000A1316B218C31A031BE200800DC30F00026
:101CF000A830F100A231D7228C312000D401183055
:101D0000540203182B2F0D30A1316B218C31200090
:101D1000540821006D06031D912E2A30A1316B213C
:101D20008C3120005408B800B9013808A7003908E0
:101D3000A8000A30BA003A08A9002030A4310E24C5
:101D40008C312830F000A930F100A231D7228C313B
:101D500020005408B800B9013808F0003908F10033
:101D60000530F2000030F300A2310D228C317830C2
:101D70002000BA002330BB0070083A0786007108C3
:101D80003B3D8700403FA700413FA8000A30BC0010
:101D90003C08A9002030A4310E248C312030A13120
:101DA0006B218C3120005408B800B9013808F000CC
:101DB0003908F1000530F2000030F300A2310D22A5
:101DC0008C317A302000BA002330BB0070083A070B
:101DD000860071083B3D8700403FA700413FA800B7
:101DE0000A30BC003C08A9002030A4310E248C31FC
:101DF0002030A1316B218C3120005408B800B9018A
:101E00003808F0003908F1000530F2000030F30026
:101E1000A2310D228C317C302000BA002330BB006F
:101E200070083A07860071083B3D87000108BC0036
:101E3000BD013C08A7003D08A8001030BE003E08C8
:101E4000A9002030A4310E248C3101302000B800CC
:101E50003808D4077F2EA031BE208C312100EE1F20
:101E6000662FF930F000A830F100A231D7228C3172
:101E700022006C082000A80022006B082000A700A8
:101E80000A30B8003808A9002030A4310E248C3163
:101E9000A031BE208C31F630F000A830F100A23124
:101EA000D7228C3120006208A8006108A7000A3000
:101EB000B8003808A9002030A4310E248C31A0319C
:101EC000BE208C311830F000A930972FF930F00087
:101ED000A830F100A231D7228C317D302000A7003C
:101EE0000030A8000A30B8003808A9002030A4311A
:101EF0000E248C31A031BE208C31F630F000A83099
:101F0000F100A231D7228C317D302000A7000030B3
:101F1000A8000A30B8003808A9002030A4310E24E7
:101F20008C31A031BE208C310830F000A930F10096
:101F3000A231D7228C31A031BE208C3121006E1FFE
:101F4000A92FFF30F000A830F100A231D7228C3148
:101F5000B22C1030F000A930F100A231D7228C3120
:101F6000B22C661AB52F651EBC2F2100D21FB92FC7
:101F70006E14D4160100080066142200A501A50AFB
:101F800008000D30A1316B218C312130A1316B2142
:101F90008C31A031BE200800360884003708850047
:101FA0000008003A0319B22C403A0319B52C013A43
:101FB0000319002D033A0319112D013A0319222D9B
:101FC000073A0319262D013A0319FF2F033A031983
:101FD000B22C013A03193C2D0F3A0319FF2F013A95
:101FE00003199B2D023A0319232E073A0319762E63
:101FF0001E3A0319B92D063A0319B12FC12F080053
:1020000023009D1C08281D12000023001D16080037
:102010001D1D11281908F00070082100C200C2011E
:1020200008002000911E080091120D3023001906AF
:10203000031D242821004208203E8600023087002C
:102040008101C201D41708001908F00021004208DC
:10205000203E860002308700700881000130F000C9
:102060007008C20707304202031C08000F28C72867
:102070002100D31F3E282200C001C00A21004E1CAF
:10208000432802304E282000661E4A282200C00144
:10209000C00AD6282100531CD62803302000C800CF
:1020A00048082200C000D6282000661E7128013092
:1020B000C80048082200C1072100D31F652801304D
:1020C0002000C80048082200C1073030F8007530F1
:1020D000F900A231622279082000C7007808C60002
:1020E00008002200C001D6282100D31C531A8428DE
:1020F00001302000C80048082200C107013020003C
:10210000C80048082200C1072200C001652820003D
:10211000651E661A71282100541E9D28A031EB20EF
:1021200090316030F800EA30F900A231622279087B
:102130002000C7007808C6000800531C7128541CF2
:10214000AF28D31CA528D11DAB2801302000C80022
:1021500048082200C1072200E401E40AC128D31C78
:10216000B328D11DC128A1315E2190310130220058
:10217000E402031DC1280F302000C80048082200D7
:10218000E400A031EB2090312200C0019128220010
:102190004008003A03193828013A03195428033A31
:1021A00003197428013A03198728D6286430F800E7
:1021B0000030F900A231622279082000C7007808B7
:1021C000C60008006F292100CE1120006618812961
:1021D0002100521D81292000E51DE61B81290D1FCC
:1021E0006C292100CE152200C601C60A6C292000E8
:1021F0000D1F6A290230C80048082200C60064305A
:102200002000C80048082100C3000E309531362553
:102210009031812920000D1B8D1D14290730C80025
:1022200048082200A5002E290D1F3B295B30210004
:1022300043020318272933304302031C27292000B7
:102240008D1927290630C80048082200A500013052
:102250002100C302333043020318812928302000B3
:10226000C80048082200C50004302000C800480803
:102270002200C60081295B3021004302031C55293E
:1022800005302000C80048082200A500C601210032
:102290004E11D030F8000730F900A23162227908DF
:1022A0002000C7007808C60008002200C601812966
:1022B00020000D1F6A2901302200C502031D81295B
:1022C00028302000C80048082200C500A1315E2146
:1022D000903181292200C60121004E11812922005E
:1022E0004608003A0319E328013A0319F728033A8C
:1022F00003190A29013A03198129073A03195829B0
:1023000081296430F8000030F900A2316222790896
:102310002000C7007808C60008002000AF00AF1BEF
:10232000A029CB292100C70102309B292200D1011D
:1023300021004F1104304606031DAB29D213AB29EF
:102340002F08823A03199229063A03199629013A6D
:102350000319AB293B2A2000661EC1297F302F05B7
:10236000FD007D0821004606031DC12920002F081D
:10237000FD007D082100C6002000661221004F13D9
:10238000080022005108031D080021004708031D12
:102390000800D2130800661A0800242A023021001F
:1023A0004706031DDC298230953136259131200006
:1023B0002F08A031F5200800D2170130FD007D085C
:1023C000C70708001E3022005106031DF229833082
:1023D00095313625913120002F08A031F5202100BC
:1023E0004F1508002100D2170130FD007D082200A2
:1023F000D1070800863095313625913120002F080D
:10240000A031F52008008430953136259131200027
:102410002F08A031F52021004F1708008830953192
:10242000362591312100CF1720002F08A031F5204B
:10243000080089309531362591312100D3172000CD
:102440002F08A031F52008002F08023A0319CE29E1
:10245000063A0319E229013A03193B2A033A031900
:10246000FA29013A0319032A0F3A03190E2A013AED
:102470000319192A3B2A0800F92A2000E611210035
:10248000521D782A2000E519782A8D1D582AE61554
:102490002200D301D30A582A20008D1D562AA131CB
:1024A0005E2192312100CD010230732A2200D30136
:1024B0002000E610782A20008D1D8E2AA031A92048
:1024C0009231003A0319842A2000E301E40122003A
:1024D000A201A30121006E120F302000B2003208C9
:1024E0002100CD0006302000B20032082200D300C7
:1024F0006430F8000030F900A2316222790820002F
:10250000C7007808C600080001302000B200320879
:102510002100CD071E304D02031C782A0330732A98
:10252000323021004D020318E52A200065189B2A4D
:102530002100D31F9E2A2100D41601002100531E22
:10254000A32A0730732A4E1CB42AD21FAA2AD416F3
:102550000100B42AA031E120923104302000B20001
:1025600032082200A5006C2A2100541AA12A53180F
:10257000D119D32AA031D720923103302000B200E4
:1025800032082200A5000F302000B20032082100DE
:10259000CD0006302000B20032082200D300A03166
:1025A000EB209231782A2000661AD82A651EDF2A8D
:1025B0002100D21FDC2A6E14D4160100782A66147A
:1025C0002200A501A50A0430732A2200D301782A2B
:1025D0002000661CE52A782A01302100CD02031D67
:1025E000F32A2200D30120008D19782AE52A200041
:1025F000DF2A22005308003A03193D2A013A031941
:102600004C2A033A03195B2A013A0319902A073A24
:102610000319E82A023A0319EC2A013A0319F72AA6
:10262000782A0800DC2B20006613651E582BA23187
:10263000F5229331023A031D272B20008D1304301D
:102640002200A9000030AA0020006617F32B20000A
:102650008D13ED302100B000A830B100310820000A
:10266000C900210030082000C80006304807840057
:1026700049080318490A85000008CA004A082200D0
:10268000C2000130A9000030AA0020006617210016
:102690003008840031088500003FF800013FF90050
:1026A000A231622279082000C7007808C60008001D
:1026B000220041080319662B2000E61B732B013012
:1026C0002200C102A1315E219331732B2100541FDE
:1026D000732B01302200BF02031D732BA1315E2139
:1026E00093312100541322004108031DF32B2000D5
:1026F000E612F32B20008D1701302200C202031DC9
:102700009F2BC101A901AA01210031082000C900A5
:10271000210030082000C800043048078400490820
:102720000318490A8500003FF800013FF900A23173
:10273000622279082000C7007808C600080002302D
:10274000A9000030AA00210031082000C9002100A2
:1027500030082000C80002304807840049080318E8
:10276000490A8500003FF800013FF900A2316222CA
:1027700079082000C7007808C600080020008D13E3
:1027800001302200A9000030AA0021003008840096
:1027900031088500003FF800013FF900A2316222B4
:1027A00079082000C7007808C6000800A901AA011E
:1027B000F32B20008D13F32B22002A08003A031973
:1027C000E22BF32B2908003A0319132B013A0319C2
:1027D0007A2B033A0319BE2B013A0319D62B073A79
:1027E0000319D92BF32B2C30F8000130F900A2315A
:1027F000622279082000C7007808C6000800212D51
:1028000020000C1301302200BD000030BE0021006A
:10281000D4151E302000B20032082200D400D501A9
:10282000D50A8830F8001330F900A2316222790805
:102830002000C7007808C60008002000651E2C2C68
:10284000A030F8000F30F900A23162227908200090
:10285000C7007808C60008002100541E3A2C013039
:102860002200BB020030BC3B3B083C04031D3A2C59
:102870002100541201302200BD020030BE3B3D0851
:102880003E04031D2A2DA5317D25933174082000B7
:10289000BB007308BA0022005C08F0005D08F1007C
:1028A000F201F3010030F7001030F6000030F500BF
:1028B0000030F4009E314E2693317308B90072083F
:1028C000B8007108B7007008B6003A08F0003B087D
:1028D000F100F201F3013908F7003808F600370873
:1028E000F5003608F400A431BD24933170082000AF
:1028F000B2007108B3007208B4007308B5000A3062
:10290000B536B40CB30CB20C890B802C3508BF0063
:102910003408BE003308BD003208BC003D08210069
:10292000C10020003C082100C0003E083F04031DF8
:10293000BA2C20003C08A63E2100BE00FB3020003F
:102940003D3D2100BF0006302000B2003208F100FA
:1029500021003E08A6318726933107302000B200BF
:102960003208F10021003F08A6318726933122006A
:10297000A601CE2C3F08F1003E08F00020003C08E4
:10298000A63EF200FB303D3DF300A531AF2593316B
:1029900070082000B20032082200A60020003F0884
:1029A000031DDE2C3E08031DDE2C45303C020430A6
:1029B0003D3B0318DE2C2100D115E02C2100D11164
:1029C00020003F08031D0B2D3E08031D0B2D5A3020
:1029D0003C0204303D3B03180B2D2100531D092DF3
:1029E0005318062D20003F08031D022D3E08031D2D
:1029F000022D3D08031D022DFA303C020318022D62
:102A00000530032D043095313625933121005314C0
:102A10001C2D53151C2D20003F08031D182D3E08AA
:102A2000031D182D65303C0204303D3B031C1C2D5A
:102A300021005311531054120030A3315523933108
:102A40002A2D22005508003A0319002C013A0319D7
:102A50001D2C2A2D6030F800EA30F900A2316222E4
:102A600079082000C7007808C60008002000AE00E2
:102A7000A701A231F5229531043A0319442D86307D
:102A800020002E06031D08003D302000A200220871
:102A9000F1002B30A3002308F2000330A2314522BD
:102AA000953120002D082C07A20022082B060319BF
:102AB000702D3D30A2002208F1002B30A300230826
:102AC000F2000330A2314522953120002D082C0759
:102AD000A20022082B060319702D210050140800B3
:102AE0002100501020002E08A2002208A400AE1FD2
:102AF000BE2D2E08A2000330A235FF3E031D7C2D03
:102B00002235A3002308AE00A031C52095317108FD
:102B10002000A9007008A8002908A2002208A5002A
:102B20002808A2002208A7002E082504A2002208D7
:102B3000AE002E08A20022082200D800200027089C
:102B4000A20022082200D9005830F9000130FA0012
:102B500020002C08A2002208FB000230A7317027B9
:102B600095310230A2002208AC07A0302C02031CD1
:102B7000022E4030A2002208AC00022E2E08A20035
:102B80000330A235FF3E031DC12D2235A3002308CB
:102B9000AE00A031C520953171082000A900700851
:102BA000A8002908A2002208A5002808A2002208DF
:102BB000A7002E082504A2002208AE002E08A200BD
:102BC00022082200D80020002708A20022082200A4
:102BD000D9005830F9000130FA0020002D08A20079
:102BE0002208FB000230A731702795310230A20085
:102BF0002208AD07A0302D020318022EA030A2003B
:102C00002208AD002C082D07A2002208AB002B30B3
:102C1000F9000030FA003D30A2002208FB0003302A
:102C2000A731702795313F2E38303B2E20303B2E78
:102C300021303B2E22303B2E3030A2002208AA0049
:102C40002B30A2002208F90021003C08A2312822E2
:102C500095312C302000A2002208F90021003D0807
:102C6000A231282295315C2E32303B2E31303B2E62
:102C700039303B2E3330A2002208AA005C2E2408F3
:102C8000043A03191A2E013A03191A2E0E3A03199F
:102C9000382E073A0319142E013A0319162E033A57
:102CA0000319182E8C3A0319362E013A0319342EC3
:102CB0000C3A03191C2E3A2E333020002A06031931
:102CC00008002A08A031FF2095312000A200220828
:102CD000A600260A031908000130A2002208A60750
:102CE0002A08A2002208F9002608A231282208009A
:102CF000E72F01302000B20032082100CC07E83075
:102D0000F8000330F900A231622279082000C700E0
:102D10007808C600080007302006031DA72E0530DE
:102D20002000B20032082100CC0007302000B200A1
:102D300032082200A7006430F8000030F900A23108
:102D4000622279082000C7007808C6000800200326
:102D5000031DB42E0C302000B20032082100CB003D
:102D60002200A701A70A792E2008031D912F0C30FD
:102D70002000B20032082100CB002200A701792EEA
:102D80000130CB02031D912F200815302000B20026
:102D900032082100CB0001302000B20032082100AF
:102DA000CC07912F2008031D0E2F01303B02043069
:102DB00003193A0203180B2F00303B023D30031970
:102DC0003A02031C0B2F3A082000B20032082100FF
:102DD000A2003B082000B20032082100A30001300D
:102DE0002000B20032082100A000FE302000B20016
:102DF00032082100A100A2317F2296312830B20092
:102E000032082100CB0006302000B2003208210039
:102E1000CC001030792F28302000802F0230A03EC7
:102E200086008701403F2000B600413FB7003608CA
:102E300021003A022000BA00370821003B3B200065
:102E4000BB0002303B028A3003193A0203187F2F7D
:102E500000303B02C93003193A02031C7F2F3A08A5
:102E6000A0003B08A100A201A3010030A7009630FA
:102E7000A6000030A5000030A400A731AE2796318F
:102E80002008B2002108B3002208B4002308B500CE
:102E90000830B536B40CB30CB20C890B492F33088B
:102EA000B9003208B8000130B8070030B93D04302D
:102EB000A03E860087013808C03F3908C13F07306F
:102EC000B20032082100A000F8302000B200320821
:102ED0002100A100A2317F2296312830B2003208B1
:102EE0002100CB0006302000B20032082100CC00C7
:102EF00011302000B20032082200A700A92F28308C
:102F0000B20032082100CB0006302000B2003208A7
:102F10002100CC00D316FF302000B200320822007E
:102F2000A7003030F8007530F900A231622279082C
:102F30002000C7007808C600080022003A082100D7
:102F4000BB00220039082100BA000130CB0203196E
:102F5000D22E1030F8002730F900A2316222790811
:102F60002000C7007808C60008002000651C912FCB
:102F70000330B20032082100A000FC302000B20073
:102F800032082100A100A2317F2296310430B20024
:102F900032082100CC0017308C2F0130CB02031DEA
:102FA000912FD31EDE2F063091318D2196310430C2
:102FB0002000B20032082100CC00912FA1315E2107
:102FC00096310130B20032082100CB07912F210049
:102FD0004C08003A0319792E013A03198B2E033A53
:102FE0000319C02E013A03199D2F073A0319912F97
:102FF000013A0319B52F033A0319CD2F912F080079
:1030000020008D100800FA007A08F200F301F23572
:10301000F30D563072078400A830733D8500003FE1
:10302000F400013FF50074088600750887004231FE
:10303000403FF800413FF90021003208F802330810
:10304000F93B7A08F200F301F235F30D56307207BE
:103050008400A830733D8500003FF400013FF50077
:103060007408860075088700403FF600413FF7006E
:103070007608F8077708F93D7908F1007808F0003C
:103080000800A001A101A2017608F1007508F00076
:10309000A131C52198317008FF3EF7007708A300E1
:1030A0007608F8007508F700230877078400780889
:1030B0000318780A85000008F90041307902031CE2
:1030C00077287608F8007508F7002308770784004A
:1030D00078080318780A85000008C93EF900FA014B
:1030E000220A7428F935FA0D890B72288C28760883
:1030F000F8007508F700230877078400780803189C
:10310000780A85000008D03EF900FA01220A8A28D0
:10311000F935FA0D890B88287908A0077A08A13DAE
:103120000430F7007708A2070130A302230A031D29
:1031300050282108F6002008F5000800FD007D0851
:103140002000A000A101A035A10D56302007840069
:10315000A830213D8500003FA200013FA3002208C6
:103160008600230887004231160001040319080075
:103170007D089831032098317108FC007008FB002D
:103180007C08F1007B08F0006430F2000030F300AE
:10319000A2310D2298317D082000A000A101A035A8
:1031A000A10D563020078400A830213D8500003F46
:1031B000A200013FA30022088600230887004231B5
:1031C0007008C03F7108C13F7D08A000A101A03573
:1031D000A10D563020078400A830213D8500003F16
:1031E000A200013FA30022088600230887002100D7
:1031F0003208C03F3308C13F0800813021009500EC
:103200007A3099000B3023008C000B3021008C00A9
:1032100020008C0123008D01483021008D0080307A
:1032200020008D00833021008E0020008E018D3023
:1032300098009901A3313423983121005414A1310D
:10324000DC2198312100D215A73133279831210094
:10325000521D5415200066159C31532498312100CD
:103260005410A43190249831A131852198314830EF
:10327000270094008B150730A031FF2098312000E3
:10328000B300B40133082100BE002000340821003F
:10329000BF000630A031FF202000B300B4012100A0
:1032A0003E082000B600B501330835042100BE00F9
:1032B0002000340836042100BF000800FA017A0813
:1032C000F600F7017608F0007708F1000530F2000B
:1032D0000030F300A2310D2299317830F80023300C
:1032E000F9007008780786007108793D8700003082
:1032F000C03FC13F7A08F600F7017608F000770872
:10330000F1000530F2000030F300A2310D229931B6
:103310007A30F8002330F9007008780786007108C9
:10332000793D87000030C03FC13F7A08F600F701C1
:103330007608F0007708F1000530F2000030F30065
:10334000A2310D2299317C30F8002330F900700849
:10335000780786007108793D870081012100EE130E
:103360000130F6007608FA0718307A02031C5F294C
:10337000ED012200EB01EC012000E101E201080077
:1033800001302300A4070030A53D05302502A03000
:1033900003192402031C080021002808013E200014
:1033A000B20032082100A8002808031DDE292908E0
:1033B000013E2000B20032082100A9002808290798
:1033C0002000B20032082100AA00A2317F229931E8
:1033D0008831012099312300A401A5012100410871
:1033E0002000A300210040082000A2000330A631E5
:1033F000F9269931A031C520993170037104031D5C
:103400000D2A210041082000A300210040082000CF
:10341000A2000130A631F9269931A031C520993199
:103420006E307006031D08007103031D08002100A3
:1034300041082000A300210040082000A200023023
:10344000A631F9260800A231F5229A31043A031D6B
:103450000800D21B08003430A031FF209A31200030
:10346000A000A1012008A2002108A3003530A0314E
:10347000FF209A312000A000A1012008A40021080B
:10348000A5002408A100A00122082007A600230807
:10349000213DA7007D082702031D502A7C08260233
:1034A000031808007C08A0002008AA007D08A000DE
:1034B0002008AB003430A0002008F9002A08A2310F
:1034C00028229A3135302000A0002008F9002B086E
:1034D000A23128229A31A031C5209A3171082000EA
:1034E000A9007008A8002808A0002008AA00290840
:1034F000A0002008AB003630A0002008F9002A0800
:10350000A23128229A3137302000A0002008F9008B
:103510002B08A231282208007A08FC007C08A600AB
:103520007908A4007808A3007B08FC00FD017C0852
:10353000F0007D08F1002408F3002308F200A43114
:1035400037249A317108A1007008A0002108850075
:1035500020088400CB308407A830853D0008FC009B
:103560002608860087017C0881000130FC007C0869
:10357000A6077B08FC00FD017C08F0007D08F10037
:103580002408F3002308F200A531AF259A31710811
:103590002000A4007008A30023082404031D942A1B
:1035A00026088600870181017A08FC007C08A500B6
:1035B0000130A60226082502031808002508860007
:1035C00087010108FC007C08A2002608860087010C
:1035D0000108FC002508860087017C08810022087C
:1035E000FC002608860087017C0881000130FC0071
:1035F0007C08A507D82AF8012100520C890C013952
:10360000F000200065080139F1000730F135890B21
:10361000062B21004F0D4F0D0139F2000630F23517
:10362000890B0F2B4E080139F3000530F335890B58
:10363000162B4F0C890C0139F4000430F435890B3A
:103640001E2B53080139F5000330F535890B252B66
:103650004F0E890C890C0139F6000230F635890BC2
:103660002E2B2000650E890C890C01390907760480
:10367000750474047304720471047004F70077080D
:103680002200A4002000E51F080023009E1C452BFB
:103690002200A8017808203E86000130870001083A
:1036A00023009A007808203E860001308700010838
:1036B000F00070082200A80723009E1C5C2B01303C
:1036C000F0007008F80709307802031C4A2B22002A
:1036D000A5010800C32B20006618E61BCF2B143071
:1036E000C80048082200C3000D30953136259B31B3
:1036F0002200C401C40AA1310A219B3121003608ED
:10370000F43EFC000130373DFD009C31CE249B315E
:10371000CF2B003021003D02473003193C02031C2F
:10372000A92B200065140A30A5314C259B310230AD
:103730002000C80048082200C4004030F8001F30B4
:10374000F900A231622279082000C7007808C6007B
:10375000080001302200C302031D7E2B0730913187
:103760008D219B31200066102200C401CF2B200048
:1037700065108731FD279B31003A031DCF2B2100B7
:10378000D4160100CF2B22004408003A03196B2BFA
:10379000013A0319892B033A0319B72BCF2BF430C5
:1037A000F8000130F900A231622279082000C70038
:1037B0007808C6000800FD007D082000A000A101D7
:1037C000A035A10D563020078400A830213D85008A
:1037D000003FA200013FA3002208860023088700C3
:1037E000423116000104031908007D0898310320B6
:1037F0009B317108FC007008FB006430F000003061
:10380000F1007C08F3007B08F200A531AF259B3165
:103810007D082000A000A101A035A10D5630200791
:103820008400A830213D8500003FA200013FA30095
:10383000220886002308870042317008C03F7108C3
:10384000C13F7D08A000A101A035A10D5630200781
:103850008400A830213D8500003FA200013FA30065
:103860002208860023088700423101308107413158
:103870000318810A7D08A000A101A035A10D5630D2
:1038800020078400A830213D8500003FA200013FB1
:10389000A300220886002308870021003208C03FC9
:1038A0003308C13F0800F201F30173088500720874
:1038B00084008435850D56308407A830853D003F4F
:1038C000F000013FF1007008860071088700423166
:1038D0000030C03FC13F7308850072088400843502
:1038E000850D56308407A830853D003FF000013F2C
:1038F000F10070088600710887000030C03FC13FAA
:103900000130F2070030F33D00307302103003192C
:103910007202031C552C13302300E7001230E6001E
:103920001230E1003C30E0001B30DB006A30DA008E
:103930001330D500FF30D4002130CF003A30CE0014
:103940002530C900E330C8000830C3003330C2005E
:103950001630BD007830BC000A30B700E930B60040
:103960001030B1003730B0001E302400CA00D03013
:10397000C9002330C4007730C3001030BE00E230ED
:10398000BD002130B8002E30B7000930B200313010
:10399000B1002130AC002230AB0008002000B4019F
:1039A000B5017C30A33199239C3171082200DB00E2
:1039B0007008DA000430A33199239C31710820008B
:1039C000B3007008B20022005A08F0005B08F10052
:1039D000F201F3010030F7001030F6000030F5007E
:1039E0000030F4009E314E269C317308AD00720801
:1039F000AC007108AB007008AA003208F000330870
:103A0000F100F201F3012D08F7002C08F6002B0855
:103A1000F5002A08F400A431BD249C317008200070
:103A2000A6007108A7007208A8007308A9000A3050
:103A3000A936A80CA70CA60C890B182D2908B100D3
:103A40002808B0002708AF002608AE002F08B300F2
:103A50002E08B2007C080A3EA60000307D3DA7007B
:103A600033082702031D362D32082602031C3C2D85
:103A70008731EF279C31402D6430B4000030B50011
:103A800001302000B4070030B53D0030350264300D
:103A90000319340203180800D12CA031C5209D3130
:103AA00071082000B8007008B7000030A300003093
:103AB000A2002330A100A530A0003708F00038088C
:103AC000F100F201F3010030F7000030F6000030A1
:103AD000F5006430F400A431BD249D31730820004A
:103AE000A7007208A6007108A5007008A400A731FD
:103AF000AE279D312308B2002208B1002108B00092
:103B00002008AF003208F3003108F2003008F1005D
:103B10002F08F0000030F7000030F6000230F5000A
:103B20007130F400A431BD249D3173082000B6002B
:103B30007208B5007108B4007008B3000030A3002B
:103B40000130A2008630A100A030A0002D08F000B6
:103B50002E08F100F201F3013608F7003508F600EF
:103B60003408F5003308F400A431BD249D317308F6
:103B70002000A7007208A6007108A5007008A40024
:103B8000A731AE272D082007B9002E08213DBA0025
:103B90003A08AE003908AD000800210023082000D3
:103BA000C500210022082000C40045083C02031D76
:103BB000DB2D44083B020318E12D2100BC01BD01AF
:103BC0003D2E44083B022100BC00200045083C3B40
:103BD0002100BD003C08F0003D08F100F201F301B6
:103BE00025082000BD00BE013D08BE00BD0121002A
:103BF000240820003D07F4003E0803183E0AF500A3
:103C0000F601F51BF6037608F700A431BD249D31BB
:103C100070082000C0007108C1007208C20073085B
:103C2000C3000830C336C20CC10CC00C890B122E65
:103C300041082100BD00200040082100BC003D08D3
:103C40002000AE0021003C082000AD009D314D2534
:103C50009D312E082100BD0020002D082100BC0050
:103C60003D082000BD003D082200A00021003C08C6
:103C70002000BD003D082200A100A231F5229D31A7
:103C8000043A031D4C2E200066180800A6311926A0
:103C90009D318731AF270800501708002000A1018F
:103CA000F31F5F2EF009F109F209F309F00A031975
:103CB000F10A0319F20A0319F30AA101A10AF71F75
:103CC000702EF409F509F609F709F40A0319F50A43
:103CD0000319F60A0319F70A0130F8007808A1065B
:103CE0000030A5000030A4000030A3000030A20086
:103CF00073087204710470040319B92EA001A00A9C
:103D0000F31B8E2E0130F035F10DF20DF30D890B02
:103D1000832E0130F8007808A007802E0130A235EC
:103D2000A30DA40DA50D890B8F2E73087702031D1B
:103D3000A32E72087602031DA32E71087502031DBF
:103D4000A32E70087402031CAE2E7008F4027108D2
:103D5000F53B7208F63B7308F73B22140130F3364B
:103D6000F20CF10CF00C890BAF2E0130A002031DF8
:103D70008E2E21080319C72EA209A309A409A5099B
:103D8000A20A0319A30A0319A40A0319A50A2508FC
:103D9000F3002408F2002308F1002208F0000800D4
:103DA0005A2FD001D00A2A2FA231F5229E31043A8F
:103DB000031DE12E02302000C80048082200D00078
:103DC0002A2FA231F5229E31033A0319ED2EA2319A
:103DD000F5229E31053A031DF02E20008D102A2F6A
:103DE000A231F5229E31023A031DF82E2000292F20
:103DF000A231F5229E31003A031D0B2FD1166430FB
:103E0000F8000030F900A231622279082000C700D2
:103E10007808C6000800A231F5229E31013A031D40
:103E20002A2FD1162C30F8000130F900A23162227D
:103E300079082000C7007808C60008002000661D29
:103E4000651B562F2100541C442F20006618651C4A
:103E5000362F8D14E830F8000330F900A2316222C9
:103E600079082000C7007808C60008002100D11694
:103E70006030F800EA30F900A231622279082000AF
:103E8000C7007808C6000800CF1A2A2FD116A33120
:103E900077239E316030F800EA30F900A2316222C7
:103EA00079082000C7007808C60008006618651C5D
:103EB0002A2F292F22005008003A0319D12E013A47
:103EC0000319D42E033A03191E2F2A2F08007C3021
:103ED000A33199239F3171082200DB007008DA00BA
:103EE0000430A33199239F3171082000BE0070086F
:103EF000BD0022005A082000A00022005B0820001C
:103F0000A100A201A3010030A7001030A6000030DC
:103F1000A5000030A400A731AE279F312308BA00C6
:103F20002208B9002108B8002008B700380822008C
:103F3000B400200037082200B30020003D08F00044
:103F40003E08F100F201F3013A08F7003908F600E3
:103F50003808F5003708F400A431BD249F317008FB
:103F60002000AF007108B0007208B1007308B20001
:103F70000A30B236B10CB00CAF0C890BB92F320835
:103F8000B6003108B5003008B4002F08B30034087B
:103F9000BE003308BD000C3022003402803003190B
:103FA00033020318FA2F80302000AF000C30B0002D
:103FB0002200330820002F02BB002200340820001A
:103FC000303BBC0000303C02113003193B02031CA3
:103FD000FA2F1130F0000030F1003C08F3003B08EC
:103FE000F200A531AF2520003D087007BD003E0856
:103FF000713DBE0020003E08AE003D08AD00080047
:104146000800080069080800D11708002200460880
:1041560008002100C901A131F42108002200C10193
:104166000030A5314C250800F1007108F0007008F8
:104176002200E90008002C30F000A930F100A2313D
:10418600D72208000830A03E86008701403FF00095
:10419600413FF10008002300EA01EB01E801E901D3
:1041A6002200ED01EE010800541658302200BB0033
:1041B6000230BC000A30A5314C250800A031C520CC
:1041C60071082300A3007008A200210053160800FE
:1041D60020006615210051172200AB01AC01210019
:1041E60054150800F1007108F00070082100C6009F
:1041F6002000661665120800F00070082300910082
:104206001513951315143330910013080800210077
:10421600D2103C30F0007008C8000230F000700880
:104226002200D2000800A030A3311423A1312100BE
:104236002F060319202900300800013008004830F5
:10424600F800EE30F900A231622279082000C7009A
:104256007808C60008004830F800EE30F900A231B0
:10426600622279082000C7007808C600080060307E
:10427600F800EA30F900A231622279082000C7006E
:104286007808C60008006400800101310130FE0292
:104296000030FF3B7F087E04031900344729FE00E7
:1042A60012001E000130FE020030FF3B7F087E0434
:1042B60003190034532920008D139C30F000D730A9
:1042C600890B6329F00B6329000020008D17080075
:1042D600F6007608F5007508F700F8017730F0006B
:1042E6000030F100A231D7220800E1340034003456
:1042F6000034E134003401343C343C346434013459
:10430600013401342000660803198C29A431902455
:1043160008006508031D892921004E08031D892907
:1043260098310020A131A5311C2508003C30A03170
:10433600FF20A131F7007708F800780A0319080072
:104346000130F7007708F8073C30F7007708F100EE
:104356007808A631872608002100161DBE29A0313F
:10436600CE20A1312100EE012000E301E4019931C4
:104376005E21A131BF2954152100161496159613F6
:10438600161308007108F4007008F300730884001F
:104396007408850012000319D5290130F30700308F
:1043A600F43DC92970087302F0007108743BF100EE
:1043B6000800200018102100541CE92911102000C3
:1043C60011100B13FE309700B830F129111420009C
:1043D60011100B178B1380309700003096001814BD
:1043E600080020008E1FF929E517FA29E513E51FB5
:1043F600082A23009E161E1533309B009D171D1696
:104406002100C9144915C915080021008E13200082
:104416008E130800F401F501701C152A7208F407C2
:104426007308F53D0130F235F30D890B162A01307C
:10443600F136F00C890B1B2A70087104031D0F2A34
:104446007508F1007408F0000800FB007908FA000E
:104456007A08F1007B08A6318726A231003A031DAF
:104466000800A1319921A2317908FA007A08F100F1
:104476007B08A6318726A231003A031D0800A13128
:1044860099210800F400F501740875020318080064
:104496007108A031FF20A231F3007208860087015F
:1044A600730881000130F3007308F5070130F3004B
:1044B6007308F1070130F3007308F207472A7908F9
:1044C60022002E02031D692A78082D0203187A2A73
:1044D6002E08F1002D08F0007908F3007808F200A4
:1044E600A531AF257108F9007008F8000800013001
:1044F600F8000030F9000800A030A3311423A231DF
:10450600FD007D082100AF00A030F9000030FA0060
:10451600FB011030A7317027A231A030F90000301E
:10452600FA001030FD007D08FB001030A73170271F
:104536000800F200F401F501F60172087507A031D2
:10454600FF20A231F1007108F3007308F100710831
:10455600F4070130F5070030F63D003076020F30E3
:1045660003197502031CA02A74080800F200A03083
:10457600F1007108F300F40172087407A031FF20FE
:10458600A231F100730886008701710881000130AD
:10459600F1007108F3070130F1007108F4071030DB
:1045A600740603190800BF2A2000E61B08007108DC
:1045B600F4007008F30023009E1CDE2A73088400B2
:1045C6007408850000089A000130F3070030F43DB6
:1045D6009E1CEB2A730884007408850012000319D8
:1045E6000800E12A043021004C06031DFC2A033092
:1045F600080006304C06031D022B05300800200873
:10460600031D072B003008002003031D0C2B01306F
:10461600080007302006031D122B02300800043064
:104626000800F300F201F401F50173088600870122
:104636000108F0007008F1000130F0007008F3077F
:104646007108F0007008F2070130F4070030F53DFC
:10465600003075020F3003197402031C182B720800
:104666000800640020008D131619372B64001430DF
:10467600F0007008F1002000161D3E2B950116195A
:10468600422B6430150203184D2B64001430F000E1
:104696007008F1000130F1027108031D3E2B200065
:1046A6008D170800F0002100D41D662B0130220072
:1046B600D402031D602B2100D41101302200BD005D
:1046C6000030BE000800EE1F6E2B3C302200BD00FD
:1046D6000030BE000800700303190800D030220025
:1046E600BD000230BE0008002100D11ACF1A8D2B62
:1046F6002000E61B8D2B2100D11220008D14823064
:104706002000C800DD30890B862BC80B862B0032B3
:1047160020008D106430F8000030F900A2316222CA
:1047260079082000C7007808C6000800F200640077
:104736007C307206031DA72B813022009700171FBD
:10474600A22B5030890BA52B72087C3921009D00C5
:10475600D0309E001D144230890BAF2B0032210051
:104766009D149D18B42B1D102200970121001C08D2
:10477600F1001B08F0000800210028082907200086
:10478600B2003208B30021002A08200033060319BC
:10479600E32BA431EC24A331003A031DDF2B2100C7
:1047A600280829072000B2003208B30021002A0891
:1047B600200033060319E32B083091318D21A331F4
:1047C600883101200800E90126308400A8308500E0
:1047D600003F2300AA00013FAB0026308400A8302A
:1047E6008500003FA800013FA90026308400A830BC
:1047F6008500003FA600013FA700CB30F0007008FF
:1048060022008D059430F00070088C043C30F000D6
:1048160070088E040800B50020303506031D192CDB
:104826002808F9002708F8002C30262C3508AA009D
:104836002A08AC003A30AA002A08AD002808F90078
:104846002708F8002E30AA002A08FA002908AB002B
:104856002B08FB009A318C22A4312C30F00000305A
:10486600F100A231D72208007008710403195E2CEA
:10487600F501F50AF11B492C0130F035F10D890BD4
:10488600402C0130F4007408F5073D2C71087302C2
:10489600031D4F2C70087202031C552C7008F2027F
:1048A6007108F33B0130F136F00C890B562C0130C0
:1048B600F502031D492C7308F1007208F000080088
:1048C600FB007B08F9000430F936890B672C790860
:1048D6000F39FA007A08FC000A307C020318752C9E
:1048E6003030762C3730F9007908FC077C08A13186
:1048F6006B21A4317B080F39F9007908FC000A30D6
:104906007C020318882C3030892C3730F90079085E
:10491600FC077C08A1316B2108002100541808000F
:1049260054141110200011100B138B168B17210035
:10493600C4010A302200AD000030AE000230A531BD
:104946004C25A4310030A5314C25A43106309831D0
:104956009E20A431093098319E20A4310830983128
:104966009E20A4310A3098319E20A431033098311C
:104976009E2008000030FB000030FA000030F900ED
:104986000030F800701CCF2C7408F8077508F93D44
:104996007608FA3D7708FB3D0130F435F50DF60D46
:1049A600F70D890BD02C0130F336F20CF10CF00C1C
:1049B600890BD72C7308720471047004031DC52C6F
:1049C6007B08F3007A08F2007908F1007808F00015
:1049D60008000F30A031FF20A4312000B0000030C5
:1049E600A2319C22A431200030060319152D1F3058
:1049F600A031FF20A4312000B0001030A2319C224B
:104A0600A4312000300603190D2D083091318D2177
:104A1600013008001030A231B922A431A2317F2220
:104A2600A431182D0030A231B9222100CF13003055
:104A360008002100541C0800541011142000111005
:104A46000B178B128B132100C401C40AE830220015
:104A5600AD000330AE00A331E623A53108309B310B
:104A6600DB23A53103309B31DB23A53106309B3197
:104A7600DB23A53109309B31DB23A5310A309B317D
:104A8600DB23A5310E309B31DB23A531A031B120CC
:104A96000800F4007408F000F101F035F10D56300D
:104AA60070078400A830713D8500003FF200013F89
:104AB600F300720886007308870021003208C03FA1
:104AC6003308C13F7408F000F101F035F10D56309E
:104AD60070078400A830713D8500003FF200013F59
:104AE600F300720886007308870042310030C03F29
:104AF600C13F080020000C17651F8A2D0630F500FF
:104B06003030890B842DF50B842D0032962D023022
:104B1600F6000430F500BA30890B8F2DF50B8F2D7A
:104B2600F60B8F2D00327C30A3319923A531710805
:104B36002200DD007008DC000030A33199237108E3
:104B4600F8007008F70020000C132200971378086D
:104B5600F4007708F3000800F601F7017008710405
:104B66000319DE2DF501F50AF11BC32D0130F035D1
:104B7600F10D890BBA2D0130F4007408F507B72D35
:104B86000130F635F70D890BC42D71087302031D2C
:104B9600CE2D70087202031CD52D7008F202710822
:104BA600F33B76140130F136F00C890BD62D01302B
:104BB600F502031DC32D7708F1007608F000080002
:104BC600042E2000651C0D2E651E6618EE2D8F30F6
:104BD60095313625A531200065160230B20032081F
:104BE6002200D6000D2E200065180D2E651EFF2D05
:104BF6008E3095313625A531200065122200D6016A
:104C06000D2E22005608003A0319E42D023A031924
:104C1600F62D0D2E6430F8000030F900A231622224
:104C260079082000C7007808C6000800A231F522DE
:104C3600A631043A0319D21A4B2E2000661C651AB7
:104C46004B2E003021003D020B3003193C02031CA1
:104C56004B2ED21D482E50130130F0007008CA07A3
:104C660001303D02913003193C02031C412E1F30D6
:104C76004A02031C0800D211501708001F304A02CE
:104C8600031C0800D21150170800CA01501708006B
:104C96002100D2155017CA01080021006D08200016
:104CA600D700D8015708F0005808F1000530F20087
:104CB6000030F300A2310D22A63178302000D90051
:104CC6002330DA0070085907860071085A3D8700BC
:104CD60022005E08C03F5F08C13F01302000D700B8
:104CE60057082100ED0718306D06031D08008031B6
:104CF6006A20A6312000E51F08003530B600A9302D
:104D0600B7008C31B1240800F60064007108230056
:104D160091007608F200F30172089300730894007C
:104D26008B132000121223001513951315155530F9
:104D36009600AA30960095141511210054188B1769
:104D460023009518A32E0A30F2007208F4000130F1
:104D5600F402031DAA2E7108A031FF20A631F2002D
:104D66007208F5003330910076087506031DBD2ED6
:104D760001300800003008000C30A3319923A63119
:104D860071082000B0007008AF0000303002FA3021
:104D960003192F020318E72E651FE12E01302100AB
:104DA600EF02031D0800200065130330FD007D0897
:104DB6002100EF000A309531362508000330FD004A
:104DC6007D082100EF000800651BE12E013021005F
:104DD600EF02031D0800200065170330FD007D0863
:104DE6002100EF000B30953136250800A40022087B
:104DF600FD007D08A5002308FD007D08A600272FDD
:104E06002530F9000030FA002330FD007D08FB0054
:104E16000230A731702708002530F9000030FA006B
:104E26002530FD007D08FB000230A7317027080001
:104E36002530F9000030FA002730FD007D08FB0020
:104E46000230A731702708002408013A0319032FFE
:104E5600033A03190F2F013A03191B2F322F0800AB
:104E6600200821072000B100B201B20D310A320438
:104E76000319632FA431EC24A731003A031D532FE5
:104E86002100200821072000B100B201B20D310A2D
:104E960032040319632F083091318D21A731632F16
:104EA600083091318D21A731632F5215080020005B
:104EB600651508002000E51508002000E514080027
:104EC60021002008013A03195A2F023A0319582FD4
:104ED600043A03195D2F602F08002000A00021006E
:104EE600D0102000A10120082102031808007B0829
:104EF600FC007C08F100790886007A088700010822
:104F0600A6318726A731003A031DA02FA13199218A
:104F1600A7317B08FC007C08F100790886007A0836
:104F260087000108A6318726A731003A031DA02F66
:104F3600A1319921A7312100D0140130F9070030A1
:104F4600FA3D0130FC007C08FB070130FC007C08C0
:104F56002000A107762F0030AB000030AA000030F9
:104F6600A9000030A8002308220421042004031904
:104F7600F72FAC01AC0AA31BCC2F0130A035A10D35
:104F8600A20DA30D890BC12F0130FC007C08AC07D4
:104F9600BE2F0130A835A90DAA0DAB0D890BCD2F5B
:104FA60023082702031DE12F22082602031DE12FF5
:104FB60021082502031DE12F20082402031CEC2FE3
:104FC6002008A4022108A53B2208A63B2308A73BEC
:104FD60028140130A336A20CA10CA00C890BED2FCE
:104FE6000130AC02031DCC2F2B08A3002A08A20017
:104FF6002908A1002808A00008006B34E3347F3498
:10500600EF34EB34CB347B34CB347F34C7347B344E
:10501600D3346B34D3347B34EF346B34C3347B34C6
:10502600C3346B34C7346F34D334EB34F3346F3456
:10503600CB34EB34D334EB34D734EF34F3346F342E
:10504600DF34EF34DF34FF34FF34FF34DF346F34C2
:10505600C734EB34C734EF34DB346F34DB3400341D
:105066000134023403340534043406340734083476
:1050760009340A340B340C340D340E340F34003436
:10508600003408340634033409340E340A34003448
:10509600003400340034003400340034003400346A
:1050A600003400340034E2340134DC340134D634C4
:1050B6000134D0340134CA340134C4340134BE342A
:1050C6000134B8340134B2340134AC3401344534DB
:1050D60002343F34023439340234333402342D344A
:1050E6000234273402344234613463346B34753409
:1050F6007034203443346F347034793420346F3450
:1051060066342034533474347234753463347434EE
:10511600753472346534203428343034783431347C
:10512600303429340034433475347234723465347F
:105136006E34743420345634443444342034563473
:105146006F346C34743461346734653420342834F5
:105156006D34763429342C3420340034523461349E
:105166006D3420344434613474346134203453341F
:10517600743472347534633474347534723465340B
:1051860020342834303478344134303429340034EF
:1051960030343134323433343434353436343734CD
:1051A6003834393441344234433444344534463453
:1051B60000344C34693467346834743420345334DE
:1051C60074347234753463347434753472346534BB
:1051D60020340034643400346434003488341334A6
:1051E6000434003402344E344C34203454344834BD
:1051F60020343D3420340034533469346734203449
:1052060047346F346F346434003441346C3467345B
:1052160020344F34463446340034533469346734CA
:1052260020344C346F347734003441346C34673472
:1052360020344F344E34003448343A3455345534DF
:10524600003410340034063400343A342034203428
:1052560000340D343E3400342B343A3400343034C8
:08526600783400344C340034AC
:020000040001F9
:04000E00AC1BFC3EED
:10E000000000FF0000000000000001000000000010
:10E010000000000000000000000000000000000000
:10E020000000FF00000000000000010000000000F0
:10E0300000000000000000000000000000000000E0
:10E0400000000000000000000000000000000000D0
:10E0500000000000000000000000000000000200BE
:10E0600000000000000000000000000000000000B0
:10E0700000000000000000000000E0004000A000E0
:10E08000FF00FF00FF00FF00FF00FF00FF00FF0098
:10E09000FF00FF00FF00FF00FF00FF00FF00FF0088
:10E0A000FF00FF00FF00FF00FF00FF00FF00FF0078
:10E0B000FF00FF00FF00FF00FF00FF00FF00FF0068
:10E0C000FF00FF00FF00FF00FF00FF00FF00FF0058
:10E0D000FF00FF00FF00FF00FF00FF00FF00FF0048
:10E0E000FF00FF00FF00FF00FF00FF00FF00FF0038
:10E0F000FF00FF00FF00FF00FF00FF00FF00FF0028
:10E10000FF00FF00FF00FF00FF00FF00FF00FF0017
:10E11000FF00FF00FF00FF00FF00FF00FF00FF0007
:10E12000FF00FF00FF00FF00FF00FF00FF00FF00F7
:10E13000FF00FF00FF00FF00FF00FF00FF00FF00E7
:10E14000FF00FF00FF00FF00FF00FF00FF00FF00D7
:10E15000FF00FF00FF00FF00FF00FF00FF00FF00C7
:10E16000FF00FF00FF00FF00FF00FF00FF00FF00B7
:10E17000FF00FF00FF00FF00FF00FF00FF00FF00A7
:10E18000FF00FF00FF00FF00FF00FF00FF00FF0097
:10E19000FF00FF00FF00FF00FF00FF00FF00FF0087
:10E1A000FF00FF00FF00FF00FF00FF00FF00FF0077
:10E1B000FF00FF00FF00FF00FF00FF00FF00FF0067
:10E1C000FF00FF00FF00FF00FF00FF00FF00FF0057
:10E1D000FF00FF00FF00FF00FF00FF00FF00FF0047
:10E1E000FF00FF00FF00FF00FF00FF00FF00FF0037
:10E1F000FF00FF00FF00FF00FF00FF00FF00FF0027
:00000001FF
