Microchip MPLAB XC8 Compiler V2.32

Linker command line:

--edf=C:\Program Files\Microchip\xc8\v2.32\pic\dat\en_msgs.txt -cn \
  -h+dist/default/production\apollo_s_2565.production.sym \
  --cmf=dist/default/production\apollo_s_2565.production.cmf -z -Q16LF1938 \
  -oC:\Users\STEVEN~1.TAN\AppData\Local\Temp\xcAskj0.4 \
  --defsym=__MPLAB_BUILD=1 \
  -Mdist/default/production/apollo_s_2565.production.map -E1 \
  -ver=XC8 Compiler -ASTACK=02175h-02377h -pstack=STACK -ACODE=00h-07FFhx8 \
  -ASTRCODE=00h-03FFFh -ASTRING=00h-0FFhx64 -ACONST=00h-0FFhx64 \
  -AENTRY=00h-0FFhx64 -ACOMMON=070h-07Fh -ABANK0=020h-06Fh \
  -ABANK1=0A0h-0EFh -ABANK2=0120h-016Fh -ABANK3=01A0h-01EFh \
  -ABANK4=0220h-026Fh -ABANK5=02A0h-02EFh -ABANK6=0320h-036Fh \
  -ABANK7=03A0h-03EFh -ABANK8=0420h-046Fh -ABANK9=04A0h-04EFh \
  -ABANK10=0520h-056Fh -ABANK11=05A0h-05EFh -ABANK12=0620h-064Fh \
  -ABIGRAM=02000h-023EFh \
  -ARAM=020h-06Fh,0A0h-0EFh,0120h-016Fh,01A0h-01EFh,0220h-026Fh,02A0h-02EFh,0320h-036Fh,03A0h-03EFh,0420h-046Fh,04A0h-04EFh,0520h-056Fh,05A0h-05EFh,0620h-064Fh \
  -AABS1=020h-07Fh,0A0h-0EFh,0120h-016Fh,01A0h-01EFh,0220h-026Fh,02A0h-02EFh,0320h-036Fh,03A0h-03EFh,0420h-046Fh,04A0h-04EFh,0520h-056Fh,05A0h-05EFh,0620h-064Fh \
  -ASFR0=00h-01Fh -ASFR1=080h-09Fh -ASFR2=0100h-011Fh -ASFR3=0180h-019Fh \
  -ASFR4=0200h-021Fh -ASFR5=0280h-029Fh -ASFR6=0300h-031Fh \
  -ASFR7=0380h-039Fh -ASFR8=0400h-041Fh -ASFR9=0480h-049Fh \
  -ASFR10=0500h-051Fh -ASFR11=0580h-059Fh -ASFR12=0600h-061Fh \
  -ASFR13=0680h-06EFh -ASFR14=0700h-076Fh -ASFR15=0780h-07EFh \
  -ASFR16=0800h-086Fh -ASFR17=0880h-08EFh -ASFR18=0900h-096Fh \
  -ASFR19=0980h-09EFh -ASFR20=0A00h-0A6Fh -ASFR21=0A80h-0AEFh \
  -ASFR22=0B00h-0B6Fh -ASFR23=0B80h-0BEFh -ASFR24=0C00h-0C6Fh \
  -ASFR25=0C80h-0CEFh -ASFR26=0D00h-0D6Fh -ASFR27=0D80h-0DEFh \
  -ASFR28=0E00h-0E6Fh -ASFR29=0E80h-0EEFh -ASFR30=0F00h-0F6Fh \
  -ASFR31=0F80h-0FEFh -ACONFIG=08007h-08008h -DCONFIG=2 \
  -AIDLOC=08000h-08003h -DIDLOC=2 -AEEDATA=00h-0FFh/0F000h \
  -peeprom_data=EEDATA -DEEDATA=2 -DCODE=2 -DSTRCODE=2 -DSTRING=2 -DCONST=2 \
  -DENTRY=2 -preset_vec=00h,intentry=04h,init,end_init -ppowerup=CODE \
  -pcinit=CODE -pfunctab=ENTRY -k \
  C:\Users\STEVEN~1.TAN\AppData\Local\Temp\xcAskj0.o \
  dist/default/production\apollo_s_2565.production.o 

Object code version is 3.11

Machine type is 16LF1938



                Name                               Link     Load   Length Selector   Space Scale
C:\Users\STEVEN~1.TAN\AppData\Local\Temp\xcAskj0.o
                end_init                             17       17        2        8       0
                reset_vec                             0        0        2        0       0
                config                             8007     8007        2        0       4
dist/default/production\apollo_s_2565.production.o
                cinit                                19       19       56        8       0
                intentry                              4        4       13        8       0
                config                             8007     8007        2        0       4
                text106                            223E     223E       26     447C       0
                text105                            217B     217B       1F     42F6       0
                text104                            2F04     2F04        9     5E08       0
                text103                            2F48     2F48        B     5E90       0
                text102                            2495     2495       38     492A       0
                text101                            2FEA     2FEA       16     5FD4       0
                text100                            2073     2073       1D     40E6       0
                text99                             2090     2090       1D     4120       0
                text98                             25B6     25B6       3E     4B6C       0
                text97                             1381     1381      142     2702       0
                text96                             2505     2505       3A     4A0A       0
                text95                             2EDC     2EDC        6     5DB8       0
                text94                             253F     253F       3A     4A7E       0
                text93                             23F7     23F7       34     47EE       0
                text92                             20AD     20AD       1D     415A       0
                text91                             23C6     23C6       31     478C       0
                text90                             2F16     2F16        A     5E2C       0
                text89                             2F20     2F20        A     5E40       0
                text88                             2F2A     2F2A        A     5E54       0
                text87                             2ED6     2ED6        3     5DAC       0
                text86                             2F9B     2F9B        D     5F36       0
                text85                             2F0D     2F0D        9     5E1A       0
                text84                             219A     219A       1F     4334       0
                text83                             1801     1801       32     3002       0
                text82                             21FA     21FA       22     43F4       0
                text81                             1012     1012       82     2024       0
                text80                             2367     2367       2F     46CE       0
                text79                             2121     2121       1E     4242       0
                text78                             22B3     22B3       2C     4566       0
                text77                             1966     1966       6F     32CC       0
                text76                             228A     228A       29     4514       0
                text75                             2EEE     2EEE        7     5DDC       0
                text74                             20CA     20CA       1D     4194       0
                text73                             1F4A     1F4A       B6     3E94       0
                text72                             21B9     21B9       20     4372       0
                text71                             20E7     20E7       1D     41CE       0
                text70                             274F     274F       52     4E9E       0
                text69                             1BC2     1BC2       80     3784       0
                text68                             2671     2671       40     4CE2       0
                text67                             18FC     18FC       6A     31F8       0
                text66                              7A8      7A8       53        8       0
                text65                             1C42     1C42       81     3884       0
                text64                             1004     1004        E     2008       0
                text63                             1B43     1B43       7F     3686       0
                text62                             1D59     1D59       99     3AB2       0
                text61                             2FC2     2FC2       14     5F84       0
                text60                             2FA8     2FA8        D     5F50       0
                text59                             22DF     22DF       2D     45BE       0
                text58                             200D     200D       18     401A       0
                text57                             26B1     26B1       4D     4D62       0
                text56                             2058     2058       1B     40B0       0
                text55                              CD5      CD5      32B     19AA       0
                text54                              800      800       3A     1000       0
                text53                             245F     245F       36     48BE       0
                text52                             1896     1896       66     312C       0
                text51                             213F     213F       1E     427E       0
                text50                             2104     2104       1D     4208       0
                text49                             215D     215D       1E     42BA       0
                text48                             2396     2396       30     472C       0
                text47                             2264     2264       26     44C8       0
                text46                             2ED9     2ED9        3     5DB2       0
                text45                             2EE2     2EE2        6     5DC4       0
                text44                               6F       6F      4C8        8       0
                text43                             230C     230C       2D     4618       0
                text42                             2ED0     2ED0        2     5DA0       0
                text41                             2F34     2F34        A     5E68       0
                text40                             1833     1833       63     3066       0
                text39                             203E     203E       1A     407C       0
                text38                             2632     2632       3F     4C64       0
                text37                             1A4D     1A4D       7A     349A       0
                text36                             1001     1001        3     2002       0
                text35                             25F4     25F4       3E     4BE8       0
                text34                             27A1     27A1       5F     4F42       0
                text33                             2339     2339       2E     4672       0
                text32                             19D5     19D5       78     33AA       0
                text31                             2EE8     2EE8        6     5DD0       0
                text30                             242B     242B       34     4856       0
                text29                             2FD6     2FD6       14     5FAC       0
                text28                             2025     2025       19     404A       0
                text27                             21D9     21D9       21     43B2       0
                text26                             2EFC     2EFC        8     5DF8       0
                text25                             2579     2579       3D     4AF2       0
                text24                             2FB5     2FB5        D     5F6A       0
                text23                             2ED2     2ED2        2     5DA4       0
                text22                             2EF5     2EF5        7     5DEA       0
                text21                              83A      83A      105     1074       0
                text20                             2F3E     2F3E        A     5E7C       0
                text19                              7FB      7FB        5        8       0
                text18                             24CD     24CD       38     499A       0
                text17                             2F53     2F53        C     5EA6       0
                text16                             2F5F     2F5F        C     5EBE       0
                text15                             26FE     26FE       51     4DFC       0
                text14                             1180     1180      100     2300       0
                text13                             164F     164F      1B1     2C9E       0
                text12                             1280     1280      101     2500       0
                text11                             14C3     14C3      18C     2986       0
                text10                              93F      93F      1CB     127E       0
                text9                              2F6B     2F6B        C     5ED6       0
                text8                              221C     221C       22     4438       0
                text7                              1CC3     1CC3       96     3986       0
                text6                               B0A      B0A      1CB     1614       0
                text5                              1094     1094       EC     2128       0
                text4                              1AC7     1AC7       7C     358E       0
                text3                              1DF2     1DF2       A9     3BE4       0
                text2                              1E9B     1E9B       AF     3D36       0
                text1                              2F77     2F77        C     5EEE       0
                maintext                            537      537      271        8       0
                cstackBANK0                          20       20       3F       20       1
                cstackCOMMON                         70       70        E       70       1
                cstackBANK1                          D5       D5       18       B0       1
                clrtext                            2F83     2F83        C     5F06       0
                inittext                           2F8F     2F8F        C     5F1E       0
                bssBANK4                            220      220       31      220       1
                dataBANK3                           1EE      1EE        2      1A0       1
                bssBANK3                            1A0      1A0       4C      1A0       1
                dataBANK2                           15D      15D        D      120       1
                bssBANK2                            120      120       3D      120       1
                dataBANK1                            ED       ED        2       B0       1
                bssBANK1                             B0       B0       25       B0       1
                bssBANK0                             5F       5F        6       20       1
                stringtext18                       3072     3072        3     6000       0
                stringtext17                       306F     306F        3     6000       0
                stringtext16                       306C     306C        3     6000       0
                stringtext15                       3068     3068        4     6000       0
                stringtext14                       305F     305F        5     6000       0
                stringtext13                       3058     3058        7     6000       0
                stringtext12                       3050     3050        8     6000       0
                stringtext11                       3048     3048        8     6000       0
                stringtext10                       303F     303F        9     6000       0
                stringtext9                        3036     3036        9     6000       0
                stringtext8                        3022     3022        B     6000       0
                stringtext7                        3011     3011       11     6000       0
                stringtext6                        3000     3000       11     6000       0
                nvBANK4                             251      251        4      220       1
                nvBANK3                             1EC      1EC        2      1A0       1
                nvBANK2                             16A      16A        6      120       1
                nvBANK1                              EF       EF        1       B0       1
                nvBANK0                              65       65        3       20       1
                stringtext5                        302D     302D        9     6000       0
                stringtext4                        3064     3064        4     6000       0
                stringtext3                        2856     2856       20     5000       0
                stringtext2                        2832     2832       24     5000       0
                stringtext1                        2800     2800       32     5000       0
                idataEEDATA                           0     F000      100    1E000       3
                idataBANK3                         2ED4     2ED4        2     5DA8       0
                idataBANK2                         2000     2000        D     3E94       0
                idataBANK1                            2        2        2        0       0

TOTAL           Name                               Link     Load   Length     Space
        CLASS   STACK          

        CLASS   CODE           
                end_init                             17       17        2         0
                cinit                                19       19       56         0
                intentry                              4        4       13         0
                reset_vec                             0        0        2         0
                text106                            223E     223E       26         0
                text105                            217B     217B       1F         0
                text104                            2F04     2F04        9         0
                text103                            2F48     2F48        B         0
                text102                            2495     2495       38         0
                text101                            2FEA     2FEA       16         0
                text100                            2073     2073       1D         0
                text99                             2090     2090       1D         0
                text98                             25B6     25B6       3E         0
                text97                             1381     1381      142         0
                text96                             2505     2505       3A         0
                text95                             2EDC     2EDC        6         0
                text94                             253F     253F       3A         0
                text93                             23F7     23F7       34         0
                text92                             20AD     20AD       1D         0
                text91                             23C6     23C6       31         0
                text90                             2F16     2F16        A         0
                text89                             2F20     2F20        A         0
                text88                             2F2A     2F2A        A         0
                text87                             2ED6     2ED6        3         0
                text86                             2F9B     2F9B        D         0
                text85                             2F0D     2F0D        9         0
                text84                             219A     219A       1F         0
                text83                             1801     1801       32         0
                text82                             21FA     21FA       22         0
                text81                             1012     1012       82         0
                text80                             2367     2367       2F         0
                text79                             2121     2121       1E         0
                text78                             22B3     22B3       2C         0
                text77                             1966     1966       6F         0
                text76                             228A     228A       29         0
                text75                             2EEE     2EEE        7         0
                text74                             20CA     20CA       1D         0
                text73                             1F4A     1F4A       B6         0
                text72                             21B9     21B9       20         0
                text71                             20E7     20E7       1D         0
                text70                             274F     274F       52         0
                text69                             1BC2     1BC2       80         0
                text68                             2671     2671       40         0
                text67                             18FC     18FC       6A         0
                text66                              7A8      7A8       53         0
                text65                             1C42     1C42       81         0
                text64                             1004     1004        E         0
                text63                             1B43     1B43       7F         0
                text62                             1D59     1D59       99         0
                text61                             2FC2     2FC2       14         0
                text60                             2FA8     2FA8        D         0
                text59                             22DF     22DF       2D         0
                text58                             200D     200D       18         0
                text57                             26B1     26B1       4D         0
                text56                             2058     2058       1B         0
                text55                              CD5      CD5      32B         0
                text54                              800      800       3A         0
                text53                             245F     245F       36         0
                text52                             1896     1896       66         0
                text51                             213F     213F       1E         0
                text50                             2104     2104       1D         0
                text49                             215D     215D       1E         0
                text48                             2396     2396       30         0
                text47                             2264     2264       26         0
                text46                             2ED9     2ED9        3         0
                text45                             2EE2     2EE2        6         0
                text44                               6F       6F      4C8         0
                text43                             230C     230C       2D         0
                text42                             2ED0     2ED0        2         0
                text41                             2F34     2F34        A         0
                text40                             1833     1833       63         0
                text39                             203E     203E       1A         0
                text38                             2632     2632       3F         0
                text37                             1A4D     1A4D       7A         0
                text36                             1001     1001        3         0
                text35                             25F4     25F4       3E         0
                text34                             27A1     27A1       5F         0
                text33                             2339     2339       2E         0
                text32                             19D5     19D5       78         0
                text31                             2EE8     2EE8        6         0
                text30                             242B     242B       34         0
                text29                             2FD6     2FD6       14         0
                text28                             2025     2025       19         0
                text27                             21D9     21D9       21         0
                text26                             2EFC     2EFC        8         0
                text25                             2579     2579       3D         0
                text24                             2FB5     2FB5        D         0
                text23                             2ED2     2ED2        2         0
                text22                             2EF5     2EF5        7         0
                text21                              83A      83A      105         0
                text20                             2F3E     2F3E        A         0
                text19                              7FB      7FB        5         0
                text18                             24CD     24CD       38         0
                text17                             2F53     2F53        C         0
                text16                             2F5F     2F5F        C         0
                text15                             26FE     26FE       51         0
                text14                             1180     1180      100         0
                text13                             164F     164F      1B1         0
                text12                             1280     1280      101         0
                text11                             14C3     14C3      18C         0
                text10                              93F      93F      1CB         0
                text9                              2F6B     2F6B        C         0
                text8                              221C     221C       22         0
                text7                              1CC3     1CC3       96         0
                text6                               B0A      B0A      1CB         0
                text5                              1094     1094       EC         0
                text4                              1AC7     1AC7       7C         0
                text3                              1DF2     1DF2       A9         0
                text2                              1E9B     1E9B       AF         0
                text1                              2F77     2F77        C         0
                maintext                            537      537      271         0
                clrtext                            2F83     2F83        C         0
                inittext                           2F8F     2F8F        C         0
                idataBANK3                         2ED4     2ED4        2         0
                idataBANK2                         2000     2000        D         0
                idataBANK1                            2        2        2         0

        CLASS   STRCODE        
                stringtext18                       3072     3072        3         0
                stringtext17                       306F     306F        3         0
                stringtext16                       306C     306C        3         0
                stringtext15                       3068     3068        4         0
                stringtext14                       305F     305F        5         0
                stringtext13                       3058     3058        7         0
                stringtext12                       3050     3050        8         0
                stringtext11                       3048     3048        8         0
                stringtext10                       303F     303F        9         0
                stringtext9                        3036     3036        9         0
                stringtext8                        3022     3022        B         0
                stringtext7                        3011     3011       11         0
                stringtext6                        3000     3000       11         0
                stringtext5                        302D     302D        9         0
                stringtext4                        3064     3064        4         0
                stringtext3                        2856     2856       20         0
                stringtext2                        2832     2832       24         0
                stringtext1                        2800     2800       32         0

        CLASS   STRING         

        CLASS   CONST          

        CLASS   ENTRY          

        CLASS   COMMON         
                cstackCOMMON                         70       70        E         1

        CLASS   BANK0          
                cstackBANK0                          20       20       3F         1
                bssBANK0                             5F       5F        6         1
                nvBANK0                              65       65        3         1

        CLASS   BANK1          
                cstackBANK1                          D5       D5       18         1
                dataBANK1                            ED       ED        2         1
                bssBANK1                             B0       B0       25         1
                nvBANK1                              EF       EF        1         1

        CLASS   BANK2          
                dataBANK2                           15D      15D        D         1
                bssBANK2                            120      120       3D         1
                nvBANK2                             16A      16A        6         1

        CLASS   BANK3          
                dataBANK3                           1EE      1EE        2         1
                bssBANK3                            1A0      1A0       4C         1
                nvBANK3                             1EC      1EC        2         1

        CLASS   BANK4          
                bssBANK4                            220      220       31         1
                nvBANK4                             251      251        4         1

        CLASS   BANK5          

        CLASS   BANK6          

        CLASS   BANK7          

        CLASS   BANK8          

        CLASS   BANK9          

        CLASS   BANK10         

        CLASS   BANK11         

        CLASS   BANK12         

        CLASS   BIGRAM         

        CLASS   RAM            

        CLASS   ABS1           
                abs_s1                               7E       7E        2         1
                abs_s1                               A0       A0       10         1
                abs_s1                              5A8      5A8       48         1
                abs_s1                              620      620       30         1
                abs_s1                             2378     2378        0         1

        CLASS   SFR0           

        CLASS   SFR1           

        CLASS   SFR2           

        CLASS   SFR3           

        CLASS   SFR4           

        CLASS   SFR5           

        CLASS   SFR6           

        CLASS   SFR7           

        CLASS   SFR8           

        CLASS   SFR9           

        CLASS   SFR10          

        CLASS   SFR11          

        CLASS   SFR12          

        CLASS   SFR13          

        CLASS   SFR14          

        CLASS   SFR15          

        CLASS   SFR16          

        CLASS   SFR17          

        CLASS   SFR18          

        CLASS   SFR19          

        CLASS   SFR20          

        CLASS   SFR21          

        CLASS   SFR22          

        CLASS   SFR23          

        CLASS   SFR24          

        CLASS   SFR25          

        CLASS   SFR26          

        CLASS   SFR27          

        CLASS   SFR28          

        CLASS   SFR29          

        CLASS   SFR30          

        CLASS   SFR31          

        CLASS   CONFIG         
                config                             8007     8007        2         4

        CLASS   IDLOC          

        CLASS   EEDATA         
                idataEEDATA                           0     F000      100         3

        CLASS   BANK31         

        CLASS   BANK30         

        CLASS   BANK29         

        CLASS   BANK28         

        CLASS   BANK27         

        CLASS   BANK26         

        CLASS   BANK25         

        CLASS   BANK24         

        CLASS   BANK23         

        CLASS   BANK22         

        CLASS   BANK21         

        CLASS   BANK20         

        CLASS   BANK19         

        CLASS   BANK18         

        CLASS   BANK17         

        CLASS   BANK16         

        CLASS   BANK15         

        CLASS   BANK14         

        CLASS   BANK13         



SEGMENTS        Name                           Load    Length   Top    Selector   Space  Class     Delta

                reset_vec                      000000  000004  000004         0       0  CODE        2
                intentry                       000004  0007FC  000800         8       0  CODE        2
                cstackBANK0                    000020  000048  000068        20       1  BANK0       1
                cstackCOMMON                   000070  00000E  00007E        70       1  COMMON      1
                bssBANK1                       0000B0  000040  0000F0        B0       1  BANK1       1
                bssBANK2                       000120  000050  000170       120       1  BANK2       1
                bssBANK3                       0001A0  000050  0001F0       1A0       1  BANK3       1
                bssBANK4                       000220  000035  000255       220       1  BANK4       1
                text54                         000800  00003A  00083A      1000       0  CODE        2
                text21                         00083A  000105  00093F      1074       0  CODE        2
                text10                         00093F  0001CB  000B0A      127E       0  CODE        2
                text6                          000B0A  0001CB  000CD5      1614       0  CODE        2
                text55                         000CD5  00032B  001000      19AA       0  CODE        2
                text36                         001001  000003  001004      2002       0  CODE        2
                text64                         001004  00000E  001012      2008       0  CODE        2
                text81                         001012  000082  001094      2024       0  CODE        2
                text5                          001094  0000EC  001180      2128       0  CODE        2
                text14                         001180  000100  001280      2300       0  CODE        2
                text12                         001280  000101  001381      2500       0  CODE        2
                text97                         001381  000142  0014C3      2702       0  CODE        2
                text11                         0014C3  00018C  00164F      2986       0  CODE        2
                text13                         00164F  0001B1  001800      2C9E       0  CODE        2
                text83                         001801  000032  001833      3002       0  CODE        2
                text40                         001833  000063  001896      3066       0  CODE        2
                text52                         001896  000066  0018FC      312C       0  CODE        2
                text67                         0018FC  00006A  001966      31F8       0  CODE        2
                text77                         001966  00006F  0019D5      32CC       0  CODE        2
                text32                         0019D5  000078  001A4D      33AA       0  CODE        2
                text37                         001A4D  00007A  001AC7      349A       0  CODE        2
                text4                          001AC7  00007C  001B43      358E       0  CODE        2
                text63                         001B43  00007F  001BC2      3686       0  CODE        2
                text69                         001BC2  000080  001C42      3784       0  CODE        2
                text65                         001C42  000081  001CC3      3884       0  CODE        2
                text7                          001CC3  000096  001D59      3986       0  CODE        2
                text62                         001D59  000099  001DF2      3AB2       0  CODE        2
                text3                          001DF2  0000A9  001E9B      3BE4       0  CODE        2
                text2                          001E9B  0000AF  001F4A      3D36       0  CODE        2
                text73                         001F4A  0000C3  00200D      3E94       0  CODE        2
                text58                         00200D  000018  002025      401A       0  CODE        2
                text28                         002025  000019  00203E      404A       0  CODE        2
                text39                         00203E  00001A  002058      407C       0  CODE        2
                text56                         002058  00001B  002073      40B0       0  CODE        2
                text100                        002073  00001D  002090      40E6       0  CODE        2
                text99                         002090  00001D  0020AD      4120       0  CODE        2
                text92                         0020AD  00001D  0020CA      415A       0  CODE        2
                text74                         0020CA  00001D  0020E7      4194       0  CODE        2
                text71                         0020E7  00001D  002104      41CE       0  CODE        2
                text50                         002104  00001D  002121      4208       0  CODE        2
                text79                         002121  00001E  00213F      4242       0  CODE        2
                text51                         00213F  00001E  00215D      427E       0  CODE        2
                text49                         00215D  00001E  00217B      42BA       0  CODE        2
                text105                        00217B  00001F  00219A      42F6       0  CODE        2
                text84                         00219A  00001F  0021B9      4334       0  CODE        2
                text72                         0021B9  000020  0021D9      4372       0  CODE        2
                text27                         0021D9  000021  0021FA      43B2       0  CODE        2
                text82                         0021FA  000022  00221C      43F4       0  CODE        2
                text8                          00221C  000022  00223E      4438       0  CODE        2
                text106                        00223E  000026  002264      447C       0  CODE        2
                text47                         002264  000026  00228A      44C8       0  CODE        2
                text76                         00228A  000029  0022B3      4514       0  CODE        2
                text78                         0022B3  00002C  0022DF      4566       0  CODE        2
                text59                         0022DF  00002D  00230C      45BE       0  CODE        2
                text43                         00230C  00002D  002339      4618       0  CODE        2
                text33                         002339  00002E  002367      4672       0  CODE        2
                text80                         002367  00002F  002396      46CE       0  CODE        2
                text48                         002396  000030  0023C6      472C       0  CODE        2
                text91                         0023C6  000031  0023F7      478C       0  CODE        2
                text93                         0023F7  000034  00242B      47EE       0  CODE        2
                text30                         00242B  000034  00245F      4856       0  CODE        2
                text53                         00245F  000036  002495      48BE       0  CODE        2
                text102                        002495  000038  0024CD      492A       0  CODE        2
                text18                         0024CD  000038  002505      499A       0  CODE        2
                text96                         002505  00003A  00253F      4A0A       0  CODE        2
                text94                         00253F  00003A  002579      4A7E       0  CODE        2
                text25                         002579  00003D  0025B6      4AF2       0  CODE        2
                text98                         0025B6  00003E  0025F4      4B6C       0  CODE        2
                text35                         0025F4  00003E  002632      4BE8       0  CODE        2
                text38                         002632  00003F  002671      4C64       0  CODE        2
                text68                         002671  000040  0026B1      4CE2       0  CODE        2
                text57                         0026B1  00004D  0026FE      4D62       0  CODE        2
                text15                         0026FE  000051  00274F      4DFC       0  CODE        2
                text70                         00274F  000052  0027A1      4E9E       0  CODE        2
                text34                         0027A1  00005F  002800      4F42       0  CODE        2
                stringtext1                    002800  000076  002876      5000       0  STRCODE     2
                text42                         002ED0  000002  002ED2      5DA0       0  CODE        2
                text23                         002ED2  000002  002ED4      5DA4       0  CODE        2
                idataBANK3                     002ED4  000002  002ED6      5DA8       0  CODE        2
                text87                         002ED6  000003  002ED9      5DAC       0  CODE        2
                text46                         002ED9  000003  002EDC      5DB2       0  CODE        2
                text95                         002EDC  000006  002EE2      5DB8       0  CODE        2
                text45                         002EE2  000006  002EE8      5DC4       0  CODE        2
                text31                         002EE8  000006  002EEE      5DD0       0  CODE        2
                text75                         002EEE  000007  002EF5      5DDC       0  CODE        2
                text22                         002EF5  000007  002EFC      5DEA       0  CODE        2
                text26                         002EFC  000008  002F04      5DF8       0  CODE        2
                text104                        002F04  000009  002F0D      5E08       0  CODE        2
                text85                         002F0D  000009  002F16      5E1A       0  CODE        2
                text90                         002F16  00000A  002F20      5E2C       0  CODE        2
                text89                         002F20  00000A  002F2A      5E40       0  CODE        2
                text88                         002F2A  00000A  002F34      5E54       0  CODE        2
                text41                         002F34  00000A  002F3E      5E68       0  CODE        2
                text20                         002F3E  00000A  002F48      5E7C       0  CODE        2
                text103                        002F48  00000B  002F53      5E90       0  CODE        2
                text17                         002F53  00000C  002F5F      5EA6       0  CODE        2
                text16                         002F5F  00000C  002F6B      5EBE       0  CODE        2
                text9                          002F6B  00000C  002F77      5ED6       0  CODE        2
                text1                          002F77  00000C  002F83      5EEE       0  CODE        2
                clrtext                        002F83  00000C  002F8F      5F06       0  CODE        2
                inittext                       002F8F  00000C  002F9B      5F1E       0  CODE        2
                text86                         002F9B  00000D  002FA8      5F36       0  CODE        2
                text60                         002FA8  00000D  002FB5      5F50       0  CODE        2
                text24                         002FB5  00000D  002FC2      5F6A       0  CODE        2
                text61                         002FC2  000014  002FD6      5F84       0  CODE        2
                text29                         002FD6  000014  002FEA      5FAC       0  CODE        2
                text101                        002FEA  000016  003000      5FD4       0  CODE        2
                stringtext6                    003000  000075  003075      6000       0  STRCODE     2
                idataEEDATA                    00F000  000100  00F100     1E000       3  EEDATA      2


UNUSED ADDRESS RANGES

        Name                Unused          Largest block    Delta
        BANK0            00068-0006F               8           1
        BANK10           00520-0056F              50           1
        BANK11           005A0-005A7               8           1
        BANK4            00255-0026F              1B           1
        BANK5            002A0-002EF              50           1
        BANK6            00320-0036F              50           1
        BANK7            003A0-003EF              50           1
        BANK8            00420-0046F              50           1
        BANK9            004A0-004EF              50           1
        BIGRAM           02000-023EF             3F0           1
        CODE             01000-01000               1           2
                         01800-01800               1
                         02876-02ECF             65A
                         03075-03FFF             78B
        CONST            01000-01000               1           2
                         01800-01800               1
                         02876-02ECF             100
                         03075-03FFF             100
        ENTRY            01000-01000               1           2
                         01800-01800               1
                         02876-02ECF             100
                         03075-03FFF             100
        IDLOC            08000-08003               4           2
        RAM              00068-0006F               8           1
                         00255-0026F              1B
                         002A0-002EF              50
                         00320-0036F              50
                         003A0-003EF              50
                         00420-0046F              50
                         004A0-004EF              50
                         00520-0056F              50
                         005A0-005A7               8
        SFR0             00000-0001F              20           1
        SFR1             00080-0009F              20           1
        SFR10            00500-0051F              20           1
        SFR11            00580-0059F              20           1
        SFR12            00600-0061F              20           1
        SFR13            00680-006EF              70           1
        SFR14            00700-0076F              70           1
        SFR15            00780-007EF              70           1
        SFR16            00800-0086F              70           1
        SFR17            00880-008EF              70           1
        SFR18            00900-0096F              70           1
        SFR19            00980-009EF              70           1
        SFR2             00100-0011F              20           1
        SFR20            00A00-00A6F              70           1
        SFR21            00A80-00AEF              70           1
        SFR22            00B00-00B6F              70           1
        SFR23            00B80-00BEF              70           1
        SFR24            00C00-00C6F              70           1
        SFR25            00C80-00CEF              70           1
        SFR26            00D00-00D6F              70           1
        SFR27            00D80-00DEF              70           1
        SFR28            00E00-00E6F              70           1
        SFR29            00E80-00EEF              70           1
        SFR3             00180-0019F              20           1
        SFR30            00F00-00F6F              70           1
        SFR31            00F80-00FEF              70           1
        SFR4             00200-0021F              20           1
        SFR5             00280-0029F              20           1
        SFR6             00300-0031F              20           1
        SFR7             00380-0039F              20           1
        SFR8             00400-0041F              20           1
        SFR9             00480-0049F              20           1
        STACK            02175-02377             203           1
        STRCODE          01000-01000               1           2
                         01800-01800               1
                         02876-02ECF             65A
                         03075-03FFF             F8B
        STRING           01000-01000               1           2
                         01800-01800               1
                         02876-02ECF             100
                         03075-03FFF             100

                                  Symbol Table

?_A2D_Convert                          cstackCOMMON 00070
?_ALM_Alarm_Bat_Conserve_Logic         cstackCOMMON 00071
?_Age_Correct_PPM                      cstackBANK0  0002D
?_AlarmPriorityTask                    cstackBANK0  00046
?_BAT_Do_Test                          cstackCOMMON 00073
?_BTN_Task                             cstackBANK0  00046
?_BatteryTest_Task                     cstackBANK0  00046
?_CAL_Manager                          cstackBANK0  00046
?_COAlarmTask                          cstackBANK0  00046
?_COMeasureTask                        cstackBANK0  00046
?_DebugTask                            cstackBANK0  00046
?_Esc_Light_Process                    cstackBANK0  00046
?_GLED_Blink                           cstackBANK0  00046
?_GLED_Manager                         cstackBANK0  00046
?_LIFE_Get_Current_Day                 cstackCOMMON 00070
?_Light_Manager                        cstackBANK0  00046
?_MEAS_Make_Measurement                cstackBANK0  0002D
?_Main_Calc_Current_Tics               cstackCOMMON 00070
?_Make_Return_Value                    cstackCOMMON 00078
?_PTT_Task                             cstackBANK0  00046
?_Peak_BTN_Task                        cstackBANK0  00046
?_SER_Strx_To_Int                      cstackCOMMON 00075
?_SND_Trouble_Manager                  cstackBANK0  00046
?_SounderTask                          cstackBANK0  00046
?_VCE_Process                          cstackBANK0  00046
?___aldiv                              cstackCOMMON 00070
?___lldiv                              cstackBANK0  00020
?___lmul                               cstackCOMMON 00070
?___lwdiv                              cstackCOMMON 00070
?___lwmod                              cstackCOMMON 00070
?___wmul                               cstackCOMMON 00070
?_strlen                               cstackCOMMON 00070
A2D_Convert@channel                    cstackCOMMON 00072
A2D_Test_AC@AD_AC_Volt                 cstackBANK0  0002F
Age_Correct_PPM@days                   cstackBANK0  00037
Age_Correct_PPM@num_qtrs               cstackBANK0  0002F
Age_Correct_PPM@ppm                    cstackBANK0  0002D
Age_Correct_PPM@ppm_corrected          cstackBANK0  00039
AlarmPriorityTask@retval               cstackBANK0  0003F
BAT_Do_Test@retval                     cstackCOMMON 00077
BAT_Set_Test_Interval@mode             cstackCOMMON 00070
BatteryTest_Task@BAT_Measured          cstackBANK0  00048
BatteryTest_Task@BAT_Vdd               cstackBANK0  00042
BatteryTest_Task@batvolt               cstackBANK0  00046
CAL_Manager@calval                     cstackBANK0  00042
CAL_Manager@scale                      cstackBANK0  00044
CAL_Manager@scale_cts                  cstackBANK0  00046
COAlarmTask@Alarm_Temp1                cstackBANK0  00047
COAlarmTask@calstate                   cstackBANK0  00046
COAlarmTask@local                      cstackBANK0  00044
Calculate_PPM@offset                   cstackBANK0  00044
Calculate_PPM@raw_counts               cstackBANK0  0003B
Command_Processor@addr                 cstackBANK0  00045
Command_Processor@addr_1184            cstackBANK0  00046
Command_Processor@addr_1213            cstackBANK0  00048
Command_Processor@address              cstackBANK0  00052
Command_Processor@c                    cstackBANK0  0004B
Command_Processor@c_1182               cstackBANK0  0004D
Command_Processor@c_1211               cstackBANK0  0004F
Command_Processor@csum                 cstackBANK0  00044
Command_Processor@data                 cstackBANK0  0003D
Command_Processor@hist_addr            cstackBANK0  00040
Command_Processor@hist_addr_1214       cstackBANK0  00042
Command_Processor@r                    cstackBANK0  0004A
Command_Processor@r_1181               cstackBANK0  0004C
Command_Processor@r_1210               cstackBANK0  0004E
Command_Processor@r_1216               cstackBANK0  00051
Command_Processor@ram_addr             cstackBANK0  00047
Command_Processor@string               cstackBANK0  00050
Command_Processor@value                cstackBANK0  00049
Command_Processor@value_1183           cstackBANK0  0003E
Command_Processor@value_1212           cstackBANK0  0003F
Diag_Hist_Bat_Record@battime           cstackBANK0  00024
Diag_Hist_Bat_Record@batvolt           cstackBANK0  00022
Diag_Hist_Bat_Record@buffer            cstackBANK0  00025
Diag_Hist_EE_Error@count               cstackCOMMON 00078
Diag_Hist_Que_Push@count               cstackBANK0  00026
Diag_Hist_Que_Push@count_address       cstackBANK0  0002A
Diag_Hist_Que_Push@day                 cstackBANK0  00028
Diag_Hist_Que_Push@day_h               cstackBANK0  00025
Diag_Hist_Que_Push@day_l               cstackBANK0  00027
Diag_Hist_Que_Push@event               cstackBANK0  00024
Diag_Hist_Que_Push@event_code          cstackBANK0  0002E
Diag_Hist_Que_Push@event_ptr           cstackBANK0  0002B
Diag_Hist_Test_Peak@day                cstackBANK0  00028
Diag_Hist_Test_Peak@high               cstackBANK0  0002B
Diag_Hist_Test_Peak@low                cstackBANK0  0002A
Diag_Hist_Test_Peak@peak               cstackBANK0  00026
Diag_Hist_Test_Peak@peak_high          cstackBANK0  00024
Diag_Hist_Test_Peak@peak_low           cstackBANK0  00022
Diag_Hist_Test_Peak@ppm                cstackCOMMON 0007C
Display_Set_Intensity@inten            cstackCOMMON 00071
FLT_Fault_Manager@faultcode            cstackBANK0  0003B
Fault_Set_Fatal_Mode@fault             cstackBANK0  00039
Initialize_Engine@i                    cstackCOMMON 00072
Life_Init@sum                          cstackBANK0  0003F
Light_Analysis@Matha                   cstackBANK0  00041
Light_Analysis@h                       cstackBANK0  00047
Light_Analysis@h_1792                  cstackBANK0  0003D
Light_Analysis@h_1793                  cstackBANK0  0003F
Light_Analysis@h_1794                  cstackBANK0  00038
Light_Analysis@h_1795                  cstackBANK0  00045
Light_Analysis@h_1799                  cstackBANK0  00046
Light_Analysis@i                       cstackBANK0  00049
Light_Analysis@i_1796                  cstackBANK0  0003A
Light_Analysis@i_1797                  cstackBANK0  0003B
Light_Analysis@i_1798                  cstackBANK0  0003C
Light_Data_Init@i                      cstackCOMMON 0007A
Light_Manager@GLED_FVR_Measured        cstackBANK0  00050
Light_Manager@GLED_Measured            cstackBANK0  00055
Light_Manager@GLED_Vdd                 cstackBANK0  0004C
Light_Manager@i                        cstackBANK0  00054
Light_Manager@result                   cstackBANK0  00052
MAIN_Reset_Task@taskID                 cstackCOMMON 00074
MEAS_CO_Charge@CO_Measured             cstackBANK0  0002E
MEAS_CO_Charge@CO_Vdd                  cstackBANK0  0002A
MEAS_CO_Charge@adval                   cstackBANK0  00032
MEAS_CO_Charge@i                       cstackBANK0  00034
MEAS_CO_Charge@threshold               cstackCOMMON 0007C
MEAS_Make_Measurement@CO_Measured      cstackBANK0  00033
MEAS_Make_Measurement@CO_Vdd           cstackBANK0  00037
MEAS_Make_Measurement@CO_Vdd_Delta     cstackBANK0  0003B
MEAS_Make_Measurement@adval            cstackBANK0  0003D
Main_Calc_Current_Tics@Task_ID         cstackCOMMON 0007A
Main_Calc_Current_Tics@tics            cstackCOMMON 00078
Main_Recalc_Int_Active@Task_ID         cstackCOMMON 0007D
Main_Recalc_Int_Active@tics            cstackCOMMON 0007B
Main_Recalc_Int_Standby@Task_ID        cstackCOMMON 0007D
Main_Recalc_Int_Standby@tics           cstackCOMMON 0007B
Main_Wait_T1Osc_Stable@loop_ctr        cstackCOMMON 00071
Make_Return_Value@milliseconds         cstackCOMMON 00078
Memory_Byte_Read@addr                  cstackCOMMON 00070
Memory_Byte_Write@byte                 cstackCOMMON 00076
Memory_Byte_Write@delay                cstackCOMMON 00074
Memory_Byte_Write@dest                 cstackCOMMON 00071
Memory_Byte_Write@v_byte               cstackCOMMON 00075
Memory_Byte_Write_Verify@byte          cstackCOMMON 0007B
Memory_Byte_Write_Verify@dest          cstackCOMMON 00079
Memory_Read_Block@dest                 cstackCOMMON 00072
Memory_Read_Block@i                    cstackCOMMON 00075
Memory_Read_Block@num_bytes            cstackCOMMON 00074
Memory_Read_Block@source               cstackCOMMON 00071
Memory_Write_Block@dest                cstackCOMMON 0007B
Memory_Write_Block@i                   cstackBANK0  00021
Memory_Write_Block@num_bytes           cstackBANK0  00020
Memory_Write_Block@source              cstackCOMMON 00079
Payload_Output@index                   cstackCOMMON 00077
Payload_Output@payload_ptr             cstackCOMMON 00074
Payload_Output@remained_lifes          cstackCOMMON 00075
SER_Process_Rx@bufferptr               bssBANK1     000C2
SER_Send_Byte@byte                     cstackCOMMON 0007B
SER_Send_Byte@nibble                   cstackCOMMON 0007C
SER_Send_Char@c                        cstackCOMMON 00076
SER_Send_Char@string                   cstackCOMMON 00077
SER_Send_Int@base                      cstackBANK0  00029
SER_Send_Int@stringtosend              cstackBANK0  0002C
SER_Send_Int@tag                       cstackBANK0  00035
SER_Send_Int@val                       cstackBANK0  00027
SER_Send_String@charpointer            cstackCOMMON 00073
SER_Send_String@stringtosend           cstackCOMMON 00070
SER_Strx_To_Int@i                      cstackBANK0  00023
SER_Strx_To_Int@multiplier             cstackBANK0  00022
SER_Strx_To_Int@str                    cstackBANK0  00024
SER_Strx_To_Int@value                  cstackBANK0  00020
SND_Set_Chirp_Cnt@count                cstackCOMMON 00071
SYS_Calc_Checksum@addr                 cstackCOMMON 00072
SYS_Calc_Checksum@byte                 cstackCOMMON 00073
SYS_Calc_Checksum@i                    cstackCOMMON 00075
SYS_Calc_Checksum@sum                  cstackCOMMON 00074
SYS_Calc_Ram_Checksum@addr             cstackCOMMON 00073
SYS_Calc_Ram_Checksum@byte             cstackCOMMON 00071
SYS_Calc_Ram_Checksum@i                cstackCOMMON 00074
SYS_Calc_Ram_Checksum@sum              cstackCOMMON 00072
SYS_Load@addr                          cstackCOMMON 00072
SYS_Load@i                             cstackCOMMON 00074
SYS_Load@ptr                           cstackCOMMON 00073
_A2D_Convert                           text106      0223E
_A2D_Test_AC                           text96       02505
_ACDetectCount                         dataBANK1    000EE
_ADCON0                                (abs)        0009D
_ADCON0bits                            (abs)        0009D
_ADCON1                                (abs)        0009E
_ADRES                                 (abs)        0009B
_ALM_Alarm_Bat_Conserve_Logic          text94       0253F
_ALM_Init_Bat_Conserve_Timer           text95       02EDC
_ALM_State                             bssBANK2     0014C
_ALM_Timer_Bat_Conserve                bssBANK1     000D0
_ANSELA                                (abs)        0018C
_ANSELB                                (abs)        0018D
_ANSELBbits                            (abs)        0018D
_Age_Correct_PPM                       text69       01BC2
_Age_Correct_PPM$3862                  cstackBANK0  00033
_AlarmInterimSum                       nvBANK3      001EC
_AlarmPastSum                          nvBANK4      00251
_AlarmPrioInfo                         bssBANK3     001C6
_AlarmPriorityTask                     text15       026FE
_AlarmSum                              nvBANK2      0016C
_BAT_Battery_State                     bssBANK2     0014B
_BAT_Do_Test                           text83       01801
_BAT_FVR_Measured                      bssBANK3     001EA
_BAT_Init_LB_Hush                      text90       02F16
_BAT_LB_Hush_Timer                     bssBANK3     001B0
_BAT_Last_Volt                         bssBANK1     000C0
_BAT_Scale                             bssBANK3     001B2
_BAT_Set_Test_Interval                 text82       021FA
_BAT_Startup_Timer                     bssBANK2     0014A
_BAT_Tst_Timer                         bssBANK2     0012E
_BORCONbits                            (abs)        00116
_BTN_Counter                           bssBANK1     000BE
_BTN_Lang_Sel_Timout                   bssBANK2     00148
_BTN_State                             bssBANK2     00149
_BTN_Task                              text13       0164F
_BatteryTestInfo                       bssBANK3     001D2
_BatteryTest_Task                      text14       01180
_BeepCounter                           bssBANK2     00133
_ButtonTaskInfo                        bssBANK3     001DE
_CAL_Get_State                         text105      0217B
_CAL_Init                              text38       02632
_CAL_Manager                           text11       014C3
_CAL_MgrState                          bssBANK1     000CE
_CAL_Timer                             bssBANK1     000CD
_COAlarmInfo                           bssBANK3     001C0
_COAlarmTask                           text12       01280
_COAlarm_Init                          text41       02F34
_COMeasureInfo                         bssBANK3     001B4
_COMeasureTask                         text10       0093F
_CO_FVR_Measured                       bssBANK2     0015B
_CO_State                              bssBANK2     00146
_CO_Vdd_Calc                           bssBANK2     00128
_CalManagerInfo                        bssBANK3     001BA
_Calculate_Filter_PPM                  text68       02671
_Calculate_PPM                         text65       01C42
_Command_Processor                     text55       00CD5
_CurrentMode                           bssBANK1     000C4
_CurrentMsPerTic                       bssBANK2     00124
_Current_Hour                          nvBANK1      000EF
_Dark_Count                            bssBANK1     000C5
_Dark_Hour                             bssBANK2     0013F
_DebugTask                             text1        02F77
_DebugTaskInfo                         bssBANK3     001CC
_Depass_Pulse_Timer                    bssBANK2     00141
_Depass_Timer                          dataBANK1    000ED
_Diag_Hist_Bat_Record                  text54       00800
_Diag_Hist_EE_Error                    text101      02FEA
_Diag_Hist_Que_Push                    text97       01381
_Diag_Hist_Test_Peak                   text67       018FC
_Disp_Intensity                        dataBANK2    00168
_Display_Get_Intensity                 text46       02ED9
_Display_Set_Intensity                 text45       02EE2
_EEADRL                                (abs)        00191
_EECON1bits                            (abs)        00195
_EECON2                                (abs)        00196
_EEDAT                                 (abs)        00193
_EE_Data                               idataEEDATA  00000
_EscLightInfo                          bssBANK4     00233
_Esc_Light_Process                     text9        02F6B
_FLT_Fault_Manager                     text73       01F4A
_FVRCON                                (abs)        00117
_FVRCONbits                            (abs)        00117
_FatalFaultCode                        bssBANK1     000C7
_FaultChirpDelayCntr                   bssBANK2     00130
_Fault_Set_Fatal_Mode                  text74       020CA
_Flags1                                bssBANK0     00064
_Flags2                                bssBANK0     00063
_Flags3                                bssBANK0     00062
_Flags4                                bssBANK1     000D4
_Flags5                                bssBANK1     000D3
_Flags6                                bssBANK0     00061
_Flags_Active1                         bssBANK0     00060
_Flags_Active2                         bssBANK0     0005F
_Flags_Active3                         bssBANK1     000D2
_Flags_NR                              nvBANK0      00067
_GLED_Blink                            text8        0221C
_GLED_Manager                          text7        01CC3
_GLED_Off                              text36       01001
_GLED_State                            bssBANK2     00145
_GrnLedBlinkInfo                       bssBANK4     0023F
_GrnLedInfo                            bssBANK4     00245
_Hour                                  (abs)        02378
_INTCONbits                            (abs)        0000B
_IOCBFbits                             (abs)        00396
_IOCBP                                 (abs)        00394
_Initialize_Engine                     text37       01A4D
_LBConserveCount                       dataBANK2    00163
_LB_Inhibit_Timer                      bssBANK3     001A0
_LFE_Check                             text52       01896
_LFE_Check_Depassivation               text61       02FC2
_LFE_Check_EOL                         text53       0245F
_LFE_Depassivation                     text51       0213F
_LFE_UL_EOL_Snooze                     text89       02F20
_LGT_State                             dataBANK2    00167
_LGT_Timer                             dataBANK3    001EE
_LIFE_Get_Current_Day                  text104      02F04
_Life_Init                             text47       02264
_LightInfo                             bssBANK4     0022D
_Light_Analysis                        text44       0006F
_Light_Count                           bssBANK2     00140
_Light_Data_Init                       text40       01833
_Light_Longest_Drk_Count               bssBANK1     000C6
_Light_Manager                         text6        00B0A
_Light_Max                             bssBANK2     00126
_Light_Meas_Avg                        dataBANK2    0015D
_Light_Min                             bssBANK1     000B4
_Light_Record                          text43       0230C
_Light_Sample_Last                     dataBANK2    00161
_MAIN_Reset_Task                       text91       023C6
_MEAS_CO_Charge                        text63       01B43
_MEAS_Make_Measurement                 text62       01D59
_MEAS_Reset                            text24       02FB5
_MEAS_Send_Charge_Pulse                text64       01004
_Main_Calc_Current_Tics                text35       025F4
_Main_Check_Low_Power_Logic            text29       02FD6
_Main_Check_Revision                   text42       02ED0
_Main_Init_Power_Dly_Timer             text88       02F2A
_Main_Init_Powerup                     text39       0203E
_Main_Initialize                       text25       02579
_Main_Mode                             stringtext2  02832
_Main_Recalc_Int_Active                text34       027A1
_Main_Recalc_Int_Standby               text32       019D5
_Main_Reset_Sleep_Timer                text28       02025
_Main_Set_Active                       text33       02339
_Main_Set_Low_Power                    text30       0242B
_Main_Wait_T1Osc_Stable                text27       021D9
_Make_Return_Value                     text92       020AD
_Memory_Byte_Read                      text103      02F48
_Memory_Byte_Write                     text102      02495
_Memory_Byte_Write_Verify              text100      02073
_Memory_Read_Block                     text99       02090
_Memory_Write_Block                    text98       025B6
_Night_Day_TH                          nvBANK2      0016A
_Night_Light_TH                        nvBANK0      00065
_OPTION_REG                            (abs)        00095
_OSCCON                                (abs)        00099
_OneMinuteCount                        dataBANK2    00165
_PCON                                  (abs)        00096
_PCON_Save                             nvBANK4      00254
_PCONbits                              (abs)        00096
_PIE1bits                              (abs)        00091
_PIR1bits                              (abs)        00011
_PIR2bits                              (abs)        00012
_PORTA                                 (abs)        0000C
_PORTAbits                             (abs)        0000C
_PORTB                                 (abs)        0000D
_PORTBbits                             (abs)        0000D
_PORTC                                 (abs)        0000E
_PTT_Count                             bssBANK2     00134
_PTT_State                             bssBANK2     00135
_PTT_Task                              text4        01AC7
_PTT_TaskInfo                          bssBANK3     001D8
_Payload                               bssBANK2     0014E
_Payload_Output                        text21       0083A
_PeakButtonInfo                        bssBANK4     00239
_Peak_BTN_Chirp_Timeout                bssBANK2     00136
_Peak_BTN_Cnt                          bssBANK1     000C3
_Peak_BTN_Get_State                    text87       02ED6
_Peak_BTN_State                        bssBANK2     00137
_Peak_BTN_Task                         text2        01E9B
_PowerupAwakeTimer                     bssBANK2     00122
_RCREG                                 (abs)        00199
_RCSTAbits                             (abs)        0019D
_SER_Enable_Init                       text20       02F3E
_SER_Init                              text19       007FB
_SER_OutputFlags                       bssBANK1     000CB
_SER_Process_Rx                        text18       024CD
_SER_Send_Byte                         text59       022DF
_SER_Send_Char                         text60       02FA8
_SER_Send_Int                          text76       0228A
_SER_Send_Prompt                       text75       02EEE
_SER_Send_String                       text79       02121
_SER_Strx_To_Int                       text57       026B1
_SND_CO_Params                         stringtext5  0302D
_SND_Do_Chirp                          text86       02F9B
_SND_Get_State                         text23       02ED2
_SND_Reset_Task                        text31       02EE8
_SND_Set_Chirp_Cnt                     text85       02F0D
_SND_Trouble_Manager                   text3        01DF2
_SPBRGL                                (abs)        0019B
_STATUS                                (abs)        00003
_STATUS_Save                           nvBANK4      00253
_STATUSbits                            (abs)        00003
_SYS_Calc_Checksum                     text50       02104
_SYS_Calc_Ram_Checksum                 text72       021B9
_SYS_Init                              text48       02396
_SYS_Load                              text49       0215D
_SYS_RamData                           (abs)        000A0
_SYS_Save                              text71       020E7
_SYS_Validate_Data_Structure           text17       02F53
_SndTroubleState                       bssBANK2     00131
_SoundTaskInfo                         bssBANK3     001E4
_SounderState                          bssBANK2     00120
_SounderTask                           text5        01094
_Status_Flag                           bssBANK2     0014D
_Stuck_Sound_counter                   bssBANK1     000CF
_T1CON                                 (abs)        00018
_T1CONbits                             (abs)        00018
_T1GCON                                (abs)        00019
_TMR0                                  (abs)        00015
_TMR1                                  (abs)        00016
_TMR1L                                 (abs)        00016
_TRISA                                 (abs)        0008C
_TRISB                                 (abs)        0008D
_TRISBbits                             (abs)        0008D
_TRISC                                 (abs)        0008E
_TXREG                                 (abs)        0019A
_TXSTAbits                             (abs)        0019E
_TaskNumbers                           stringtext4  03064
_TaskTable                             stringtext3  02856
_TicTimer                              bssBANK1     000B2
_TroubleChirpCounter                   bssBANK2     00132
_TroubleManagerInfo                    bssBANK4     0024B
_Update_Peak_PPM                       text66       007A8
_VCE_Process                           text16       02F5F
_VoiceInfo                             bssBANK4     00227
_WDTCON                                (abs)        00097
_WDTCONbits                            (abs)        00097
_Wifi_Module_Disable                   text22       02EF5
_Wifi_Module_Enable                    text26       02EFC
__Habs1                                abs1         00000
__Hbank0                               bank0        00000
__Hbank1                               bank1        00000
__Hbank10                              bank10       00000
__Hbank11                              bank11       00000
__Hbank12                              bank12       00000
__Hbank13                              bank13       00000
__Hbank14                              bank14       00000
__Hbank15                              bank15       00000
__Hbank16                              bank16       00000
__Hbank17                              bank17       00000
__Hbank18                              bank18       00000
__Hbank19                              bank19       00000
__Hbank2                               bank2        00000
__Hbank20                              bank20       00000
__Hbank21                              bank21       00000
__Hbank22                              bank22       00000
__Hbank23                              bank23       00000
__Hbank24                              bank24       00000
__Hbank25                              bank25       00000
__Hbank26                              bank26       00000
__Hbank27                              bank27       00000
__Hbank28                              bank28       00000
__Hbank29                              bank29       00000
__Hbank3                               bank3        00000
__Hbank30                              bank30       00000
__Hbank31                              bank31       00000
__Hbank4                               bank4        00000
__Hbank5                               bank5        00000
__Hbank6                               bank6        00000
__Hbank7                               bank7        00000
__Hbank8                               bank8        00000
__Hbank9                               bank9        00000
__Hbigram                              bigram       00000
__HbssBANK0                            bssBANK0     00000
__HbssBANK1                            bssBANK1     00000
__HbssBANK2                            bssBANK2     00000
__HbssBANK3                            bssBANK3     00000
__HbssBANK4                            bssBANK4     00000
__Hcinit                               cinit        0006F
__Hclrtext                             clrtext      00000
__Hcode                                code         00000
__Hcommon                              common       00000
__Hconfig                              config       08009
__HcstackBANK0                         cstackBANK0  00000
__HcstackBANK1                         cstackBANK1  00000
__HcstackCOMMON                        cstackCOMMON 00000
__HdataBANK1                           dataBANK1    00000
__HdataBANK2                           dataBANK2    00000
__HdataBANK3                           dataBANK3    00000
__HdataEEDATA                          dataEEDATA   00000
__Heeprom_data                         eeprom_data  00000
__Hend_init                            end_init     00019
__Hfunctab                             functab      00000
__HidataBANK1                          idataBANK1   00000
__HidataBANK2                          idataBANK2   00000
__HidataBANK3                          idataBANK3   00000
__HidataEEDATA                         idataEEDATA  00000
__Hinit                                init         00017
__Hinittext                            inittext     00000
__Hintentry                            intentry     00017
__Hmaintext                            maintext     00000
__HnvBANK0                             nvBANK0      00000
__HnvBANK1                             nvBANK1      00000
__HnvBANK2                             nvBANK2      00000
__HnvBANK3                             nvBANK3      00000
__HnvBANK4                             nvBANK4      00000
__Hpowerup                             powerup      00000
__Hram                                 ram          00000
__Hreset_vec                           reset_vec    00002
__Hsfr0                                sfr0         00000
__Hsfr1                                sfr1         00000
__Hsfr10                               sfr10        00000
__Hsfr11                               sfr11        00000
__Hsfr12                               sfr12        00000
__Hsfr13                               sfr13        00000
__Hsfr14                               sfr14        00000
__Hsfr15                               sfr15        00000
__Hsfr16                               sfr16        00000
__Hsfr17                               sfr17        00000
__Hsfr18                               sfr18        00000
__Hsfr19                               sfr19        00000
__Hsfr2                                sfr2         00000
__Hsfr20                               sfr20        00000
__Hsfr21                               sfr21        00000
__Hsfr22                               sfr22        00000
__Hsfr23                               sfr23        00000
__Hsfr24                               sfr24        00000
__Hsfr25                               sfr25        00000
__Hsfr26                               sfr26        00000
__Hsfr27                               sfr27        00000
__Hsfr28                               sfr28        00000
__Hsfr29                               sfr29        00000
__Hsfr3                                sfr3         00000
__Hsfr30                               sfr30        00000
__Hsfr31                               sfr31        00000
__Hsfr4                                sfr4         00000
__Hsfr5                                sfr5         00000
__Hsfr6                                sfr6         00000
__Hsfr7                                sfr7         00000
__Hsfr8                                sfr8         00000
__Hsfr9                                sfr9         00000
__Hspace_0                             (abs)        03075
__Hspace_1                             (abs)        00255
__Hspace_2                             (abs)        00000
__Hspace_3                             (abs)        00100
__Hspace_4                             (abs)        10010
__Hstack                               stack        00000
__Hstrings                             strings      00000
__Hstringtext1                         stringtext1  00000
__Hstringtext10                        stringtext10 00000
__Hstringtext11                        stringtext11 00000
__Hstringtext12                        stringtext12 00000
__Hstringtext13                        stringtext13 00000
__Hstringtext14                        stringtext14 00000
__Hstringtext15                        stringtext15 00000
__Hstringtext16                        stringtext16 00000
__Hstringtext17                        stringtext17 00000
__Hstringtext18                        stringtext18 00000
__Hstringtext19                        stringtext19 00000
__Hstringtext2                         stringtext2  00000
__Hstringtext3                         stringtext3  00000
__Hstringtext4                         stringtext4  00000
__Hstringtext5                         stringtext5  00000
__Hstringtext6                         stringtext6  00000
__Hstringtext7                         stringtext7  00000
__Hstringtext8                         stringtext8  00000
__Hstringtext9                         stringtext9  00000
__Htext                                text         00000
__Labs1                                abs1         00000
__Lbank0                               bank0        00000
__Lbank1                               bank1        00000
__Lbank10                              bank10       00000
__Lbank11                              bank11       00000
__Lbank12                              bank12       00000
__Lbank13                              bank13       00000
__Lbank14                              bank14       00000
__Lbank15                              bank15       00000
__Lbank16                              bank16       00000
__Lbank17                              bank17       00000
__Lbank18                              bank18       00000
__Lbank19                              bank19       00000
__Lbank2                               bank2        00000
__Lbank20                              bank20       00000
__Lbank21                              bank21       00000
__Lbank22                              bank22       00000
__Lbank23                              bank23       00000
__Lbank24                              bank24       00000
__Lbank25                              bank25       00000
__Lbank26                              bank26       00000
__Lbank27                              bank27       00000
__Lbank28                              bank28       00000
__Lbank29                              bank29       00000
__Lbank3                               bank3        00000
__Lbank30                              bank30       00000
__Lbank31                              bank31       00000
__Lbank4                               bank4        00000
__Lbank5                               bank5        00000
__Lbank6                               bank6        00000
__Lbank7                               bank7        00000
__Lbank8                               bank8        00000
__Lbank9                               bank9        00000
__Lbigram                              bigram       00000
__LbssBANK0                            bssBANK0     00000
__LbssBANK1                            bssBANK1     00000
__LbssBANK2                            bssBANK2     00000
__LbssBANK3                            bssBANK3     00000
__LbssBANK4                            bssBANK4     00000
__Lcinit                               cinit        00019
__Lclrtext                             clrtext      00000
__Lcode                                code         00000
__Lcommon                              common       00000
__Lconfig                              config       00000
__LcstackBANK0                         cstackBANK0  00000
__LcstackBANK1                         cstackBANK1  00000
__LcstackCOMMON                        cstackCOMMON 00000
__LdataBANK1                           dataBANK1    00000
__LdataBANK2                           dataBANK2    00000
__LdataBANK3                           dataBANK3    00000
__LdataEEDATA                          dataEEDATA   00000
__Leeprom_data                         eeprom_data  00000
__Lend_init                            end_init     00017
__Lfunctab                             functab      00000
__LidataBANK1                          idataBANK1   00000
__LidataBANK2                          idataBANK2   00000
__LidataBANK3                          idataBANK3   00000
__LidataEEDATA                         idataEEDATA  00000
__Linit                                init         00017
__Linittext                            inittext     00000
__Lintentry                            intentry     00004
__Lmaintext                            maintext     00000
__LnvBANK0                             nvBANK0      00000
__LnvBANK1                             nvBANK1      00000
__LnvBANK2                             nvBANK2      00000
__LnvBANK3                             nvBANK3      00000
__LnvBANK4                             nvBANK4      00000
__Lpowerup                             powerup      00000
__Lram                                 ram          00000
__Lreset_vec                           reset_vec    00000
__Lsfr0                                sfr0         00000
__Lsfr1                                sfr1         00000
__Lsfr10                               sfr10        00000
__Lsfr11                               sfr11        00000
__Lsfr12                               sfr12        00000
__Lsfr13                               sfr13        00000
__Lsfr14                               sfr14        00000
__Lsfr15                               sfr15        00000
__Lsfr16                               sfr16        00000
__Lsfr17                               sfr17        00000
__Lsfr18                               sfr18        00000
__Lsfr19                               sfr19        00000
__Lsfr2                                sfr2         00000
__Lsfr20                               sfr20        00000
__Lsfr21                               sfr21        00000
__Lsfr22                               sfr22        00000
__Lsfr23                               sfr23        00000
__Lsfr24                               sfr24        00000
__Lsfr25                               sfr25        00000
__Lsfr26                               sfr26        00000
__Lsfr27                               sfr27        00000
__Lsfr28                               sfr28        00000
__Lsfr29                               sfr29        00000
__Lsfr3                                sfr3         00000
__Lsfr30                               sfr30        00000
__Lsfr31                               sfr31        00000
__Lsfr4                                sfr4         00000
__Lsfr5                                sfr5         00000
__Lsfr6                                sfr6         00000
__Lsfr7                                sfr7         00000
__Lsfr8                                sfr8         00000
__Lsfr9                                sfr9         00000
__Lspace_0                             (abs)        00000
__Lspace_1                             (abs)        00000
__Lspace_2                             (abs)        00000
__Lspace_3                             (abs)        00000
__Lspace_4                             (abs)        00000
__Lstack                               stack        00000
__Lstrings                             strings      00000
__Lstringtext1                         stringtext1  00000
__Lstringtext10                        stringtext10 00000
__Lstringtext11                        stringtext11 00000
__Lstringtext12                        stringtext12 00000
__Lstringtext13                        stringtext13 00000
__Lstringtext14                        stringtext14 00000
__Lstringtext15                        stringtext15 00000
__Lstringtext16                        stringtext16 00000
__Lstringtext17                        stringtext17 00000
__Lstringtext18                        stringtext18 00000
__Lstringtext19                        stringtext19 00000
__Lstringtext2                         stringtext2  00000
__Lstringtext3                         stringtext3  00000
__Lstringtext4                         stringtext4  00000
__Lstringtext5                         stringtext5  00000
__Lstringtext6                         stringtext6  00000
__Lstringtext7                         stringtext7  00000
__Lstringtext8                         stringtext8  00000
__Lstringtext9                         stringtext9  00000
__Ltext                                text         00000
__S0                                   (abs)        03075
__S1                                   (abs)        00255
__S2                                   (abs)        00000
__S3                                   (abs)        0F100
___aldiv                               text81       01012
___aldiv@counter                       cstackBANK0  00020
___aldiv@dividend                      cstackCOMMON 00074
___aldiv@divisor                       cstackCOMMON 00070
___aldiv@quotient                      cstackBANK0  00022
___aldiv@sign                          cstackBANK0  00021
___int_sp                              stack        00000
___latbits                             (abs)        00003
___lbmod                               text84       0219A
___lbmod@counter                       cstackCOMMON 00074
___lbmod@dividend                      cstackCOMMON 00073
___lbmod@divisor                       cstackCOMMON 00070
___lbmod@rem                           cstackCOMMON 00075
___lldiv                               text70       0274F
___lldiv@counter                       cstackBANK0  0002C
___lldiv@dividend                      cstackBANK0  00024
___lldiv@divisor                       cstackBANK0  00020
___lldiv@quotient                      cstackBANK0  00028
___lmul                                text80       02367
___lmul@multiplicand                   cstackCOMMON 00074
___lmul@multiplier                     cstackCOMMON 00070
___lmul@product                        cstackCOMMON 00078
___lwdiv                               text93       023F7
___lwdiv@counter                       cstackCOMMON 00075
___lwdiv@dividend                      cstackCOMMON 00072
___lwdiv@divisor                       cstackCOMMON 00070
___lwdiv@quotient                      cstackCOMMON 00076
___lwmod                               text78       022B3
___lwmod@counter                       cstackCOMMON 00075
___lwmod@dividend                      cstackCOMMON 00072
___lwmod@divisor                       cstackCOMMON 00070
___sp                                  stack        00000
___stackhi                             (abs)        02377
___stacklo                             (abs)        02175
___wmul                                text56       02058
___wmul@multiplicand                   cstackCOMMON 00072
___wmul@multiplier                     cstackCOMMON 00070
___wmul@product                        cstackCOMMON 00074
__end_of_A2D_Convert                   text106      02264
__end_of_A2D_Test_AC                   text96       0253F
__end_of_ALM_Alarm_Bat_Conserve_Logic  text94       02579
__end_of_ALM_Init_Bat_Conserve_Timer   text95       02EE2
__end_of_Age_Correct_PPM               text69       01C42
__end_of_AlarmPriorityTask             text15       0274F
__end_of_BAT_Do_Test                   text83       01833
__end_of_BAT_Init_LB_Hush              text90       02F20
__end_of_BAT_Set_Test_Interval         text82       0221C
__end_of_BTN_Task                      text13       01800
__end_of_BatteryTest_Task              text14       01280
__end_of_CAL_Get_State                 text105      0219A
__end_of_CAL_Init                      text38       02671
__end_of_CAL_Manager                   text11       0164F
__end_of_COAlarmTask                   text12       01381
__end_of_COAlarm_Init                  text41       02F3E
__end_of_COMeasureTask                 text10       00B0A
__end_of_Calculate_Filter_PPM          text68       026B1
__end_of_Calculate_PPM                 text65       01CC3
__end_of_CharTable                     stringtext1  02832
__end_of_Command_Processor             text55       01000
__end_of_DebugTask                     text1        02F83
__end_of_Diag_Hist_Bat_Record          text54       0083A
__end_of_Diag_Hist_EE_Error            text101      03000
__end_of_Diag_Hist_Que_Push            text97       014C3
__end_of_Diag_Hist_Test_Peak           text67       01966
__end_of_Display_Get_Intensity         text46       02EDC
__end_of_Display_Set_Intensity         text45       02EE8
__end_of_Esc_Light_Process             text9        02F77
__end_of_FLT_Fault_Manager             text73       02000
__end_of_Fault_Set_Fatal_Mode          text74       020E7
__end_of_GLED_Blink                    text8        0223E
__end_of_GLED_Manager                  text7        01D59
__end_of_GLED_Off                      text36       01004
__end_of_Initialize_Engine             text37       01AC7
__end_of_LFE_Check                     text52       018FC
__end_of_LFE_Check_Depassivation       text61       02FD6
__end_of_LFE_Check_EOL                 text53       02495
__end_of_LFE_Depassivation             text51       0215D
__end_of_LFE_UL_EOL_Snooze             text89       02F2A
__end_of_LIFE_Get_Current_Day          text104      02F0D
__end_of_Life_Init                     text47       0228A
__end_of_Light_Analysis                text44       00537
__end_of_Light_Data_Init               text40       01896
__end_of_Light_Manager                 text6        00CD5
__end_of_Light_Record                  text43       02339
__end_of_MAIN_Reset_Task               text91       023F7
__end_of_MEAS_CO_Charge                text63       01BC2
__end_of_MEAS_Make_Measurement         text62       01DF2
__end_of_MEAS_Reset                    text24       02FC2
__end_of_MEAS_Send_Charge_Pulse        text64       01012
__end_of_Main_Calc_Current_Tics        text35       02632
__end_of_Main_Check_Low_Power_Logic    text29       02FEA
__end_of_Main_Check_Revision           text42       02ED2
__end_of_Main_Init_Power_Dly_Timer     text88       02F34
__end_of_Main_Init_Powerup             text39       02058
__end_of_Main_Initialize               text25       025B6
__end_of_Main_Mode                     stringtext2  02856
__end_of_Main_Recalc_Int_Active        text34       02800
__end_of_Main_Recalc_Int_Standby       text32       01A4D
__end_of_Main_Reset_Sleep_Timer        text28       0203E
__end_of_Main_Set_Active               text33       02367
__end_of_Main_Set_Low_Power            text30       0245F
__end_of_Main_Wait_T1Osc_Stable        text27       021FA
__end_of_Make_Return_Value             text92       020CA
__end_of_Memory_Byte_Read              text103      02F53
__end_of_Memory_Byte_Write             text102      024CD
__end_of_Memory_Byte_Write_Verify      text100      02090
__end_of_Memory_Read_Block             text99       020AD
__end_of_Memory_Write_Block            text98       025F4
__end_of_PTT_Task                      text4        01B43
__end_of_Payload_Output                text21       0093F
__end_of_Peak_BTN_Get_State            text87       02ED9
__end_of_Peak_BTN_Task                 text2        01F4A
__end_of_SER_Enable_Init               text20       02F48
__end_of_SER_Init                      text19       00800
__end_of_SER_Process_Rx                text18       02505
__end_of_SER_Send_Byte                 text59       0230C
__end_of_SER_Send_Char                 text60       02FB5
__end_of_SER_Send_Int                  text76       022B3
__end_of_SER_Send_Prompt               text75       02EF5
__end_of_SER_Send_String               text79       0213F
__end_of_SER_Strx_To_Int               text57       026FE
__end_of_SND_CO_Params                 stringtext5  03036
__end_of_SND_Do_Chirp                  text86       02FA8
__end_of_SND_Get_State                 text23       02ED4
__end_of_SND_Reset_Task                text31       02EEE
__end_of_SND_Set_Chirp_Cnt             text85       02F16
__end_of_SND_Trouble_Manager           text3        01E9B
__end_of_SYS_Calc_Checksum             text50       02121
__end_of_SYS_Calc_Ram_Checksum         text72       021D9
__end_of_SYS_Init                      text48       023C6
__end_of_SYS_Load                      text49       0217B
__end_of_SYS_Save                      text71       02104
__end_of_SYS_Validate_Data_Structure   text17       02F5F
__end_of_SounderTask                   text5        01180
__end_of_TaskNumbers                   stringtext4  03068
__end_of_TaskTable                     stringtext3  02876
__end_of_Update_Peak_PPM               text66       007FB
__end_of_VCE_Process                   text16       02F6B
__end_of_Wifi_Module_Disable           text22       02EFC
__end_of_Wifi_Module_Enable            text26       02F04
__end_of___aldiv                       text81       01094
__end_of___lbmod                       text84       021B9
__end_of___lldiv                       text70       027A1
__end_of___lmul                        text80       02396
__end_of___lwdiv                       text93       0242B
__end_of___lwmod                       text78       022DF
__end_of___wmul                        text56       02073
__end_of__initialization               cinit        0006B
__end_of_itoa                          text77       019D5
__end_of_main                          maintext     007A8
__end_of_main_interrupt_routine        intentry     00017
__end_of_strlen                        text58       02025
__initialization                       cinit        00019
__pbssBANK0                            bssBANK0     0005F
__pbssBANK1                            bssBANK1     000B0
__pbssBANK2                            bssBANK2     00120
__pbssBANK3                            bssBANK3     001A0
__pbssBANK4                            bssBANK4     00220
__pcstackBANK0                         cstackBANK0  00020
__pcstackBANK1                         cstackBANK1  000D5
__pcstackCOMMON                        cstackCOMMON 00070
__pdataBANK1                           dataBANK1    000ED
__pdataBANK2                           dataBANK2    0015D
__pdataBANK3                           dataBANK3    001EE
__pdataEEDATA                          dataEEDATA   00000
__pidataBANK1                          idataBANK1   00002
__pidataBANK2                          idataBANK2   02000
__pidataBANK3                          idataBANK3   02ED4
__pidataEEDATA                         idataEEDATA  00000
__pintentry                            intentry     00004
__pmaintext                            maintext     00537
__pnvBANK0                             nvBANK0      00065
__pnvBANK1                             nvBANK1      000EF
__pnvBANK2                             nvBANK2      0016A
__pnvBANK3                             nvBANK3      001EC
__pnvBANK4                             nvBANK4      00251
__pstringtext1                         stringtext1  02800
__pstringtext10                        stringtext10 0303F
__pstringtext11                        stringtext11 03048
__pstringtext12                        stringtext12 03050
__pstringtext13                        stringtext13 03058
__pstringtext14                        stringtext14 0305F
__pstringtext15                        stringtext15 03068
__pstringtext16                        stringtext16 0306C
__pstringtext17                        stringtext17 0306F
__pstringtext18                        stringtext18 03072
__pstringtext19                        stringtext19 00000
__pstringtext2                         stringtext2  02832
__pstringtext3                         stringtext3  02856
__pstringtext4                         stringtext4  03064
__pstringtext5                         stringtext5  0302D
__pstringtext6                         stringtext6  03000
__pstringtext7                         stringtext7  03011
__pstringtext8                         stringtext8  03022
__pstringtext9                         stringtext9  03036
__ptext1                               text1        02F77
__ptext10                              text10       0093F
__ptext100                             text100      02073
__ptext101                             text101      02FEA
__ptext102                             text102      02495
__ptext103                             text103      02F48
__ptext104                             text104      02F04
__ptext105                             text105      0217B
__ptext106                             text106      0223E
__ptext11                              text11       014C3
__ptext12                              text12       01280
__ptext13                              text13       0164F
__ptext14                              text14       01180
__ptext15                              text15       026FE
__ptext16                              text16       02F5F
__ptext17                              text17       02F53
__ptext18                              text18       024CD
__ptext19                              text19       007FB
__ptext2                               text2        01E9B
__ptext20                              text20       02F3E
__ptext21                              text21       0083A
__ptext22                              text22       02EF5
__ptext23                              text23       02ED2
__ptext24                              text24       02FB5
__ptext25                              text25       02579
__ptext26                              text26       02EFC
__ptext27                              text27       021D9
__ptext28                              text28       02025
__ptext29                              text29       02FD6
__ptext3                               text3        01DF2
__ptext30                              text30       0242B
__ptext31                              text31       02EE8
__ptext32                              text32       019D5
__ptext33                              text33       02339
__ptext34                              text34       027A1
__ptext35                              text35       025F4
__ptext36                              text36       01001
__ptext37                              text37       01A4D
__ptext38                              text38       02632
__ptext39                              text39       0203E
__ptext4                               text4        01AC7
__ptext40                              text40       01833
__ptext41                              text41       02F34
__ptext42                              text42       02ED0
__ptext43                              text43       0230C
__ptext44                              text44       0006F
__ptext45                              text45       02EE2
__ptext46                              text46       02ED9
__ptext47                              text47       02264
__ptext48                              text48       02396
__ptext49                              text49       0215D
__ptext5                               text5        01094
__ptext50                              text50       02104
__ptext51                              text51       0213F
__ptext52                              text52       01896
__ptext53                              text53       0245F
__ptext54                              text54       00800
__ptext55                              text55       00CD5
__ptext56                              text56       02058
__ptext57                              text57       026B1
__ptext58                              text58       0200D
__ptext59                              text59       022DF
__ptext6                               text6        00B0A
__ptext60                              text60       02FA8
__ptext61                              text61       02FC2
__ptext62                              text62       01D59
__ptext63                              text63       01B43
__ptext64                              text64       01004
__ptext65                              text65       01C42
__ptext66                              text66       007A8
__ptext67                              text67       018FC
__ptext68                              text68       02671
__ptext69                              text69       01BC2
__ptext7                               text7        01CC3
__ptext70                              text70       0274F
__ptext71                              text71       020E7
__ptext72                              text72       021B9
__ptext73                              text73       01F4A
__ptext74                              text74       020CA
__ptext75                              text75       02EEE
__ptext76                              text76       0228A
__ptext77                              text77       01966
__ptext78                              text78       022B3
__ptext79                              text79       02121
__ptext8                               text8        0221C
__ptext80                              text80       02367
__ptext81                              text81       01012
__ptext82                              text82       021FA
__ptext83                              text83       01801
__ptext84                              text84       0219A
__ptext85                              text85       02F0D
__ptext86                              text86       02F9B
__ptext87                              text87       02ED6
__ptext88                              text88       02F2A
__ptext89                              text89       02F20
__ptext9                               text9        02F6B
__ptext90                              text90       02F16
__ptext91                              text91       023C6
__ptext92                              text92       020AD
__ptext93                              text93       023F7
__ptext94                              text94       0253F
__ptext95                              text95       02EDC
__ptext96                              text96       02505
__ptext97                              text97       01381
__ptext98                              text98       025B6
__ptext99                              text99       02090
__size_of_A2D_Convert                  (abs)        00000
__size_of_A2D_Test_AC                  (abs)        00000
__size_of_ALM_Alarm_Bat_Conserve_Logic (abs)        00000
__size_of_ALM_Init_Bat_Conserve_Timer  (abs)        00000
__size_of_Age_Correct_PPM              (abs)        00000
__size_of_AlarmPriorityTask            (abs)        00000
__size_of_BAT_Do_Test                  (abs)        00000
__size_of_BAT_Init_LB_Hush             (abs)        00000
__size_of_BAT_Set_Test_Interval        (abs)        00000
__size_of_BTN_Task                     (abs)        00000
__size_of_BatteryTest_Task             (abs)        00000
__size_of_CAL_Get_State                (abs)        00000
__size_of_CAL_Init                     (abs)        00000
__size_of_CAL_Manager                  (abs)        00000
__size_of_COAlarmTask                  (abs)        00000
__size_of_COAlarm_Init                 (abs)        00000
__size_of_COMeasureTask                (abs)        00000
__size_of_Calculate_Filter_PPM         (abs)        00000
__size_of_Calculate_PPM                (abs)        00000
__size_of_Command_Processor            (abs)        00000
__size_of_DebugTask                    (abs)        00000
__size_of_Diag_Hist_Bat_Record         (abs)        00000
__size_of_Diag_Hist_EE_Error           (abs)        00000
__size_of_Diag_Hist_Que_Push           (abs)        00000
__size_of_Diag_Hist_Test_Peak          (abs)        00000
__size_of_Display_Get_Intensity        (abs)        00000
__size_of_Display_Set_Intensity        (abs)        00000
__size_of_Esc_Light_Process            (abs)        00000
__size_of_FLT_Fault_Manager            (abs)        00000
__size_of_Fault_Set_Fatal_Mode         (abs)        00000
__size_of_GLED_Blink                   (abs)        00000
__size_of_GLED_Manager                 (abs)        00000
__size_of_GLED_Off                     (abs)        00000
__size_of_Initialize_Engine            (abs)        00000
__size_of_LFE_Check                    (abs)        00000
__size_of_LFE_Check_Depassivation      (abs)        00000
__size_of_LFE_Check_EOL                (abs)        00000
__size_of_LFE_Depassivation            (abs)        00000
__size_of_LFE_UL_EOL_Snooze            (abs)        00000
__size_of_LIFE_Get_Current_Day         (abs)        00000
__size_of_Life_Init                    (abs)        00000
__size_of_Light_Analysis               (abs)        00000
__size_of_Light_Data_Init              (abs)        00000
__size_of_Light_Manager                (abs)        00000
__size_of_Light_Record                 (abs)        00000
__size_of_MAIN_Reset_Task              (abs)        00000
__size_of_MEAS_CO_Charge               (abs)        00000
__size_of_MEAS_Make_Measurement        (abs)        00000
__size_of_MEAS_Reset                   (abs)        00000
__size_of_MEAS_Send_Charge_Pulse       (abs)        00000
__size_of_Main_Calc_Current_Tics       (abs)        00000
__size_of_Main_Check_Low_Power_Logic   (abs)        00000
__size_of_Main_Check_Revision          (abs)        00000
__size_of_Main_Init_Power_Dly_Timer    (abs)        00000
__size_of_Main_Init_Powerup            (abs)        00000
__size_of_Main_Initialize              (abs)        00000
__size_of_Main_Recalc_Int_Active       (abs)        00000
__size_of_Main_Recalc_Int_Standby      (abs)        00000
__size_of_Main_Reset_Sleep_Timer       (abs)        00000
__size_of_Main_Set_Active              (abs)        00000
__size_of_Main_Set_Low_Power           (abs)        00000
__size_of_Main_Wait_T1Osc_Stable       (abs)        00000
__size_of_Make_Return_Value            (abs)        00000
__size_of_Memory_Byte_Read             (abs)        00000
__size_of_Memory_Byte_Write            (abs)        00000
__size_of_Memory_Byte_Write_Verify     (abs)        00000
__size_of_Memory_Read_Block            (abs)        00000
__size_of_Memory_Write_Block           (abs)        00000
__size_of_PTT_Task                     (abs)        00000
__size_of_Payload_Output               (abs)        00000
__size_of_Peak_BTN_Get_State           (abs)        00000
__size_of_Peak_BTN_Task                (abs)        00000
__size_of_SER_Enable_Init              (abs)        00000
__size_of_SER_Init                     (abs)        00000
__size_of_SER_Process_Rx               (abs)        00000
__size_of_SER_Send_Byte                (abs)        00000
__size_of_SER_Send_Char                (abs)        00000
__size_of_SER_Send_Int                 (abs)        00000
__size_of_SER_Send_Prompt              (abs)        00000
__size_of_SER_Send_String              (abs)        00000
__size_of_SER_Strx_To_Int              (abs)        00000
__size_of_SND_Do_Chirp                 (abs)        00000
__size_of_SND_Get_State                (abs)        00000
__size_of_SND_Reset_Task               (abs)        00000
__size_of_SND_Set_Chirp_Cnt            (abs)        00000
__size_of_SND_Trouble_Manager          (abs)        00000
__size_of_SYS_Calc_Checksum            (abs)        00000
__size_of_SYS_Calc_Ram_Checksum        (abs)        00000
__size_of_SYS_Init                     (abs)        00000
__size_of_SYS_Load                     (abs)        00000
__size_of_SYS_Save                     (abs)        00000
__size_of_SYS_Validate_Data_Structure  (abs)        00000
__size_of_SounderTask                  (abs)        00000
__size_of_Update_Peak_PPM              (abs)        00000
__size_of_VCE_Process                  (abs)        00000
__size_of_Wifi_Module_Disable          (abs)        00000
__size_of_Wifi_Module_Enable           (abs)        00000
__size_of___aldiv                      (abs)        00000
__size_of___lbmod                      (abs)        00000
__size_of___lldiv                      (abs)        00000
__size_of___lmul                       (abs)        00000
__size_of___lwdiv                      (abs)        00000
__size_of___lwmod                      (abs)        00000
__size_of___wmul                       (abs)        00000
__size_of_itoa                         (abs)        00000
__size_of_main                         (abs)        00000
__size_of_main_interrupt_routine       (abs)        00000
__size_of_strlen                       (abs)        00000
_b1HourCount                           dataBANK2    00164
_b1SecCount                            dataBANK2    00166
_b1SecTimer                            bssBANK2     00139
_bErrorConversionCount                 bssBANK1     000C9
_bErrorShortCount                      bssBANK1     000C8
_bOneMinuteTic                         bssBANK1     000D1
_bPPMFilterCount                       bssBANK1     000CC
_bTestCounter                          bssBANK1     000CA
_btn_press_clr                         bssBANK2     0013C
_button_press_counter                  bssBANK2     00147
_cmd_returns_clr                       bssBANK2     0013B
_current_address                       bssBANK3     001AC
_event_buf                             bssBANK2     00159
_itoa                                  text77       01966
_main                                  maintext     00537
_main$3866                             cstackBANK0  00059
_main_interrupt_routine                intentry     00004
_ptrSoundParams                        bssBANK1     000B0
_receive_buffer                        bssBANK4     00220
_strlen                                text58       0200D
_wCalibrationAverage                   bssBANK1     000BA
_wEOLHushTimer                         bssBANK3     001A2
_wPPM                                  bssBANK1     000BC
_wPeakPPM                              nvBANK2      0016E
_wPrev_RawCOCount                      bssBANK2     0012A
_wRawAvgCOCounts                       bssBANK2     0012C
_wRawCOCounts                          bssBANK1     000B8
_wTest_Baseline                        bssBANK3     001AE
_wTimerLifeCount                       bssBANK3     001A4
_wVout_Baseline                        bssBANK1     000B6
_wifi_power_off_timeout                bssBANK2     0013E
btemp                                  (abs)        0007E
clear_ram0                             clrtext      02F83
end_of_initialization                  cinit        0006B
init_ram                               inittext     02F8F
int$flags                              (abs)        0007E
intlevel0                              functab      00000
intlevel1                              functab      00000
intlevel2                              functab      00000
intlevel3                              functab      00000
intlevel4                              functab      00000
intlevel5                              functab      00000
itoa@absQModB                          cstackBANK0  00020
itoa@base                              cstackCOMMON 0007B
itoa@out                               cstackBANK0  00026
itoa@quotient                          cstackBANK0  00023
itoa@result                            cstackCOMMON 0007A
itoa@start                             cstackBANK0  00025
itoa@temp                              cstackBANK0  00022
itoa@value                             cstackCOMMON 00078
main@i                                 cstackBANK0  0005D
main@interval                          cstackBANK0  0005B
reset_vec                              reset_vec    00000
start                                  init         00017
start_initialization                   cinit        00019
strlen@cp                              cstackCOMMON 00074
strlen@s                               cstackCOMMON 00073
wtemp0                                 (abs)        0007E


MODULE INFORMATION

Module		Function		Class		Link	Load	Size
serial.c
		_SER_Enable_Init		CODE           	2F3E	0000	10
		_SER_Strx_To_Int		CODE           	26B1	0000	77
		_SER_Send_String		CODE           	2121	0000	30
		_SER_Send_Prompt		CODE           	2EEE	0000	7
		_SER_Process_Rx		CODE           	24CD	0000	56
		_SER_Init      		CODE           	07FB	0000	5
		_itoa          		CODE           	1966	0000	111
		_SER_Send_Int  		CODE           	228A	0000	41
		_SER_Send_Char 		CODE           	2FA8	0000	13
		_SER_Send_Byte 		CODE           	22DF	0000	45

serial.c estimated size: 395

button.c
		_BTN_Task      		CODE           	164F	0000	433

button.c estimated size: 433

diaghist.c
		_Diag_Hist_Que_Push		CODE           	1381	0000	322
		_Diag_Hist_Test_Peak		CODE           	18FC	0000	106
		_Diag_Hist_EE_Error		CODE           	2FEA	0000	22
		_Diag_Hist_Bat_Record		CODE           	0800	0000	58

diaghist.c estimated size: 508

alarmprio.c
		_AlarmPriorityTask		CODE           	26FE	0000	81
		_ALM_Alarm_Bat_Conserve_Logic		CODE           	253F	0000	58
		_ALM_Init_Bat_Conserve_Timer		CODE           	2EDC	0000	6

alarmprio.c estimated size: 145

peak_button.c
		_Peak_BTN_Task 		CODE           	1E9B	0000	175
		_Peak_BTN_Get_State		CODE           	2ED6	0000	3

peak_button.c estimated size: 178

C:\Program Files\Microchip\xc8\v2.32\pic\sources\c90\common\Umul32.c
		___lmul        		CODE           	2367	0000	47

C:\Program Files\Microchip\xc8\v2.32\pic\sources\c90\common\Umul32.c estimated size: 47

greenled.c
		_GLED_Blink    		CODE           	221C	0000	34
		_GLED_Manager  		CODE           	1CC3	0000	150
		_GLED_Off      		CODE           	1001	0000	3

greenled.c estimated size: 187

systemdata.c
		_SYS_Calc_Checksum		CODE           	2104	0000	29
		_SYS_Init      		CODE           	2396	0000	48
		_SYS_Save      		CODE           	20E7	0000	29
		_SYS_Load      		CODE           	215D	0000	30
		_SYS_Validate_Data_Structure		CODE           	2F53	0000	12
		_SYS_Calc_Ram_Checksum		CODE           	21B9	0000	32

systemdata.c estimated size: 180

fault.c
		_Fault_Set_Fatal_Mode		CODE           	20CA	0000	29
		_FLT_Fault_Manager		CODE           	1F4A	0000	182

fault.c estimated size: 211

C:\Program Files\Microchip\xc8\v2.32\pic\sources\c90\common\strlen.c
		_strlen        		CODE           	200D	0000	24

C:\Program Files\Microchip\xc8\v2.32\pic\sources\c90\common\strlen.c estimated size: 24

Voice.c
		_VCE_Process   		CODE           	2F5F	0000	12

Voice.c estimated size: 12

cocalibrate.c
		_CAL_Init      		CODE           	2632	0000	63
		_CAL_Get_State 		CODE           	217B	0000	31
		_CAL_Manager   		CODE           	14C3	0000	396

cocalibrate.c estimated size: 490

memory_1936.c
		_Memory_Read_Block		CODE           	2090	0000	29
		_Memory_Byte_Write		CODE           	2495	0000	56
		_Memory_Write_Block		CODE           	25B6	0000	62
		_Memory_Byte_Write_Verify		CODE           	2073	0000	29
		_Memory_Byte_Read		CODE           	2F48	0000	11

memory_1936.c estimated size: 187

C:\Program Files\Microchip\xc8\v2.32\pic\sources\c90\common\lwmod.c
		___lwmod       		CODE           	22B3	0000	44

C:\Program Files\Microchip\xc8\v2.32\pic\sources\c90\common\lwmod.c estimated size: 44

esclight.c
		_Esc_Light_Process		CODE           	2F6B	0000	12

esclight.c estimated size: 12

command_proc.c
		_Command_Processor		CODE           	0CD5	0000	811

command_proc.c estimated size: 811

coalarm.c
		_COAlarmTask   		CODE           	1280	0000	257
		_COAlarm_Init  		CODE           	2F34	0000	10

coalarm.c estimated size: 267

a2d.c
		_A2D_Test_AC   		CODE           	2505	0000	58
		_A2D_Convert   		CODE           	223E	0000	38

a2d.c estimated size: 96

battery.c
		_BAT_Do_Test   		CODE           	1801	0000	50
		_BAT_Set_Test_Interval		CODE           	21FA	0000	34
		_BAT_Init_LB_Hush		CODE           	2F16	0000	10
		_BatteryTest_Task		CODE           	1180	0000	256

battery.c estimated size: 350

shared
		_Main_Mode     		STRCODE        	2832	0000	36
		_CharTable     		STRCODE        	0000	0000	0
		_TaskTable     		STRCODE        	2856	0000	32
		__initialization		CODE           	0019	0000	82
		_TaskNumbers   		STRCODE        	3064	0000	4
		_SND_CO_Params 		STRCODE        	302D	0000	9

shared estimated size: 163

led_display.c
		_Display_Get_Intensity		CODE           	2ED9	0000	3
		_Display_Set_Intensity		CODE           	2EE2	0000	6

led_display.c estimated size: 9

light.c
		_Light_Analysis		CODE           	006F	0000	1224
		_Light_Manager 		CODE           	0B0A	0000	459
		_Light_Data_Init		CODE           	1833	0000	99
		_Light_Record  		CODE           	230C	0000	45

light.c estimated size: 1827

cocompute.c
		_Calculate_Filter_PPM		CODE           	2671	0000	64
		_Age_Correct_PPM		CODE           	1BC2	0000	128
		_Calculate_PPM 		CODE           	1C42	0000	129
		_Update_Peak_PPM		CODE           	07A8	0000	83

cocompute.c estimated size: 404

life.c
		_LFE_Check_Depassivation		CODE           	2FC2	0000	20
		_LFE_Check     		CODE           	1896	0000	102
		_Life_Init     		CODE           	2264	0000	38
		_LFE_Depassivation		CODE           	213F	0000	30
		_LFE_Check_EOL 		CODE           	245F	0000	54
		_LIFE_Get_Current_Day		CODE           	2F04	0000	9
		_LFE_UL_EOL_Snooze		CODE           	2F20	0000	10

life.c estimated size: 263

C:\Program Files\Microchip\xc8\v2.32\pic\sources\c90\common\lwdiv.c
		___lwdiv       		CODE           	23F7	0000	52

C:\Program Files\Microchip\xc8\v2.32\pic\sources\c90\common\lwdiv.c estimated size: 52

C:\Program Files\Microchip\xc8\v2.32\pic\sources\c90\common\Umul16.c
		___wmul        		CODE           	2058	0000	27

C:\Program Files\Microchip\xc8\v2.32\pic\sources\c90\common\Umul16.c estimated size: 27

main.c
		_Main_Set_Low_Power		CODE           	242B	0000	52
		_Payload_Output		CODE           	083A	0000	261
		_Main_Init_Power_Dly_Timer		CODE           	2F2A	0000	10
		_Main_Recalc_Int_Standby		CODE           	19D5	0000	120
		_Wifi_Module_Enable		CODE           	2EFC	0000	8
		_Main_Wait_T1Osc_Stable		CODE           	21D9	0000	33
		_main          		CODE           	0537	0000	625
		_Main_Check_Revision		CODE           	2ED0	0000	2
		_Main_Reset_Sleep_Timer		CODE           	2025	0000	25
		_Main_Init_Powerup		CODE           	203E	0000	26
		_Make_Return_Value		CODE           	20AD	0000	29
		_DebugTask     		CODE           	2F77	0000	12
		_Main_Check_Low_Power_Logic		CODE           	2FD6	0000	20
		_Main_Initialize		CODE           	2579	0000	61
		_Initialize_Engine		CODE           	1A4D	0000	122
		_Wifi_Module_Disable		CODE           	2EF5	0000	7
		_MAIN_Reset_Task		CODE           	23C6	0000	49
		_Main_Calc_Current_Tics		CODE           	25F4	0000	62
		_Main_Set_Active		CODE           	2339	0000	46
		_Main_Recalc_Int_Active		CODE           	27A1	0000	95
		_main_interrupt_routine		CODE           	0004	0000	19

main.c estimated size: 1684

C:\Program Files\Microchip\xc8\v2.32\pic\sources\c90\common\lbmod.c
		___lbmod       		CODE           	219A	0000	31

C:\Program Files\Microchip\xc8\v2.32\pic\sources\c90\common\lbmod.c estimated size: 31

ptt.c
		_PTT_Task      		CODE           	1AC7	0000	124

ptt.c estimated size: 124

comeasure.c
		_MEAS_Make_Measurement		CODE           	1D59	0000	153
		_MEAS_CO_Charge		CODE           	1B43	0000	127
		_COMeasureTask 		CODE           	093F	0000	459
		_MEAS_Reset    		CODE           	2FB5	0000	13
		_MEAS_Send_Charge_Pulse		CODE           	1004	0000	14

comeasure.c estimated size: 766

C:\Program Files\Microchip\xc8\v2.32\pic\sources\c90\common\aldiv.c
		___aldiv       		CODE           	1012	0000	130

C:\Program Files\Microchip\xc8\v2.32\pic\sources\c90\common\aldiv.c estimated size: 130

sound.c
		_SND_Trouble_Manager		CODE           	1DF2	0000	169
		_SND_Do_Chirp  		CODE           	2F9B	0000	13
		_SounderTask   		CODE           	1094	0000	236
		_SND_Get_State 		CODE           	2ED2	0000	2
		_SND_Set_Chirp_Cnt		CODE           	2F0D	0000	9
		_SND_Reset_Task		CODE           	2EE8	0000	6

sound.c estimated size: 435

C:\Program Files\Microchip\xc8\v2.32\pic\sources\c90\common\__lldiv.c
		___lldiv       		CODE           	274F	0000	82

C:\Program Files\Microchip\xc8\v2.32\pic\sources\c90\common\__lldiv.c estimated size: 82

