

Microchip MPLAB XC8 Assembler V2.32 build 20210201212658 
                                                                                               Wed Dec 15 15:10:10 2021

Microchip MPLAB XC8 C Compiler v2.32 (Free license) build 20210201212658 Og9 
     1                           	processor	16LF1938
     2                           	pagewidth 120
     3                           	opt	flic
     4                           	psect	idataBANK1,global,class=CODE,delta=2,noexec
     5                           	psect	idataBANK2,global,class=CODE,delta=2,noexec
     6                           	psect	idataBANK3,global,class=CODE,delta=2,noexec
     7                           	psect	idataEEDATA,global,class=EEDATA,space=3,delta=2,noexec
     8                           	psect	stringtext1,global,class=STRCODE,delta=2,noexec
     9                           	psect	stringtext2,global,class=STRCODE,delta=2,noexec
    10                           	psect	stringtext3,global,class=STRCODE,delta=2,noexec
    11                           	psect	stringtext4,global,class=STRCODE,delta=2,noexec
    12                           	psect	stringtext5,global,class=STRCODE,delta=2,noexec
    13                           	psect	nvBANK0,global,class=BANK0,space=1,delta=1,noexec
    14                           	psect	nvBANK1,global,class=BANK1,space=1,delta=1,noexec
    15                           	psect	nvBANK2,global,class=BANK2,space=1,delta=1,noexec
    16                           	psect	nvBANK3,global,class=BANK3,space=1,delta=1,noexec
    17                           	psect	nvBANK4,global,class=BANK4,space=1,delta=1,noexec
    18                           	psect	stringtext6,global,class=STRCODE,delta=2,noexec
    19                           	psect	stringtext7,global,class=STRCODE,delta=2,noexec
    20                           	psect	stringtext8,global,class=STRCODE,delta=2,noexec
    21                           	psect	stringtext9,global,class=STRCODE,delta=2,noexec
    22                           	psect	stringtext10,global,class=STRCODE,delta=2,noexec
    23                           	psect	stringtext11,global,class=STRCODE,delta=2,noexec
    24                           	psect	stringtext12,global,class=STRCODE,delta=2,noexec
    25                           	psect	stringtext13,global,class=STRCODE,delta=2,noexec
    26                           	psect	stringtext14,global,class=STRCODE,delta=2,noexec
    27                           	psect	stringtext15,global,class=STRCODE,delta=2,noexec
    28                           	psect	stringtext16,global,class=STRCODE,delta=2,noexec
    29                           	psect	stringtext17,global,class=STRCODE,delta=2,noexec
    30                           	psect	stringtext18,global,class=STRCODE,delta=2,noexec
    31                           	psect	stringtext19,global,class=STRCODE,delta=2,noexec
    32                           	psect	cinit,global,class=CODE,merge=1,delta=2
    33                           	psect	dataEEDATA,global,class=EEDATA,space=3,delta=2,noexec
    34                           	psect	bssBANK0,global,class=BANK0,space=1,delta=1,noexec
    35                           	psect	bssBANK1,global,class=BANK1,space=1,delta=1,noexec
    36                           	psect	dataBANK1,global,class=BANK1,space=1,delta=1,noexec
    37                           	psect	bssBANK2,global,class=BANK2,space=1,delta=1,noexec
    38                           	psect	dataBANK2,global,class=BANK2,space=1,delta=1,noexec
    39                           	psect	bssBANK3,global,class=BANK3,space=1,delta=1,noexec
    40                           	psect	dataBANK3,global,class=BANK3,space=1,delta=1,noexec
    41                           	psect	bssBANK4,global,class=BANK4,space=1,delta=1,noexec
    42                           	psect	inittext,global,class=CODE,delta=2
    43                           	psect	clrtext,global,class=CODE,delta=2
    44                           	psect	cstackBANK1,global,class=BANK1,space=1,delta=1,noexec
    45                           	psect	cstackCOMMON,global,class=COMMON,space=1,delta=1,noexec
    46                           	psect	cstackBANK0,global,class=BANK0,space=1,delta=1,noexec
    47                           	psect	maintext,global,class=CODE,merge=1,split=1,delta=2
    48                           	psect	text1,local,class=CODE,merge=1,delta=2
    49                           	psect	text2,local,class=CODE,merge=1,delta=2
    50                           	psect	text3,local,class=CODE,merge=1,delta=2
    51                           	psect	text4,local,class=CODE,merge=1,delta=2
    52                           	psect	text5,local,class=CODE,merge=1,delta=2
    53                           	psect	text6,local,class=CODE,merge=1,delta=2
    54                           	psect	text7,local,class=CODE,merge=1,delta=2
    55                           	psect	text8,local,class=CODE,merge=1,delta=2
    56                           	psect	text9,local,class=CODE,merge=1,delta=2
    57                           	psect	text10,local,class=CODE,merge=1,delta=2
    58                           	psect	text11,local,class=CODE,merge=1,delta=2
    59                           	psect	text12,local,class=CODE,merge=1,delta=2
    60                           	psect	text13,local,class=CODE,merge=1,delta=2
    61                           	psect	text14,local,class=CODE,merge=1,delta=2
    62                           	psect	text15,local,class=CODE,merge=1,delta=2
    63                           	psect	text16,local,class=CODE,merge=1,delta=2
    64                           	psect	text17,local,class=CODE,merge=1,delta=2
    65                           	psect	text18,local,class=CODE,merge=1,delta=2
    66                           	psect	text19,local,class=CODE,merge=1,delta=2
    67                           	psect	text20,local,class=CODE,merge=1,delta=2
    68                           	psect	text21,local,class=CODE,merge=1,delta=2
    69                           	psect	text22,local,class=CODE,merge=1,delta=2
    70                           	psect	text23,local,class=CODE,merge=1,delta=2
    71                           	psect	text24,local,class=CODE,merge=1,delta=2
    72                           	psect	text25,local,class=CODE,merge=1,delta=2
    73                           	psect	text26,local,class=CODE,merge=1,delta=2
    74                           	psect	text27,local,class=CODE,merge=1,delta=2
    75                           	psect	text28,local,class=CODE,merge=1,delta=2
    76                           	psect	text29,local,class=CODE,merge=1,delta=2
    77                           	psect	text30,local,class=CODE,merge=1,delta=2
    78                           	psect	text31,local,class=CODE,merge=1,delta=2
    79                           	psect	text32,local,class=CODE,merge=1,delta=2
    80                           	psect	text33,local,class=CODE,merge=1,delta=2
    81                           	psect	text34,local,class=CODE,merge=1,delta=2
    82                           	psect	text35,local,class=CODE,merge=1,delta=2
    83                           	psect	text36,local,class=CODE,merge=1,delta=2
    84                           	psect	text37,local,class=CODE,merge=1,delta=2
    85                           	psect	text38,local,class=CODE,merge=1,delta=2
    86                           	psect	text39,local,class=CODE,merge=1,delta=2
    87                           	psect	text40,local,class=CODE,merge=1,delta=2
    88                           	psect	text41,local,class=CODE,merge=1,delta=2
    89                           	psect	text42,local,class=CODE,merge=1,delta=2
    90                           	psect	text43,local,class=CODE,merge=1,delta=2
    91                           	psect	text44,local,class=CODE,merge=1,delta=2
    92                           	psect	text45,local,class=CODE,merge=1,delta=2
    93                           	psect	text46,local,class=CODE,merge=1,delta=2,group=2
    94                           	psect	text47,local,class=CODE,merge=1,delta=2
    95                           	psect	text48,local,class=CODE,merge=1,delta=2
    96                           	psect	text49,local,class=CODE,merge=1,delta=2,group=1
    97                           	psect	text50,local,class=CODE,merge=1,delta=2
    98                           	psect	text51,local,class=CODE,merge=1,delta=2
    99                           	psect	text52,local,class=CODE,merge=1,delta=2
   100                           	psect	text53,local,class=CODE,merge=1,delta=2
   101                           	psect	text54,local,class=CODE,merge=1,delta=2
   102                           	psect	text55,local,class=CODE,merge=1,delta=2
   103                           	psect	text56,local,class=CODE,merge=1,delta=2
   104                           	psect	text57,local,class=CODE,merge=1,delta=2
   105                           	psect	text58,local,class=CODE,merge=1,delta=2
   106                           	psect	text59,local,class=CODE,merge=1,delta=2
   107                           	psect	text60,local,class=CODE,merge=1,delta=2
   108                           	psect	text61,local,class=CODE,merge=1,delta=2
   109                           	psect	text62,local,class=CODE,merge=1,delta=2
   110                           	psect	text63,local,class=CODE,merge=1,delta=2
   111                           	psect	text64,local,class=CODE,merge=1,delta=2
   112                           	psect	text65,local,class=CODE,merge=1,delta=2
   113                           	psect	text66,local,class=CODE,merge=1,delta=2
   114                           	psect	text67,local,class=CODE,merge=1,delta=2
   115                           	psect	text68,local,class=CODE,merge=1,delta=2
   116                           	psect	text69,local,class=CODE,merge=1,delta=2,group=1
   117                           	psect	text70,local,class=CODE,merge=1,delta=2
   118                           	psect	text71,local,class=CODE,merge=1,delta=2
   119                           	psect	text72,local,class=CODE,merge=1,delta=2
   120                           	psect	text73,local,class=CODE,merge=1,delta=2
   121                           	psect	text74,local,class=CODE,merge=1,delta=2
   122                           	psect	text75,local,class=CODE,merge=1,delta=2
   123                           	psect	text76,local,class=CODE,merge=1,delta=2
   124                           	psect	text77,local,class=CODE,merge=1,delta=2,group=1
   125                           	psect	text78,local,class=CODE,merge=1,delta=2
   126                           	psect	text79,local,class=CODE,merge=1,delta=2,group=1
   127                           	psect	text80,local,class=CODE,merge=1,delta=2,group=1
   128                           	psect	text81,local,class=CODE,merge=1,delta=2
   129                           	psect	text82,local,class=CODE,merge=1,delta=2
   130                           	psect	text83,local,class=CODE,merge=1,delta=2
   131                           	psect	text84,local,class=CODE,merge=1,delta=2
   132                           	psect	text85,local,class=CODE,merge=1,delta=2
   133                           	psect	text86,local,class=CODE,merge=1,delta=2
   134                           	psect	text87,local,class=CODE,merge=1,delta=2
   135                           	psect	text88,local,class=CODE,merge=1,delta=2
   136                           	psect	text89,local,class=CODE,merge=1,delta=2
   137                           	psect	text90,local,class=CODE,merge=1,delta=2,group=1
   138                           	psect	text91,local,class=CODE,merge=1,delta=2
   139                           	psect	text92,local,class=CODE,merge=1,delta=2
   140                           	psect	text93,local,class=CODE,merge=1,delta=2
   141                           	psect	text94,local,class=CODE,merge=1,delta=2
   142                           	psect	text95,local,class=CODE,merge=1,delta=2
   143                           	psect	text96,local,class=CODE,merge=1,delta=2
   144                           	psect	text97,local,class=CODE,merge=1,delta=2
   145                           	psect	text98,local,class=CODE,merge=1,delta=2
   146                           	psect	text99,local,class=CODE,merge=1,delta=2
   147                           	psect	text100,local,class=CODE,merge=1,delta=2
   148                           	psect	text101,local,class=CODE,merge=1,delta=2
   149                           	psect	text102,local,class=CODE,merge=1,delta=2
   150                           	psect	text103,local,class=CODE,merge=1,delta=2
   151                           	psect	intentry,global,class=CODE,delta=2
   152                           	psect	config,global,abs,ovrld,class=CONFIG,space=4,delta=2,noexec
   153                           	dabs	1,0x620,48
   154                           	dabs	1,0x5A8,72
   155                           	dabs	1,0xA0,16,_SYS_RamData
   156                           	dabs	1,0x2378,0,_Hour
   157                           	dabs	1,0x7E,2
   158  0000                     
   159                           ; Version 2.20
   160                           ; Generated 12/02/2020 GMT
   161                           ; 
   162                           ; Copyright © 2020, Microchip Technology Inc. and its subsidiaries ("Microchip")
   163                           ; All rights reserved.
   164                           ; 
   165                           ; This software is developed by Microchip Technology Inc. and its subsidiaries ("Microch
      +                          ip").
   166                           ; 
   167                           ; Redistribution and use in source and binary forms, with or without modification, are
   168                           ; permitted provided that the following conditions are met:
   169                           ; 
   170                           ;     1. Redistributions of source code must retain the above copyright notice, this lis
      +                          t of
   171                           ;        conditions and the following disclaimer.
   172                           ; 
   173                           ;     2. Redistributions in binary form must reproduce the above copyright notice, this 
      +                          list
   174                           ;        of conditions and the following disclaimer in the documentation and/or other
   175                           ;        materials provided with the distribution.
   176                           ; 
   177                           ;     3. Microchip's name may not be used to endorse or promote products derived from th
      +                          is
   178                           ;        software without specific prior written permission.
   179                           ; 
   180                           ; THIS SOFTWARE IS PROVIDED BY MICROCHIP "AS IS" AND ANY EXPRESS OR IMPLIED WARRANTIES,
   181                           ; INCLUDING, BUT NOT LIMITED TO, THE IMPLIED WARRANTIES OF MERCHANTABILITY AND FITNESS F
      +                          OR
   182                           ; PURPOSE ARE DISCLAIMED.  IN NO EVENT SHALL MICROCHIP BE LIABLE FOR ANY DIRECT, INDIREC
      +                          T,
   183                           ; INCIDENTAL, SPECIAL, EXEMPLARY, OR CONSEQUENTIAL DAMAGES (INCLUDING BUT NOT LIMITED TO
   184                           ; PROCUREMENT OF SUBSTITUTE GOODS OR SERVICES; LOSS OF USE, DATA OR PROFITS; OR BUSINESS
   185                           ; INTERRUPTION) HOWSOEVER CAUSED AND ON ANY THEORY OF LIABILITY, WHETHER IN CONTRACT, ST
      +                          RICT
   186                           ; LIABILITY, OR TORT (INCLUDING NEGLIGENCE OR OTHERWISE) ARISING IN ANY WAY OUT OF THE U
      +                          SE OF
   187                           ; THIS SOFTWARE, EVEN IF ADVISED OF THE POSSIBILITY OF SUCH DAMAGE.
   188                           ; 
   189                           ; 
   190                           ; Code-generator required, PIC16LF1938 Definitions
   191                           ; 
   192                           ; SFR Addresses
   193  0000                     	;# 
   194  0001                     	;# 
   195  0002                     	;# 
   196  0003                     	;# 
   197  0004                     	;# 
   198  0005                     	;# 
   199  0006                     	;# 
   200  0007                     	;# 
   201  0008                     	;# 
   202  0009                     	;# 
   203  000A                     	;# 
   204  000B                     	;# 
   205  000C                     	;# 
   206  000D                     	;# 
   207  000E                     	;# 
   208  0010                     	;# 
   209  0011                     	;# 
   210  0012                     	;# 
   211  0013                     	;# 
   212  0015                     	;# 
   213  0016                     	;# 
   214  0016                     	;# 
   215  0017                     	;# 
   216  0018                     	;# 
   217  0019                     	;# 
   218  001A                     	;# 
   219  001B                     	;# 
   220  001C                     	;# 
   221  001E                     	;# 
   222  001F                     	;# 
   223  008C                     	;# 
   224  008D                     	;# 
   225  008E                     	;# 
   226  0090                     	;# 
   227  0091                     	;# 
   228  0092                     	;# 
   229  0093                     	;# 
   230  0095                     	;# 
   231  0096                     	;# 
   232  0097                     	;# 
   233  0098                     	;# 
   234  0099                     	;# 
   235  009A                     	;# 
   236  009B                     	;# 
   237  009B                     	;# 
   238  009C                     	;# 
   239  009D                     	;# 
   240  009E                     	;# 
   241  010C                     	;# 
   242  010D                     	;# 
   243  010E                     	;# 
   244  0110                     	;# 
   245  0111                     	;# 
   246  0112                     	;# 
   247  0113                     	;# 
   248  0114                     	;# 
   249  0115                     	;# 
   250  0116                     	;# 
   251  0117                     	;# 
   252  0118                     	;# 
   253  0119                     	;# 
   254  011A                     	;# 
   255  011B                     	;# 
   256  011D                     	;# 
   257  018C                     	;# 
   258  018D                     	;# 
   259  0191                     	;# 
   260  0191                     	;# 
   261  0192                     	;# 
   262  0193                     	;# 
   263  0193                     	;# 
   264  0193                     	;# 
   265  0194                     	;# 
   266  0195                     	;# 
   267  0196                     	;# 
   268  0199                     	;# 
   269  019A                     	;# 
   270  019B                     	;# 
   271  019B                     	;# 
   272  019B                     	;# 
   273  019B                     	;# 
   274  019C                     	;# 
   275  019C                     	;# 
   276  019D                     	;# 
   277  019E                     	;# 
   278  019F                     	;# 
   279  020D                     	;# 
   280  0210                     	;# 
   281  0211                     	;# 
   282  0212                     	;# 
   283  0213                     	;# 
   284  0214                     	;# 
   285  0215                     	;# 
   286  0215                     	;# 
   287  0216                     	;# 
   288  0217                     	;# 
   289  0291                     	;# 
   290  0291                     	;# 
   291  0292                     	;# 
   292  0293                     	;# 
   293  0294                     	;# 
   294  0295                     	;# 
   295  0295                     	;# 
   296  0296                     	;# 
   297  0298                     	;# 
   298  0298                     	;# 
   299  0299                     	;# 
   300  029A                     	;# 
   301  029B                     	;# 
   302  029C                     	;# 
   303  029C                     	;# 
   304  029D                     	;# 
   305  029E                     	;# 
   306  029F                     	;# 
   307  0311                     	;# 
   308  0311                     	;# 
   309  0312                     	;# 
   310  0313                     	;# 
   311  0314                     	;# 
   312  0315                     	;# 
   313  0315                     	;# 
   314  0316                     	;# 
   315  0318                     	;# 
   316  0318                     	;# 
   317  0319                     	;# 
   318  031A                     	;# 
   319  031C                     	;# 
   320  031C                     	;# 
   321  031D                     	;# 
   322  031E                     	;# 
   323  0394                     	;# 
   324  0395                     	;# 
   325  0396                     	;# 
   326  0415                     	;# 
   327  0416                     	;# 
   328  0417                     	;# 
   329  041C                     	;# 
   330  041D                     	;# 
   331  041E                     	;# 
   332  0791                     	;# 
   333  0792                     	;# 
   334  0793                     	;# 
   335  0794                     	;# 
   336  0795                     	;# 
   337  0798                     	;# 
   338  0799                     	;# 
   339  07A0                     	;# 
   340  07A1                     	;# 
   341  07A3                     	;# 
   342  07A4                     	;# 
   343  07A6                     	;# 
   344  07A7                     	;# 
   345  07A9                     	;# 
   346  07AA                     	;# 
   347  0FE4                     	;# 
   348  0FE5                     	;# 
   349  0FE6                     	;# 
   350  0FE7                     	;# 
   351  0FE8                     	;# 
   352  0FE9                     	;# 
   353  0FEA                     	;# 
   354  0FEB                     	;# 
   355  0FED                     	;# 
   356  0FEE                     	;# 
   357  0FEF                     	;# 
   358  0000                     	;# 
   359  0001                     	;# 
   360  0002                     	;# 
   361  0003                     	;# 
   362  0004                     	;# 
   363  0005                     	;# 
   364  0006                     	;# 
   365  0007                     	;# 
   366  0008                     	;# 
   367  0009                     	;# 
   368  000A                     	;# 
   369  000B                     	;# 
   370  000C                     	;# 
   371  000D                     	;# 
   372  000E                     	;# 
   373  0010                     	;# 
   374  0011                     	;# 
   375  0012                     	;# 
   376  0013                     	;# 
   377  0015                     	;# 
   378  0016                     	;# 
   379  0016                     	;# 
   380  0017                     	;# 
   381  0018                     	;# 
   382  0019                     	;# 
   383  001A                     	;# 
   384  001B                     	;# 
   385  001C                     	;# 
   386  001E                     	;# 
   387  001F                     	;# 
   388  008C                     	;# 
   389  008D                     	;# 
   390  008E                     	;# 
   391  0090                     	;# 
   392  0091                     	;# 
   393  0092                     	;# 
   394  0093                     	;# 
   395  0095                     	;# 
   396  0096                     	;# 
   397  0097                     	;# 
   398  0098                     	;# 
   399  0099                     	;# 
   400  009A                     	;# 
   401  009B                     	;# 
   402  009B                     	;# 
   403  009C                     	;# 
   404  009D                     	;# 
   405  009E                     	;# 
   406  010C                     	;# 
   407  010D                     	;# 
   408  010E                     	;# 
   409  0110                     	;# 
   410  0111                     	;# 
   411  0112                     	;# 
   412  0113                     	;# 
   413  0114                     	;# 
   414  0115                     	;# 
   415  0116                     	;# 
   416  0117                     	;# 
   417  0118                     	;# 
   418  0119                     	;# 
   419  011A                     	;# 
   420  011B                     	;# 
   421  011D                     	;# 
   422  018C                     	;# 
   423  018D                     	;# 
   424  0191                     	;# 
   425  0191                     	;# 
   426  0192                     	;# 
   427  0193                     	;# 
   428  0193                     	;# 
   429  0193                     	;# 
   430  0194                     	;# 
   431  0195                     	;# 
   432  0196                     	;# 
   433  0199                     	;# 
   434  019A                     	;# 
   435  019B                     	;# 
   436  019B                     	;# 
   437  019B                     	;# 
   438  019B                     	;# 
   439  019C                     	;# 
   440  019C                     	;# 
   441  019D                     	;# 
   442  019E                     	;# 
   443  019F                     	;# 
   444  020D                     	;# 
   445  0210                     	;# 
   446  0211                     	;# 
   447  0212                     	;# 
   448  0213                     	;# 
   449  0214                     	;# 
   450  0215                     	;# 
   451  0215                     	;# 
   452  0216                     	;# 
   453  0217                     	;# 
   454  0291                     	;# 
   455  0291                     	;# 
   456  0292                     	;# 
   457  0293                     	;# 
   458  0294                     	;# 
   459  0295                     	;# 
   460  0295                     	;# 
   461  0296                     	;# 
   462  0298                     	;# 
   463  0298                     	;# 
   464  0299                     	;# 
   465  029A                     	;# 
   466  029B                     	;# 
   467  029C                     	;# 
   468  029C                     	;# 
   469  029D                     	;# 
   470  029E                     	;# 
   471  029F                     	;# 
   472  0311                     	;# 
   473  0311                     	;# 
   474  0312                     	;# 
   475  0313                     	;# 
   476  0314                     	;# 
   477  0315                     	;# 
   478  0315                     	;# 
   479  0316                     	;# 
   480  0318                     	;# 
   481  0318                     	;# 
   482  0319                     	;# 
   483  031A                     	;# 
   484  031C                     	;# 
   485  031C                     	;# 
   486  031D                     	;# 
   487  031E                     	;# 
   488  0394                     	;# 
   489  0395                     	;# 
   490  0396                     	;# 
   491  0415                     	;# 
   492  0416                     	;# 
   493  0417                     	;# 
   494  041C                     	;# 
   495  041D                     	;# 
   496  041E                     	;# 
   497  0791                     	;# 
   498  0792                     	;# 
   499  0793                     	;# 
   500  0794                     	;# 
   501  0795                     	;# 
   502  0798                     	;# 
   503  0799                     	;# 
   504  07A0                     	;# 
   505  07A1                     	;# 
   506  07A3                     	;# 
   507  07A4                     	;# 
   508  07A6                     	;# 
   509  07A7                     	;# 
   510  07A9                     	;# 
   511  07AA                     	;# 
   512  0FE4                     	;# 
   513  0FE5                     	;# 
   514  0FE6                     	;# 
   515  0FE7                     	;# 
   516  0FE8                     	;# 
   517  0FE9                     	;# 
   518  0FEA                     	;# 
   519  0FEB                     	;# 
   520  0FED                     	;# 
   521  0FEE                     	;# 
   522  0FEF                     	;# 
   523  0000                     	;# 
   524  0001                     	;# 
   525  0002                     	;# 
   526  0003                     	;# 
   527  0004                     	;# 
   528  0005                     	;# 
   529  0006                     	;# 
   530  0007                     	;# 
   531  0008                     	;# 
   532  0009                     	;# 
   533  000A                     	;# 
   534  000B                     	;# 
   535  000C                     	;# 
   536  000D                     	;# 
   537  000E                     	;# 
   538  0010                     	;# 
   539  0011                     	;# 
   540  0012                     	;# 
   541  0013                     	;# 
   542  0015                     	;# 
   543  0016                     	;# 
   544  0016                     	;# 
   545  0017                     	;# 
   546  0018                     	;# 
   547  0019                     	;# 
   548  001A                     	;# 
   549  001B                     	;# 
   550  001C                     	;# 
   551  001E                     	;# 
   552  001F                     	;# 
   553  008C                     	;# 
   554  008D                     	;# 
   555  008E                     	;# 
   556  0090                     	;# 
   557  0091                     	;# 
   558  0092                     	;# 
   559  0093                     	;# 
   560  0095                     	;# 
   561  0096                     	;# 
   562  0097                     	;# 
   563  0098                     	;# 
   564  0099                     	;# 
   565  009A                     	;# 
   566  009B                     	;# 
   567  009B                     	;# 
   568  009C                     	;# 
   569  009D                     	;# 
   570  009E                     	;# 
   571  010C                     	;# 
   572  010D                     	;# 
   573  010E                     	;# 
   574  0110                     	;# 
   575  0111                     	;# 
   576  0112                     	;# 
   577  0113                     	;# 
   578  0114                     	;# 
   579  0115                     	;# 
   580  0116                     	;# 
   581  0117                     	;# 
   582  0118                     	;# 
   583  0119                     	;# 
   584  011A                     	;# 
   585  011B                     	;# 
   586  011D                     	;# 
   587  018C                     	;# 
   588  018D                     	;# 
   589  0191                     	;# 
   590  0191                     	;# 
   591  0192                     	;# 
   592  0193                     	;# 
   593  0193                     	;# 
   594  0193                     	;# 
   595  0194                     	;# 
   596  0195                     	;# 
   597  0196                     	;# 
   598  0199                     	;# 
   599  019A                     	;# 
   600  019B                     	;# 
   601  019B                     	;# 
   602  019B                     	;# 
   603  019B                     	;# 
   604  019C                     	;# 
   605  019C                     	;# 
   606  019D                     	;# 
   607  019E                     	;# 
   608  019F                     	;# 
   609  020D                     	;# 
   610  0210                     	;# 
   611  0211                     	;# 
   612  0212                     	;# 
   613  0213                     	;# 
   614  0214                     	;# 
   615  0215                     	;# 
   616  0215                     	;# 
   617  0216                     	;# 
   618  0217                     	;# 
   619  0291                     	;# 
   620  0291                     	;# 
   621  0292                     	;# 
   622  0293                     	;# 
   623  0294                     	;# 
   624  0295                     	;# 
   625  0295                     	;# 
   626  0296                     	;# 
   627  0298                     	;# 
   628  0298                     	;# 
   629  0299                     	;# 
   630  029A                     	;# 
   631  029B                     	;# 
   632  029C                     	;# 
   633  029C                     	;# 
   634  029D                     	;# 
   635  029E                     	;# 
   636  029F                     	;# 
   637  0311                     	;# 
   638  0311                     	;# 
   639  0312                     	;# 
   640  0313                     	;# 
   641  0314                     	;# 
   642  0315                     	;# 
   643  0315                     	;# 
   644  0316                     	;# 
   645  0318                     	;# 
   646  0318                     	;# 
   647  0319                     	;# 
   648  031A                     	;# 
   649  031C                     	;# 
   650  031C                     	;# 
   651  031D                     	;# 
   652  031E                     	;# 
   653  0394                     	;# 
   654  0395                     	;# 
   655  0396                     	;# 
   656  0415                     	;# 
   657  0416                     	;# 
   658  0417                     	;# 
   659  041C                     	;# 
   660  041D                     	;# 
   661  041E                     	;# 
   662  0791                     	;# 
   663  0792                     	;# 
   664  0793                     	;# 
   665  0794                     	;# 
   666  0795                     	;# 
   667  0798                     	;# 
   668  0799                     	;# 
   669  07A0                     	;# 
   670  07A1                     	;# 
   671  07A3                     	;# 
   672  07A4                     	;# 
   673  07A6                     	;# 
   674  07A7                     	;# 
   675  07A9                     	;# 
   676  07AA                     	;# 
   677  0FE4                     	;# 
   678  0FE5                     	;# 
   679  0FE6                     	;# 
   680  0FE7                     	;# 
   681  0FE8                     	;# 
   682  0FE9                     	;# 
   683  0FEA                     	;# 
   684  0FEB                     	;# 
   685  0FED                     	;# 
   686  0FEE                     	;# 
   687  0FEF                     	;# 
   688  0000                     	;# 
   689  0001                     	;# 
   690  0002                     	;# 
   691  0003                     	;# 
   692  0004                     	;# 
   693  0005                     	;# 
   694  0006                     	;# 
   695  0007                     	;# 
   696  0008                     	;# 
   697  0009                     	;# 
   698  000A                     	;# 
   699  000B                     	;# 
   700  000C                     	;# 
   701  000D                     	;# 
   702  000E                     	;# 
   703  0010                     	;# 
   704  0011                     	;# 
   705  0012                     	;# 
   706  0013                     	;# 
   707  0015                     	;# 
   708  0016                     	;# 
   709  0016                     	;# 
   710  0017                     	;# 
   711  0018                     	;# 
   712  0019                     	;# 
   713  001A                     	;# 
   714  001B                     	;# 
   715  001C                     	;# 
   716  001E                     	;# 
   717  001F                     	;# 
   718  008C                     	;# 
   719  008D                     	;# 
   720  008E                     	;# 
   721  0090                     	;# 
   722  0091                     	;# 
   723  0092                     	;# 
   724  0093                     	;# 
   725  0095                     	;# 
   726  0096                     	;# 
   727  0097                     	;# 
   728  0098                     	;# 
   729  0099                     	;# 
   730  009A                     	;# 
   731  009B                     	;# 
   732  009B                     	;# 
   733  009C                     	;# 
   734  009D                     	;# 
   735  009E                     	;# 
   736  010C                     	;# 
   737  010D                     	;# 
   738  010E                     	;# 
   739  0110                     	;# 
   740  0111                     	;# 
   741  0112                     	;# 
   742  0113                     	;# 
   743  0114                     	;# 
   744  0115                     	;# 
   745  0116                     	;# 
   746  0117                     	;# 
   747  0118                     	;# 
   748  0119                     	;# 
   749  011A                     	;# 
   750  011B                     	;# 
   751  011D                     	;# 
   752  018C                     	;# 
   753  018D                     	;# 
   754  0191                     	;# 
   755  0191                     	;# 
   756  0192                     	;# 
   757  0193                     	;# 
   758  0193                     	;# 
   759  0193                     	;# 
   760  0194                     	;# 
   761  0195                     	;# 
   762  0196                     	;# 
   763  0199                     	;# 
   764  019A                     	;# 
   765  019B                     	;# 
   766  019B                     	;# 
   767  019B                     	;# 
   768  019B                     	;# 
   769  019C                     	;# 
   770  019C                     	;# 
   771  019D                     	;# 
   772  019E                     	;# 
   773  019F                     	;# 
   774  020D                     	;# 
   775  0210                     	;# 
   776  0211                     	;# 
   777  0212                     	;# 
   778  0213                     	;# 
   779  0214                     	;# 
   780  0215                     	;# 
   781  0215                     	;# 
   782  0216                     	;# 
   783  0217                     	;# 
   784  0291                     	;# 
   785  0291                     	;# 
   786  0292                     	;# 
   787  0293                     	;# 
   788  0294                     	;# 
   789  0295                     	;# 
   790  0295                     	;# 
   791  0296                     	;# 
   792  0298                     	;# 
   793  0298                     	;# 
   794  0299                     	;# 
   795  029A                     	;# 
   796  029B                     	;# 
   797  029C                     	;# 
   798  029C                     	;# 
   799  029D                     	;# 
   800  029E                     	;# 
   801  029F                     	;# 
   802  0311                     	;# 
   803  0311                     	;# 
   804  0312                     	;# 
   805  0313                     	;# 
   806  0314                     	;# 
   807  0315                     	;# 
   808  0315                     	;# 
   809  0316                     	;# 
   810  0318                     	;# 
   811  0318                     	;# 
   812  0319                     	;# 
   813  031A                     	;# 
   814  031C                     	;# 
   815  031C                     	;# 
   816  031D                     	;# 
   817  031E                     	;# 
   818  0394                     	;# 
   819  0395                     	;# 
   820  0396                     	;# 
   821  0415                     	;# 
   822  0416                     	;# 
   823  0417                     	;# 
   824  041C                     	;# 
   825  041D                     	;# 
   826  041E                     	;# 
   827  0791                     	;# 
   828  0792                     	;# 
   829  0793                     	;# 
   830  0794                     	;# 
   831  0795                     	;# 
   832  0798                     	;# 
   833  0799                     	;# 
   834  07A0                     	;# 
   835  07A1                     	;# 
   836  07A3                     	;# 
   837  07A4                     	;# 
   838  07A6                     	;# 
   839  07A7                     	;# 
   840  07A9                     	;# 
   841  07AA                     	;# 
   842  0FE4                     	;# 
   843  0FE5                     	;# 
   844  0FE6                     	;# 
   845  0FE7                     	;# 
   846  0FE8                     	;# 
   847  0FE9                     	;# 
   848  0FEA                     	;# 
   849  0FEB                     	;# 
   850  0FED                     	;# 
   851  0FEE                     	;# 
   852  0FEF                     	;# 
   853  0000                     	;# 
   854  0001                     	;# 
   855  0002                     	;# 
   856  0003                     	;# 
   857  0004                     	;# 
   858  0005                     	;# 
   859  0006                     	;# 
   860  0007                     	;# 
   861  0008                     	;# 
   862  0009                     	;# 
   863  000A                     	;# 
   864  000B                     	;# 
   865  000C                     	;# 
   866  000D                     	;# 
   867  000E                     	;# 
   868  0010                     	;# 
   869  0011                     	;# 
   870  0012                     	;# 
   871  0013                     	;# 
   872  0015                     	;# 
   873  0016                     	;# 
   874  0016                     	;# 
   875  0017                     	;# 
   876  0018                     	;# 
   877  0019                     	;# 
   878  001A                     	;# 
   879  001B                     	;# 
   880  001C                     	;# 
   881  001E                     	;# 
   882  001F                     	;# 
   883  008C                     	;# 
   884  008D                     	;# 
   885  008E                     	;# 
   886  0090                     	;# 
   887  0091                     	;# 
   888  0092                     	;# 
   889  0093                     	;# 
   890  0095                     	;# 
   891  0096                     	;# 
   892  0097                     	;# 
   893  0098                     	;# 
   894  0099                     	;# 
   895  009A                     	;# 
   896  009B                     	;# 
   897  009B                     	;# 
   898  009C                     	;# 
   899  009D                     	;# 
   900  009E                     	;# 
   901  010C                     	;# 
   902  010D                     	;# 
   903  010E                     	;# 
   904  0110                     	;# 
   905  0111                     	;# 
   906  0112                     	;# 
   907  0113                     	;# 
   908  0114                     	;# 
   909  0115                     	;# 
   910  0116                     	;# 
   911  0117                     	;# 
   912  0118                     	;# 
   913  0119                     	;# 
   914  011A                     	;# 
   915  011B                     	;# 
   916  011D                     	;# 
   917  018C                     	;# 
   918  018D                     	;# 
   919  0191                     	;# 
   920  0191                     	;# 
   921  0192                     	;# 
   922  0193                     	;# 
   923  0193                     	;# 
   924  0193                     	;# 
   925  0194                     	;# 
   926  0195                     	;# 
   927  0196                     	;# 
   928  0199                     	;# 
   929  019A                     	;# 
   930  019B                     	;# 
   931  019B                     	;# 
   932  019B                     	;# 
   933  019B                     	;# 
   934  019C                     	;# 
   935  019C                     	;# 
   936  019D                     	;# 
   937  019E                     	;# 
   938  019F                     	;# 
   939  020D                     	;# 
   940  0210                     	;# 
   941  0211                     	;# 
   942  0212                     	;# 
   943  0213                     	;# 
   944  0214                     	;# 
   945  0215                     	;# 
   946  0215                     	;# 
   947  0216                     	;# 
   948  0217                     	;# 
   949  0291                     	;# 
   950  0291                     	;# 
   951  0292                     	;# 
   952  0293                     	;# 
   953  0294                     	;# 
   954  0295                     	;# 
   955  0295                     	;# 
   956  0296                     	;# 
   957  0298                     	;# 
   958  0298                     	;# 
   959  0299                     	;# 
   960  029A                     	;# 
   961  029B                     	;# 
   962  029C                     	;# 
   963  029C                     	;# 
   964  029D                     	;# 
   965  029E                     	;# 
   966  029F                     	;# 
   967  0311                     	;# 
   968  0311                     	;# 
   969  0312                     	;# 
   970  0313                     	;# 
   971  0314                     	;# 
   972  0315                     	;# 
   973  0315                     	;# 
   974  0316                     	;# 
   975  0318                     	;# 
   976  0318                     	;# 
   977  0319                     	;# 
   978  031A                     	;# 
   979  031C                     	;# 
   980  031C                     	;# 
   981  031D                     	;# 
   982  031E                     	;# 
   983  0394                     	;# 
   984  0395                     	;# 
   985  0396                     	;# 
   986  0415                     	;# 
   987  0416                     	;# 
   988  0417                     	;# 
   989  041C                     	;# 
   990  041D                     	;# 
   991  041E                     	;# 
   992  0791                     	;# 
   993  0792                     	;# 
   994  0793                     	;# 
   995  0794                     	;# 
   996  0795                     	;# 
   997  0798                     	;# 
   998  0799                     	;# 
   999  07A0                     	;# 
  1000  07A1                     	;# 
  1001  07A3                     	;# 
  1002  07A4                     	;# 
  1003  07A6                     	;# 
  1004  07A7                     	;# 
  1005  07A9                     	;# 
  1006  07AA                     	;# 
  1007  0FE4                     	;# 
  1008  0FE5                     	;# 
  1009  0FE6                     	;# 
  1010  0FE7                     	;# 
  1011  0FE8                     	;# 
  1012  0FE9                     	;# 
  1013  0FEA                     	;# 
  1014  0FEB                     	;# 
  1015  0FED                     	;# 
  1016  0FEE                     	;# 
  1017  0FEF                     	;# 
  1018  0000                     	;# 
  1019  0001                     	;# 
  1020  0002                     	;# 
  1021  0003                     	;# 
  1022  0004                     	;# 
  1023  0005                     	;# 
  1024  0006                     	;# 
  1025  0007                     	;# 
  1026  0008                     	;# 
  1027  0009                     	;# 
  1028  000A                     	;# 
  1029  000B                     	;# 
  1030  000C                     	;# 
  1031  000D                     	;# 
  1032  000E                     	;# 
  1033  0010                     	;# 
  1034  0011                     	;# 
  1035  0012                     	;# 
  1036  0013                     	;# 
  1037  0015                     	;# 
  1038  0016                     	;# 
  1039  0016                     	;# 
  1040  0017                     	;# 
  1041  0018                     	;# 
  1042  0019                     	;# 
  1043  001A                     	;# 
  1044  001B                     	;# 
  1045  001C                     	;# 
  1046  001E                     	;# 
  1047  001F                     	;# 
  1048  008C                     	;# 
  1049  008D                     	;# 
  1050  008E                     	;# 
  1051  0090                     	;# 
  1052  0091                     	;# 
  1053  0092                     	;# 
  1054  0093                     	;# 
  1055  0095                     	;# 
  1056  0096                     	;# 
  1057  0097                     	;# 
  1058  0098                     	;# 
  1059  0099                     	;# 
  1060  009A                     	;# 
  1061  009B                     	;# 
  1062  009B                     	;# 
  1063  009C                     	;# 
  1064  009D                     	;# 
  1065  009E                     	;# 
  1066  010C                     	;# 
  1067  010D                     	;# 
  1068  010E                     	;# 
  1069  0110                     	;# 
  1070  0111                     	;# 
  1071  0112                     	;# 
  1072  0113                     	;# 
  1073  0114                     	;# 
  1074  0115                     	;# 
  1075  0116                     	;# 
  1076  0117                     	;# 
  1077  0118                     	;# 
  1078  0119                     	;# 
  1079  011A                     	;# 
  1080  011B                     	;# 
  1081  011D                     	;# 
  1082  018C                     	;# 
  1083  018D                     	;# 
  1084  0191                     	;# 
  1085  0191                     	;# 
  1086  0192                     	;# 
  1087  0193                     	;# 
  1088  0193                     	;# 
  1089  0193                     	;# 
  1090  0194                     	;# 
  1091  0195                     	;# 
  1092  0196                     	;# 
  1093  0199                     	;# 
  1094  019A                     	;# 
  1095  019B                     	;# 
  1096  019B                     	;# 
  1097  019B                     	;# 
  1098  019B                     	;# 
  1099  019C                     	;# 
  1100  019C                     	;# 
  1101  019D                     	;# 
  1102  019E                     	;# 
  1103  019F                     	;# 
  1104  020D                     	;# 
  1105  0210                     	;# 
  1106  0211                     	;# 
  1107  0212                     	;# 
  1108  0213                     	;# 
  1109  0214                     	;# 
  1110  0215                     	;# 
  1111  0215                     	;# 
  1112  0216                     	;# 
  1113  0217                     	;# 
  1114  0291                     	;# 
  1115  0291                     	;# 
  1116  0292                     	;# 
  1117  0293                     	;# 
  1118  0294                     	;# 
  1119  0295                     	;# 
  1120  0295                     	;# 
  1121  0296                     	;# 
  1122  0298                     	;# 
  1123  0298                     	;# 
  1124  0299                     	;# 
  1125  029A                     	;# 
  1126  029B                     	;# 
  1127  029C                     	;# 
  1128  029C                     	;# 
  1129  029D                     	;# 
  1130  029E                     	;# 
  1131  029F                     	;# 
  1132  0311                     	;# 
  1133  0311                     	;# 
  1134  0312                     	;# 
  1135  0313                     	;# 
  1136  0314                     	;# 
  1137  0315                     	;# 
  1138  0315                     	;# 
  1139  0316                     	;# 
  1140  0318                     	;# 
  1141  0318                     	;# 
  1142  0319                     	;# 
  1143  031A                     	;# 
  1144  031C                     	;# 
  1145  031C                     	;# 
  1146  031D                     	;# 
  1147  031E                     	;# 
  1148  0394                     	;# 
  1149  0395                     	;# 
  1150  0396                     	;# 
  1151  0415                     	;# 
  1152  0416                     	;# 
  1153  0417                     	;# 
  1154  041C                     	;# 
  1155  041D                     	;# 
  1156  041E                     	;# 
  1157  0791                     	;# 
  1158  0792                     	;# 
  1159  0793                     	;# 
  1160  0794                     	;# 
  1161  0795                     	;# 
  1162  0798                     	;# 
  1163  0799                     	;# 
  1164  07A0                     	;# 
  1165  07A1                     	;# 
  1166  07A3                     	;# 
  1167  07A4                     	;# 
  1168  07A6                     	;# 
  1169  07A7                     	;# 
  1170  07A9                     	;# 
  1171  07AA                     	;# 
  1172  0FE4                     	;# 
  1173  0FE5                     	;# 
  1174  0FE6                     	;# 
  1175  0FE7                     	;# 
  1176  0FE8                     	;# 
  1177  0FE9                     	;# 
  1178  0FEA                     	;# 
  1179  0FEB                     	;# 
  1180  0FED                     	;# 
  1181  0FEE                     	;# 
  1182  0FEF                     	;# 
  1183  0000                     	;# 
  1184  0001                     	;# 
  1185  0002                     	;# 
  1186  0003                     	;# 
  1187  0004                     	;# 
  1188  0005                     	;# 
  1189  0006                     	;# 
  1190  0007                     	;# 
  1191  0008                     	;# 
  1192  0009                     	;# 
  1193  000A                     	;# 
  1194  000B                     	;# 
  1195  000C                     	;# 
  1196  000D                     	;# 
  1197  000E                     	;# 
  1198  0010                     	;# 
  1199  0011                     	;# 
  1200  0012                     	;# 
  1201  0013                     	;# 
  1202  0015                     	;# 
  1203  0016                     	;# 
  1204  0016                     	;# 
  1205  0017                     	;# 
  1206  0018                     	;# 
  1207  0019                     	;# 
  1208  001A                     	;# 
  1209  001B                     	;# 
  1210  001C                     	;# 
  1211  001E                     	;# 
  1212  001F                     	;# 
  1213  008C                     	;# 
  1214  008D                     	;# 
  1215  008E                     	;# 
  1216  0090                     	;# 
  1217  0091                     	;# 
  1218  0092                     	;# 
  1219  0093                     	;# 
  1220  0095                     	;# 
  1221  0096                     	;# 
  1222  0097                     	;# 
  1223  0098                     	;# 
  1224  0099                     	;# 
  1225  009A                     	;# 
  1226  009B                     	;# 
  1227  009B                     	;# 
  1228  009C                     	;# 
  1229  009D                     	;# 
  1230  009E                     	;# 
  1231  010C                     	;# 
  1232  010D                     	;# 
  1233  010E                     	;# 
  1234  0110                     	;# 
  1235  0111                     	;# 
  1236  0112                     	;# 
  1237  0113                     	;# 
  1238  0114                     	;# 
  1239  0115                     	;# 
  1240  0116                     	;# 
  1241  0117                     	;# 
  1242  0118                     	;# 
  1243  0119                     	;# 
  1244  011A                     	;# 
  1245  011B                     	;# 
  1246  011D                     	;# 
  1247  018C                     	;# 
  1248  018D                     	;# 
  1249  0191                     	;# 
  1250  0191                     	;# 
  1251  0192                     	;# 
  1252  0193                     	;# 
  1253  0193                     	;# 
  1254  0193                     	;# 
  1255  0194                     	;# 
  1256  0195                     	;# 
  1257  0196                     	;# 
  1258  0199                     	;# 
  1259  019A                     	;# 
  1260  019B                     	;# 
  1261  019B                     	;# 
  1262  019B                     	;# 
  1263  019B                     	;# 
  1264  019C                     	;# 
  1265  019C                     	;# 
  1266  019D                     	;# 
  1267  019E                     	;# 
  1268  019F                     	;# 
  1269  020D                     	;# 
  1270  0210                     	;# 
  1271  0211                     	;# 
  1272  0212                     	;# 
  1273  0213                     	;# 
  1274  0214                     	;# 
  1275  0215                     	;# 
  1276  0215                     	;# 
  1277  0216                     	;# 
  1278  0217                     	;# 
  1279  0291                     	;# 
  1280  0291                     	;# 
  1281  0292                     	;# 
  1282  0293                     	;# 
  1283  0294                     	;# 
  1284  0295                     	;# 
  1285  0295                     	;# 
  1286  0296                     	;# 
  1287  0298                     	;# 
  1288  0298                     	;# 
  1289  0299                     	;# 
  1290  029A                     	;# 
  1291  029B                     	;# 
  1292  029C                     	;# 
  1293  029C                     	;# 
  1294  029D                     	;# 
  1295  029E                     	;# 
  1296  029F                     	;# 
  1297  0311                     	;# 
  1298  0311                     	;# 
  1299  0312                     	;# 
  1300  0313                     	;# 
  1301  0314                     	;# 
  1302  0315                     	;# 
  1303  0315                     	;# 
  1304  0316                     	;# 
  1305  0318                     	;# 
  1306  0318                     	;# 
  1307  0319                     	;# 
  1308  031A                     	;# 
  1309  031C                     	;# 
  1310  031C                     	;# 
  1311  031D                     	;# 
  1312  031E                     	;# 
  1313  0394                     	;# 
  1314  0395                     	;# 
  1315  0396                     	;# 
  1316  0415                     	;# 
  1317  0416                     	;# 
  1318  0417                     	;# 
  1319  041C                     	;# 
  1320  041D                     	;# 
  1321  041E                     	;# 
  1322  0791                     	;# 
  1323  0792                     	;# 
  1324  0793                     	;# 
  1325  0794                     	;# 
  1326  0795                     	;# 
  1327  0798                     	;# 
  1328  0799                     	;# 
  1329  07A0                     	;# 
  1330  07A1                     	;# 
  1331  07A3                     	;# 
  1332  07A4                     	;# 
  1333  07A6                     	;# 
  1334  07A7                     	;# 
  1335  07A9                     	;# 
  1336  07AA                     	;# 
  1337  0FE4                     	;# 
  1338  0FE5                     	;# 
  1339  0FE6                     	;# 
  1340  0FE7                     	;# 
  1341  0FE8                     	;# 
  1342  0FE9                     	;# 
  1343  0FEA                     	;# 
  1344  0FEB                     	;# 
  1345  0FED                     	;# 
  1346  0FEE                     	;# 
  1347  0FEF                     	;# 
  1348  0000                     	;# 
  1349  0001                     	;# 
  1350  0002                     	;# 
  1351  0003                     	;# 
  1352  0004                     	;# 
  1353  0005                     	;# 
  1354  0006                     	;# 
  1355  0007                     	;# 
  1356  0008                     	;# 
  1357  0009                     	;# 
  1358  000A                     	;# 
  1359  000B                     	;# 
  1360  000C                     	;# 
  1361  000D                     	;# 
  1362  000E                     	;# 
  1363  0010                     	;# 
  1364  0011                     	;# 
  1365  0012                     	;# 
  1366  0013                     	;# 
  1367  0015                     	;# 
  1368  0016                     	;# 
  1369  0016                     	;# 
  1370  0017                     	;# 
  1371  0018                     	;# 
  1372  0019                     	;# 
  1373  001A                     	;# 
  1374  001B                     	;# 
  1375  001C                     	;# 
  1376  001E                     	;# 
  1377  001F                     	;# 
  1378  008C                     	;# 
  1379  008D                     	;# 
  1380  008E                     	;# 
  1381  0090                     	;# 
  1382  0091                     	;# 
  1383  0092                     	;# 
  1384  0093                     	;# 
  1385  0095                     	;# 
  1386  0096                     	;# 
  1387  0097                     	;# 
  1388  0098                     	;# 
  1389  0099                     	;# 
  1390  009A                     	;# 
  1391  009B                     	;# 
  1392  009B                     	;# 
  1393  009C                     	;# 
  1394  009D                     	;# 
  1395  009E                     	;# 
  1396  010C                     	;# 
  1397  010D                     	;# 
  1398  010E                     	;# 
  1399  0110                     	;# 
  1400  0111                     	;# 
  1401  0112                     	;# 
  1402  0113                     	;# 
  1403  0114                     	;# 
  1404  0115                     	;# 
  1405  0116                     	;# 
  1406  0117                     	;# 
  1407  0118                     	;# 
  1408  0119                     	;# 
  1409  011A                     	;# 
  1410  011B                     	;# 
  1411  011D                     	;# 
  1412  018C                     	;# 
  1413  018D                     	;# 
  1414  0191                     	;# 
  1415  0191                     	;# 
  1416  0192                     	;# 
  1417  0193                     	;# 
  1418  0193                     	;# 
  1419  0193                     	;# 
  1420  0194                     	;# 
  1421  0195                     	;# 
  1422  0196                     	;# 
  1423  0199                     	;# 
  1424  019A                     	;# 
  1425  019B                     	;# 
  1426  019B                     	;# 
  1427  019B                     	;# 
  1428  019B                     	;# 
  1429  019C                     	;# 
  1430  019C                     	;# 
  1431  019D                     	;# 
  1432  019E                     	;# 
  1433  019F                     	;# 
  1434  020D                     	;# 
  1435  0210                     	;# 
  1436  0211                     	;# 
  1437  0212                     	;# 
  1438  0213                     	;# 
  1439  0214                     	;# 
  1440  0215                     	;# 
  1441  0215                     	;# 
  1442  0216                     	;# 
  1443  0217                     	;# 
  1444  0291                     	;# 
  1445  0291                     	;# 
  1446  0292                     	;# 
  1447  0293                     	;# 
  1448  0294                     	;# 
  1449  0295                     	;# 
  1450  0295                     	;# 
  1451  0296                     	;# 
  1452  0298                     	;# 
  1453  0298                     	;# 
  1454  0299                     	;# 
  1455  029A                     	;# 
  1456  029B                     	;# 
  1457  029C                     	;# 
  1458  029C                     	;# 
  1459  029D                     	;# 
  1460  029E                     	;# 
  1461  029F                     	;# 
  1462  0311                     	;# 
  1463  0311                     	;# 
  1464  0312                     	;# 
  1465  0313                     	;# 
  1466  0314                     	;# 
  1467  0315                     	;# 
  1468  0315                     	;# 
  1469  0316                     	;# 
  1470  0318                     	;# 
  1471  0318                     	;# 
  1472  0319                     	;# 
  1473  031A                     	;# 
  1474  031C                     	;# 
  1475  031C                     	;# 
  1476  031D                     	;# 
  1477  031E                     	;# 
  1478  0394                     	;# 
  1479  0395                     	;# 
  1480  0396                     	;# 
  1481  0415                     	;# 
  1482  0416                     	;# 
  1483  0417                     	;# 
  1484  041C                     	;# 
  1485  041D                     	;# 
  1486  041E                     	;# 
  1487  0791                     	;# 
  1488  0792                     	;# 
  1489  0793                     	;# 
  1490  0794                     	;# 
  1491  0795                     	;# 
  1492  0798                     	;# 
  1493  0799                     	;# 
  1494  07A0                     	;# 
  1495  07A1                     	;# 
  1496  07A3                     	;# 
  1497  07A4                     	;# 
  1498  07A6                     	;# 
  1499  07A7                     	;# 
  1500  07A9                     	;# 
  1501  07AA                     	;# 
  1502  0FE4                     	;# 
  1503  0FE5                     	;# 
  1504  0FE6                     	;# 
  1505  0FE7                     	;# 
  1506  0FE8                     	;# 
  1507  0FE9                     	;# 
  1508  0FEA                     	;# 
  1509  0FEB                     	;# 
  1510  0FED                     	;# 
  1511  0FEE                     	;# 
  1512  0FEF                     	;# 
  1513  0000                     	;# 
  1514  0001                     	;# 
  1515  0002                     	;# 
  1516  0003                     	;# 
  1517  0004                     	;# 
  1518  0005                     	;# 
  1519  0006                     	;# 
  1520  0007                     	;# 
  1521  0008                     	;# 
  1522  0009                     	;# 
  1523  000A                     	;# 
  1524  000B                     	;# 
  1525  000C                     	;# 
  1526  000D                     	;# 
  1527  000E                     	;# 
  1528  0010                     	;# 
  1529  0011                     	;# 
  1530  0012                     	;# 
  1531  0013                     	;# 
  1532  0015                     	;# 
  1533  0016                     	;# 
  1534  0016                     	;# 
  1535  0017                     	;# 
  1536  0018                     	;# 
  1537  0019                     	;# 
  1538  001A                     	;# 
  1539  001B                     	;# 
  1540  001C                     	;# 
  1541  001E                     	;# 
  1542  001F                     	;# 
  1543  008C                     	;# 
  1544  008D                     	;# 
  1545  008E                     	;# 
  1546  0090                     	;# 
  1547  0091                     	;# 
  1548  0092                     	;# 
  1549  0093                     	;# 
  1550  0095                     	;# 
  1551  0096                     	;# 
  1552  0097                     	;# 
  1553  0098                     	;# 
  1554  0099                     	;# 
  1555  009A                     	;# 
  1556  009B                     	;# 
  1557  009B                     	;# 
  1558  009C                     	;# 
  1559  009D                     	;# 
  1560  009E                     	;# 
  1561  010C                     	;# 
  1562  010D                     	;# 
  1563  010E                     	;# 
  1564  0110                     	;# 
  1565  0111                     	;# 
  1566  0112                     	;# 
  1567  0113                     	;# 
  1568  0114                     	;# 
  1569  0115                     	;# 
  1570  0116                     	;# 
  1571  0117                     	;# 
  1572  0118                     	;# 
  1573  0119                     	;# 
  1574  011A                     	;# 
  1575  011B                     	;# 
  1576  011D                     	;# 
  1577  018C                     	;# 
  1578  018D                     	;# 
  1579  0191                     	;# 
  1580  0191                     	;# 
  1581  0192                     	;# 
  1582  0193                     	;# 
  1583  0193                     	;# 
  1584  0193                     	;# 
  1585  0194                     	;# 
  1586  0195                     	;# 
  1587  0196                     	;# 
  1588  0199                     	;# 
  1589  019A                     	;# 
  1590  019B                     	;# 
  1591  019B                     	;# 
  1592  019B                     	;# 
  1593  019B                     	;# 
  1594  019C                     	;# 
  1595  019C                     	;# 
  1596  019D                     	;# 
  1597  019E                     	;# 
  1598  019F                     	;# 
  1599  020D                     	;# 
  1600  0210                     	;# 
  1601  0211                     	;# 
  1602  0212                     	;# 
  1603  0213                     	;# 
  1604  0214                     	;# 
  1605  0215                     	;# 
  1606  0215                     	;# 
  1607  0216                     	;# 
  1608  0217                     	;# 
  1609  0291                     	;# 
  1610  0291                     	;# 
  1611  0292                     	;# 
  1612  0293                     	;# 
  1613  0294                     	;# 
  1614  0295                     	;# 
  1615  0295                     	;# 
  1616  0296                     	;# 
  1617  0298                     	;# 
  1618  0298                     	;# 
  1619  0299                     	;# 
  1620  029A                     	;# 
  1621  029B                     	;# 
  1622  029C                     	;# 
  1623  029C                     	;# 
  1624  029D                     	;# 
  1625  029E                     	;# 
  1626  029F                     	;# 
  1627  0311                     	;# 
  1628  0311                     	;# 
  1629  0312                     	;# 
  1630  0313                     	;# 
  1631  0314                     	;# 
  1632  0315                     	;# 
  1633  0315                     	;# 
  1634  0316                     	;# 
  1635  0318                     	;# 
  1636  0318                     	;# 
  1637  0319                     	;# 
  1638  031A                     	;# 
  1639  031C                     	;# 
  1640  031C                     	;# 
  1641  031D                     	;# 
  1642  031E                     	;# 
  1643  0394                     	;# 
  1644  0395                     	;# 
  1645  0396                     	;# 
  1646  0415                     	;# 
  1647  0416                     	;# 
  1648  0417                     	;# 
  1649  041C                     	;# 
  1650  041D                     	;# 
  1651  041E                     	;# 
  1652  0791                     	;# 
  1653  0792                     	;# 
  1654  0793                     	;# 
  1655  0794                     	;# 
  1656  0795                     	;# 
  1657  0798                     	;# 
  1658  0799                     	;# 
  1659  07A0                     	;# 
  1660  07A1                     	;# 
  1661  07A3                     	;# 
  1662  07A4                     	;# 
  1663  07A6                     	;# 
  1664  07A7                     	;# 
  1665  07A9                     	;# 
  1666  07AA                     	;# 
  1667  0FE4                     	;# 
  1668  0FE5                     	;# 
  1669  0FE6                     	;# 
  1670  0FE7                     	;# 
  1671  0FE8                     	;# 
  1672  0FE9                     	;# 
  1673  0FEA                     	;# 
  1674  0FEB                     	;# 
  1675  0FED                     	;# 
  1676  0FEE                     	;# 
  1677  0FEF                     	;# 
  1678  0000                     	;# 
  1679  0001                     	;# 
  1680  0002                     	;# 
  1681  0003                     	;# 
  1682  0004                     	;# 
  1683  0005                     	;# 
  1684  0006                     	;# 
  1685  0007                     	;# 
  1686  0008                     	;# 
  1687  0009                     	;# 
  1688  000A                     	;# 
  1689  000B                     	;# 
  1690  000C                     	;# 
  1691  000D                     	;# 
  1692  000E                     	;# 
  1693  0010                     	;# 
  1694  0011                     	;# 
  1695  0012                     	;# 
  1696  0013                     	;# 
  1697  0015                     	;# 
  1698  0016                     	;# 
  1699  0016                     	;# 
  1700  0017                     	;# 
  1701  0018                     	;# 
  1702  0019                     	;# 
  1703  001A                     	;# 
  1704  001B                     	;# 
  1705  001C                     	;# 
  1706  001E                     	;# 
  1707  001F                     	;# 
  1708  008C                     	;# 
  1709  008D                     	;# 
  1710  008E                     	;# 
  1711  0090                     	;# 
  1712  0091                     	;# 
  1713  0092                     	;# 
  1714  0093                     	;# 
  1715  0095                     	;# 
  1716  0096                     	;# 
  1717  0097                     	;# 
  1718  0098                     	;# 
  1719  0099                     	;# 
  1720  009A                     	;# 
  1721  009B                     	;# 
  1722  009B                     	;# 
  1723  009C                     	;# 
  1724  009D                     	;# 
  1725  009E                     	;# 
  1726  010C                     	;# 
  1727  010D                     	;# 
  1728  010E                     	;# 
  1729  0110                     	;# 
  1730  0111                     	;# 
  1731  0112                     	;# 
  1732  0113                     	;# 
  1733  0114                     	;# 
  1734  0115                     	;# 
  1735  0116                     	;# 
  1736  0117                     	;# 
  1737  0118                     	;# 
  1738  0119                     	;# 
  1739  011A                     	;# 
  1740  011B                     	;# 
  1741  011D                     	;# 
  1742  018C                     	;# 
  1743  018D                     	;# 
  1744  0191                     	;# 
  1745  0191                     	;# 
  1746  0192                     	;# 
  1747  0193                     	;# 
  1748  0193                     	;# 
  1749  0193                     	;# 
  1750  0194                     	;# 
  1751  0195                     	;# 
  1752  0196                     	;# 
  1753  0199                     	;# 
  1754  019A                     	;# 
  1755  019B                     	;# 
  1756  019B                     	;# 
  1757  019B                     	;# 
  1758  019B                     	;# 
  1759  019C                     	;# 
  1760  019C                     	;# 
  1761  019D                     	;# 
  1762  019E                     	;# 
  1763  019F                     	;# 
  1764  020D                     	;# 
  1765  0210                     	;# 
  1766  0211                     	;# 
  1767  0212                     	;# 
  1768  0213                     	;# 
  1769  0214                     	;# 
  1770  0215                     	;# 
  1771  0215                     	;# 
  1772  0216                     	;# 
  1773  0217                     	;# 
  1774  0291                     	;# 
  1775  0291                     	;# 
  1776  0292                     	;# 
  1777  0293                     	;# 
  1778  0294                     	;# 
  1779  0295                     	;# 
  1780  0295                     	;# 
  1781  0296                     	;# 
  1782  0298                     	;# 
  1783  0298                     	;# 
  1784  0299                     	;# 
  1785  029A                     	;# 
  1786  029B                     	;# 
  1787  029C                     	;# 
  1788  029C                     	;# 
  1789  029D                     	;# 
  1790  029E                     	;# 
  1791  029F                     	;# 
  1792  0311                     	;# 
  1793  0311                     	;# 
  1794  0312                     	;# 
  1795  0313                     	;# 
  1796  0314                     	;# 
  1797  0315                     	;# 
  1798  0315                     	;# 
  1799  0316                     	;# 
  1800  0318                     	;# 
  1801  0318                     	;# 
  1802  0319                     	;# 
  1803  031A                     	;# 
  1804  031C                     	;# 
  1805  031C                     	;# 
  1806  031D                     	;# 
  1807  031E                     	;# 
  1808  0394                     	;# 
  1809  0395                     	;# 
  1810  0396                     	;# 
  1811  0415                     	;# 
  1812  0416                     	;# 
  1813  0417                     	;# 
  1814  041C                     	;# 
  1815  041D                     	;# 
  1816  041E                     	;# 
  1817  0791                     	;# 
  1818  0792                     	;# 
  1819  0793                     	;# 
  1820  0794                     	;# 
  1821  0795                     	;# 
  1822  0798                     	;# 
  1823  0799                     	;# 
  1824  07A0                     	;# 
  1825  07A1                     	;# 
  1826  07A3                     	;# 
  1827  07A4                     	;# 
  1828  07A6                     	;# 
  1829  07A7                     	;# 
  1830  07A9                     	;# 
  1831  07AA                     	;# 
  1832  0FE4                     	;# 
  1833  0FE5                     	;# 
  1834  0FE6                     	;# 
  1835  0FE7                     	;# 
  1836  0FE8                     	;# 
  1837  0FE9                     	;# 
  1838  0FEA                     	;# 
  1839  0FEB                     	;# 
  1840  0FED                     	;# 
  1841  0FEE                     	;# 
  1842  0FEF                     	;# 
  1843  0000                     	;# 
  1844  0001                     	;# 
  1845  0002                     	;# 
  1846  0003                     	;# 
  1847  0004                     	;# 
  1848  0005                     	;# 
  1849  0006                     	;# 
  1850  0007                     	;# 
  1851  0008                     	;# 
  1852  0009                     	;# 
  1853  000A                     	;# 
  1854  000B                     	;# 
  1855  000C                     	;# 
  1856  000D                     	;# 
  1857  000E                     	;# 
  1858  0010                     	;# 
  1859  0011                     	;# 
  1860  0012                     	;# 
  1861  0013                     	;# 
  1862  0015                     	;# 
  1863  0016                     	;# 
  1864  0016                     	;# 
  1865  0017                     	;# 
  1866  0018                     	;# 
  1867  0019                     	;# 
  1868  001A                     	;# 
  1869  001B                     	;# 
  1870  001C                     	;# 
  1871  001E                     	;# 
  1872  001F                     	;# 
  1873  008C                     	;# 
  1874  008D                     	;# 
  1875  008E                     	;# 
  1876  0090                     	;# 
  1877  0091                     	;# 
  1878  0092                     	;# 
  1879  0093                     	;# 
  1880  0095                     	;# 
  1881  0096                     	;# 
  1882  0097                     	;# 
  1883  0098                     	;# 
  1884  0099                     	;# 
  1885  009A                     	;# 
  1886  009B                     	;# 
  1887  009B                     	;# 
  1888  009C                     	;# 
  1889  009D                     	;# 
  1890  009E                     	;# 
  1891  010C                     	;# 
  1892  010D                     	;# 
  1893  010E                     	;# 
  1894  0110                     	;# 
  1895  0111                     	;# 
  1896  0112                     	;# 
  1897  0113                     	;# 
  1898  0114                     	;# 
  1899  0115                     	;# 
  1900  0116                     	;# 
  1901  0117                     	;# 
  1902  0118                     	;# 
  1903  0119                     	;# 
  1904  011A                     	;# 
  1905  011B                     	;# 
  1906  011D                     	;# 
  1907  018C                     	;# 
  1908  018D                     	;# 
  1909  0191                     	;# 
  1910  0191                     	;# 
  1911  0192                     	;# 
  1912  0193                     	;# 
  1913  0193                     	;# 
  1914  0193                     	;# 
  1915  0194                     	;# 
  1916  0195                     	;# 
  1917  0196                     	;# 
  1918  0199                     	;# 
  1919  019A                     	;# 
  1920  019B                     	;# 
  1921  019B                     	;# 
  1922  019B                     	;# 
  1923  019B                     	;# 
  1924  019C                     	;# 
  1925  019C                     	;# 
  1926  019D                     	;# 
  1927  019E                     	;# 
  1928  019F                     	;# 
  1929  020D                     	;# 
  1930  0210                     	;# 
  1931  0211                     	;# 
  1932  0212                     	;# 
  1933  0213                     	;# 
  1934  0214                     	;# 
  1935  0215                     	;# 
  1936  0215                     	;# 
  1937  0216                     	;# 
  1938  0217                     	;# 
  1939  0291                     	;# 
  1940  0291                     	;# 
  1941  0292                     	;# 
  1942  0293                     	;# 
  1943  0294                     	;# 
  1944  0295                     	;# 
  1945  0295                     	;# 
  1946  0296                     	;# 
  1947  0298                     	;# 
  1948  0298                     	;# 
  1949  0299                     	;# 
  1950  029A                     	;# 
  1951  029B                     	;# 
  1952  029C                     	;# 
  1953  029C                     	;# 
  1954  029D                     	;# 
  1955  029E                     	;# 
  1956  029F                     	;# 
  1957  0311                     	;# 
  1958  0311                     	;# 
  1959  0312                     	;# 
  1960  0313                     	;# 
  1961  0314                     	;# 
  1962  0315                     	;# 
  1963  0315                     	;# 
  1964  0316                     	;# 
  1965  0318                     	;# 
  1966  0318                     	;# 
  1967  0319                     	;# 
  1968  031A                     	;# 
  1969  031C                     	;# 
  1970  031C                     	;# 
  1971  031D                     	;# 
  1972  031E                     	;# 
  1973  0394                     	;# 
  1974  0395                     	;# 
  1975  0396                     	;# 
  1976  0415                     	;# 
  1977  0416                     	;# 
  1978  0417                     	;# 
  1979  041C                     	;# 
  1980  041D                     	;# 
  1981  041E                     	;# 
  1982  0791                     	;# 
  1983  0792                     	;# 
  1984  0793                     	;# 
  1985  0794                     	;# 
  1986  0795                     	;# 
  1987  0798                     	;# 
  1988  0799                     	;# 
  1989  07A0                     	;# 
  1990  07A1                     	;# 
  1991  07A3                     	;# 
  1992  07A4                     	;# 
  1993  07A6                     	;# 
  1994  07A7                     	;# 
  1995  07A9                     	;# 
  1996  07AA                     	;# 
  1997  0FE4                     	;# 
  1998  0FE5                     	;# 
  1999  0FE6                     	;# 
  2000  0FE7                     	;# 
  2001  0FE8                     	;# 
  2002  0FE9                     	;# 
  2003  0FEA                     	;# 
  2004  0FEB                     	;# 
  2005  0FED                     	;# 
  2006  0FEE                     	;# 
  2007  0FEF                     	;# 
  2008  0000                     	;# 
  2009  0001                     	;# 
  2010  0002                     	;# 
  2011  0003                     	;# 
  2012  0004                     	;# 
  2013  0005                     	;# 
  2014  0006                     	;# 
  2015  0007                     	;# 
  2016  0008                     	;# 
  2017  0009                     	;# 
  2018  000A                     	;# 
  2019  000B                     	;# 
  2020  000C                     	;# 
  2021  000D                     	;# 
  2022  000E                     	;# 
  2023  0010                     	;# 
  2024  0011                     	;# 
  2025  0012                     	;# 
  2026  0013                     	;# 
  2027  0015                     	;# 
  2028  0016                     	;# 
  2029  0016                     	;# 
  2030  0017                     	;# 
  2031  0018                     	;# 
  2032  0019                     	;# 
  2033  001A                     	;# 
  2034  001B                     	;# 
  2035  001C                     	;# 
  2036  001E                     	;# 
  2037  001F                     	;# 
  2038  008C                     	;# 
  2039  008D                     	;# 
  2040  008E                     	;# 
  2041  0090                     	;# 
  2042  0091                     	;# 
  2043  0092                     	;# 
  2044  0093                     	;# 
  2045  0095                     	;# 
  2046  0096                     	;# 
  2047  0097                     	;# 
  2048  0098                     	;# 
  2049  0099                     	;# 
  2050  009A                     	;# 
  2051  009B                     	;# 
  2052  009B                     	;# 
  2053  009C                     	;# 
  2054  009D                     	;# 
  2055  009E                     	;# 
  2056  010C                     	;# 
  2057  010D                     	;# 
  2058  010E                     	;# 
  2059  0110                     	;# 
  2060  0111                     	;# 
  2061  0112                     	;# 
  2062  0113                     	;# 
  2063  0114                     	;# 
  2064  0115                     	;# 
  2065  0116                     	;# 
  2066  0117                     	;# 
  2067  0118                     	;# 
  2068  0119                     	;# 
  2069  011A                     	;# 
  2070  011B                     	;# 
  2071  011D                     	;# 
  2072  018C                     	;# 
  2073  018D                     	;# 
  2074  0191                     	;# 
  2075  0191                     	;# 
  2076  0192                     	;# 
  2077  0193                     	;# 
  2078  0193                     	;# 
  2079  0193                     	;# 
  2080  0194                     	;# 
  2081  0195                     	;# 
  2082  0196                     	;# 
  2083  0199                     	;# 
  2084  019A                     	;# 
  2085  019B                     	;# 
  2086  019B                     	;# 
  2087  019B                     	;# 
  2088  019B                     	;# 
  2089  019C                     	;# 
  2090  019C                     	;# 
  2091  019D                     	;# 
  2092  019E                     	;# 
  2093  019F                     	;# 
  2094  020D                     	;# 
  2095  0210                     	;# 
  2096  0211                     	;# 
  2097  0212                     	;# 
  2098  0213                     	;# 
  2099  0214                     	;# 
  2100  0215                     	;# 
  2101  0215                     	;# 
  2102  0216                     	;# 
  2103  0217                     	;# 
  2104  0291                     	;# 
  2105  0291                     	;# 
  2106  0292                     	;# 
  2107  0293                     	;# 
  2108  0294                     	;# 
  2109  0295                     	;# 
  2110  0295                     	;# 
  2111  0296                     	;# 
  2112  0298                     	;# 
  2113  0298                     	;# 
  2114  0299                     	;# 
  2115  029A                     	;# 
  2116  029B                     	;# 
  2117  029C                     	;# 
  2118  029C                     	;# 
  2119  029D                     	;# 
  2120  029E                     	;# 
  2121  029F                     	;# 
  2122  0311                     	;# 
  2123  0311                     	;# 
  2124  0312                     	;# 
  2125  0313                     	;# 
  2126  0314                     	;# 
  2127  0315                     	;# 
  2128  0315                     	;# 
  2129  0316                     	;# 
  2130  0318                     	;# 
  2131  0318                     	;# 
  2132  0319                     	;# 
  2133  031A                     	;# 
  2134  031C                     	;# 
  2135  031C                     	;# 
  2136  031D                     	;# 
  2137  031E                     	;# 
  2138  0394                     	;# 
  2139  0395                     	;# 
  2140  0396                     	;# 
  2141  0415                     	;# 
  2142  0416                     	;# 
  2143  0417                     	;# 
  2144  041C                     	;# 
  2145  041D                     	;# 
  2146  041E                     	;# 
  2147  0791                     	;# 
  2148  0792                     	;# 
  2149  0793                     	;# 
  2150  0794                     	;# 
  2151  0795                     	;# 
  2152  0798                     	;# 
  2153  0799                     	;# 
  2154  07A0                     	;# 
  2155  07A1                     	;# 
  2156  07A3                     	;# 
  2157  07A4                     	;# 
  2158  07A6                     	;# 
  2159  07A7                     	;# 
  2160  07A9                     	;# 
  2161  07AA                     	;# 
  2162  0FE4                     	;# 
  2163  0FE5                     	;# 
  2164  0FE6                     	;# 
  2165  0FE7                     	;# 
  2166  0FE8                     	;# 
  2167  0FE9                     	;# 
  2168  0FEA                     	;# 
  2169  0FEB                     	;# 
  2170  0FED                     	;# 
  2171  0FEE                     	;# 
  2172  0FEF                     	;# 
  2173  0000                     	;# 
  2174  0001                     	;# 
  2175  0002                     	;# 
  2176  0003                     	;# 
  2177  0004                     	;# 
  2178  0005                     	;# 
  2179  0006                     	;# 
  2180  0007                     	;# 
  2181  0008                     	;# 
  2182  0009                     	;# 
  2183  000A                     	;# 
  2184  000B                     	;# 
  2185  000C                     	;# 
  2186  000D                     	;# 
  2187  000E                     	;# 
  2188  0010                     	;# 
  2189  0011                     	;# 
  2190  0012                     	;# 
  2191  0013                     	;# 
  2192  0015                     	;# 
  2193  0016                     	;# 
  2194  0016                     	;# 
  2195  0017                     	;# 
  2196  0018                     	;# 
  2197  0019                     	;# 
  2198  001A                     	;# 
  2199  001B                     	;# 
  2200  001C                     	;# 
  2201  001E                     	;# 
  2202  001F                     	;# 
  2203  008C                     	;# 
  2204  008D                     	;# 
  2205  008E                     	;# 
  2206  0090                     	;# 
  2207  0091                     	;# 
  2208  0092                     	;# 
  2209  0093                     	;# 
  2210  0095                     	;# 
  2211  0096                     	;# 
  2212  0097                     	;# 
  2213  0098                     	;# 
  2214  0099                     	;# 
  2215  009A                     	;# 
  2216  009B                     	;# 
  2217  009B                     	;# 
  2218  009C                     	;# 
  2219  009D                     	;# 
  2220  009E                     	;# 
  2221  010C                     	;# 
  2222  010D                     	;# 
  2223  010E                     	;# 
  2224  0110                     	;# 
  2225  0111                     	;# 
  2226  0112                     	;# 
  2227  0113                     	;# 
  2228  0114                     	;# 
  2229  0115                     	;# 
  2230  0116                     	;# 
  2231  0117                     	;# 
  2232  0118                     	;# 
  2233  0119                     	;# 
  2234  011A                     	;# 
  2235  011B                     	;# 
  2236  011D                     	;# 
  2237  018C                     	;# 
  2238  018D                     	;# 
  2239  0191                     	;# 
  2240  0191                     	;# 
  2241  0192                     	;# 
  2242  0193                     	;# 
  2243  0193                     	;# 
  2244  0193                     	;# 
  2245  0194                     	;# 
  2246  0195                     	;# 
  2247  0196                     	;# 
  2248  0199                     	;# 
  2249  019A                     	;# 
  2250  019B                     	;# 
  2251  019B                     	;# 
  2252  019B                     	;# 
  2253  019B                     	;# 
  2254  019C                     	;# 
  2255  019C                     	;# 
  2256  019D                     	;# 
  2257  019E                     	;# 
  2258  019F                     	;# 
  2259  020D                     	;# 
  2260  0210                     	;# 
  2261  0211                     	;# 
  2262  0212                     	;# 
  2263  0213                     	;# 
  2264  0214                     	;# 
  2265  0215                     	;# 
  2266  0215                     	;# 
  2267  0216                     	;# 
  2268  0217                     	;# 
  2269  0291                     	;# 
  2270  0291                     	;# 
  2271  0292                     	;# 
  2272  0293                     	;# 
  2273  0294                     	;# 
  2274  0295                     	;# 
  2275  0295                     	;# 
  2276  0296                     	;# 
  2277  0298                     	;# 
  2278  0298                     	;# 
  2279  0299                     	;# 
  2280  029A                     	;# 
  2281  029B                     	;# 
  2282  029C                     	;# 
  2283  029C                     	;# 
  2284  029D                     	;# 
  2285  029E                     	;# 
  2286  029F                     	;# 
  2287  0311                     	;# 
  2288  0311                     	;# 
  2289  0312                     	;# 
  2290  0313                     	;# 
  2291  0314                     	;# 
  2292  0315                     	;# 
  2293  0315                     	;# 
  2294  0316                     	;# 
  2295  0318                     	;# 
  2296  0318                     	;# 
  2297  0319                     	;# 
  2298  031A                     	;# 
  2299  031C                     	;# 
  2300  031C                     	;# 
  2301  031D                     	;# 
  2302  031E                     	;# 
  2303  0394                     	;# 
  2304  0395                     	;# 
  2305  0396                     	;# 
  2306  0415                     	;# 
  2307  0416                     	;# 
  2308  0417                     	;# 
  2309  041C                     	;# 
  2310  041D                     	;# 
  2311  041E                     	;# 
  2312  0791                     	;# 
  2313  0792                     	;# 
  2314  0793                     	;# 
  2315  0794                     	;# 
  2316  0795                     	;# 
  2317  0798                     	;# 
  2318  0799                     	;# 
  2319  07A0                     	;# 
  2320  07A1                     	;# 
  2321  07A3                     	;# 
  2322  07A4                     	;# 
  2323  07A6                     	;# 
  2324  07A7                     	;# 
  2325  07A9                     	;# 
  2326  07AA                     	;# 
  2327  0FE4                     	;# 
  2328  0FE5                     	;# 
  2329  0FE6                     	;# 
  2330  0FE7                     	;# 
  2331  0FE8                     	;# 
  2332  0FE9                     	;# 
  2333  0FEA                     	;# 
  2334  0FEB                     	;# 
  2335  0FED                     	;# 
  2336  0FEE                     	;# 
  2337  0FEF                     	;# 
  2338  0000                     	;# 
  2339  0001                     	;# 
  2340  0002                     	;# 
  2341  0003                     	;# 
  2342  0004                     	;# 
  2343  0005                     	;# 
  2344  0006                     	;# 
  2345  0007                     	;# 
  2346  0008                     	;# 
  2347  0009                     	;# 
  2348  000A                     	;# 
  2349  000B                     	;# 
  2350  000C                     	;# 
  2351  000D                     	;# 
  2352  000E                     	;# 
  2353  0010                     	;# 
  2354  0011                     	;# 
  2355  0012                     	;# 
  2356  0013                     	;# 
  2357  0015                     	;# 
  2358  0016                     	;# 
  2359  0016                     	;# 
  2360  0017                     	;# 
  2361  0018                     	;# 
  2362  0019                     	;# 
  2363  001A                     	;# 
  2364  001B                     	;# 
  2365  001C                     	;# 
  2366  001E                     	;# 
  2367  001F                     	;# 
  2368  008C                     	;# 
  2369  008D                     	;# 
  2370  008E                     	;# 
  2371  0090                     	;# 
  2372  0091                     	;# 
  2373  0092                     	;# 
  2374  0093                     	;# 
  2375  0095                     	;# 
  2376  0096                     	;# 
  2377  0097                     	;# 
  2378  0098                     	;# 
  2379  0099                     	;# 
  2380  009A                     	;# 
  2381  009B                     	;# 
  2382  009B                     	;# 
  2383  009C                     	;# 
  2384  009D                     	;# 
  2385  009E                     	;# 
  2386  010C                     	;# 
  2387  010D                     	;# 
  2388  010E                     	;# 
  2389  0110                     	;# 
  2390  0111                     	;# 
  2391  0112                     	;# 
  2392  0113                     	;# 
  2393  0114                     	;# 
  2394  0115                     	;# 
  2395  0116                     	;# 
  2396  0117                     	;# 
  2397  0118                     	;# 
  2398  0119                     	;# 
  2399  011A                     	;# 
  2400  011B                     	;# 
  2401  011D                     	;# 
  2402  018C                     	;# 
  2403  018D                     	;# 
  2404  0191                     	;# 
  2405  0191                     	;# 
  2406  0192                     	;# 
  2407  0193                     	;# 
  2408  0193                     	;# 
  2409  0193                     	;# 
  2410  0194                     	;# 
  2411  0195                     	;# 
  2412  0196                     	;# 
  2413  0199                     	;# 
  2414  019A                     	;# 
  2415  019B                     	;# 
  2416  019B                     	;# 
  2417  019B                     	;# 
  2418  019B                     	;# 
  2419  019C                     	;# 
  2420  019C                     	;# 
  2421  019D                     	;# 
  2422  019E                     	;# 
  2423  019F                     	;# 
  2424  020D                     	;# 
  2425  0210                     	;# 
  2426  0211                     	;# 
  2427  0212                     	;# 
  2428  0213                     	;# 
  2429  0214                     	;# 
  2430  0215                     	;# 
  2431  0215                     	;# 
  2432  0216                     	;# 
  2433  0217                     	;# 
  2434  0291                     	;# 
  2435  0291                     	;# 
  2436  0292                     	;# 
  2437  0293                     	;# 
  2438  0294                     	;# 
  2439  0295                     	;# 
  2440  0295                     	;# 
  2441  0296                     	;# 
  2442  0298                     	;# 
  2443  0298                     	;# 
  2444  0299                     	;# 
  2445  029A                     	;# 
  2446  029B                     	;# 
  2447  029C                     	;# 
  2448  029C                     	;# 
  2449  029D                     	;# 
  2450  029E                     	;# 
  2451  029F                     	;# 
  2452  0311                     	;# 
  2453  0311                     	;# 
  2454  0312                     	;# 
  2455  0313                     	;# 
  2456  0314                     	;# 
  2457  0315                     	;# 
  2458  0315                     	;# 
  2459  0316                     	;# 
  2460  0318                     	;# 
  2461  0318                     	;# 
  2462  0319                     	;# 
  2463  031A                     	;# 
  2464  031C                     	;# 
  2465  031C                     	;# 
  2466  031D                     	;# 
  2467  031E                     	;# 
  2468  0394                     	;# 
  2469  0395                     	;# 
  2470  0396                     	;# 
  2471  0415                     	;# 
  2472  0416                     	;# 
  2473  0417                     	;# 
  2474  041C                     	;# 
  2475  041D                     	;# 
  2476  041E                     	;# 
  2477  0791                     	;# 
  2478  0792                     	;# 
  2479  0793                     	;# 
  2480  0794                     	;# 
  2481  0795                     	;# 
  2482  0798                     	;# 
  2483  0799                     	;# 
  2484  07A0                     	;# 
  2485  07A1                     	;# 
  2486  07A3                     	;# 
  2487  07A4                     	;# 
  2488  07A6                     	;# 
  2489  07A7                     	;# 
  2490  07A9                     	;# 
  2491  07AA                     	;# 
  2492  0FE4                     	;# 
  2493  0FE5                     	;# 
  2494  0FE6                     	;# 
  2495  0FE7                     	;# 
  2496  0FE8                     	;# 
  2497  0FE9                     	;# 
  2498  0FEA                     	;# 
  2499  0FEB                     	;# 
  2500  0FED                     	;# 
  2501  0FEE                     	;# 
  2502  0FEF                     	;# 
  2503  0000                     	;# 
  2504  0001                     	;# 
  2505  0002                     	;# 
  2506  0003                     	;# 
  2507  0004                     	;# 
  2508  0005                     	;# 
  2509  0006                     	;# 
  2510  0007                     	;# 
  2511  0008                     	;# 
  2512  0009                     	;# 
  2513  000A                     	;# 
  2514  000B                     	;# 
  2515  000C                     	;# 
  2516  000D                     	;# 
  2517  000E                     	;# 
  2518  0010                     	;# 
  2519  0011                     	;# 
  2520  0012                     	;# 
  2521  0013                     	;# 
  2522  0015                     	;# 
  2523  0016                     	;# 
  2524  0016                     	;# 
  2525  0017                     	;# 
  2526  0018                     	;# 
  2527  0019                     	;# 
  2528  001A                     	;# 
  2529  001B                     	;# 
  2530  001C                     	;# 
  2531  001E                     	;# 
  2532  001F                     	;# 
  2533  008C                     	;# 
  2534  008D                     	;# 
  2535  008E                     	;# 
  2536  0090                     	;# 
  2537  0091                     	;# 
  2538  0092                     	;# 
  2539  0093                     	;# 
  2540  0095                     	;# 
  2541  0096                     	;# 
  2542  0097                     	;# 
  2543  0098                     	;# 
  2544  0099                     	;# 
  2545  009A                     	;# 
  2546  009B                     	;# 
  2547  009B                     	;# 
  2548  009C                     	;# 
  2549  009D                     	;# 
  2550  009E                     	;# 
  2551  010C                     	;# 
  2552  010D                     	;# 
  2553  010E                     	;# 
  2554  0110                     	;# 
  2555  0111                     	;# 
  2556  0112                     	;# 
  2557  0113                     	;# 
  2558  0114                     	;# 
  2559  0115                     	;# 
  2560  0116                     	;# 
  2561  0117                     	;# 
  2562  0118                     	;# 
  2563  0119                     	;# 
  2564  011A                     	;# 
  2565  011B                     	;# 
  2566  011D                     	;# 
  2567  018C                     	;# 
  2568  018D                     	;# 
  2569  0191                     	;# 
  2570  0191                     	;# 
  2571  0192                     	;# 
  2572  0193                     	;# 
  2573  0193                     	;# 
  2574  0193                     	;# 
  2575  0194                     	;# 
  2576  0195                     	;# 
  2577  0196                     	;# 
  2578  0199                     	;# 
  2579  019A                     	;# 
  2580  019B                     	;# 
  2581  019B                     	;# 
  2582  019B                     	;# 
  2583  019B                     	;# 
  2584  019C                     	;# 
  2585  019C                     	;# 
  2586  019D                     	;# 
  2587  019E                     	;# 
  2588  019F                     	;# 
  2589  020D                     	;# 
  2590  0210                     	;# 
  2591  0211                     	;# 
  2592  0212                     	;# 
  2593  0213                     	;# 
  2594  0214                     	;# 
  2595  0215                     	;# 
  2596  0215                     	;# 
  2597  0216                     	;# 
  2598  0217                     	;# 
  2599  0291                     	;# 
  2600  0291                     	;# 
  2601  0292                     	;# 
  2602  0293                     	;# 
  2603  0294                     	;# 
  2604  0295                     	;# 
  2605  0295                     	;# 
  2606  0296                     	;# 
  2607  0298                     	;# 
  2608  0298                     	;# 
  2609  0299                     	;# 
  2610  029A                     	;# 
  2611  029B                     	;# 
  2612  029C                     	;# 
  2613  029C                     	;# 
  2614  029D                     	;# 
  2615  029E                     	;# 
  2616  029F                     	;# 
  2617  0311                     	;# 
  2618  0311                     	;# 
  2619  0312                     	;# 
  2620  0313                     	;# 
  2621  0314                     	;# 
  2622  0315                     	;# 
  2623  0315                     	;# 
  2624  0316                     	;# 
  2625  0318                     	;# 
  2626  0318                     	;# 
  2627  0319                     	;# 
  2628  031A                     	;# 
  2629  031C                     	;# 
  2630  031C                     	;# 
  2631  031D                     	;# 
  2632  031E                     	;# 
  2633  0394                     	;# 
  2634  0395                     	;# 
  2635  0396                     	;# 
  2636  0415                     	;# 
  2637  0416                     	;# 
  2638  0417                     	;# 
  2639  041C                     	;# 
  2640  041D                     	;# 
  2641  041E                     	;# 
  2642  0791                     	;# 
  2643  0792                     	;# 
  2644  0793                     	;# 
  2645  0794                     	;# 
  2646  0795                     	;# 
  2647  0798                     	;# 
  2648  0799                     	;# 
  2649  07A0                     	;# 
  2650  07A1                     	;# 
  2651  07A3                     	;# 
  2652  07A4                     	;# 
  2653  07A6                     	;# 
  2654  07A7                     	;# 
  2655  07A9                     	;# 
  2656  07AA                     	;# 
  2657  0FE4                     	;# 
  2658  0FE5                     	;# 
  2659  0FE6                     	;# 
  2660  0FE7                     	;# 
  2661  0FE8                     	;# 
  2662  0FE9                     	;# 
  2663  0FEA                     	;# 
  2664  0FEB                     	;# 
  2665  0FED                     	;# 
  2666  0FEE                     	;# 
  2667  0FEF                     	;# 
  2668  0000                     	;# 
  2669  0001                     	;# 
  2670  0002                     	;# 
  2671  0003                     	;# 
  2672  0004                     	;# 
  2673  0005                     	;# 
  2674  0006                     	;# 
  2675  0007                     	;# 
  2676  0008                     	;# 
  2677  0009                     	;# 
  2678  000A                     	;# 
  2679  000B                     	;# 
  2680  000C                     	;# 
  2681  000D                     	;# 
  2682  000E                     	;# 
  2683  0010                     	;# 
  2684  0011                     	;# 
  2685  0012                     	;# 
  2686  0013                     	;# 
  2687  0015                     	;# 
  2688  0016                     	;# 
  2689  0016                     	;# 
  2690  0017                     	;# 
  2691  0018                     	;# 
  2692  0019                     	;# 
  2693  001A                     	;# 
  2694  001B                     	;# 
  2695  001C                     	;# 
  2696  001E                     	;# 
  2697  001F                     	;# 
  2698  008C                     	;# 
  2699  008D                     	;# 
  2700  008E                     	;# 
  2701  0090                     	;# 
  2702  0091                     	;# 
  2703  0092                     	;# 
  2704  0093                     	;# 
  2705  0095                     	;# 
  2706  0096                     	;# 
  2707  0097                     	;# 
  2708  0098                     	;# 
  2709  0099                     	;# 
  2710  009A                     	;# 
  2711  009B                     	;# 
  2712  009B                     	;# 
  2713  009C                     	;# 
  2714  009D                     	;# 
  2715  009E                     	;# 
  2716  010C                     	;# 
  2717  010D                     	;# 
  2718  010E                     	;# 
  2719  0110                     	;# 
  2720  0111                     	;# 
  2721  0112                     	;# 
  2722  0113                     	;# 
  2723  0114                     	;# 
  2724  0115                     	;# 
  2725  0116                     	;# 
  2726  0117                     	;# 
  2727  0118                     	;# 
  2728  0119                     	;# 
  2729  011A                     	;# 
  2730  011B                     	;# 
  2731  011D                     	;# 
  2732  018C                     	;# 
  2733  018D                     	;# 
  2734  0191                     	;# 
  2735  0191                     	;# 
  2736  0192                     	;# 
  2737  0193                     	;# 
  2738  0193                     	;# 
  2739  0193                     	;# 
  2740  0194                     	;# 
  2741  0195                     	;# 
  2742  0196                     	;# 
  2743  0199                     	;# 
  2744  019A                     	;# 
  2745  019B                     	;# 
  2746  019B                     	;# 
  2747  019B                     	;# 
  2748  019B                     	;# 
  2749  019C                     	;# 
  2750  019C                     	;# 
  2751  019D                     	;# 
  2752  019E                     	;# 
  2753  019F                     	;# 
  2754  020D                     	;# 
  2755  0210                     	;# 
  2756  0211                     	;# 
  2757  0212                     	;# 
  2758  0213                     	;# 
  2759  0214                     	;# 
  2760  0215                     	;# 
  2761  0215                     	;# 
  2762  0216                     	;# 
  2763  0217                     	;# 
  2764  0291                     	;# 
  2765  0291                     	;# 
  2766  0292                     	;# 
  2767  0293                     	;# 
  2768  0294                     	;# 
  2769  0295                     	;# 
  2770  0295                     	;# 
  2771  0296                     	;# 
  2772  0298                     	;# 
  2773  0298                     	;# 
  2774  0299                     	;# 
  2775  029A                     	;# 
  2776  029B                     	;# 
  2777  029C                     	;# 
  2778  029C                     	;# 
  2779  029D                     	;# 
  2780  029E                     	;# 
  2781  029F                     	;# 
  2782  0311                     	;# 
  2783  0311                     	;# 
  2784  0312                     	;# 
  2785  0313                     	;# 
  2786  0314                     	;# 
  2787  0315                     	;# 
  2788  0315                     	;# 
  2789  0316                     	;# 
  2790  0318                     	;# 
  2791  0318                     	;# 
  2792  0319                     	;# 
  2793  031A                     	;# 
  2794  031C                     	;# 
  2795  031C                     	;# 
  2796  031D                     	;# 
  2797  031E                     	;# 
  2798  0394                     	;# 
  2799  0395                     	;# 
  2800  0396                     	;# 
  2801  0415                     	;# 
  2802  0416                     	;# 
  2803  0417                     	;# 
  2804  041C                     	;# 
  2805  041D                     	;# 
  2806  041E                     	;# 
  2807  0791                     	;# 
  2808  0792                     	;# 
  2809  0793                     	;# 
  2810  0794                     	;# 
  2811  0795                     	;# 
  2812  0798                     	;# 
  2813  0799                     	;# 
  2814  07A0                     	;# 
  2815  07A1                     	;# 
  2816  07A3                     	;# 
  2817  07A4                     	;# 
  2818  07A6                     	;# 
  2819  07A7                     	;# 
  2820  07A9                     	;# 
  2821  07AA                     	;# 
  2822  0FE4                     	;# 
  2823  0FE5                     	;# 
  2824  0FE6                     	;# 
  2825  0FE7                     	;# 
  2826  0FE8                     	;# 
  2827  0FE9                     	;# 
  2828  0FEA                     	;# 
  2829  0FEB                     	;# 
  2830  0FED                     	;# 
  2831  0FEE                     	;# 
  2832  0FEF                     	;# 
  2833  0000                     	;# 
  2834  0001                     	;# 
  2835  0002                     	;# 
  2836  0003                     	;# 
  2837  0004                     	;# 
  2838  0005                     	;# 
  2839  0006                     	;# 
  2840  0007                     	;# 
  2841  0008                     	;# 
  2842  0009                     	;# 
  2843  000A                     	;# 
  2844  000B                     	;# 
  2845  000C                     	;# 
  2846  000D                     	;# 
  2847  000E                     	;# 
  2848  0010                     	;# 
  2849  0011                     	;# 
  2850  0012                     	;# 
  2851  0013                     	;# 
  2852  0015                     	;# 
  2853  0016                     	;# 
  2854  0016                     	;# 
  2855  0017                     	;# 
  2856  0018                     	;# 
  2857  0019                     	;# 
  2858  001A                     	;# 
  2859  001B                     	;# 
  2860  001C                     	;# 
  2861  001E                     	;# 
  2862  001F                     	;# 
  2863  008C                     	;# 
  2864  008D                     	;# 
  2865  008E                     	;# 
  2866  0090                     	;# 
  2867  0091                     	;# 
  2868  0092                     	;# 
  2869  0093                     	;# 
  2870  0095                     	;# 
  2871  0096                     	;# 
  2872  0097                     	;# 
  2873  0098                     	;# 
  2874  0099                     	;# 
  2875  009A                     	;# 
  2876  009B                     	;# 
  2877  009B                     	;# 
  2878  009C                     	;# 
  2879  009D                     	;# 
  2880  009E                     	;# 
  2881  010C                     	;# 
  2882  010D                     	;# 
  2883  010E                     	;# 
  2884  0110                     	;# 
  2885  0111                     	;# 
  2886  0112                     	;# 
  2887  0113                     	;# 
  2888  0114                     	;# 
  2889  0115                     	;# 
  2890  0116                     	;# 
  2891  0117                     	;# 
  2892  0118                     	;# 
  2893  0119                     	;# 
  2894  011A                     	;# 
  2895  011B                     	;# 
  2896  011D                     	;# 
  2897  018C                     	;# 
  2898  018D                     	;# 
  2899  0191                     	;# 
  2900  0191                     	;# 
  2901  0192                     	;# 
  2902  0193                     	;# 
  2903  0193                     	;# 
  2904  0193                     	;# 
  2905  0194                     	;# 
  2906  0195                     	;# 
  2907  0196                     	;# 
  2908  0199                     	;# 
  2909  019A                     	;# 
  2910  019B                     	;# 
  2911  019B                     	;# 
  2912  019B                     	;# 
  2913  019B                     	;# 
  2914  019C                     	;# 
  2915  019C                     	;# 
  2916  019D                     	;# 
  2917  019E                     	;# 
  2918  019F                     	;# 
  2919  020D                     	;# 
  2920  0210                     	;# 
  2921  0211                     	;# 
  2922  0212                     	;# 
  2923  0213                     	;# 
  2924  0214                     	;# 
  2925  0215                     	;# 
  2926  0215                     	;# 
  2927  0216                     	;# 
  2928  0217                     	;# 
  2929  0291                     	;# 
  2930  0291                     	;# 
  2931  0292                     	;# 
  2932  0293                     	;# 
  2933  0294                     	;# 
  2934  0295                     	;# 
  2935  0295                     	;# 
  2936  0296                     	;# 
  2937  0298                     	;# 
  2938  0298                     	;# 
  2939  0299                     	;# 
  2940  029A                     	;# 
  2941  029B                     	;# 
  2942  029C                     	;# 
  2943  029C                     	;# 
  2944  029D                     	;# 
  2945  029E                     	;# 
  2946  029F                     	;# 
  2947  0311                     	;# 
  2948  0311                     	;# 
  2949  0312                     	;# 
  2950  0313                     	;# 
  2951  0314                     	;# 
  2952  0315                     	;# 
  2953  0315                     	;# 
  2954  0316                     	;# 
  2955  0318                     	;# 
  2956  0318                     	;# 
  2957  0319                     	;# 
  2958  031A                     	;# 
  2959  031C                     	;# 
  2960  031C                     	;# 
  2961  031D                     	;# 
  2962  031E                     	;# 
  2963  0394                     	;# 
  2964  0395                     	;# 
  2965  0396                     	;# 
  2966  0415                     	;# 
  2967  0416                     	;# 
  2968  0417                     	;# 
  2969  041C                     	;# 
  2970  041D                     	;# 
  2971  041E                     	;# 
  2972  0791                     	;# 
  2973  0792                     	;# 
  2974  0793                     	;# 
  2975  0794                     	;# 
  2976  0795                     	;# 
  2977  0798                     	;# 
  2978  0799                     	;# 
  2979  07A0                     	;# 
  2980  07A1                     	;# 
  2981  07A3                     	;# 
  2982  07A4                     	;# 
  2983  07A6                     	;# 
  2984  07A7                     	;# 
  2985  07A9                     	;# 
  2986  07AA                     	;# 
  2987  0FE4                     	;# 
  2988  0FE5                     	;# 
  2989  0FE6                     	;# 
  2990  0FE7                     	;# 
  2991  0FE8                     	;# 
  2992  0FE9                     	;# 
  2993  0FEA                     	;# 
  2994  0FEB                     	;# 
  2995  0FED                     	;# 
  2996  0FEE                     	;# 
  2997  0FEF                     	;# 
  2998  0000                     	;# 
  2999  0001                     	;# 
  3000  0002                     	;# 
  3001  0003                     	;# 
  3002  0004                     	;# 
  3003  0005                     	;# 
  3004  0006                     	;# 
  3005  0007                     	;# 
  3006  0008                     	;# 
  3007  0009                     	;# 
  3008  000A                     	;# 
  3009  000B                     	;# 
  3010  000C                     	;# 
  3011  000D                     	;# 
  3012  000E                     	;# 
  3013  0010                     	;# 
  3014  0011                     	;# 
  3015  0012                     	;# 
  3016  0013                     	;# 
  3017  0015                     	;# 
  3018  0016                     	;# 
  3019  0016                     	;# 
  3020  0017                     	;# 
  3021  0018                     	;# 
  3022  0019                     	;# 
  3023  001A                     	;# 
  3024  001B                     	;# 
  3025  001C                     	;# 
  3026  001E                     	;# 
  3027  001F                     	;# 
  3028  008C                     	;# 
  3029  008D                     	;# 
  3030  008E                     	;# 
  3031  0090                     	;# 
  3032  0091                     	;# 
  3033  0092                     	;# 
  3034  0093                     	;# 
  3035  0095                     	;# 
  3036  0096                     	;# 
  3037  0097                     	;# 
  3038  0098                     	;# 
  3039  0099                     	;# 
  3040  009A                     	;# 
  3041  009B                     	;# 
  3042  009B                     	;# 
  3043  009C                     	;# 
  3044  009D                     	;# 
  3045  009E                     	;# 
  3046  010C                     	;# 
  3047  010D                     	;# 
  3048  010E                     	;# 
  3049  0110                     	;# 
  3050  0111                     	;# 
  3051  0112                     	;# 
  3052  0113                     	;# 
  3053  0114                     	;# 
  3054  0115                     	;# 
  3055  0116                     	;# 
  3056  0117                     	;# 
  3057  0118                     	;# 
  3058  0119                     	;# 
  3059  011A                     	;# 
  3060  011B                     	;# 
  3061  011D                     	;# 
  3062  018C                     	;# 
  3063  018D                     	;# 
  3064  0191                     	;# 
  3065  0191                     	;# 
  3066  0192                     	;# 
  3067  0193                     	;# 
  3068  0193                     	;# 
  3069  0193                     	;# 
  3070  0194                     	;# 
  3071  0195                     	;# 
  3072  0196                     	;# 
  3073  0199                     	;# 
  3074  019A                     	;# 
  3075  019B                     	;# 
  3076  019B                     	;# 
  3077  019B                     	;# 
  3078  019B                     	;# 
  3079  019C                     	;# 
  3080  019C                     	;# 
  3081  019D                     	;# 
  3082  019E                     	;# 
  3083  019F                     	;# 
  3084  020D                     	;# 
  3085  0210                     	;# 
  3086  0211                     	;# 
  3087  0212                     	;# 
  3088  0213                     	;# 
  3089  0214                     	;# 
  3090  0215                     	;# 
  3091  0215                     	;# 
  3092  0216                     	;# 
  3093  0217                     	;# 
  3094  0291                     	;# 
  3095  0291                     	;# 
  3096  0292                     	;# 
  3097  0293                     	;# 
  3098  0294                     	;# 
  3099  0295                     	;# 
  3100  0295                     	;# 
  3101  0296                     	;# 
  3102  0298                     	;# 
  3103  0298                     	;# 
  3104  0299                     	;# 
  3105  029A                     	;# 
  3106  029B                     	;# 
  3107  029C                     	;# 
  3108  029C                     	;# 
  3109  029D                     	;# 
  3110  029E                     	;# 
  3111  029F                     	;# 
  3112  0311                     	;# 
  3113  0311                     	;# 
  3114  0312                     	;# 
  3115  0313                     	;# 
  3116  0314                     	;# 
  3117  0315                     	;# 
  3118  0315                     	;# 
  3119  0316                     	;# 
  3120  0318                     	;# 
  3121  0318                     	;# 
  3122  0319                     	;# 
  3123  031A                     	;# 
  3124  031C                     	;# 
  3125  031C                     	;# 
  3126  031D                     	;# 
  3127  031E                     	;# 
  3128  0394                     	;# 
  3129  0395                     	;# 
  3130  0396                     	;# 
  3131  0415                     	;# 
  3132  0416                     	;# 
  3133  0417                     	;# 
  3134  041C                     	;# 
  3135  041D                     	;# 
  3136  041E                     	;# 
  3137  0791                     	;# 
  3138  0792                     	;# 
  3139  0793                     	;# 
  3140  0794                     	;# 
  3141  0795                     	;# 
  3142  0798                     	;# 
  3143  0799                     	;# 
  3144  07A0                     	;# 
  3145  07A1                     	;# 
  3146  07A3                     	;# 
  3147  07A4                     	;# 
  3148  07A6                     	;# 
  3149  07A7                     	;# 
  3150  07A9                     	;# 
  3151  07AA                     	;# 
  3152  0FE4                     	;# 
  3153  0FE5                     	;# 
  3154  0FE6                     	;# 
  3155  0FE7                     	;# 
  3156  0FE8                     	;# 
  3157  0FE9                     	;# 
  3158  0FEA                     	;# 
  3159  0FEB                     	;# 
  3160  0FED                     	;# 
  3161  0FEE                     	;# 
  3162  0FEF                     	;# 
  3163  0000                     	;# 
  3164  0001                     	;# 
  3165  0002                     	;# 
  3166  0003                     	;# 
  3167  0004                     	;# 
  3168  0005                     	;# 
  3169  0006                     	;# 
  3170  0007                     	;# 
  3171  0008                     	;# 
  3172  0009                     	;# 
  3173  000A                     	;# 
  3174  000B                     	;# 
  3175  000C                     	;# 
  3176  000D                     	;# 
  3177  000E                     	;# 
  3178  0010                     	;# 
  3179  0011                     	;# 
  3180  0012                     	;# 
  3181  0013                     	;# 
  3182  0015                     	;# 
  3183  0016                     	;# 
  3184  0016                     	;# 
  3185  0017                     	;# 
  3186  0018                     	;# 
  3187  0019                     	;# 
  3188  001A                     	;# 
  3189  001B                     	;# 
  3190  001C                     	;# 
  3191  001E                     	;# 
  3192  001F                     	;# 
  3193  008C                     	;# 
  3194  008D                     	;# 
  3195  008E                     	;# 
  3196  0090                     	;# 
  3197  0091                     	;# 
  3198  0092                     	;# 
  3199  0093                     	;# 
  3200  0095                     	;# 
  3201  0096                     	;# 
  3202  0097                     	;# 
  3203  0098                     	;# 
  3204  0099                     	;# 
  3205  009A                     	;# 
  3206  009B                     	;# 
  3207  009B                     	;# 
  3208  009C                     	;# 
  3209  009D                     	;# 
  3210  009E                     	;# 
  3211  010C                     	;# 
  3212  010D                     	;# 
  3213  010E                     	;# 
  3214  0110                     	;# 
  3215  0111                     	;# 
  3216  0112                     	;# 
  3217  0113                     	;# 
  3218  0114                     	;# 
  3219  0115                     	;# 
  3220  0116                     	;# 
  3221  0117                     	;# 
  3222  0118                     	;# 
  3223  0119                     	;# 
  3224  011A                     	;# 
  3225  011B                     	;# 
  3226  011D                     	;# 
  3227  018C                     	;# 
  3228  018D                     	;# 
  3229  0191                     	;# 
  3230  0191                     	;# 
  3231  0192                     	;# 
  3232  0193                     	;# 
  3233  0193                     	;# 
  3234  0193                     	;# 
  3235  0194                     	;# 
  3236  0195                     	;# 
  3237  0196                     	;# 
  3238  0199                     	;# 
  3239  019A                     	;# 
  3240  019B                     	;# 
  3241  019B                     	;# 
  3242  019B                     	;# 
  3243  019B                     	;# 
  3244  019C                     	;# 
  3245  019C                     	;# 
  3246  019D                     	;# 
  3247  019E                     	;# 
  3248  019F                     	;# 
  3249  020D                     	;# 
  3250  0210                     	;# 
  3251  0211                     	;# 
  3252  0212                     	;# 
  3253  0213                     	;# 
  3254  0214                     	;# 
  3255  0215                     	;# 
  3256  0215                     	;# 
  3257  0216                     	;# 
  3258  0217                     	;# 
  3259  0291                     	;# 
  3260  0291                     	;# 
  3261  0292                     	;# 
  3262  0293                     	;# 
  3263  0294                     	;# 
  3264  0295                     	;# 
  3265  0295                     	;# 
  3266  0296                     	;# 
  3267  0298                     	;# 
  3268  0298                     	;# 
  3269  0299                     	;# 
  3270  029A                     	;# 
  3271  029B                     	;# 
  3272  029C                     	;# 
  3273  029C                     	;# 
  3274  029D                     	;# 
  3275  029E                     	;# 
  3276  029F                     	;# 
  3277  0311                     	;# 
  3278  0311                     	;# 
  3279  0312                     	;# 
  3280  0313                     	;# 
  3281  0314                     	;# 
  3282  0315                     	;# 
  3283  0315                     	;# 
  3284  0316                     	;# 
  3285  0318                     	;# 
  3286  0318                     	;# 
  3287  0319                     	;# 
  3288  031A                     	;# 
  3289  031C                     	;# 
  3290  031C                     	;# 
  3291  031D                     	;# 
  3292  031E                     	;# 
  3293  0394                     	;# 
  3294  0395                     	;# 
  3295  0396                     	;# 
  3296  0415                     	;# 
  3297  0416                     	;# 
  3298  0417                     	;# 
  3299  041C                     	;# 
  3300  041D                     	;# 
  3301  041E                     	;# 
  3302  0791                     	;# 
  3303  0792                     	;# 
  3304  0793                     	;# 
  3305  0794                     	;# 
  3306  0795                     	;# 
  3307  0798                     	;# 
  3308  0799                     	;# 
  3309  07A0                     	;# 
  3310  07A1                     	;# 
  3311  07A3                     	;# 
  3312  07A4                     	;# 
  3313  07A6                     	;# 
  3314  07A7                     	;# 
  3315  07A9                     	;# 
  3316  07AA                     	;# 
  3317  0FE4                     	;# 
  3318  0FE5                     	;# 
  3319  0FE6                     	;# 
  3320  0FE7                     	;# 
  3321  0FE8                     	;# 
  3322  0FE9                     	;# 
  3323  0FEA                     	;# 
  3324  0FEB                     	;# 
  3325  0FED                     	;# 
  3326  0FEE                     	;# 
  3327  0FEF                     	;# 
  3328  0000                     	;# 
  3329  0001                     	;# 
  3330  0002                     	;# 
  3331  0003                     	;# 
  3332  0004                     	;# 
  3333  0005                     	;# 
  3334  0006                     	;# 
  3335  0007                     	;# 
  3336  0008                     	;# 
  3337  0009                     	;# 
  3338  000A                     	;# 
  3339  000B                     	;# 
  3340  000C                     	;# 
  3341  000D                     	;# 
  3342  000E                     	;# 
  3343  0010                     	;# 
  3344  0011                     	;# 
  3345  0012                     	;# 
  3346  0013                     	;# 
  3347  0015                     	;# 
  3348  0016                     	;# 
  3349  0016                     	;# 
  3350  0017                     	;# 
  3351  0018                     	;# 
  3352  0019                     	;# 
  3353  001A                     	;# 
  3354  001B                     	;# 
  3355  001C                     	;# 
  3356  001E                     	;# 
  3357  001F                     	;# 
  3358  008C                     	;# 
  3359  008D                     	;# 
  3360  008E                     	;# 
  3361  0090                     	;# 
  3362  0091                     	;# 
  3363  0092                     	;# 
  3364  0093                     	;# 
  3365  0095                     	;# 
  3366  0096                     	;# 
  3367  0097                     	;# 
  3368  0098                     	;# 
  3369  0099                     	;# 
  3370  009A                     	;# 
  3371  009B                     	;# 
  3372  009B                     	;# 
  3373  009C                     	;# 
  3374  009D                     	;# 
  3375  009E                     	;# 
  3376  010C                     	;# 
  3377  010D                     	;# 
  3378  010E                     	;# 
  3379  0110                     	;# 
  3380  0111                     	;# 
  3381  0112                     	;# 
  3382  0113                     	;# 
  3383  0114                     	;# 
  3384  0115                     	;# 
  3385  0116                     	;# 
  3386  0117                     	;# 
  3387  0118                     	;# 
  3388  0119                     	;# 
  3389  011A                     	;# 
  3390  011B                     	;# 
  3391  011D                     	;# 
  3392  018C                     	;# 
  3393  018D                     	;# 
  3394  0191                     	;# 
  3395  0191                     	;# 
  3396  0192                     	;# 
  3397  0193                     	;# 
  3398  0193                     	;# 
  3399  0193                     	;# 
  3400  0194                     	;# 
  3401  0195                     	;# 
  3402  0196                     	;# 
  3403  0199                     	;# 
  3404  019A                     	;# 
  3405  019B                     	;# 
  3406  019B                     	;# 
  3407  019B                     	;# 
  3408  019B                     	;# 
  3409  019C                     	;# 
  3410  019C                     	;# 
  3411  019D                     	;# 
  3412  019E                     	;# 
  3413  019F                     	;# 
  3414  020D                     	;# 
  3415  0210                     	;# 
  3416  0211                     	;# 
  3417  0212                     	;# 
  3418  0213                     	;# 
  3419  0214                     	;# 
  3420  0215                     	;# 
  3421  0215                     	;# 
  3422  0216                     	;# 
  3423  0217                     	;# 
  3424  0291                     	;# 
  3425  0291                     	;# 
  3426  0292                     	;# 
  3427  0293                     	;# 
  3428  0294                     	;# 
  3429  0295                     	;# 
  3430  0295                     	;# 
  3431  0296                     	;# 
  3432  0298                     	;# 
  3433  0298                     	;# 
  3434  0299                     	;# 
  3435  029A                     	;# 
  3436  029B                     	;# 
  3437  029C                     	;# 
  3438  029C                     	;# 
  3439  029D                     	;# 
  3440  029E                     	;# 
  3441  029F                     	;# 
  3442  0311                     	;# 
  3443  0311                     	;# 
  3444  0312                     	;# 
  3445  0313                     	;# 
  3446  0314                     	;# 
  3447  0315                     	;# 
  3448  0315                     	;# 
  3449  0316                     	;# 
  3450  0318                     	;# 
  3451  0318                     	;# 
  3452  0319                     	;# 
  3453  031A                     	;# 
  3454  031C                     	;# 
  3455  031C                     	;# 
  3456  031D                     	;# 
  3457  031E                     	;# 
  3458  0394                     	;# 
  3459  0395                     	;# 
  3460  0396                     	;# 
  3461  0415                     	;# 
  3462  0416                     	;# 
  3463  0417                     	;# 
  3464  041C                     	;# 
  3465  041D                     	;# 
  3466  041E                     	;# 
  3467  0791                     	;# 
  3468  0792                     	;# 
  3469  0793                     	;# 
  3470  0794                     	;# 
  3471  0795                     	;# 
  3472  0798                     	;# 
  3473  0799                     	;# 
  3474  07A0                     	;# 
  3475  07A1                     	;# 
  3476  07A3                     	;# 
  3477  07A4                     	;# 
  3478  07A6                     	;# 
  3479  07A7                     	;# 
  3480  07A9                     	;# 
  3481  07AA                     	;# 
  3482  0FE4                     	;# 
  3483  0FE5                     	;# 
  3484  0FE6                     	;# 
  3485  0FE7                     	;# 
  3486  0FE8                     	;# 
  3487  0FE9                     	;# 
  3488  0FEA                     	;# 
  3489  0FEB                     	;# 
  3490  0FED                     	;# 
  3491  0FEE                     	;# 
  3492  0FEF                     	;# 
  3493  0000                     	;# 
  3494  0001                     	;# 
  3495  0002                     	;# 
  3496  0003                     	;# 
  3497  0004                     	;# 
  3498  0005                     	;# 
  3499  0006                     	;# 
  3500  0007                     	;# 
  3501  0008                     	;# 
  3502  0009                     	;# 
  3503  000A                     	;# 
  3504  000B                     	;# 
  3505  000C                     	;# 
  3506  000D                     	;# 
  3507  000E                     	;# 
  3508  0010                     	;# 
  3509  0011                     	;# 
  3510  0012                     	;# 
  3511  0013                     	;# 
  3512  0015                     	;# 
  3513  0016                     	;# 
  3514  0016                     	;# 
  3515  0017                     	;# 
  3516  0018                     	;# 
  3517  0019                     	;# 
  3518  001A                     	;# 
  3519  001B                     	;# 
  3520  001C                     	;# 
  3521  001E                     	;# 
  3522  001F                     	;# 
  3523  008C                     	;# 
  3524  008D                     	;# 
  3525  008E                     	;# 
  3526  0090                     	;# 
  3527  0091                     	;# 
  3528  0092                     	;# 
  3529  0093                     	;# 
  3530  0095                     	;# 
  3531  0096                     	;# 
  3532  0097                     	;# 
  3533  0098                     	;# 
  3534  0099                     	;# 
  3535  009A                     	;# 
  3536  009B                     	;# 
  3537  009B                     	;# 
  3538  009C                     	;# 
  3539  009D                     	;# 
  3540  009E                     	;# 
  3541  010C                     	;# 
  3542  010D                     	;# 
  3543  010E                     	;# 
  3544  0110                     	;# 
  3545  0111                     	;# 
  3546  0112                     	;# 
  3547  0113                     	;# 
  3548  0114                     	;# 
  3549  0115                     	;# 
  3550  0116                     	;# 
  3551  0117                     	;# 
  3552  0118                     	;# 
  3553  0119                     	;# 
  3554  011A                     	;# 
  3555  011B                     	;# 
  3556  011D                     	;# 
  3557  018C                     	;# 
  3558  018D                     	;# 
  3559  0191                     	;# 
  3560  0191                     	;# 
  3561  0192                     	;# 
  3562  0193                     	;# 
  3563  0193                     	;# 
  3564  0193                     	;# 
  3565  0194                     	;# 
  3566  0195                     	;# 
  3567  0196                     	;# 
  3568  0199                     	;# 
  3569  019A                     	;# 
  3570  019B                     	;# 
  3571  019B                     	;# 
  3572  019B                     	;# 
  3573  019B                     	;# 
  3574  019C                     	;# 
  3575  019C                     	;# 
  3576  019D                     	;# 
  3577  019E                     	;# 
  3578  019F                     	;# 
  3579  020D                     	;# 
  3580  0210                     	;# 
  3581  0211                     	;# 
  3582  0212                     	;# 
  3583  0213                     	;# 
  3584  0214                     	;# 
  3585  0215                     	;# 
  3586  0215                     	;# 
  3587  0216                     	;# 
  3588  0217                     	;# 
  3589  0291                     	;# 
  3590  0291                     	;# 
  3591  0292                     	;# 
  3592  0293                     	;# 
  3593  0294                     	;# 
  3594  0295                     	;# 
  3595  0295                     	;# 
  3596  0296                     	;# 
  3597  0298                     	;# 
  3598  0298                     	;# 
  3599  0299                     	;# 
  3600  029A                     	;# 
  3601  029B                     	;# 
  3602  029C                     	;# 
  3603  029C                     	;# 
  3604  029D                     	;# 
  3605  029E                     	;# 
  3606  029F                     	;# 
  3607  0311                     	;# 
  3608  0311                     	;# 
  3609  0312                     	;# 
  3610  0313                     	;# 
  3611  0314                     	;# 
  3612  0315                     	;# 
  3613  0315                     	;# 
  3614  0316                     	;# 
  3615  0318                     	;# 
  3616  0318                     	;# 
  3617  0319                     	;# 
  3618  031A                     	;# 
  3619  031C                     	;# 
  3620  031C                     	;# 
  3621  031D                     	;# 
  3622  031E                     	;# 
  3623  0394                     	;# 
  3624  0395                     	;# 
  3625  0396                     	;# 
  3626  0415                     	;# 
  3627  0416                     	;# 
  3628  0417                     	;# 
  3629  041C                     	;# 
  3630  041D                     	;# 
  3631  041E                     	;# 
  3632  0791                     	;# 
  3633  0792                     	;# 
  3634  0793                     	;# 
  3635  0794                     	;# 
  3636  0795                     	;# 
  3637  0798                     	;# 
  3638  0799                     	;# 
  3639  07A0                     	;# 
  3640  07A1                     	;# 
  3641  07A3                     	;# 
  3642  07A4                     	;# 
  3643  07A6                     	;# 
  3644  07A7                     	;# 
  3645  07A9                     	;# 
  3646  07AA                     	;# 
  3647  0FE4                     	;# 
  3648  0FE5                     	;# 
  3649  0FE6                     	;# 
  3650  0FE7                     	;# 
  3651  0FE8                     	;# 
  3652  0FE9                     	;# 
  3653  0FEA                     	;# 
  3654  0FEB                     	;# 
  3655  0FED                     	;# 
  3656  0FEE                     	;# 
  3657  0FEF                     	;# 
  3658  0000                     	;# 
  3659  0001                     	;# 
  3660  0002                     	;# 
  3661  0003                     	;# 
  3662  0004                     	;# 
  3663  0005                     	;# 
  3664  0006                     	;# 
  3665  0007                     	;# 
  3666  0008                     	;# 
  3667  0009                     	;# 
  3668  000A                     	;# 
  3669  000B                     	;# 
  3670  000C                     	;# 
  3671  000D                     	;# 
  3672  000E                     	;# 
  3673  0010                     	;# 
  3674  0011                     	;# 
  3675  0012                     	;# 
  3676  0013                     	;# 
  3677  0015                     	;# 
  3678  0016                     	;# 
  3679  0016                     	;# 
  3680  0017                     	;# 
  3681  0018                     	;# 
  3682  0019                     	;# 
  3683  001A                     	;# 
  3684  001B                     	;# 
  3685  001C                     	;# 
  3686  001E                     	;# 
  3687  001F                     	;# 
  3688  008C                     	;# 
  3689  008D                     	;# 
  3690  008E                     	;# 
  3691  0090                     	;# 
  3692  0091                     	;# 
  3693  0092                     	;# 
  3694  0093                     	;# 
  3695  0095                     	;# 
  3696  0096                     	;# 
  3697  0097                     	;# 
  3698  0098                     	;# 
  3699  0099                     	;# 
  3700  009A                     	;# 
  3701  009B                     	;# 
  3702  009B                     	;# 
  3703  009C                     	;# 
  3704  009D                     	;# 
  3705  009E                     	;# 
  3706  010C                     	;# 
  3707  010D                     	;# 
  3708  010E                     	;# 
  3709  0110                     	;# 
  3710  0111                     	;# 
  3711  0112                     	;# 
  3712  0113                     	;# 
  3713  0114                     	;# 
  3714  0115                     	;# 
  3715  0116                     	;# 
  3716  0117                     	;# 
  3717  0118                     	;# 
  3718  0119                     	;# 
  3719  011A                     	;# 
  3720  011B                     	;# 
  3721  011D                     	;# 
  3722  018C                     	;# 
  3723  018D                     	;# 
  3724  0191                     	;# 
  3725  0191                     	;# 
  3726  0192                     	;# 
  3727  0193                     	;# 
  3728  0193                     	;# 
  3729  0193                     	;# 
  3730  0194                     	;# 
  3731  0195                     	;# 
  3732  0196                     	;# 
  3733  0199                     	;# 
  3734  019A                     	;# 
  3735  019B                     	;# 
  3736  019B                     	;# 
  3737  019B                     	;# 
  3738  019B                     	;# 
  3739  019C                     	;# 
  3740  019C                     	;# 
  3741  019D                     	;# 
  3742  019E                     	;# 
  3743  019F                     	;# 
  3744  020D                     	;# 
  3745  0210                     	;# 
  3746  0211                     	;# 
  3747  0212                     	;# 
  3748  0213                     	;# 
  3749  0214                     	;# 
  3750  0215                     	;# 
  3751  0215                     	;# 
  3752  0216                     	;# 
  3753  0217                     	;# 
  3754  0291                     	;# 
  3755  0291                     	;# 
  3756  0292                     	;# 
  3757  0293                     	;# 
  3758  0294                     	;# 
  3759  0295                     	;# 
  3760  0295                     	;# 
  3761  0296                     	;# 
  3762  0298                     	;# 
  3763  0298                     	;# 
  3764  0299                     	;# 
  3765  029A                     	;# 
  3766  029B                     	;# 
  3767  029C                     	;# 
  3768  029C                     	;# 
  3769  029D                     	;# 
  3770  029E                     	;# 
  3771  029F                     	;# 
  3772  0311                     	;# 
  3773  0311                     	;# 
  3774  0312                     	;# 
  3775  0313                     	;# 
  3776  0314                     	;# 
  3777  0315                     	;# 
  3778  0315                     	;# 
  3779  0316                     	;# 
  3780  0318                     	;# 
  3781  0318                     	;# 
  3782  0319                     	;# 
  3783  031A                     	;# 
  3784  031C                     	;# 
  3785  031C                     	;# 
  3786  031D                     	;# 
  3787  031E                     	;# 
  3788  0394                     	;# 
  3789  0395                     	;# 
  3790  0396                     	;# 
  3791  0415                     	;# 
  3792  0416                     	;# 
  3793  0417                     	;# 
  3794  041C                     	;# 
  3795  041D                     	;# 
  3796  041E                     	;# 
  3797  0791                     	;# 
  3798  0792                     	;# 
  3799  0793                     	;# 
  3800  0794                     	;# 
  3801  0795                     	;# 
  3802  0798                     	;# 
  3803  0799                     	;# 
  3804  07A0                     	;# 
  3805  07A1                     	;# 
  3806  07A3                     	;# 
  3807  07A4                     	;# 
  3808  07A6                     	;# 
  3809  07A7                     	;# 
  3810  07A9                     	;# 
  3811  07AA                     	;# 
  3812  0FE4                     	;# 
  3813  0FE5                     	;# 
  3814  0FE6                     	;# 
  3815  0FE7                     	;# 
  3816  0FE8                     	;# 
  3817  0FE9                     	;# 
  3818  0FEA                     	;# 
  3819  0FEB                     	;# 
  3820  0FED                     	;# 
  3821  0FEE                     	;# 
  3822  0FEF                     	;# 
  3823  0000                     	;# 
  3824  0001                     	;# 
  3825  0002                     	;# 
  3826  0003                     	;# 
  3827  0004                     	;# 
  3828  0005                     	;# 
  3829  0006                     	;# 
  3830  0007                     	;# 
  3831  0008                     	;# 
  3832  0009                     	;# 
  3833  000A                     	;# 
  3834  000B                     	;# 
  3835  000C                     	;# 
  3836  000D                     	;# 
  3837  000E                     	;# 
  3838  0010                     	;# 
  3839  0011                     	;# 
  3840  0012                     	;# 
  3841  0013                     	;# 
  3842  0015                     	;# 
  3843  0016                     	;# 
  3844  0016                     	;# 
  3845  0017                     	;# 
  3846  0018                     	;# 
  3847  0019                     	;# 
  3848  001A                     	;# 
  3849  001B                     	;# 
  3850  001C                     	;# 
  3851  001E                     	;# 
  3852  001F                     	;# 
  3853  008C                     	;# 
  3854  008D                     	;# 
  3855  008E                     	;# 
  3856  0090                     	;# 
  3857  0091                     	;# 
  3858  0092                     	;# 
  3859  0093                     	;# 
  3860  0095                     	;# 
  3861  0096                     	;# 
  3862  0097                     	;# 
  3863  0098                     	;# 
  3864  0099                     	;# 
  3865  009A                     	;# 
  3866  009B                     	;# 
  3867  009B                     	;# 
  3868  009C                     	;# 
  3869  009D                     	;# 
  3870  009E                     	;# 
  3871  010C                     	;# 
  3872  010D                     	;# 
  3873  010E                     	;# 
  3874  0110                     	;# 
  3875  0111                     	;# 
  3876  0112                     	;# 
  3877  0113                     	;# 
  3878  0114                     	;# 
  3879  0115                     	;# 
  3880  0116                     	;# 
  3881  0117                     	;# 
  3882  0118                     	;# 
  3883  0119                     	;# 
  3884  011A                     	;# 
  3885  011B                     	;# 
  3886  011D                     	;# 
  3887  018C                     	;# 
  3888  018D                     	;# 
  3889  0191                     	;# 
  3890  0191                     	;# 
  3891  0192                     	;# 
  3892  0193                     	;# 
  3893  0193                     	;# 
  3894  0193                     	;# 
  3895  0194                     	;# 
  3896  0195                     	;# 
  3897  0196                     	;# 
  3898  0199                     	;# 
  3899  019A                     	;# 
  3900  019B                     	;# 
  3901  019B                     	;# 
  3902  019B                     	;# 
  3903  019B                     	;# 
  3904  019C                     	;# 
  3905  019C                     	;# 
  3906  019D                     	;# 
  3907  019E                     	;# 
  3908  019F                     	;# 
  3909  020D                     	;# 
  3910  0210                     	;# 
  3911  0211                     	;# 
  3912  0212                     	;# 
  3913  0213                     	;# 
  3914  0214                     	;# 
  3915  0215                     	;# 
  3916  0215                     	;# 
  3917  0216                     	;# 
  3918  0217                     	;# 
  3919  0291                     	;# 
  3920  0291                     	;# 
  3921  0292                     	;# 
  3922  0293                     	;# 
  3923  0294                     	;# 
  3924  0295                     	;# 
  3925  0295                     	;# 
  3926  0296                     	;# 
  3927  0298                     	;# 
  3928  0298                     	;# 
  3929  0299                     	;# 
  3930  029A                     	;# 
  3931  029B                     	;# 
  3932  029C                     	;# 
  3933  029C                     	;# 
  3934  029D                     	;# 
  3935  029E                     	;# 
  3936  029F                     	;# 
  3937  0311                     	;# 
  3938  0311                     	;# 
  3939  0312                     	;# 
  3940  0313                     	;# 
  3941  0314                     	;# 
  3942  0315                     	;# 
  3943  0315                     	;# 
  3944  0316                     	;# 
  3945  0318                     	;# 
  3946  0318                     	;# 
  3947  0319                     	;# 
  3948  031A                     	;# 
  3949  031C                     	;# 
  3950  031C                     	;# 
  3951  031D                     	;# 
  3952  031E                     	;# 
  3953  0394                     	;# 
  3954  0395                     	;# 
  3955  0396                     	;# 
  3956  0415                     	;# 
  3957  0416                     	;# 
  3958  0417                     	;# 
  3959  041C                     	;# 
  3960  041D                     	;# 
  3961  041E                     	;# 
  3962  0791                     	;# 
  3963  0792                     	;# 
  3964  0793                     	;# 
  3965  0794                     	;# 
  3966  0795                     	;# 
  3967  0798                     	;# 
  3968  0799                     	;# 
  3969  07A0                     	;# 
  3970  07A1                     	;# 
  3971  07A3                     	;# 
  3972  07A4                     	;# 
  3973  07A6                     	;# 
  3974  07A7                     	;# 
  3975  07A9                     	;# 
  3976  07AA                     	;# 
  3977  0FE4                     	;# 
  3978  0FE5                     	;# 
  3979  0FE6                     	;# 
  3980  0FE7                     	;# 
  3981  0FE8                     	;# 
  3982  0FE9                     	;# 
  3983  0FEA                     	;# 
  3984  0FEB                     	;# 
  3985  0FED                     	;# 
  3986  0FEE                     	;# 
  3987  0FEF                     	;# 
  3988  0000                     	;# 
  3989  0001                     	;# 
  3990  0002                     	;# 
  3991  0003                     	;# 
  3992  0004                     	;# 
  3993  0005                     	;# 
  3994  0006                     	;# 
  3995  0007                     	;# 
  3996  0008                     	;# 
  3997  0009                     	;# 
  3998  000A                     	;# 
  3999  000B                     	;# 
  4000  000C                     	;# 
  4001  000D                     	;# 
  4002  000E                     	;# 
  4003  0010                     	;# 
  4004  0011                     	;# 
  4005  0012                     	;# 
  4006  0013                     	;# 
  4007  0015                     	;# 
  4008  0016                     	;# 
  4009  0016                     	;# 
  4010  0017                     	;# 
  4011  0018                     	;# 
  4012  0019                     	;# 
  4013  001A                     	;# 
  4014  001B                     	;# 
  4015  001C                     	;# 
  4016  001E                     	;# 
  4017  001F                     	;# 
  4018  008C                     	;# 
  4019  008D                     	;# 
  4020  008E                     	;# 
  4021  0090                     	;# 
  4022  0091                     	;# 
  4023  0092                     	;# 
  4024  0093                     	;# 
  4025  0095                     	;# 
  4026  0096                     	;# 
  4027  0097                     	;# 
  4028  0098                     	;# 
  4029  0099                     	;# 
  4030  009A                     	;# 
  4031  009B                     	;# 
  4032  009B                     	;# 
  4033  009C                     	;# 
  4034  009D                     	;# 
  4035  009E                     	;# 
  4036  010C                     	;# 
  4037  010D                     	;# 
  4038  010E                     	;# 
  4039  0110                     	;# 
  4040  0111                     	;# 
  4041  0112                     	;# 
  4042  0113                     	;# 
  4043  0114                     	;# 
  4044  0115                     	;# 
  4045  0116                     	;# 
  4046  0117                     	;# 
  4047  0118                     	;# 
  4048  0119                     	;# 
  4049  011A                     	;# 
  4050  011B                     	;# 
  4051  011D                     	;# 
  4052  018C                     	;# 
  4053  018D                     	;# 
  4054  0191                     	;# 
  4055  0191                     	;# 
  4056  0192                     	;# 
  4057  0193                     	;# 
  4058  0193                     	;# 
  4059  0193                     	;# 
  4060  0194                     	;# 
  4061  0195                     	;# 
  4062  0196                     	;# 
  4063  0199                     	;# 
  4064  019A                     	;# 
  4065  019B                     	;# 
  4066  019B                     	;# 
  4067  019B                     	;# 
  4068  019B                     	;# 
  4069  019C                     	;# 
  4070  019C                     	;# 
  4071  019D                     	;# 
  4072  019E                     	;# 
  4073  019F                     	;# 
  4074  020D                     	;# 
  4075  0210                     	;# 
  4076  0211                     	;# 
  4077  0212                     	;# 
  4078  0213                     	;# 
  4079  0214                     	;# 
  4080  0215                     	;# 
  4081  0215                     	;# 
  4082  0216                     	;# 
  4083  0217                     	;# 
  4084  0291                     	;# 
  4085  0291                     	;# 
  4086  0292                     	;# 
  4087  0293                     	;# 
  4088  0294                     	;# 
  4089  0295                     	;# 
  4090  0295                     	;# 
  4091  0296                     	;# 
  4092  0298                     	;# 
  4093  0298                     	;# 
  4094  0299                     	;# 
  4095  029A                     	;# 
  4096  029B                     	;# 
  4097  029C                     	;# 
  4098  029C                     	;# 
  4099  029D                     	;# 
  4100  029E                     	;# 
  4101  029F                     	;# 
  4102  0311                     	;# 
  4103  0311                     	;# 
  4104  0312                     	;# 
  4105  0313                     	;# 
  4106  0314                     	;# 
  4107  0315                     	;# 
  4108  0315                     	;# 
  4109  0316                     	;# 
  4110  0318                     	;# 
  4111  0318                     	;# 
  4112  0319                     	;# 
  4113  031A                     	;# 
  4114  031C                     	;# 
  4115  031C                     	;# 
  4116  031D                     	;# 
  4117  031E                     	;# 
  4118  0394                     	;# 
  4119  0395                     	;# 
  4120  0396                     	;# 
  4121  0415                     	;# 
  4122  0416                     	;# 
  4123  0417                     	;# 
  4124  041C                     	;# 
  4125  041D                     	;# 
  4126  041E                     	;# 
  4127  0791                     	;# 
  4128  0792                     	;# 
  4129  0793                     	;# 
  4130  0794                     	;# 
  4131  0795                     	;# 
  4132  0798                     	;# 
  4133  0799                     	;# 
  4134  07A0                     	;# 
  4135  07A1                     	;# 
  4136  07A3                     	;# 
  4137  07A4                     	;# 
  4138  07A6                     	;# 
  4139  07A7                     	;# 
  4140  07A9                     	;# 
  4141  07AA                     	;# 
  4142  0FE4                     	;# 
  4143  0FE5                     	;# 
  4144  0FE6                     	;# 
  4145  0FE7                     	;# 
  4146  0FE8                     	;# 
  4147  0FE9                     	;# 
  4148  0FEA                     	;# 
  4149  0FEB                     	;# 
  4150  0FED                     	;# 
  4151  0FEE                     	;# 
  4152  0FEF                     	;# 
  4153  0000                     	;# 
  4154  0001                     	;# 
  4155  0002                     	;# 
  4156  0003                     	;# 
  4157  0004                     	;# 
  4158  0005                     	;# 
  4159  0006                     	;# 
  4160  0007                     	;# 
  4161  0008                     	;# 
  4162  0009                     	;# 
  4163  000A                     	;# 
  4164  000B                     	;# 
  4165  000C                     	;# 
  4166  000D                     	;# 
  4167  000E                     	;# 
  4168  0010                     	;# 
  4169  0011                     	;# 
  4170  0012                     	;# 
  4171  0013                     	;# 
  4172  0015                     	;# 
  4173  0016                     	;# 
  4174  0016                     	;# 
  4175  0017                     	;# 
  4176  0018                     	;# 
  4177  0019                     	;# 
  4178  001A                     	;# 
  4179  001B                     	;# 
  4180  001C                     	;# 
  4181  001E                     	;# 
  4182  001F                     	;# 
  4183  008C                     	;# 
  4184  008D                     	;# 
  4185  008E                     	;# 
  4186  0090                     	;# 
  4187  0091                     	;# 
  4188  0092                     	;# 
  4189  0093                     	;# 
  4190  0095                     	;# 
  4191  0096                     	;# 
  4192  0097                     	;# 
  4193  0098                     	;# 
  4194  0099                     	;# 
  4195  009A                     	;# 
  4196  009B                     	;# 
  4197  009B                     	;# 
  4198  009C                     	;# 
  4199  009D                     	;# 
  4200  009E                     	;# 
  4201  010C                     	;# 
  4202  010D                     	;# 
  4203  010E                     	;# 
  4204  0110                     	;# 
  4205  0111                     	;# 
  4206  0112                     	;# 
  4207  0113                     	;# 
  4208  0114                     	;# 
  4209  0115                     	;# 
  4210  0116                     	;# 
  4211  0117                     	;# 
  4212  0118                     	;# 
  4213  0119                     	;# 
  4214  011A                     	;# 
  4215  011B                     	;# 
  4216  011D                     	;# 
  4217  018C                     	;# 
  4218  018D                     	;# 
  4219  0191                     	;# 
  4220  0191                     	;# 
  4221  0192                     	;# 
  4222  0193                     	;# 
  4223  0193                     	;# 
  4224  0193                     	;# 
  4225  0194                     	;# 
  4226  0195                     	;# 
  4227  0196                     	;# 
  4228  0199                     	;# 
  4229  019A                     	;# 
  4230  019B                     	;# 
  4231  019B                     	;# 
  4232  019B                     	;# 
  4233  019B                     	;# 
  4234  019C                     	;# 
  4235  019C                     	;# 
  4236  019D                     	;# 
  4237  019E                     	;# 
  4238  019F                     	;# 
  4239  020D                     	;# 
  4240  0210                     	;# 
  4241  0211                     	;# 
  4242  0212                     	;# 
  4243  0213                     	;# 
  4244  0214                     	;# 
  4245  0215                     	;# 
  4246  0215                     	;# 
  4247  0216                     	;# 
  4248  0217                     	;# 
  4249  0291                     	;# 
  4250  0291                     	;# 
  4251  0292                     	;# 
  4252  0293                     	;# 
  4253  0294                     	;# 
  4254  0295                     	;# 
  4255  0295                     	;# 
  4256  0296                     	;# 
  4257  0298                     	;# 
  4258  0298                     	;# 
  4259  0299                     	;# 
  4260  029A                     	;# 
  4261  029B                     	;# 
  4262  029C                     	;# 
  4263  029C                     	;# 
  4264  029D                     	;# 
  4265  029E                     	;# 
  4266  029F                     	;# 
  4267  0311                     	;# 
  4268  0311                     	;# 
  4269  0312                     	;# 
  4270  0313                     	;# 
  4271  0314                     	;# 
  4272  0315                     	;# 
  4273  0315                     	;# 
  4274  0316                     	;# 
  4275  0318                     	;# 
  4276  0318                     	;# 
  4277  0319                     	;# 
  4278  031A                     	;# 
  4279  031C                     	;# 
  4280  031C                     	;# 
  4281  031D                     	;# 
  4282  031E                     	;# 
  4283  0394                     	;# 
  4284  0395                     	;# 
  4285  0396                     	;# 
  4286  0415                     	;# 
  4287  0416                     	;# 
  4288  0417                     	;# 
  4289  041C                     	;# 
  4290  041D                     	;# 
  4291  041E                     	;# 
  4292  0791                     	;# 
  4293  0792                     	;# 
  4294  0793                     	;# 
  4295  0794                     	;# 
  4296  0795                     	;# 
  4297  0798                     	;# 
  4298  0799                     	;# 
  4299  07A0                     	;# 
  4300  07A1                     	;# 
  4301  07A3                     	;# 
  4302  07A4                     	;# 
  4303  07A6                     	;# 
  4304  07A7                     	;# 
  4305  07A9                     	;# 
  4306  07AA                     	;# 
  4307  0FE4                     	;# 
  4308  0FE5                     	;# 
  4309  0FE6                     	;# 
  4310  0FE7                     	;# 
  4311  0FE8                     	;# 
  4312  0FE9                     	;# 
  4313  0FEA                     	;# 
  4314  0FEB                     	;# 
  4315  0FED                     	;# 
  4316  0FEE                     	;# 
  4317  0FEF                     	;# 
  4318  0000                     	;# 
  4319  0001                     	;# 
  4320  0002                     	;# 
  4321  0003                     	;# 
  4322  0004                     	;# 
  4323  0005                     	;# 
  4324  0006                     	;# 
  4325  0007                     	;# 
  4326  0008                     	;# 
  4327  0009                     	;# 
  4328  000A                     	;# 
  4329  000B                     	;# 
  4330  000C                     	;# 
  4331  000D                     	;# 
  4332  000E                     	;# 
  4333  0010                     	;# 
  4334  0011                     	;# 
  4335  0012                     	;# 
  4336  0013                     	;# 
  4337  0015                     	;# 
  4338  0016                     	;# 
  4339  0016                     	;# 
  4340  0017                     	;# 
  4341  0018                     	;# 
  4342  0019                     	;# 
  4343  001A                     	;# 
  4344  001B                     	;# 
  4345  001C                     	;# 
  4346  001E                     	;# 
  4347  001F                     	;# 
  4348  008C                     	;# 
  4349  008D                     	;# 
  4350  008E                     	;# 
  4351  0090                     	;# 
  4352  0091                     	;# 
  4353  0092                     	;# 
  4354  0093                     	;# 
  4355  0095                     	;# 
  4356  0096                     	;# 
  4357  0097                     	;# 
  4358  0098                     	;# 
  4359  0099                     	;# 
  4360  009A                     	;# 
  4361  009B                     	;# 
  4362  009B                     	;# 
  4363  009C                     	;# 
  4364  009D                     	;# 
  4365  009E                     	;# 
  4366  010C                     	;# 
  4367  010D                     	;# 
  4368  010E                     	;# 
  4369  0110                     	;# 
  4370  0111                     	;# 
  4371  0112                     	;# 
  4372  0113                     	;# 
  4373  0114                     	;# 
  4374  0115                     	;# 
  4375  0116                     	;# 
  4376  0117                     	;# 
  4377  0118                     	;# 
  4378  0119                     	;# 
  4379  011A                     	;# 
  4380  011B                     	;# 
  4381  011D                     	;# 
  4382  018C                     	;# 
  4383  018D                     	;# 
  4384  0191                     	;# 
  4385  0191                     	;# 
  4386  0192                     	;# 
  4387  0193                     	;# 
  4388  0193                     	;# 
  4389  0193                     	;# 
  4390  0194                     	;# 
  4391  0195                     	;# 
  4392  0196                     	;# 
  4393  0199                     	;# 
  4394  019A                     	;# 
  4395  019B                     	;# 
  4396  019B                     	;# 
  4397  019B                     	;# 
  4398  019B                     	;# 
  4399  019C                     	;# 
  4400  019C                     	;# 
  4401  019D                     	;# 
  4402  019E                     	;# 
  4403  019F                     	;# 
  4404  020D                     	;# 
  4405  0210                     	;# 
  4406  0211                     	;# 
  4407  0212                     	;# 
  4408  0213                     	;# 
  4409  0214                     	;# 
  4410  0215                     	;# 
  4411  0215                     	;# 
  4412  0216                     	;# 
  4413  0217                     	;# 
  4414  0291                     	;# 
  4415  0291                     	;# 
  4416  0292                     	;# 
  4417  0293                     	;# 
  4418  0294                     	;# 
  4419  0295                     	;# 
  4420  0295                     	;# 
  4421  0296                     	;# 
  4422  0298                     	;# 
  4423  0298                     	;# 
  4424  0299                     	;# 
  4425  029A                     	;# 
  4426  029B                     	;# 
  4427  029C                     	;# 
  4428  029C                     	;# 
  4429  029D                     	;# 
  4430  029E                     	;# 
  4431  029F                     	;# 
  4432  0311                     	;# 
  4433  0311                     	;# 
  4434  0312                     	;# 
  4435  0313                     	;# 
  4436  0314                     	;# 
  4437  0315                     	;# 
  4438  0315                     	;# 
  4439  0316                     	;# 
  4440  0318                     	;# 
  4441  0318                     	;# 
  4442  0319                     	;# 
  4443  031A                     	;# 
  4444  031C                     	;# 
  4445  031C                     	;# 
  4446  031D                     	;# 
  4447  031E                     	;# 
  4448  0394                     	;# 
  4449  0395                     	;# 
  4450  0396                     	;# 
  4451  0415                     	;# 
  4452  0416                     	;# 
  4453  0417                     	;# 
  4454  041C                     	;# 
  4455  041D                     	;# 
  4456  041E                     	;# 
  4457  0791                     	;# 
  4458  0792                     	;# 
  4459  0793                     	;# 
  4460  0794                     	;# 
  4461  0795                     	;# 
  4462  0798                     	;# 
  4463  0799                     	;# 
  4464  07A0                     	;# 
  4465  07A1                     	;# 
  4466  07A3                     	;# 
  4467  07A4                     	;# 
  4468  07A6                     	;# 
  4469  07A7                     	;# 
  4470  07A9                     	;# 
  4471  07AA                     	;# 
  4472  0FE4                     	;# 
  4473  0FE5                     	;# 
  4474  0FE6                     	;# 
  4475  0FE7                     	;# 
  4476  0FE8                     	;# 
  4477  0FE9                     	;# 
  4478  0FEA                     	;# 
  4479  0FEB                     	;# 
  4480  0FED                     	;# 
  4481  0FEE                     	;# 
  4482  0FEF                     	;_Hour
  4483                           
  4484                           	psect	idataBANK1
  4485  0002                     __pidataBANK1:
  4486                           
  4487                           ;initializer for _Depass_Timer
  4488  0002  341E               	retlw	30
  4489                           
  4490                           ;initializer for _ACDetectCount
  4491  0003  3403               	retlw	3
  4492                           
  4493                           	psect	idataBANK2
  4494  2E75                     __pidataBANK2:
  4495                           
  4496                           ;initializer for _Light_Sample_Last
  4497  2E75  34E1               	retlw	225
  4498  2E76  3400               	retlw	0
  4499                           
  4500                           ;initializer for _LBConserveCount
  4501  2E77  3401               	retlw	1
  4502                           
  4503                           ;initializer for _b1HourCount
  4504  2E78  343C               	retlw	60
  4505                           
  4506                           ;initializer for _OneMinuteCount
  4507  2E79  343C               	retlw	60
  4508                           
  4509                           ;initializer for _b1SecCount
  4510  2E7A  3464               	retlw	100
  4511                           
  4512                           ;initializer for _LGT_State
  4513  2E7B  3401               	retlw	1
  4514                           
  4515                           ;initializer for _Disp_Intensity
  4516  2E7C  3401               	retlw	1
  4517                           
  4518                           ;initializer for _Disp_Refresh_Count
  4519  2E7D  3401               	retlw	1
  4520                           
  4521                           	psect	idataBANK3
  4522  2E58                     __pidataBANK3:
  4523                           
  4524                           ;initializer for _Light_Meas_Avg
  4525  2E58  34E1               	retlw	225
  4526  2E59  3400               	retlw	0
  4527  2E5A  3400               	retlw	0
  4528  2E5B  3400               	retlw	0
  4529                           
  4530                           ;initializer for _LGT_Timer
  4531  2E5C  3402               	retlw	2
  4532  2E5D  3400               	retlw	0
  4533                           
  4534                           	psect	idataEEDATA
  4535  0000                     __pidataEEDATA:
  4536  0000                     _EE_Data:	
  4537                           ;initializer for _EE_Data
  4538                           
  4539  0000  0000               	db	0
  4540  0001  00FF               	db	255
  4541  0002  0000               	db	0
  4542  0003  0000               	db	0
  4543  0004  0000               	db	0
  4544  0005  0001               	db	1
  4545  0006  0000               	db	0
  4546  0007  0000               	db	0
  4547  0008  0000               	db	0
  4548  0009  0000               	db	0
  4549  000A  0000               	db	0
  4550  000B  0000               	db	0
  4551  000C  0000               	db	0
  4552  000D  0000               	db	0
  4553  000E  0000               	db	0
  4554  000F  0000               	db	0
  4555  0010  0000               	db	0
  4556  0011  00FF               	db	255
  4557  0012  0000               	db	0
  4558  0013  0000               	db	0
  4559  0014  0000               	db	0
  4560  0015  0001               	db	1
  4561  0016  0000               	db	0
  4562  0017  0000               	db	0
  4563  0018  0000               	db	0
  4564  0019  0000               	db	0
  4565  001A  0000               	db	0
  4566  001B  0000               	db	0
  4567  001C  0000               	db	0
  4568  001D  0000               	db	0
  4569  001E  0000               	db	0
  4570  001F  0000               	db	0
  4571  0020  0000               	db	0
  4572  0021  0000               	db	0
  4573  0022  0000               	db	0
  4574  0023  0000               	db	0
  4575  0024  0000               	db	0
  4576  0025  0000               	db	0
  4577  0026  0000               	db	0
  4578  0027  0000               	db	0
  4579  0028  0000               	db	0
  4580  0029  0000               	db	0
  4581  002A  0000               	db	0
  4582  002B  0000               	db	0
  4583  002C  0000               	db	0
  4584  002D  0000               	db	0
  4585  002E  0001               	db	1
  4586  002F  0000               	db	0
  4587  0030  0000               	db	0
  4588  0031  0000               	db	0
  4589  0032  0000               	db	0
  4590  0033  0000               	db	0
  4591  0034  0000               	db	0
  4592  0035  0000               	db	0
  4593  0036  0000               	db	0
  4594  0037  0000               	db	0
  4595  0038  0000               	db	0
  4596  0039  0000               	db	0
  4597  003A  0000               	db	0
  4598  003B  0000               	db	0
  4599  003C  0000               	db	0
  4600  003D  00E0               	db	224
  4601  003E  0040               	db	64
  4602  003F  00A0               	db	160
  4603  0040  00FF               	db	255
  4604  0041  00FF               	db	255
  4605  0042  00FF               	db	255
  4606  0043  00FF               	db	255
  4607  0044  00FF               	db	255
  4608  0045  00FF               	db	255
  4609  0046  00FF               	db	255
  4610  0047  00FF               	db	255
  4611  0048  00FF               	db	255
  4612  0049  00FF               	db	255
  4613  004A  00FF               	db	255
  4614  004B  00FF               	db	255
  4615  004C  00FF               	db	255
  4616  004D  00FF               	db	255
  4617  004E  00FF               	db	255
  4618  004F  00FF               	db	255
  4619  0050  00FF               	db	255
  4620  0051  00FF               	db	255
  4621  0052  00FF               	db	255
  4622  0053  00FF               	db	255
  4623  0054  00FF               	db	255
  4624  0055  00FF               	db	255
  4625  0056  00FF               	db	255
  4626  0057  00FF               	db	255
  4627  0058  00FF               	db	255
  4628  0059  00FF               	db	255
  4629  005A  00FF               	db	255
  4630  005B  00FF               	db	255
  4631  005C  00FF               	db	255
  4632  005D  00FF               	db	255
  4633  005E  00FF               	db	255
  4634  005F  00FF               	db	255
  4635  0060  00FF               	db	255
  4636  0061  00FF               	db	255
  4637  0062  00FF               	db	255
  4638  0063  00FF               	db	255
  4639  0064  00FF               	db	255
  4640  0065  00FF               	db	255
  4641  0066  00FF               	db	255
  4642  0067  00FF               	db	255
  4643  0068  00FF               	db	255
  4644  0069  00FF               	db	255
  4645  006A  00FF               	db	255
  4646  006B  00FF               	db	255
  4647  006C  00FF               	db	255
  4648  006D  00FF               	db	255
  4649  006E  00FF               	db	255
  4650  006F  00FF               	db	255
  4651  0070  00FF               	db	255
  4652  0071  00FF               	db	255
  4653  0072  00FF               	db	255
  4654  0073  00FF               	db	255
  4655  0074  00FF               	db	255
  4656  0075  00FF               	db	255
  4657  0076  00FF               	db	255
  4658  0077  00FF               	db	255
  4659  0078  00FF               	db	255
  4660  0079  00FF               	db	255
  4661  007A  00FF               	db	255
  4662  007B  00FF               	db	255
  4663  007C  00FF               	db	255
  4664  007D  00FF               	db	255
  4665  007E  00FF               	db	255
  4666  007F  00FF               	db	255
  4667  0080  00FF               	db	255
  4668  0081  00FF               	db	255
  4669  0082  00FF               	db	255
  4670  0083  00FF               	db	255
  4671  0084  00FF               	db	255
  4672  0085  00FF               	db	255
  4673  0086  00FF               	db	255
  4674  0087  00FF               	db	255
  4675  0088  00FF               	db	255
  4676  0089  00FF               	db	255
  4677  008A  00FF               	db	255
  4678  008B  00FF               	db	255
  4679  008C  00FF               	db	255
  4680  008D  00FF               	db	255
  4681  008E  00FF               	db	255
  4682  008F  00FF               	db	255
  4683  0090  00FF               	db	255
  4684  0091  00FF               	db	255
  4685  0092  00FF               	db	255
  4686  0093  00FF               	db	255
  4687  0094  00FF               	db	255
  4688  0095  00FF               	db	255
  4689  0096  00FF               	db	255
  4690  0097  00FF               	db	255
  4691  0098  00FF               	db	255
  4692  0099  00FF               	db	255
  4693  009A  00FF               	db	255
  4694  009B  00FF               	db	255
  4695  009C  00FF               	db	255
  4696  009D  00FF               	db	255
  4697  009E  00FF               	db	255
  4698  009F  00FF               	db	255
  4699  00A0  00FF               	db	255
  4700  00A1  00FF               	db	255
  4701  00A2  00FF               	db	255
  4702  00A3  00FF               	db	255
  4703  00A4  00FF               	db	255
  4704  00A5  00FF               	db	255
  4705  00A6  00FF               	db	255
  4706  00A7  00FF               	db	255
  4707  00A8  00FF               	db	255
  4708  00A9  00FF               	db	255
  4709  00AA  00FF               	db	255
  4710  00AB  00FF               	db	255
  4711  00AC  00FF               	db	255
  4712  00AD  00FF               	db	255
  4713  00AE  00FF               	db	255
  4714  00AF  00FF               	db	255
  4715  00B0  00FF               	db	255
  4716  00B1  00FF               	db	255
  4717  00B2  00FF               	db	255
  4718  00B3  00FF               	db	255
  4719  00B4  00FF               	db	255
  4720  00B5  00FF               	db	255
  4721  00B6  00FF               	db	255
  4722  00B7  00FF               	db	255
  4723  00B8  00FF               	db	255
  4724  00B9  00FF               	db	255
  4725  00BA  00FF               	db	255
  4726  00BB  00FF               	db	255
  4727  00BC  00FF               	db	255
  4728  00BD  00FF               	db	255
  4729  00BE  00FF               	db	255
  4730  00BF  00FF               	db	255
  4731  00C0  00FF               	db	255
  4732  00C1  00FF               	db	255
  4733  00C2  00FF               	db	255
  4734  00C3  00FF               	db	255
  4735  00C4  00FF               	db	255
  4736  00C5  00FF               	db	255
  4737  00C6  00FF               	db	255
  4738  00C7  00FF               	db	255
  4739  00C8  00FF               	db	255
  4740  00C9  00FF               	db	255
  4741  00CA  00FF               	db	255
  4742  00CB  00FF               	db	255
  4743  00CC  00FF               	db	255
  4744  00CD  00FF               	db	255
  4745  00CE  00FF               	db	255
  4746  00CF  00FF               	db	255
  4747  00D0  00FF               	db	255
  4748  00D1  00FF               	db	255
  4749  00D2  00FF               	db	255
  4750  00D3  00FF               	db	255
  4751  00D4  00FF               	db	255
  4752  00D5  00FF               	db	255
  4753  00D6  00FF               	db	255
  4754  00D7  00FF               	db	255
  4755  00D8  00FF               	db	255
  4756  00D9  00FF               	db	255
  4757  00DA  00FF               	db	255
  4758  00DB  00FF               	db	255
  4759  00DC  00FF               	db	255
  4760  00DD  00FF               	db	255
  4761  00DE  00FF               	db	255
  4762  00DF  00FF               	db	255
  4763  00E0  00FF               	db	255
  4764  00E1  00FF               	db	255
  4765  00E2  00FF               	db	255
  4766  00E3  00FF               	db	255
  4767  00E4  00FF               	db	255
  4768  00E5  00FF               	db	255
  4769  00E6  00FF               	db	255
  4770  00E7  00FF               	db	255
  4771  00E8  00FF               	db	255
  4772  00E9  00FF               	db	255
  4773  00EA  00FF               	db	255
  4774  00EB  00FF               	db	255
  4775  00EC  00FF               	db	255
  4776  00ED  00FF               	db	255
  4777  00EE  00FF               	db	255
  4778  00EF  00FF               	db	255
  4779  00F0  00FF               	db	255
  4780  00F1  00FF               	db	255
  4781  00F2  00FF               	db	255
  4782  00F3  00FF               	db	255
  4783  00F4  00FF               	db	255
  4784  00F5  00FF               	db	255
  4785  00F6  00FF               	db	255
  4786  00F7  00FF               	db	255
  4787  00F8  00FF               	db	255
  4788  00F9  00FF               	db	255
  4789  00FA  00FF               	db	255
  4790  00FB  00FF               	db	255
  4791  00FC  00FF               	db	255
  4792  00FD  00FF               	db	255
  4793  00FE  00FF               	db	255
  4794  00FF  00FF               	db	255
  4795                           
  4796                           	psect	stringtext1
  4797  2800                     __pstringtext1:
  4798  2800                     _CharTable:
  4799  2800  346B               	retlw	107
  4800  2801  34E3               	retlw	227
  4801  2802  347F               	retlw	127
  4802  2803  34EF               	retlw	239
  4803  2804  34EB               	retlw	235
  4804  2805  34CB               	retlw	203
  4805  2806  347B               	retlw	123
  4806  2807  34CB               	retlw	203
  4807  2808  347F               	retlw	127
  4808  2809  34C7               	retlw	199
  4809  280A  347B               	retlw	123
  4810  280B  34D3               	retlw	211
  4811  280C  346B               	retlw	107
  4812  280D  34D3               	retlw	211
  4813  280E  347B               	retlw	123
  4814  280F  34EF               	retlw	239
  4815  2810  346B               	retlw	107
  4816  2811  34C3               	retlw	195
  4817  2812  347B               	retlw	123
  4818  2813  34C3               	retlw	195
  4819  2814  346B               	retlw	107
  4820  2815  34C7               	retlw	199
  4821  2816  346F               	retlw	111
  4822  2817  34D3               	retlw	211
  4823  2818  34EB               	retlw	235
  4824  2819  34F3               	retlw	243
  4825  281A  346F               	retlw	111
  4826  281B  34CB               	retlw	203
  4827  281C  34EB               	retlw	235
  4828  281D  34D3               	retlw	211
  4829  281E  34EB               	retlw	235
  4830  281F  34D7               	retlw	215
  4831  2820  34EF               	retlw	239
  4832  2821  34F3               	retlw	243
  4833  2822  346F               	retlw	111
  4834  2823  34DF               	retlw	223
  4835  2824  34EF               	retlw	239
  4836  2825  34DF               	retlw	223
  4837  2826  34FF               	retlw	255
  4838  2827  34FF               	retlw	255
  4839  2828  34FF               	retlw	255
  4840  2829  34DF               	retlw	223
  4841  282A  346F               	retlw	111
  4842  282B  34C7               	retlw	199
  4843  282C  34EB               	retlw	235
  4844  282D  34C7               	retlw	199
  4845  282E  34EF               	retlw	239
  4846  282F  34DB               	retlw	219
  4847  2830  346F               	retlw	111
  4848  2831  34DB               	retlw	219
  4849  2832                     __end_of_CharTable:
  4850                           
  4851                           	psect	stringtext2
  4852  2832                     __pstringtext2:
  4853  2832                     _Main_Mode:
  4854  2832  3400               	retlw	0
  4855  2833  3401               	retlw	1
  4856  2834  3402               	retlw	2
  4857  2835  3403               	retlw	3
  4858  2836  3405               	retlw	5
  4859  2837  3404               	retlw	4
  4860  2838  3406               	retlw	6
  4861  2839  3407               	retlw	7
  4862  283A  3408               	retlw	8
  4863  283B  3409               	retlw	9
  4864  283C  340A               	retlw	10
  4865  283D  340B               	retlw	11
  4866  283E  340C               	retlw	12
  4867  283F  340D               	retlw	13
  4868  2840  340E               	retlw	14
  4869  2841  340F               	retlw	15
  4870  2842  3400               	retlw	0
  4871  2843  3400               	retlw	0
  4872  2844  3408               	retlw	8
  4873  2845  3406               	retlw	6
  4874  2846  3403               	retlw	3
  4875  2847  3409               	retlw	9
  4876  2848  340E               	retlw	14
  4877  2849  340A               	retlw	10
  4878  284A  3400               	retlw	0
  4879  284B  3400               	retlw	0
  4880  284C  3400               	retlw	0
  4881  284D  3400               	retlw	0
  4882  284E  3400               	retlw	0
  4883  284F  3400               	retlw	0
  4884  2850  3400               	retlw	0
  4885  2851  3400               	retlw	0
  4886  2852  3400               	retlw	0
  4887  2853  3400               	retlw	0
  4888  2854  3400               	retlw	0
  4889  2855  3400               	retlw	0
  4890  2856                     __end_of_Main_Mode:
  4891                           
  4892                           	psect	stringtext3
  4893  2856                     __pstringtext3:
  4894  2856                     _TaskTable:
  4895  2856  34DC               	retlw	low (_SoundTaskInfo| (0+256))
  4896  2857  3401               	retlw	high (_SoundTaskInfo| (0+256))
  4897  2858  34D6               	retlw	low (_ButtonTaskInfo| (0+256))
  4898  2859  3401               	retlw	high (_ButtonTaskInfo| (0+256))
  4899  285A  34D0               	retlw	low (_PTT_TaskInfo| (0+256))
  4900  285B  3401               	retlw	high (_PTT_TaskInfo| (0+256))
  4901  285C  34CA               	retlw	low (_BatteryTestInfo| (0+256))
  4902  285D  3401               	retlw	high (_BatteryTestInfo| (0+256))
  4903  285E  34C4               	retlw	low (_DebugTaskInfo| (0+256))
  4904  285F  3401               	retlw	high (_DebugTaskInfo| (0+256))
  4905  2860  34BE               	retlw	low (_AlarmPrioInfo| (0+256))
  4906  2861  3401               	retlw	high (_AlarmPrioInfo| (0+256))
  4907  2862  34B8               	retlw	low (_COAlarmInfo| (0+256))
  4908  2863  3401               	retlw	high (_COAlarmInfo| (0+256))
  4909  2864  34B2               	retlw	low (_CalManagerInfo| (0+256))
  4910  2865  3401               	retlw	high (_CalManagerInfo| (0+256))
  4911  2866  3451               	retlw	low (_COMeasureInfo| (0+512))
  4912  2867  3402               	retlw	high (_COMeasureInfo| (0+512))
  4913  2868  344B               	retlw	low (_TroubleManagerInfo| (0+512))
  4914  2869  3402               	retlw	high (_TroubleManagerInfo| (0+512))
  4915  286A  3445               	retlw	low (_GrnLedInfo| (0+512))
  4916  286B  3402               	retlw	high (_GrnLedInfo| (0+512))
  4917  286C  343F               	retlw	low (_GrnLedBlinkInfo| (0+512))
  4918  286D  3402               	retlw	high (_GrnLedBlinkInfo| (0+512))
  4919  286E  3439               	retlw	low (_PeakButtonInfo| (0+512))
  4920  286F  3402               	retlw	high (_PeakButtonInfo| (0+512))
  4921  2870  3433               	retlw	low (_EscLightInfo| (0+512))
  4922  2871  3402               	retlw	high (_EscLightInfo| (0+512))
  4923  2872  342D               	retlw	low (_LightInfo| (0+512))
  4924  2873  3402               	retlw	high (_LightInfo| (0+512))
  4925  2874  3427               	retlw	low (_VoiceInfo| (0+512))
  4926  2875  3402               	retlw	high (_VoiceInfo| (0+512))
  4927  2876                     __end_of_TaskTable:
  4928                           
  4929                           	psect	stringtext4
  4930  3059                     __pstringtext4:
  4931  3059                     _TaskNumbers:
  4932  3059  3410               	retlw	16
  4933  305A  3400               	retlw	0
  4934  305B  3406               	retlw	6
  4935  305C  3400               	retlw	0
  4936  305D                     __end_of_TaskNumbers:
  4937                           
  4938                           	psect	stringtext5
  4939  3022                     __pstringtext5:
  4940  3022                     _SND_CO_Params:
  4941  3022  3464               	retlw	100
  4942  3023  3400               	retlw	0
  4943  3024  3464               	retlw	100
  4944  3025  3400               	retlw	0
  4945  3026  3488               	retlw	136
  4946  3027  3413               	retlw	19
  4947  3028  3404               	retlw	4
  4948  3029  3400               	retlw	0
  4949  302A  3402               	retlw	2
  4950  302B                     __end_of_SND_CO_Params:
  4951                           
  4952                           	psect	nvBANK0
  4953  005F                     __pnvBANK0:
