:1000000080311A281E3403347E1480312000111CE4
:100010000E28210053180E28200011100B1C162842
:100020002700961116130B082000E4140B190B116E
:100030007E10090080311C2821008031022080318F
:10004000EE00803103208031EF0075308400AE3047
:10005000850063308600013087000030FF000930E2
:10006000AE31EE26803158308400AE308500E43069
:100070008600013087000030FF000630AE31EE26EA
:1000800080312000E301E401E501E601B0308400A5
:10009000003085002430FE000030FF00AE31E22643
:1000A000803120308400013085004330FE00003074
:1000B000FF00AE31E2268031A0308400013085009F
:1000C0004430FE000030FF00AE31E22680312030A7
:1000D0008400023085003730FE000030FF00AE3172
:1000E000E2267E10200085314B2D783086002330AB
:1000F0008700403F2200A600413FA70078308600DD
:1001000023308700403F2100B400413FB50020006C
:10011000C701C8014808F1004708F0000530F200A7
:100120000030F300AF31AB27803178302000AD00D4
:100130002330AE0070082D07860071082E3D870021
:10014000403FAF00413FB000300822002702031DAE
:10015000AD2820002F08220026020318CB282000FB
:100160004808F1004708F0000530F2000030F300C5
:10017000AF31AB27803178302000AD002330AE00A6
:1001800070082D07860071082E3D8700403F220031
:10019000A600413FA70020004808F1004708F000F2
:1001A0000530F2000030F300AF31AB2780317830FA
:1001B0002000AD002330AE0070082D0786007108C6
:1001C0002E3D8700403FAF00413FB0002100350881
:1001D00020003002031DF0282100340820002F02E7
:1001E00003180D294808F1004708F0000530F20017
:1001F0000030F300AF31AB27803178302000AD0004
:100200002330AE0070082D07860071082E3D870050
:10021000403F2100B400413FB50001302000C70736
:100220000030C83D00304802183003194702031C53
:100230008A2821003408220026022000AD00210077
:1002400035082200273B2000AE0000302E026E3021
:1002500003192D020318A62921006D13ED132000A8
:10026000C9014908AD00AE012D08F0002E08F100CB
:100270000530F2000030F300AF31AB278031783029
:100280002000AF002330B00070082F0786007108EF
:10029000303D87004908B100B2013108F000320852
:1002A000F1000530F2000030F300AF31AB278031B0
:1002B0007A302000B3002330B40070083307840084
:1002C0007108343D8500403F803F413F813F4908F0
:1002D000AD00AE012D08F0002E08F1000530F2004F
:1002E0000030F300AF31AB27803178302000AF0011
:1002F0002330B00070082F0786007108303D87005A
:100300000030C03FC13F4908AD00AE012D08F000EC
:100310002E08F1000530F2000030F300AF31AB27BA
:1003200080317C302000AF002330B00070082F07F0
:1003300086007108303D870081010130AD002D0835
:10034000C907183049020318452D312921006D17BE
:1003500034082000AD00210035082000AE00AF01B8
:10036000B001220026082000B1002200270820004A
:10037000B200B301B4012D08B1022E08B23B2F0820
:10038000B33B3008B43B1030B135B20DB30DB40DF2
:10039000890BC4293408C4003308C3003208C200E2
:1003A0003108C1000030A3000030A2000030A100DD
:1003B0006430A0004408F3004308F2004208F10052
:1003C0004108F0000030F7000030F6000030F50082
:1003D0001E30F400A2318222803173082000A70071
:1003E0007208A6007108A5007008A400A631912625
:1003F00080312008AD002108AE002208AF0023089C
:10040000B0001030B036AF0CAE0CAD0C890B022A28
:100410003008C4002F08C3002E08C2002D08C100F8
:10042000210034082000C107210035082000C23D0A
:100430000030C33DC43D42082200ED0020004108C9
:100440002200EC00210034082000AD002100350816
:100450002000AE00AF01B001220026082000B1004C
:10046000220027082000B200B301B4012D08B10218
:100470002E08B23B2F08B33B3008B43B1030B135E7
:10048000B20DB30DB40D890B3F2A3408C4003308F4
:10049000C3003208C2003108C1000030A3000030A0
:1004A000A2000030A1006430A0004408F30043081B
:1004B000F2004208F1004108F0000030F70000307F
:1004C000F6000030F5000A30F400A23182228031BB
:1004D00073082000A7007208A6007108A500700824
:1004E000A400A631912680312008AD002108AE007D
:1004F0002208AF002308B0001030B036AF0CAE0CAD
:10050000AD0C890B7D2A3008C4002F08C3002E08CB
:10051000C2002D08C100210034082000C1072100BD
:1005200035082000C23D0030C33DC43D4208E00014
:100530004108DF007830860023308700403FAD005F
:10054000413FAE002E0822006D02031DAB2A2000A1
:100550002D0822006C020318F12A01302000BD0092
:100560000030BE003E08F1003D08F0000530F2000A
:100570000030F300AF31AB27803178302000AD0080
:100580002330AE0070082D07860071082E3D8700CD
:10059000403FAF00413FB00022006D082000300214
:1005A000031DD62A22006C0820002F020318E52A1A
:1005B0002100D01020003D08AD002D082100EC00E6
:1005C00018302000BD000030BE000130BD070030F3
:1005D000BE3D00303E02183003193D020318342B93
:1005E000B22A01302000BF000030C0004008F100F6
:1005F0003F08F0000530F2000030F300AF31AB27C8
:10060000803178302000AD002330AE0070082D0717
:10061000860071082E3D8700403FAF00413FB0008B
:10062000300822006D02031D192B20002F08220024
:100630006C020318282B2100D01420003F08AD00C5
:100640002D082100EC0018302000BF000030C00051
:1006500001302000BF070030C03D0030400218309C
:1006600003193F02031CF62A2200C7012100C3011F
:100670002200C6012000B801B9010030390218304B
:10068000031938020318F42B183021006C020318E8
:10069000EC016C082000AD00AE012D08F0002E0822
:1006A000F1000530F2000030F300AF31AB278031AC
:1006B00078302000AF002330B00070082F0786008C
:1006C0007108303D8700403FB100413FB200320821
:1006D00022006D02031D702B2000310822006C02E5
:1006E0000318A32B21006C082000AD00AE012D08DB
:1006F000F0002E08F1000530F2000030F300AF31B9
:10070000AB2780317C302000AF002330B000700870
:100710002F07B1007108303DB20031088600320861
:100720008700803081002100D0189A2B2200C6015A
:10073000C60AA02B01302000AD002D082200C607FC
:100740002100D014E82B21006C082000AD00AE0180
:100750002D08F0002E08F1000530F2000030F30003
:10076000AF31AB2780317C302000AF002330B000A8
:1007700070082F0786007108303D87008101210035
:10078000D01CCD2B0430220046020318C92B46088A
:10079000CE2B2100C301C30AD32B01302000AD00B2
:1007A0002D082100C3074308220047020318E62B47
:1007B000210043082000AD002D082200C7002100C1
:1007C0006C082000AD002D082200C5002100D010CB
:1007D00001302000AD002D082100EC070130200081
:1007E000B8070030B93D3D2BC5011830450203184C
:1007F000502C4508AD00AE012D08F0002E08F10088
:100800000530F2000030F300AF31AB278031783093
:100810002000AF002330B00070082F078600710859
:10082000303D87004508B100B2013108F0003208C0
:10083000F1000530F2000030F300AF31AB2780311A
:100840007A302000B3002330B400700833078400EE
:100850007108343D8500403F803F413F813F45085E
:10086000AD00AE012D08F0002E08F1000530F200B9
:100870000030F300AF31AB27803178302000AF007B
:100880002330B00070082F0786007108303D8700C4
:100890000030C03FC13F0130AD002D08C507F52B2A
:1008A000063022004702031C432D45082000AD00FE
:1008B0002D082100EC0043362000AD002D08BA00C1
:1008C0003A080319732C01302100EC026C0A031D55
:1008D0006F2C17302000AD002D082100EC000130F6
:1008E0002000BA02602C0630AD002D08BB003B088A
:1008F00003198A2C01302100EC026C0A031D862C9E
:1009000017302000AD002D082100EC000130200040
:10091000BB02772CBC010C303C020318DD2C2100FB
:100920006C082000AD00AE012D08F0002E08F1008B
:100930000530F2000030F300AF31AB2780317C305E
:100940002000AF002330B00070082F078600710828
:10095000303D870001080438B10021006C082000F8
:10096000B200B3013208F0003308F1000530F200A4
:100970000030F300AF31AB2780317C302000B40071
:100980002330B50070083407B6007108353DB70054
:100990003608860037088700310881000130AD0035
:1009A0002D082100EC0718306C020318EC0101300F
:1009B0002000AD002D08BC078B2CC6011830460264
:1009C00003183E2D4608AD00AE012D08F0002E089C
:1009D000F1000530F2000030F300AF31AB27803179
:1009E0007C302000AF002330B00070082F07860055
:1009F0007108303D87000108031D392D4608AD0000
:100A0000AE012D08F0002E08F1000530F200003094
:100A1000F300AF31AB2780317C302000AF002330B2
:100A2000B00070082F0786007108303D870001086C
:100A30000438B1004608B200B3013208F0003308B0
:100A4000F1000530F2000030F300AF31AB27803108
:100A50007C302000B4002330B50070083407B600A5
:100A60007108353DB7003608860037088700310821
:100A700081000130AD002D08C607DE2C2100ED17E6
:100A80002000E611452D2100ED132100EC0101307D
:100A9000A13143210800DD01DE0121001608D40048
:100AA00054082400DA000308D4005408D900AF31F8
:100AB0006627853118309700171464002100D3147D
:100AC000A7319F278531A231B122853122009617A7
:100AD00021009618702D96140C3088310020853135
:100AE000AE3147268531A131AD218531A431522463
:100AF00085312000651721004208D400D501540833
:100B0000F0005508F1001230F2000030F300AF3170
:100B1000AB27853132302100D600A830D7007008CD
:100B20005607D8007108573DD900580820005D07C6
:100B300084002100590820005E3D85000008210046
:100B4000DA00DB01DA35DB0D56305A078400A830B5
:100B50005B3D8500003FDC00013FDD005C08860056
:100B60005D0887004231403FDE00413FDF00420820
:100B7000E000E1016008F0006108F1001230F200CD
:100B80000030F300AF31AB27853132302100E20075
:100B9000A830E30070086207E4007108633DE500D7
:100BA000640820005D0784002100650820005E3D88
:100BB000850000082100E600E701E635E70D563024
:100BC00066078400A830673D8500003FE800013FCC
:100BD000E9006808860069088700403F3202EA00A1
:100BE000413F333BEB005F086B02031DF92D5E08AC
:100BF0006A02031CB82E4208D400D5015408F00044
:100C00005508F1001230F2000030F300AF31AB278D
:100C1000853132302100D600A830D7007008560741
:100C2000D8007108573DD900580820005D0784009E
:100C30002100590820005E3D850000082100DA00EF
:100C4000DB01DA35DB0D56305A078400A8305B3DF6
:100C50008500003FDC00013FDD005C0886005D0888
:100C600087004431403F2000D900413FDA005A0854
:100C70008A0059080A0086314708DC004608DB0074
:100C800021004208D400D5015408F0005508F100B5
:100C90001230F2000030F300AF31AB278531323033
:100CA0002100D600A830D70070085607D800710878
:100CB000573DD900580820005D07840021005908DD
:100CC00020005E3D850000082100DA00DB01DA35F6
:100CD000DB0D56305A078400A8305B3D8500003F8D
:100CE000DC00013FDD005C0886005D0887004231C2
:100CF00020005B08C03F5C08C13F21004208D400CF
:100D0000D5015408F0005508F1001230F20000300F
:100D1000F300AF31AB27853132302100D600A83047
:100D2000D70070085607D8007108573DD9005808F9
:100D300020005D0784002100590820005E3D8500E9
:100D400000082100DA00DB01DA35DB0D56305A07E6
:100D50008400A8305B3D8500003FDC00013FDD00E2
:100D60005C0886005D0887003208C03F3308C13F39
:100D700001302000DD070030DE3D21004208D400B4
:100D8000D501D435D50D593054078400B030553DC8
:100D90008500003FD600013FD7005608FF3ED8002F
:100DA000FF30573DD90020005E0821005902031D85
:100DB000DD2E20005D082100580203187B2D200045
:100DC000DD01DE0101302100B2070030B33DD31058
:100DD000531C0B2FA331E32385312100CF1FF32EAA
:100DE000A031A720853101302200E802031D132F16
:100DF00001302100D40054082200C40764302100CF
:100E0000D40054082200E800A431522485319431E2
:100E1000F0248531132F0130D40054082200C40778
:100E2000A43152248531220067084406031D4C2F4B
:100E3000AE31B2268531003A031D1F2F010021007B
:100E400051160130D4005408CE07220044083C3E1D
:100E50002100D40054082200E7000130E602031DFF
:100E60003A2F3C302100D40054082200E600A33180
:100E7000AC238531983174208531210053184C2FD3
:100E800000303D021F3003193C020318492F6D1E2C
:100E90004C2FAE317E2685312000E31F5B2F2100D1
:100EA000D31F5B2FD31320302000B6000230B700D1
:100EB0008C31CA2485312000641D822F013022002C
:100EC000A2070030A33D023022062304031D6D2F2C
:100ED0002100521B6D2F20008D17013022002302AC
:100EE000F53003192202031C7E2F2000641121001B
:100EF0005213D21B7E2FAE313F26853120001118B0
:100F0000C12F7E2F2100531C892F20001118C12FC3
:100F1000852F2200961397136300220096179717C8
:100F2000031A952F20008D13942F2700961DAA2FAA
:100F300002302100D5003830D400AD30890B9E2F0F
:100F4000D40B9E2FD50B9E2F2700961120008D19B4
:100F5000E4140B102700161FC12F02302100D5000A
:100F60003830D400AD30890BB32FD40BB32FD50B51
:100F7000B32F2700161320000D1FC02F21004F157F
:100F80000B10A03101208531AF3193278531163008
:100F90002100970017147B2DF601F70170087104EA
:100FA0000319FB2FF501F50AF11BE02F0130F03595
:100FB000F10D890BD72F0130F4007408F507D42FF9
:100FC0000130F635F70D890BE12F71087302031D0F
:100FD000EB2F70087202031CF22F7008F2027108E6
:100FE000F33B76140130F136F00C890BF32F01300E
:100FF000F502031DE02F7708F1007608F0000800E5
:101000002000AE00A701A031E3208831043A031983
:101010000E28863020002E06031D08003D302000DB
:10102000A2002208F1002B30A3002308F2000330B5
:10103000AF31E327883120002D082C07A2002208B9
:101040002B0603193A283D30A2002208F1002B306C
:10105000A3002308F2000330AF31E32788312000DA
:101060002D082C07A20022082B0603193A2821007C
:10107000511408002100511020002E08A20022085F
:10108000A400AE1F88282E08A2000330A235FF3E20
:10109000031D46282235A3002308AE00AE316C267E
:1010A000883171082000A9007008A8002908A20052
:1010B0002208A5002808A2002208A7002E0825045F
:1010C000A2002208AE002E08A20022082200DF00A3
:1010D00020002708A20022082200E0005F30F9006B
:1010E0000130FA0020002C08A2002208FB00023088
:1010F000A531002588310230A2002208AC07A030BB
:101100002C02031CCC284030A2002208AC00CC28C2
:101110002E08A2000330A235FF3E031D8B28223586
:10112000A3002308AE00AE316C2688317108200080
:10113000A9007008A8002908A2002208A500280814
:10114000A2002208A7002E082504A2002208AE0053
:101150002E08A20022082200DF0020002708A2009B
:1011600022082200E0005F30F9000130FA00200080
:101170002D08A2002208FB000230A531002588318D
:101180000230A2002208AD07A0302D020318CC289F
:10119000A030A2002208AD002C082D07A2002208D2
:1011A000AB002B30F9000030FA003D30A2002208DD
:1011B000FB000330A5310025883109293830052985
:1011C0002030052921300529223005293030A200A0
:1011D0002208AA002B30A2002208F90021003C08B6
:1011E000AF31C62788312C302000A2002208F90038
:1011F00021003D08AF31C627883126293230052924
:1012000031300529393005293330A2002208AA00DF
:1012100026292408043A0319E428013A0319E4288A
:101220000E3A03190229073A0319DE28013A031975
:10123000E028033A0319E2288C3A03190029013AFD
:101240000319FE280C3A0319E6280429333020003C
:101250002A06031908002A08AE319C26883120008E
:10126000A2002208A600260A031908000130A200E5
:101270002208A6072A08A2002208F9002608AF3192
:10128000C6270800E12A2000651D4829E31D5429CE
:101290003030F8007530F900A031152079082000B1
:1012A000C7007808C600080001302300E8020030BB
:1012B000E93B68086904031D74292100531C622955
:1012C000013063290A302300E8000030E9002000E3
:1012D0008D1874292100D1197429D01601302000ED
:1012E000C80048082200E9072100ED1F9F292000BF
:1012F00063189F29600822006402031D83292000CF
:101300005F0822006302031CAA29AE313D26893101
:10131000053A031DB92920005F08143EC8000030BB
:10132000603DC9002200640820004902031D9C2979
:1013300022006308200048020318BD29B9292000B3
:101340006318BD290030220064027D300319630256
:101350000318AC290530BA29AE313D268931053A4A
:10136000031DB92900306402923003196302031C83
:10137000BD290130AE31652689312100ED1FF629E6
:101380002000E619F62921006C082000C800C901D8
:101390004808F0004908F1000530F2000030F30081
:1013A000AF31AB2789317C302000CA002330CB001D
:1013B00070084A07860071084B3D8700011DF72918
:1013C000E618E929E61400302300A000E130A1006E
:1013D000ED2A01302300A0020030A13B20082104A7
:1013E000031DED2A2000E610E615ED2A2000E61088
:1013F000ED2A21008D1423008D1401302000C80037
:1014000048082200E907D030F8000730F900A03181
:10141000152079082000C7007808C60008007C3035
:10142000A1318721893171082000D1007008D000D6
:101430002830A1318721893171082000D30070083C
:10144000D200D40106302000C8003030890B262A93
:10145000C80B262A00002830A131872189312000BD
:1014600052087007C8005308713DC900C936C80C3E
:101470004808D2004908D3000130C8004808D40702
:1014800004305402031C222A21008D1023008D10E9
:1014900020005008F0005108F100F201F301003083
:1014A000F7001030F6000030F5000030F4009C31F9
:1014B0009D2489317308CF007208CE007108CD00D9
:1014C0007008CC005208F0005308F100F201F3015B
:1014D0004F08F7004E08F6004D08F5004C08F400E0
:1014E000A2318222893170082000C8007108C90029
:1014F0007208CA007308CB000A30CB36CA0CC90C7C
:10150000C80C890B7D2A4B08D8004A08D700490827
:10151000D6004808D50056082200E40020005508EF
:101520002200E30023006708660465046404031DC9
:10153000A32A200055082300E400200056082300B9
:10154000E500E601E7016708F3006608F2006508B8
:10155000F1006408F0000030F7000030F6000030C1
:10156000F5000330F400A231822289317008200096
:101570005507C8007108563DC9007208573DCA009A
:101580007308583DCB000230CB36CA0CC90CC80CCE
:10159000890BC42A4B082300E70020004A082300D7
:1015A000E600200049082300E50020004808230049
:1015B000E4002100D0122200E901E90AE901E90A68
:1015C000ED2A22006908013A03194329033A031955
:1015D000F929013A03190F2ADE2A2100531C032A94
:1015E000E830F8000330F900A03115207908200018
:1015F000C7007808C6000800B72C2D302000C800AE
:1016000048082100C7002200AC01AD0101302000D4
:10161000C80048082200CD07242B01302000C80054
:1016200048082200CD073C302000C80048082100AF
:10163000C700242BED186D1C0D2B2000641A0D2BF8
:1016400004309E3167268A31E830F8000330F90013
:10165000A031152079082000C7007808C6000800CE
:10166000200064180D2B2100470803191A2B0130A4
:10167000C7029D311F258A312E082100B9002000A4
:101680002D082100B800200064180D2B0230210025
:1016900039025830031938020318242B0130200076
:1016A000C80048082200CD073C302000C800480888
:1016B0002100C7001030F8002730F900A0311520B4
:1016C00079082000C7007808C600080020006514CB
:1016D0002100ED1439082200AB0021003808220057
:1016E000AA009D311F258A312E082100B900200053
:1016F0002D082100B80038082000C8002100390852
:101700002000C900CA01CB0122002C08F0002D08DE
:10171000F100F201F3010030F7000030F600003074
:10172000F5000330F400A23182228A3170082000D3
:10173000C8077108C93D7208CA3D7308CB3D023025
:10174000CB36CA0CC90CC80C890BA02B4908220047
:10175000AD00200048082200AC002000641CBC2B17
:10176000210039082000BC00210038082000BB00FF
:101770009C311C248A31242B21003908B7003808F9
:10178000B6002000E51FC62B641A042C6519CA2B6D
:10179000E31DF92B2100390822002B02031DD42B55
:1017A0002100380822002A020318F52B2A082100FC
:1017B00038022000C80022002B082100393B2000FD
:1017C000C90002304902BD3003194802031CF92B3D
:1017D00004309E3167268A3122002B082100B9008F
:1017E00022002A082100B800242B84309E3167266D
:1017F0008A3122002D082000BC0022002C08200085
:10180000BB009C311C248A3101302100C702031D1A
:10181000242B20030319132B20080319132B20005A
:10182000E51B1A2C003021003D021F3003193C0239
:101830000318132B2000631E062B132B21003608E0
:10184000F43E2300AE0001302100373D2300AF00FD
:101850002F08FD002E08FC009B311D238A31E51462
:101860001430C80048082100C700062B01302100B1
:10187000C702031D4F2C02302000C8004808220078
:10188000CD002100531C462C3C30472C78302000E2
:10189000C80048082100C7002000E510242B2000C4
:1018A000E51A242B9D311F258A312E082100B9000D
:1018B00020002D082100B80013304706031D9C2C82
:1018C000360838022000C80021003708393B2000C4
:1018D000C90000304902643003194802031C812CFE
:1018E0002100360838022000C80021003708393BA3
:1018F0002000C90007304902D13003194802031CF7
:10190000962C02309E3167268A312100ED16023076
:101910002000C80048082200CD0014302000C80074
:1019200048082100C7002000E5109C2C82309E3121
:1019300067268A312100ED12023021004706031D7F
:10194000242B360838022000C80021003708393B14
:101950002000C9000030490246300319480203182C
:10196000242B84309E3167268A318230212B22003D
:101970004D08003A0319FD2A013A0319302B033AA6
:101980000319662B013A03191E2C073A0319362C4A
:10199000242B0800CF2FAE315E2608000D30AF316A
:1019A00007278C316730F000B030F100A03189207A
:1019B0008C3120003608013EF5000030373DF6003E
:1019C000A631E3268C317608D4007508D30053087D
:1019D0008600540887000108B800B9013808A7003C
:1019E0003908A8001030BA003A08A9002030A13107
:1019F000D3218C312C30AF3107278C316730F00088
:101A0000B030F100A03189208C31200053088600CD
:101A100054088700403FA700413FA8001030B8009D
:101A20003808A9002030A131D3218C31AE315E2697
:101A300008003608013EF5000030373DF600A631BB
:101A4000E3268C3176082300AD007508AC00AE317A
:101A50005E2608003608013EF5000030373DF600EE
:101A6000A631E3268C317508B80038082100C8007B
:101A7000AE315E260800A0314F208C31CB2C3608C9
:101A8000013EF5000030373DF600A631E3268C31EB
:101A90007508B8003808BF0023002C0886002D0800
:101AA000870020003F088100CB2C2100EE01EE0AC8
:101AB000AF313C278C31CB2CC601C701C201C30119
:101AC0005430F000B030F100A03189208C3120007A
:101AD000CC010D30AF3107278C3120004708A231EF
:101AE00028228C315D30F000B030F100A031892027
:101AF0008C312000CD014208AE319C268C31200073
:101B0000B8003808CB000130C2070030C33D0130B7
:101B1000B8003808C7074B08B8003808C6074B0894
:101B2000A23128228C312030AF3107278C3101308F
:101B30002000B8003808CD0710304D02031C7B2D63
:101B40000130B8003808CC0710304C02031C692D56
:101B50000D30AF3107278C316430F000B030F10028
:101B6000A03189208C3120004608A23128228C31F6
:101B7000AE315E260800C801A030B8003808C900A0
:101B8000CE014E08031DFE2D0D30AF3107278C31DD
:101B900020004808A23128228C315D30F000B0309E
:101BA000F100A03189208C312000CF0110304F028C
:101BB0000318F72D4908860087010108B800380886
:101BC000C0000130B8003808C9070130B800380833
:101BD000C8074008A23128228C312030AF310727B6
:101BE0008C3101302000B8003808CF07D62D0130E5
:101BF000B8003808CE074E080319C42D0D30AF3198
:101C000007278C31AE315E268C3122002908200056
:101C1000A800220028082000A7000A30B8003808D1
:101C2000A9002030A131D3218C31CB2CCA01103036
:101C3000C4000030C500D0015008031D5A2E0D30DD
:101C4000AF3107278C3120004A08A23128228C317D
:101C50005D30F000B030F100A03189208C312000DF
:101C6000D101103051020318532E4408AE319C2686
:101C70008C312000B8003808C1000130C4070030A2
:101C8000C53D0130B8003808CA074108A2312822F2
:101C90008C312030AF3107278C3101302000B80063
:101CA0003808D107312E0130B8003808D007500865
:101CB00003191F2E0D30AF3107278C31AE315E2650
:101CC00008001130F000B030F100A03189208C31D3
:101CD0002000D2011830520203180F2F0D30AF31FF
:101CE00007278C312000520821006C06031D7C2E32
:101CF0002A30AF3107278C3120005208B800B901D3
:101D00003808A7003908A8000A30BA003A08A90024
:101D10002030A131D3218C3120005208B800B90104
:101D20003808F0003908F1000530F2000030F30007
:101D3000AF31AB278C3178302000BA002330BB00A4
:101D400070083A07860071083B3D8700403FA700B6
:101D5000413FA8000A30BC003C08A9002030A13156
:101D6000D3218C312030AF3107278C31200052082D
:101D7000B800B9013808F0003908F1000530F20068
:101D80000030F300AF31AB278C317A302000BA003D
:101D90002330BB0070083A07860071083B3D87007E
:101DA000403FA700413FA8000A30BC003C08A90002
:101DB0002030A131D3218C312030AF3107278C3135
:101DC00020005208B800B9013808F0003908F100C5
:101DD0000530F2000030F300AF31AB278C317C309E
:101DE0002000BA002330BB0070083A078600710853
:101DF0003B3D87000108BC00BD013C08A7003D0831
:101E0000A8001030BE003E08A9002030A131D32127
:101E10008C3101302000B8003808D2076A2EAE316C
:101E20005E268C312100ED1F4A2F2E30F000B0309D
:101E3000F100A03189208C3122006D082000A8001B
:101E400022006C082000A7000A30B8003808A9005A
:101E50002030A131D3218C31AE315E268C312B3034
:101E6000F000B030F100A03189208C3120006008F2
:101E7000A8005F08A7000A30B8003808A900203081
:101E8000A131D3218C31AE315E268C314D30F00042
:101E9000B0307B2F2E30F000B030F100A03189201F
:101EA0008C317D302000A7000030A8000A30B80037
:101EB0003808A9002030A131D3218C31AE315E2603
:101EC0008C312B30F000B030F100A03189208C3102
:101ED0007D302000A7000030A8000A30B800380884
:101EE000A9002030A131D3218C31AE315E268C3156
:101EF0003D30F000B030F100A03189208C31AE319E
:101F00005E268C3121006D1F8D2F3430F000B030F3
:101F1000F100A03189208C31CB2C4530F000B0305D
:101F2000F100A03189208C31CB2CE61B0800210068
:101F30004F1CAC2F2000E51FA32FFF30B80038083E
:101F40002200DC0008009831032002302000B80095
:101F500038082200DC0008002000661C0800AE31B2
:101F6000A7268C31AE317E262200DC01DC0A080077
:101F7000641ABC2F631EC22F0630B8003808220036
:101F8000DC00080064149D2F0D30AF3107278C3121
:101F90002130AF3107278C31AE315E26080036087C
:101FA0008400370885000008003A0319CB2C403A1A
:101FB0000319CE2C013A0319192D033A03192A2DBE
:101FC000013A03193B2D073A03193F2D013A031932
:101FD000FF2F033A0319552D013A03195C2D0F3ACF
:101FE0000319952F033A0319162E073A0319612E88
:101FF0001E3A0319BB2D063A0319B82FC42F080047
:102000008A28CC01CC0A5A28A031E3209031043A26
:10201000031D112802302000C80048082200CC000F
:102020005A28A031E3209031033A03191D28A0312A
:10203000E3209031053A031D202820008D105A28F6
:10204000A031E3209031023A031D282820005928AE
:10205000A031E3209031003A031D3B28D2166430B2
:10206000F8000030F900A031152079082000C700E1
:102070007808C6000800A031E3209031013A031D22
:102080005A28D2162C30F8000130F900A031152062
:1020900079082000C7007808C60008002000641DE9
:1020A000631B86282100531C742820006418631CBD
:1020B00066288D14E830F8000330F900A0311520AF
:1020C00079082000C7007808C60008002100D21651
:1020D0006030F800EA30F900A031152079082000BE
:1020E000C7007808C6000800D01A5A28D216A131B5
:1020F000652190316030F800EA30F900A0311520F8
:1021000079082000C7007808C60008006418631C1E
:102110005A28592822004C08003A03190128013A8C
:1021200003190428033A03194E285A280800612984
:1021300020006413631EDD28A031E3209031023AB1
:10214000031DAC2820008D1304302200A0000030B5
:10215000A10020006417782920008D13223021006F
:10216000B000B030B10031082000C90021003008B3
:102170002000C80006304807840049080318490AAF
:1021800085000008CA004A082200B6000130A000FD
:102190000030A100200064172100300884003108BD
:1021A0008500003FF800013FF900A03115207908B3
:1021B0002000C7007808C60008002200350803196F
:1021C000EB282000E41BF82801302200B502AE31D4
:1021D000FA269031F8282100531FF82801302200F8
:1021E000B302031DF828AE31FA26903121005313B3
:1021F00022003508031D78292000E41278292000E8
:102200008D1701302200B602031D2429B501A0015B
:10221000A101210031082000C90021003008200060
:10222000C80004304807840049080318490A85009B
:10223000003FF800013FF900A03115207908200087
:10224000C7007808C60008000230A0000030A100D6
:10225000210031082000C900210030082000C800FA
:1022600002304807840049080318490A8500003FE6
:10227000F800013FF900A031152079082000C700BF
:102280007808C600080020008D1301302200A0004D
:102290000030A10021003008840031088500003F93
:1022A000F800013FF900A031152079082000C7008F
:1022B0007808C6000800A001A101782920008D132C
:1022C000782922002108003A031967297829200873
:1022D000003A03199828013A0319FF28033A031911
:1022E0004329013A03195B29073A03195E29782922
:1022F0002C30F8000130F900A031152079082000B9
:10230000C7007808C600080064188B299729043094
:1023100046060319A2293030F8007530F900A031C3
:10232000152079082000C7007808C6000800A031F1
:10233000E32091312000BE003E08C6000230460670
:10234000031D872923006B082400D80023006A0896
:102350002400D70022006F082300EB0022006E0843
:102360002300EA006A08F0006B08F100F201F301B3
:102370000030F7000030F600B830F5000B30F40004
:10238000A2318222913173082000CA007208C9006C
:102390007108C8007008C7004A08C5004908C40091
:1023A000003021003D022D3003193C02031C0A2A93
:1023B00024005708F0005808F100F201F301003042
:1023C000F7000030F6004930F500FB30F400A23190
:1023D0008222913173082000CA007208C900710876
:1023E000C8007008C7004908BE004A08BF00C00105
:1023F000C1014108CA004008C9003F08C8003E08A2
:10240000C700470844072200EE0020004808453D69
:102410002200EF00003021003D02623003193C022F
:10242000031C272A3C0822006E072000BE00210062
:102430003D0822006F3D2000BF003E080D3E2200F7
:10244000EE00003020003F3D2200EF002E2A3C0825
:102450002200EE0721003D082200EF3D00306F0210
:10246000273003196E02031C7D2A2630EE0200304D
:10247000EF3B20306F02453003196E02031C422AE5
:10248000AC30772A003021003D02E53003193C02D0
:10249000031C542A3D082000BF0021003C082000F6
:1024A000BE00BE35BF0D5B2A3D082000BF002100E5
:1024B0003C082000BE00BE35BF0DBE35BF0D443008
:1024C000C0002030C10022006E0820004002C2007F
:1024D00022006F082000413BC3003F084302031D58
:1024E000732A3E0842020318832AAC302200EE0011
:1024F0001F30EF00200063148B29EE01EF01230051
:10250000EA01EB01200063108B29742B20000C13CF
:1025100001302200B0000030B1002100D3151E3080
:102520002000BE003E082200D200D301D30A88302A
:10253000F8001330F900A031152079082000C700F9
:102540007808C60008002000631EB22AA030F800F8
:102550000F30F900A031152079082000C700780855
:10256000C60008002100531EC62A01302300B00215
:102570000030B13B30083104031DC62A210053123C
:1025800003302000BE003E082200DC0001302200A3
:10259000B0020030B13B30083104031D7D2BA33164
:1025A0004323923174082000C7007308C60023003B
:1025B0006208F0006308F100F201F3010030F70057
:1025C0001030F6000030F5000030F4009C319D24FE
:1025D00092317308C5007208C4007108C300700806
:1025E000C2004608F0004708F100F201F301450877
:1025F000F7004408F6004308F5004208F400A23151
:102600008222923170082000BE007108BF0072085B
:10261000C0007308C1000A30C136C00CBF0CBE0C2C
:10262000890B0C2B4108CB004008CA003F08C900A9
:102630003E08C80049082100BF00200048082100CA
:10264000BE0020004B08031D312B4A08031D312B0F
:10265000453048020430493B0318312B2100D21584
:10266000332B2100D21120004B08031D5D2B4A089B
:10267000031D5D2B5A3048020430493B03185D2B83
:102680002000661D5B2B6618582B4B08031D542B2E
:102690004A08031D542B4908031D542BFA304802E5
:1026A0000318542B0530552B04308831002092310B
:1026B000200066146F2B66156F2B20004B08031D3E
:1026C0006A2B4A08031D6A2B653048020430493BD7
:1026D000031C6F2B2000661166102100531200307E
:1026E000A131432192317D2B22005308003A031976
:1026F000862A013A0319A32A7D2B6030F800EA30BC
:10270000F900A031152079082000C7007808C6001C
:102710000800C62C2000E4116519E319E12C8D1D79
:10272000A22BE4152200D101D10AA22B20008D1D7D
:10273000A02BAE31FA2693312100CC010230AD2C12
:102740002200D1012000E410E12C20008D1DF62B89
:10275000AE3141269331003A0319CE2B2000E1011E
:10276000E2012200D801D90121006D120F302000B2
:10277000BE003E082100CC0006302000BE003E080E
:102780002200D1006430F8000030F900A03115209B
:1027900079082000C7007808C60008000130200032
:1027A000BE003E082100CC0750304C02031CE22B37
:1027B00078304C020318E22B09302000BE003E089E
:1027C0002200DB00783021004C02031CE12C013098
:1027D0002000BE003E082200CE0728304E02031C17
:1027E000E12CCE01AE31FA269331E12C2100511EAD
:1027F000FB2B0330AD2C78304C02031C012C220043
:10280000D101503021004C02031C132C78304C02B3
:102810000318132C09302000BE003E082200DB0004
:102820002200D101E12C28302000BE003E08220009
:10283000D00001302000BE003E082200CF07023049
:102840004F02031C2B2C08302000BE003E08220043
:10285000DB00CF01102C0930AD2C323021004C02AE
:102860000318882C20006318372CE61F3A2C21000F
:10287000D31601002000661E3F2C0730BD2B21001F
:102880004F1C532C2000E51F492C2100D3160100BA
:10289000532C98310320933104302000BE003E08B1
:1028A0002200DB00B62B2100531A3D2C2000661CB1
:1028B000722CAE31A726933103302000BE003E08B3
:1028C0002200DB000F302000BE003E082100CC00BB
:1028D00006302000BE003E082200D100AE317E2628
:1028E0009331C22B641A762C631E7D2CE51F7A2C43
:1028F00021006D142100D3168E2C64142200DB01FC
:10290000DB0A04302000BE003E082200D1008E2CDD
:1029100078304C02031C8E2C2200D1015030210053
:102920004C02031C102C78304C02031C0A2C102C77
:102930002000641C102CE12C01302100CC02031D6E
:10294000A32C2200D10120008D19E12C102C200095
:1029500064142200DB01DB0A04302000BE003E08C4
:102960002200D100E12C0130D002031DBF2C033026
:102970002000BE003E082200D100CF01E12C200043
:102980008D1DE12C2200D101D10AE12C2200510839
:10299000003A03198A2B013A0319962B033A0319BB
:1029A000A52B013A03192D2C073A0319982C023A4A
:1029B00003199C2C013A0319A72C0E3A0319B32CC6
:1029C000E12C2100511AC22B1E30F8000030F90012
:1029D000A031152079082000C7007808C60008003B
:1029E000FB015630F0007008FA002000650C890CDD
:1029F0000139F00063080139F1000730F135890B26
:102A0000FE2C2100500D500D0139F2000630F23538
:102A1000890B072D2000660D660D0139F30021009A
:102A20004F0801397304F4000530F435890B152D76
:102A30006D0E890C0139F500500C890C01397504B3
:102A4000F6000430F635890B222D20006608013986
:102A5000F7000330F735890B2A2D2100500E890C21
:102A6000890C0139F8000230F835890B342D20002B
:102A7000630E890C890C0139090778047704760400
:102A80007404720471047004F90079082200DA00F9
:102A9000200065194F2DAF31212794313A2E631B49
:102AA0004B2D651F6A2D2100501C112E0130F000A6
:102AB00070082200C20721004F18612D2000E61F78
:102AC000632D0B30642D063022004202031C3A2E87
:102AD000C201A52D64184B2D631E702D661C4B2D55
:102AE00021004F18762D2000E61F942D210050184C
:102AF0007F2D043022005B06031D3A2E112E01307B
:102B0000F00070082200C1070B304102031C3A2E6E
:102B100020000C11210050102000E31323009E120E
:102B20001E112200C1013A2EE41DB12D2100D01F3B
:102B3000B12D501C112E0130F00070082200C0078A
:102B400006304002031C3A2EC00120000C11210067
:102B500050102000E31323009E121E112000651365
:102B60003A2E21005019B62DED1EE12D2000631ADA
:102B7000E12D21005018CD2D2000E41D3A2E0C151A
:102B8000210050142000E31723009E161E15053067
:102B9000F00070082200BF003A2E01302200BF0270
:102BA0003F08031D3A2E20000C1121005010200078
:102BB000E31323009E121E1121006D1C3A2E01000A
:102BC0003A2E200066186418092E631E641A092E16
:102BD000631B092E21005019092E5018FE2D0330B9
:102BE00022005B06031D3A2E20000C152100501414
:102BF0002000E31723009E161E1508000130F00088
:102C000070082200BE0706303E02031C3A2EBE01A9
:102C1000312E20006418312E2100CF1C312E501887
:102C20001B2E20000C15210050142000E317230058
:102C30009E161E153A2E0130F00070082200BD07C6
:102C40001A303D02031C3A2EBD0120000C11210058
:102C500050102000E31323009E121E112100CF10FC
:102C60003A2E20000C11210050102000E313230005
:102C70009E121E112100501C080023009E1C3D2E98
:102C80002200DE017B087A07F00070088600013020
:102C90008700010823009A007B087A07F00070087B
:102CA0008600013087000108F10071082200DE076C
:102CB00023009E1C582E0130F0007008FB070930DD
:102CC0007B02031C422E0130F00070082200BC077A
:102CD00005303C02031C0800BC01DB01FF30F000A2
:102CE0007008DC00DC010800E72F01302000BE0086
:102CF0003E082100CB07E830F8000330F900A0318E
:102D0000152079082000C7007808C60008000730A1
:102D10002006031DA32E05302000BE003E08210022
:102D2000CB0007302000BE003E082200DD006430EA
:102D3000F8000030F900A031152079082000C70004
:102D40007808C60008002003031DB02E0C302000B8
:102D5000BE003E082100CA002200DD01DD0A752EFA
:102D60002008031DBC2E0C302000BE003E082100B0
:102D7000CA002200DD01752E0330CA2F0130CA02BD
:102D8000031D8F2F200815302000BE003E082100B3
:102D9000CA0001302000BE003E082100CB078F2F63
:102DA0002008031D0C2F01303B02043003193A02A6
:102DB0000318092F00303B023D3003193A02031C6F
:102DC000092F3A082000BE003E082100A2003B085F
:102DD0002000BE003E082100A30001302000BE00FC
:102DE0003E082100A000FE302000BE003E08210069
:102DF000A100A0314F2096312830BE003E082100AE
:102E0000CA0006302000BE003E082100CB00103072
:102E1000772F283020007E2F0230A03E86008701C9
:102E2000403F2000C200413FC300420821003A0257
:102E30002000C600430821003B3B2000C7000230B1
:102E400047028A300319460203187D2F00304702DB
:102E5000C93003194602031C7D2F4608A00047080D
:102E6000A100A201A3010030A7009630A600003007
:102E7000A5000030A400A631912696312008BE009E
:102E80002108BF002208C0002308C1000830C13655
:102E9000C00CBF0CBE0C890B472F3F08C5003E0875
:102EA000C4000130C4070030C53D0430A03E860098
:102EB00087014408C03F4508C13F0730BE003E08B7
:102EC0002100A000F8302000BE003E082100A10033
:102ED000A0314F2096312830BE003E082100CA00A4
:102EE00006302000BE003E082100CB00113020003B
:102EF000BE003E082200DD00A72F2830BE003E089D
:102F00002100CA0006302000BE003E082100CB0090
:102F10002000E616FF30BE003E082200DD00303003
:102F2000F8007530F900A031152079082000C7009D
:102F30007808C600080022002D082100BB002200EE
:102F40002C082100BA000130CA020319D02E10301B
:102F5000F8002730F900A031152079082000C700BB
:102F60007808C60008002000631C8F2F0330BE00C5
:102F70003E082100A000FC302000BE003E082100D9
:102F8000A100A0314F2096310430BE003E08210040
:102F9000CB00173020008B2F0130CA02031D8F2F6A
:102FA0002000E61EDE2F06309E3167269631043063
:102FB0002000BE003E082100CB008F2FAE31FA2644
:102FC00096310130BE003E082100CA078F2F210034
:102FD0004B08003A0319752E013A0319872E033A5C
:102FE0000319BE2E013A03199B2F073A03198F2F9D
:102FF000013A0319B32F033A0319CC2F8F2F08007E
:10300000220020080800AE316C2671082300A300BE
:103010007008A200200066160430F2007208220038
:10302000DC000800FA017A08F600F7017608F000E3
:103030007708F1000530F2000030F300AF31AB2724
:1030400098317830F8002330F9007008780786004E
:103050007108793D87000030C03FC13F7A08F60013
:10306000F7017608F0007708F1000530F200003033
:10307000F300AF31AB2798317A30F8002330F900F4
:103080007008780786007108793D87000030C03FDE
:10309000C13F7A08F600F7017608F0007708F100E2
:1030A0000530F2000030F300AF31AB2798317C30AF
:1030B000F8002330F9007008780786007108793D20
:1030C000870081012100ED130130F6007608FA0730
:1030D00018307A02031C1328EC012200EC01ED01E8
:1030E0002000DF01E001080001302300A4070030C8
:1030F000A53D05302502A03003192402031C080059
:1031000021002808013E2000BE003E082100A80042
:103110002808031D92282908013E2000BE003E0811
:103120002100A900280829072000BE003E08210030
:10313000AA00A0314F209831A33175239831230084
:10314000A401A50121003F082000A30021003E08A2
:103150002000A2000330A431C6249831AE316C2681
:10316000983170037104031DC12821003F0820001D
:10317000A30021003E082000A2000130A431C62493
:103180009831AE316C2698316E307006031DD72809
:103190007103031DD72821003F082000A300210050
:1031A0003E082000A2000230A431C6249831AF317D
:1031B0003C270800A031E3209831043A031D0800A1
:1031C0002000E51B08003430AE319C2698312000E9
:1031D000A000A1012008A2002108A3003530AE31D3
:1031E0009C2698312000A000A1012008A4002108FD
:1031F000A5002408A100A00122082007A60023089A
:10320000213DA7007D082702031D08297C0826020E
:10321000031808007C08A0002008AA007D08A00070
:103220002008AB003430A0002008F9002A08AF3194
:10323000C627983135302000A0002008F9002B085F
:10324000AF31C6279831AE316C2698317108200015
:10325000A9007008A8002808A0002008AA002908D2
:10326000A0002008AB003630A0002008F9002A0892
:10327000AF31C627983137302000A0002008F90070
:103280002B08AF31C62708007A08FC007C08A6008E
:103290007908A4007808A3007B08FC00FD017C08E5
:1032A000F0007D08F1002408F3002308F200A131AA
:1032B000FC2199317108A1007008A0002108850047
:1032C0002008840000308407B030853D0008FC00F1
:1032D0002608860087017C0881000130FC007C08FC
:1032E000A6077B08FC00FD017C08F0007D08F100CA
:1032F0002408F3002308F2008731CC2799317108A4
:103300002000A4007008A30023082404031D4C29F6
:1033100026088600870181017A08FC007C08A50048
:103320000130A60226082502031808002508860099
:1033300087010108FC007C08A2002608860087019E
:103340000108FC002508860087017C08810022080E
:10335000FC002608860087017C0881000130FC0003
:103360007C08A5079029122A20006418E41B1E2A55
:103370001430C80048082200B7001E302000C800E2
:1033800048082100EE000D308831002099312200DC
:10339000B801B80AAF311427993121003608F43E3C
:1033A000FC000130373DFD009B311D2399311E2A61
:1033B000003021003D02473003193C02031CF8296C
:1033C000200063140A30A231E1229931023020003A
:1033D000C80048082200B8004030F8001F30F9004B
:1033E000A031152079082000C7007808C600080021
:1033F00001302200B702031DCD2907309E31672618
:103400009931200064102200B8011E2A20006310A8
:10341000983100209931003A031D1E2A2100D3164D
:1034200001001E2A22003808003A0319B429013A83
:103430000319D829033A0319062A1E2AF430F80082
:103440000130F900A031152079082000C700780864
:10345000C6000800FD007D082000A000A101A035E5
:10346000A10D563020078400A830213D8500003F83
:10347000A200013FA30022088600230887004231F2
:1034800016000104031908007D08A5313E259A3174
:103490007108FC007008FB006430F0000030F1009F
:1034A0007C08F3007B08F2008731CC279A317D0835
:1034B0002000A000A101A035A10D563020078400F6
:1034C000A830213D8500003FA200013FA300220853
:1034D00086002308870042317008C03F7108C13F51
:1034E0007D08A000A101A035A10D56302007840061
:1034F000A830213D8500003FA200013FA300220823
:1035000086002308870042310130810741310318CA
:10351000810A7D08A000A101A035A10D5630200729
:103520008400A830213D8500003FA200013FA30098
:10353000220886002308870021003208C03F330894
:10354000C13F0800F201F30173088500720884008E
:103550008435850D56308407A830853D003FF00046
:10356000013FF10070088600710887004231003089
:10357000C03FC13F73088500720884008435850D03
:1035800056308407A830853D003FF000013FF10030
:1035900070088600710887000030C03FC13F0130CD
:1035A000F2070030F33D003073021030031972024D
:1035B000031CA42A10302300E1009730E0001330F0
:1035C000DB008930DA001930D500B330D400123076
:1035D000CF008530CE002E30C900D630C80026304E
:1035E000C3004030C2001130BD008430BC00163032
:1035F000B7007430B6000A302400D600FC30D50085
:103600001F30D0001D30CF001030CA000030C9007C
:103610002130C4006530C3001D30BE00B830BD008D
:103620002E30B800CA30B7000930B2004230B100C5
:103630002E30AC00BE30AB0008002000B401B50154
:103640007C30A13187219B3171082200E200700893
:10365000E1000430A13187219B3171082000B300C3
:103660007008B20022006108F0006208F100F20167
:10367000F3010030F7001030F6000030F5000030A4
:10368000F4009C319D249B317308AD007208AC009E
:103690007108AB007008AA003208F0003308F1008E
:1036A000F201F3012D08F7002C08F6002B08F500B5
:1036B0002A08F400A23182229B3170082000A60063
:1036C0007108A7007208A8007308A9000A30A9367B
:1036D000A80CA70CA60C890B672B2908B100280899
:1036E000B0002708AF002608AE002F08B3002E0850
:1036F000B2007C080A3EA60000307D3DA7003308DA
:103700002702031D852B32082602031C8B2BAF31A9
:103710002E279B318F2B6430B4000030B500013070
:103720002000B4070030B53D003035026430031985
:10373000340203180800202BAE316C269B3171082F
:103740002000B8007008B7000030A3000030A200CD
:103750002330A100A530A0003708F0003808F100A0
:10376000F201F3010030F7000030F6000030F50000
:103770006430F400A23182229B3173082000A7003C
:103780007208A6007108A5007008A400A631912651
:103790009B312308B2002208B1002108B0002008A4
:1037A000AF003208F3003108F2003008F1002F08B2
:1037B000F0000030F7000030F6000230F500713004
:1037C000F400A23182229B3173082000B6007208F7
:1037D000B5007108B4007008B3000030A3000130D8
:1037E000A2008630A100A030A0002D08F0002E0815
:1037F000F100F201F3013608F7003508F60034084D
:10380000F5003308F400A23182229B3173082000B6
:10381000A7007208A6007108A5007008A400A631D0
:1038200091262D082007B9002E08213DBA003A083C
:10383000AE003908AD000800210023082000C500B3
:10384000210022082000C40045083C02031D2A2C48
:1038500044083B020318302C2100BC01BD018C2C14
:1038600044083B022100BC00200045083C3B2100ED
:10387000BD003C08F0003D08F100F201F30125080D
:103880002000BD00BE013D08BE00BD01210024088E
:1038900020003D07F4003E0803183E0AF500F6013B
:1038A000F51BF6037608F700A23182229C317008DE
:1038B0002000C0007108C1007208C2007308C30074
:1038C0000830C336C20CC10CC00C890B612C4108F6
:1038D0002100BD00200040082100BC003D08200060
:1038E000AE0021003C082000AD009B319C239C31A0
:1038F0002E082100BD0020002D082100BC003D083D
:103900002000BD003D082200D60021003C08200018
:10391000BD003D082200D700A031E3209C31043ACD
:10392000031D9B2C200064180800A531BB259C3189
:10393000A531FB250800511708002000A101F31F45
:10394000AE2CF009F109F209F309F00A0319F10AA2
:103950000319F20A0319F30AA101A10AF71FBF2CE8
:10396000F409F509F609F709F40A0319F50A031928
:10397000F60A0319F70A0130F8007808A1060030AA
:10398000A5000030A4000030A3000030A20073089E
:103990007204710470040319082DA001A00AF31B1E
:1039A000DD2C0130F035F10DF20DF30D890BD22C29
:1039B0000130F8007808A007CF2C0130A235A30D04
:1039C000A40DA50D890BDE2C73087702031DF22CC4
:1039D00072087602031DF22C71087502031DF22C89
:1039E00070087402031CFD2C7008F4027108F53B8A
:1039F0007208F63B7308F73B22140130F336F20CE1
:103A0000F10CF00C890BFE2C0130A002031DDD2C03
:103A100021080319162DA209A309A409A509A20AC0
:103A20000319A30A0319A40A0319A50A2508F30018
:103A30002408F2002308F1002208F00008007C307E
:103A4000A13187219D3171082200E2007008E10058
:103A50000430A13187219D3171082000BE0070081B
:103A6000BD00220061082000A000220062082000A2
:103A7000A100A201A3010030A7001030A600003071
:103A8000A5000030A400A63191269D312308BA007C
:103A90002208B9002108B8002008B7003808220021
:103AA000A900200037082200A80020003D08F000EF
:103AB0003E08F100F201F3013A08F7003908F60078
:103AC0003808F5003708F400A23182229D317008D1
:103AD0002000AF007108B0007208B1007308B20096
:103AE0000A30B236B10CB00CAF0C890B712D320814
:103AF000B6003108B5003008B4002F08B300340810
:103B0000BE003308BD000C302200290280300319AA
:103B100028020318B22D80302000AF000C30B00016
:103B20002200280820002F02BB00220029082000C4
:103B3000303BBC0000303C02113003193B02031C37
:103B4000B22D1130F0000030F1003C08F3003B08CA
:103B5000F2008731CC2720003D087007BD003E08E9
:103B6000713DBE0020003E08AE003D08AD000800DB
:103B7000492E2100CF112000641C651D5B2EE31D22
:103B8000E41B5B2E0D1F462E2100CF152200BA012B
:103B9000BA0A462E20000D1FDD2D0230C80048084D
:103BA0002200BA0064302000C80048082100C1008B
:103BB0000E30883100209D31E12D2200BA01210014
:103BC0004F112100CF145B2E20000D1B8D1DEE2DFB
:103BD0000730C80048082200DB00082E0D1F152EF4
:103BE0005B30210041020318012E33304102031CD7
:103BF000012E20008D19012E0630C8004808220031
:103C0000DB0001302100C1023330410203185B2E7A
:103C100028302000C80048082200B90004302000E5
:103C2000C80048082200BA005B2E5B302100410228
:103C3000031C2F2E05302000C80048082200DB009E
:103C4000BA0121004F11D030F8000730F900A0313F
:103C5000152079082000C7007808C6000800220057
:103C6000BA015B2E20000D1F442E01302200B90244
:103C7000031D5B2E28302000C80048082200B90030
:103C8000AE31FA269D315B2E2200BA0121004F1180
:103C90005B2E22003A08003A0319B92D013A0319A4
:103CA000CA2D033A0319E42D013A03195B2E073A92
:103CB0000319322E5B2E6430F8000030F900A03179
:103CC000152079082000C7007808C60008002000E9
:103CD000BB00BB1B7A2EA52E2100C6010230742E1C
:103CE0002100C501501104304406031D852E20001B
:103CF000E513852E3B08823A03196C2E063A031908
:103D0000702E013A0319852E1C2F2000641E9B2E55
:103D10007F303B05BA003A0821004406031D9B2E64
:103D200020003B08BA003A082100C40020006412B9
:103D300021005013080021004508031D0800460813
:103D4000031D08002000E5130800641A0800052F71
:103D5000023021004606031DB62E82308831002035
:103D60009E3120003B08A031322008002000E517DA
:103D70000130BA003A082100C60708001E302100B1
:103D80004506031DCE2E8330883100209E31200051
:103D90003B08A03132202100501508002000E51713
:103DA0000130BA003A082100C50708008630883182
:103DB00000209E3120003B08A031322008008430D2
:103DC000883100209E3120003B08A03132202100A4
:103DD000501708008830883100209E312100D0170C
:103DE00020003B08A03132200800893088310020B3
:103DF0009E312000E6170430BA003A082200DB00AA
:103E000020003B08A031322008003B08023A031989
:103E1000A82E063A0319BE2E013A03191C2F033AA5
:103E20000319D62E013A0319DF2E0F3A0319EA2E91
:103E3000013A0319F52E1C2F0800E22F2000E61F7F
:103E4000242F2200B401B40A21004F1C292F023074
:103E50003A2F2000641E302F2200B401B40AF42F40
:103E6000661C342F03303B2F093022005B06031DF4
:103E7000F42F04302000C80048082200B400F42FBA
:103E80002000641E5C2F0130C80048082200B507DE
:103E90002000E61F502F0130C80048082200B50757
:103EA0003030F8007530F900A03115207908200075
:103EB000C7007808C60008002200B401F42F2000D3
:103EC000E61C661A6E2F0130C80048082200B507AC
:103ED00001302000C80048082200B5072200B401C4
:103EE000502F2000631E641A5C2F2100531E872F61
:103EF000AE317E269F316030F800EA30F900A03103
:103F0000152079082000C7007808C60008002000A6
:103F1000661C5C2F2100531C9D2F2000E61C932F54
:103F20002100D21D992F01302000C800480822002E
:103F3000B5072200E501E50AB12F2000E61CA32FFA
:103F40002100D21DB12FAE31FA269F31013022005F
:103F5000E502031DB12F0F302000C80048082200E1
:103F6000E500AE317E269F312200B4017B2F32085E
:103F7000031DF42F20008D134E302000C800EB30BD
:103F8000890BC02FC80BC02F20008D1703302000D5
:103F9000C9000830C8007730890BCC2FC80BCC2F54
:103FA000C90BCC2F20008D134E302000C800EB3001
:103FB000890BD82FC80BD82F20008D172200B201F3
:103FC000B20AF42F22003408003A03191E2F013AD6
:103FD0000319402F033A03195F2F013A0319712F78
:103FE000073A0319B72FF42F6430F8000030F900B6
:103FF000A031152079082000C7007808C600080005
:104002002000640803190828A23155220800630819
:10401200031D052821004F08031D0528AE31442643
:10402200A031A33112230800790822002502031DC2
:104032001C287808240203182D282508F1002408DA
:10404200F0007908F3007808F2008731CC27710874
:10405200F9007008F80008000130F8000030F9009B
:104062000800B9003908B60036082100C400200053
:1040720064166312210044082000B600B701360816
:10408200A7003708A8001030B8003808A900463049
:10409200A131D321A031AE315E260800A030A1317A
:1040A2000221A031FD007D082100AF00A030F900FF
:1040B2000030FA00FB011030A5310025A031A030FC
:1040C200F9000030FA001030FD007D08FB001030CE
:1040D200A53100250800F200F401F501F60172088D
:1040E2007507AE319C26A031F1007108F300730808
:1040F200F1007108F4070130F5070030F63D003099
:1041020076020F3003197502031C70287408080028
:104112002000E41B08007108F4007008F30023007B
:104122009E1C9028730884007408850000089A0079
:104132000130F3070030F43D9E1C9D287308840073
:104142007408850012000319080093280130220028
:10415200C802031D08000530F0007008C8002100E5
:10416200521EC128521220000C1301302100EE020F
:10417200031D0800CF131E30F0007008EE00080087
:10418200521620000C170800F200A030F10071084E
:10419200F300F40172087407AE319C26A031F100DD
:1041A200730886008701710881000130F1007108EF
:1041B200F3070130F1007108F40710307406031997
:1041C2000800CB28043021004B06031DEA280330E7
:1041D200080006304B06031DF028053008002008B1
:1041E200031DF528003008002003031DFA280130C2
:1041F200080007302006031D0029023008000430A1
:104202000800F300F201F401F5017308860087014A
:104212000108F0007008F1000130F0007008F307A7
:104222007108F0007008F2070130F4070030F53D24
:10423200003075020F3003197402031C062972083C
:104242000800640020008D1316192529640014301B
:10425200F0007008F1002000161D2C299501161996
:1042620030296430150203183B2964001430F00031
:104272007008F1000130F1027108031D2C292000A1
:104282008D170800F0002100D31D542901302200AF
:10429200D202031D4E292100D31101302200B000A9
:1042A2000030B1000800ED1F5C293C302200B00054
:1042B2000030B1000800700303190800D03022005A
:1042C200B0000230B10008002100D21AD01A7B29B6
:1042D2002000E41B7B292100D21220008D148230A1
:1042E2002000C800DD30890B7429C80B7429003204
:1042F20020008D106430F8000030F900A031152044
:1043020079082000C7007808C6000800F20064009F
:104312007C307206031D9529813022009700171FF9
:1043220090295030890B932972087C3921009D0015
:10433200D0309E001D144230890B9D29003221008D
:104342009D149D18A2291D102200970121001C080E
:10435200F1001B08F0000800280829072000BE0011
:104362003E08BF0021002A0820003F060319D02979
:10437200A231B122A131003A031DCC292100280823
:1043820029072000BE003E08BF0021002A082000A5
:104392003F060319D02908309E316726A131A33187
:1043A20075230800B50020303506031DDE292808D4
:1043B200F9002708F8002C30EB293508AA002A0852
:1043C200AC003A30AA002A08AD002808F9002708F4
:1043D200F8002E30AA002A08FA002908AB002B08A0
:1043E200FB0099314421A1312C30F0000030F10062
:1043F200A03189200800700871040319232AF501ED
:10440200F50AF11B0E2A0130F035F10D890B052A50
:104412000130F4007408F507022A71087302031DC3
:10442200142A70087202031C1A2A7008F202710818
:10443200F33B0130F136F00C890B1B2A0130F502F7
:10444200031D0E2A7308F1007208F0000800FB0039
:104452007B08F9000430F936890B2C2A79080F39C8
:10446200FA007A08FC000A307C0203183A2A30303B
:104472003B2A3730F9007908FC077C08AF3107275F
:10448200A2317B080F39F9007908FC000A307C025E
:1044920003184D2A30304E2A3730F9007908FC07CC
:1044A2007C08AF3107270800210053180800531475
:1044B2001110200011100B138B168B172100C20153
:1044C2000A302200A4000030A5000230A231E1220D
:1044D200A2310030A231E122A2310630A7314027B9
:1044E200A2310930A7314027A2310830A731402735
:1044F200A2310A30A7314027A2310330A731402729
:1045020008000030FB000030FA000030F9000030F3
:10451200F800701C942A7408F8077508F93D7608AB
:10452200FA3D7708FB3D0130F435F50DF60DF70D38
:10453200890B952A0130F336F20CF10CF00C890B41
:104542009C2A7308720471047004031D8A2A7B0872
:10455200F3007A08F2007908F1007808F000080008
:104562000F30AE319C26A2312000BC000030A031B9
:104572006C20A23120003C060319DA2A1F30AE312A
:104582009C26A2312000BC001030A0316C20A23148
:1045920020003C060319D22A08309E3167260130DA
:1045A20008001030A031C520A231A0314F20A23125
:1045B200DD2A0030A031C5202100D01300300800D0
:1045C200F4007408F000F101F035F10D5630700777
:1045D2008400A830713D8500003FF200013FF300E6
:1045E200720886007308870021003208C03F330832
:1045F200C13F7408F000F101F035F10D563070073B
:104602008400A830713D8500003FF200013FF300B5
:10461200720886007308870042310030C03FC13FF4
:1046220008002100531C080053101114200011101F
:104632000B178B128B132100C201C20AE830220031
:10464200A4000330A50020000C11210050100830F6
:104652009A312A22A33103309A312A22A331063019
:104662009A312A22A33109309A312A22A3310A30FF
:104672009A312A22A3310E309A312A22A331AE3145
:104682005226080020000C17631F502B0630F5003D
:104692003030890B4A2BF50B4A2B00325C2B02304F
:1046A200F6000430F500BA30890B552BF50B552B6B
:1046B200F60B552B00327C30A1318721A3317108D2
:1046C2002300E3007008E2000030A1318721710865
:1046D200F8007008F70020000C13220097137808E6
:1046E200F4007708F3000800AE316C26A3310E30D7
:1046F2007102C43003197002031C8A2B09309E31E7
:104702006726A33105302000BC003C082200DC00F3
:10471200962BAE316C26A3310E307102A6300319EE
:104722007002031C962B21004F14AE316C26A3316C
:104732002300220870022000BC0023002308713BE2
:104742002000BD0000303D02033003193C02031C6F
:1047520008006612080021006C082000D500D6016E
:104762005508F0005608F1000530F2000030F30061
:10477200AF31AB27A33178302000D7002330D800E7
:104782007008570786007108583D870023006408A7
:10479200C03F6508C13F01302000D5005508210007
:1047A200EC0718306C06031D080080317520A33118
:1047B2002000E31F08006A30B600B030B7008C3129
:1047C200CA24080023009D1CEB2B1D1200002300AD
:1047D2001D1608001D1DF42B1908F0007008210099
:1047E200C000C00108002000911E080091120D3087
:1047F20023001906031D072C21004008203E8600D5
:10480200023087008101C001D31708001908F000A7
:1048120021004008203E8600023087007008810097
:104822000130F0007008C00707304002031C080086
:10483200F22BF60064007108230091007608F20062
:10484200F30172089300730894008B132000121274
:10485200230015139513151555309600AA309600AE
:1048620095141511210053188B1723009518362C17
:104872000A30F2007208F4000130F402031D3D2CEC
:104882007108AE319C26A431F2007208F500333073
:10489200910076087506031D502C01300800003087
:1048A20008000C30A1318721A43171082000B0002A
:1048B2007008AF0000303002FA3003192F020318DB
:1048C2007A2C631F742C01302100EF02031D0800B3
:1048D200200063130330FD007D082100EF000A3041
:1048E2008831002008000330FD007D082100EF0020
:1048F2000800631B742C01302100EF02031D080025
:10490200200063170330FD007D082100EF000B300B
:104912008831002008002100D21CA82C2000631F2F
:10492200A02C2100D21020006316AE314C26A431F7
:104932009B2C6312A030F1000F30F2000800631AC2
:104942009A2C21004D084E0603199B2C942C200012
:10495200631B962C21004E08F300F4017408F60044
:104962004D087302F500031CF6037608803AF7003F
:1049720080307702031DBF2C05307502031C9B2C6F
:10498200200063122100D214962CA4002208FD00FC
:104992007D08A5002308FD007D08A600F42C253023
:1049A200F9000030FA002330FD007D08FB000230E0
:1049B200A531002508002530F9000030FA00253025
:1049C200FD007D08FB000230A531002508002530DE
:1049D200F9000030FA002730FD007D08FB000230AC
:1049E200A531002508002408013A0319D02C033A06
:1049F2000319DC2C013A0319E82CFF2C08002000D3
:104A0200A0002100D1102000A101200821020318DA
:104A120008007B08FC007C08F100790886007A080F
:104A220087000108A4311A24A531003A031D302D54
:104A3200AF315027A5317B08FC007C08F1007908D2
:104A420086007A0887000108A4311A24A531003AA9
:104A5200031D302DAF315027A5312100D114013073
:104A6200F9070030FA3D0130FC007C08FB070130F9
:104A7200FC007C082000A107062DFA007A08F2004B
:104A8200F301F235F30D563072078400A830733DFE
:104A92008500003FF400013FF500740886007508A8
:104AA20087004231403FF800413FF90021003208BF
:104AB200F8023308F93B7A08F200F301F235F30DFC
:104AC200563072078400A830733D8500003FF40021
:104AD200013FF5007408860075088700403FF60024
:104AE200413FF7007608F8077708F93D7908F100A9
:104AF2007808F00008002100200821072000BD00EE
:104B0200BE01BE0D3D0A3E040319AE2DA231B122F3
:104B1200A531003A031D9D2D210020082107200008
:104B2200BD00BE01BE0D3D0A3E040319AE2D083084
:104B32009E316726A531AE2D08309E316726A531FC
:104B4200AE2D200065150800200063150800200026
:104B5200E31508002000E314080021002008013AB0
:104B62000319A52D023A0319A22D043A0319A82DFF
:104B7200AB2D0800A031E320A531043A031DF52D29
:104B82002000E51E6418F52D631AF52D0030210072
:104B92003D020B3003193C02031CF52D2000E51DDC
:104BA200F12D210051130130F0007008C9070130C6
:104BB2003D02913003193C02031CE82D1F304902CB
:104BC200031C08002000E5112100511708001F30C6
:104BD2004902031C08002000E511210051170800BA
:104BE2002100C901511708002000E51521005117C5
:104BF200C9010800511F080000303D020B300319A3
:104C02003C02031C2E2E2000651C2E2E21003D0886
:104C120020006202031D112E21003C0820006102C7
:104C22000318262E21003D082000E20021003C0846
:104C32002000E1006208AC002C082200D80020000D
:104C42006108AC002C082200D90021003D08FD00BB
:104C52003C08FC009831DA20A531003021003D02E9
:104C6200653003193C02031C08002000651C080083
:104C72002100511F08006D1A08006D1608007C2ED5
:104C82002000631C852E631E64184B2E8F308831E2
:104C92000020A631200063160230BE003E0822002A
:104CA200D400AE314C26A631852E20006318642E26
:104CB200631E5F2E8E3088310020A63120006312E1
:104CC2002200D401852EA4318C24A6317208200042
:104CD200C0007108BF003F0840040319852E400838
:104CE200F9003F08F800A031152079082000C7001C
:104CF2007808C600080022005408003A0319412E21
:104D0200023A0319562E852E6430F8000030F9005D
:104D1200A031152079082000C7007808C6000800D5
:104D22000030AB000030AA000030A9000030A8001B
:104D320023082204210420040319DA2EAC01AC0A50
:104D4200A31BAF2E0130A035A10DA20DA30D890B1F
:104D5200A42E0130FC007C08AC07A12E0130A8353E
:104D6200A90DAA0DAB0D890BB02E23082702031D36
:104D7200C42E22082602031DC42E21082502031D6B
:104D8200C42E20082402031CCF2E2008A4022108CE
:104D9200A53B2208A63B2308A73B28140130A336D3
:104DA200A20CA10CA00C890BD02E0130AC02031D69
:104DB200AF2E2B08A3002A08A2002908A100280868
:104DC200A0000800A001A101A2017608F100750867
:104DD200F000AF317C27A6317008FF3EF70077085C
:104DE200A3007608F8007508F70023087707840007
:104DF20078080318780A85000008F9004130790222
:104E0200031C192F7608F8007508F70023087707A6
:104E1200840078080318780A85000008C93EF90062
:104E2200FA01220A162FF935FA0D890B142F2E2FAB
:104E32007608F8007508F7002308770784007808D9
:104E42000318780A85000008D03EF900FA01220A08
:104E52002C2FF935FA0D890B2A2F7908A0077A0829
:104E6200A13D0430F7007708A2070130A302230A0C
:104E7200031DF22E2108F6002008F5000800FD00AF
:104E82007D082000A000A101A035A10D5630200709
:104E92008400A830213D8500003FA200013FA3000D
:104EA20022088600230887004231160001040319F4
:104EB20008007D08A5313E25A7317108FC00700865
:104EC200FB007C08F1007B08F0006430F200003047
:104ED200F300AF31AB27A7317D082000A000A1016C
:104EE200A035A10D563020078400A830213D850051
:104EF200003FA200013FA30022088600230887008A
:104F020042317008C03F7108C13F7D08A000A10175
:104F1200A035A10D563020078400A830213D850020
:104F2200003FA200013FA300220886002308870059
:104F320021003208C03F3308C13F0800813095008C
:104F42007A3099000B3023008C000B3021008C004A
:104F520020008C010C1523008D01483021008D00AA
:104F6200803020008D00833021008E0020008E01D1
:104F72008D3098009901A1312221A73121005314CB
:104F8200AF319327A731E515A5317C25A7316519E6
:104F9200CC2F21005315200064159A31A222A7318B
:104FA20021005310A2315522A731A0310120A7318F
:104FB2004830270094008B150730AE319C26A7316C
:104FC2002000BF00C0013F082200AE0020004008C0
:104FD2002200AF000630AE319C262000BF00C00187
:104FE20022002E082000C200C1013F084104220015
:104FF200AE002000400842042200AF0008006B34DB
:10500200E3347F34EF34EB34CB347B34CB347F3432
:10501200C7347B34D3346B34D3347B34EF346B34C6
:10502200C3347B34C3346B34C7346F34D334EB347E
:10503200F3346F34CB34EB34D334EB34D734EF3432
:10504200F3346F34DF34EF34DF34FF34FF34FF34B2
:10505200DF346F34C734EB34C734EF34DB346F34AE
:10506200DB340034013402340334053404340634AE
:105072000734083409340A340B340C340D340E343A
:105082000F340034003408340634033409340E3447
:105092000A34003400340034003400340034003464
:1050A20000340034003400340034DC340134D634AB
:1050B2000134D0340134CA340134C4340134BE342E
:1050C2000134B8340134B2340134513402344B3433
:1050D2000234453402343F34023439340234333436
:0A50E20002342D3402342734023466
:105C7A006A080800D217080022003A080800200023
:105C8A008D1008002100C801AE31922608002100BB
:105C9A004E08F0007008CD0008002200B50100305F
:105CAA00A231E1220800E134003400340034023425
:105CBA0000346130F000B030F100A03189200800D2
:105CCA00F1007108F00070082200EA0008000830AC
:105CDA00A03E86008701403FF000413FF1000800E6
:105CEA00E134003401343C343C346434013401344A
:105CFA00013420006415210052172200A201A301D9
:105D0A002100531508002400D701D8012300EA0115
:105D1A00EB012200EE01EF010800333023009B0063
:105D2A009D171D162100C8144815C8150800F00053
:105D3A007008230091001513951315143330910040
:105D4A00130808002100531658302300B00002300F
:105D5A00B1000A30A231E1220800A030A1310221AB
:105D6A00AE3121002F060319BC2E00300800013085
:105D7A0008004830F800EE30F900A0311520790803
:105D8A002000C7007808C60008004830F800EE3046
:105D9A00F900A031152079082000C7007808C6004C
:105DAA0008006030F800EA30F900A03115207908BF
:105DBA002000C7007808C60008006400800101318D
:105DCA000130FE020030FF3B7F087E0403190034D5
:105DDA00E32EFE0012001E000130FE020030FF3BDF
:105DEA007F087E0403190034EF2E20008D139C30A7
:105DFA00F000D730890BFF2EF00BFF2E0000200099
:105E0A008D170800F6007608F5007508F700F80106
:105E1A007730F0000030F100A0318920080020001E
:105E2A00E5103C30F00070082100C7000230F00095
:105E3A0070082200CD000800210050180800200038
:105E4A000C15210050142000E31723009E161E157E
:105E5A0008008C165030890B302F20008C12E43049
:105E6A0000320032890B352F00320032080001302F
:105E7A002100EE02031D0800CF170630F00070085B
:105E8A00EE000530F00070082200C80020000C1750
:105E9A002100521608003C30AE319C26AF31F70083
:105EAA007708F800780A031908000130F700770824
:105EBA00F8073C30F7007708F1007808A4311A2473
:105ECA0008002100161D752FAE318826AF3121003A
:105EDA00ED012000E101E20198311220AF31762F65
:105EEA0053152100161496159613161308007108F7
:105EFA00F4007008F3007308840074088500120027
:105F0A0003198C2F0130F3070030F43D802F7008FD
:105F1A007302F0007108743BF100080020001810A9
:105F2A002100531CA02F1110200011100B13FE305A
:105F3A009700B830A82F1114200011100B178B13DB
:105F4A00803097000030960018140800F401F5011B
:105F5A00701CB32F7208F4077308F53D0130F2354F
:105F6A00F30D890BB42F0130F136F00C890BB92FE0
:105F7A0070087104031DAD2F7508F1007408F00054
:105F8A000800FB007908FA007A08F1007B08A431BE
:105F9A001A24AF31003A031D0800AF315027AF3140
:105FAA007908FA007A08F1007B08A4311A24AF3183
:105FBA00003A031D0800AF3150270800F400F5012C
:105FCA0074087502031808007108AE319C26AF31B7
:105FDA00F300720886008701730881000130F3001C
:105FEA007308F5070130F3007308F1070130F30075
:105FFA007308F207E52F3034313432343334343411
:10600A00353436343734383439344134423443340D
:10601A0044344534463400344C3469346734683483
:10602A0074342034533474347234753463347434AD
:10603A007534723465342034003464340034643482
:10604A000034883413340434003402344E344C346B
:10605A0020345434483420343D342034003453340A
:10606A0069346734203447346F346F34643400340D
:10607A0041346C34673420344F3446344634003467
:10608A0053346934673420344C346F3477340034F1
:10609A0041346C34673420344F344E34003448343D
:1060AA003A3455345534003410340034063400344C
:1060BA003A342034203400340D343E3400342B3446
:0E60CA003A3400343034783400344C3400342E
:020000040001F9
:04000E00AC1BFC3EED
:10E000000000FF0000000000000001000000000010
:10E010000000000000000000000000000000000000
:10E020000000FF00000000000000010000000000F0
:10E0300000000000000000000000000000000000E0
:10E0400000000000000000000000000000000000D0
:10E0500000000000000000000000000001000000BF
:10E0600000000000000000000000000000000000B0
:10E0700000000000000000000000E0004000A000E0
:10E08000FF00FF00FF00FF00FF00FF00FF00FF0098
:10E09000FF00FF00FF00FF00FF00FF00FF00FF0088
:10E0A000FF00FF00FF00FF00FF00FF00FF00FF0078
:10E0B000FF00FF00FF00FF00FF00FF00FF00FF0068
:10E0C000FF00FF00FF00FF00FF00FF00FF00FF0058
:10E0D000FF00FF00FF00FF00FF00FF00FF00FF0048
:10E0E000FF00FF00FF00FF00FF00FF00FF00FF0038
:10E0F000FF00FF00FF00FF00FF00FF00FF00FF0028
:10E10000FF00FF00FF00FF00FF00FF00FF00FF0017
:10E11000FF00FF00FF00FF00FF00FF00FF00FF0007
:10E12000FF00FF00FF00FF00FF00FF00FF00FF00F7
:10E13000FF00FF00FF00FF00FF00FF00FF00FF00E7
:10E14000FF00FF00FF00FF00FF00FF00FF00FF00D7
:10E15000FF00FF00FF00FF00FF00FF00FF00FF00C7
:10E16000FF00FF00FF00FF00FF00FF00FF00FF00B7
:10E17000FF00FF00FF00FF00FF00FF00FF00FF00A7
:10E18000FF00FF00FF00FF00FF00FF00FF00FF0097
:10E19000FF00FF00FF00FF00FF00FF00FF00FF0087
:10E1A000FF00FF00FF00FF00FF00FF00FF00FF0077
:10E1B000FF00FF00FF00FF00FF00FF00FF00FF0067
:10E1C000FF00FF00FF00FF00FF00FF00FF00FF0057
:10E1D000FF00FF00FF00FF00FF00FF00FF00FF0047
:10E1E000FF00FF00FF00FF00FF00FF00FF00FF0037
:10E1F000FF00FF00FF00FF00FF00FF00FF00FF0027
:00000001FF
